:020000040000FA
:06000000020A880201D093
:03002B00021C981C
:0300330002045B69
:030043000208F6BA
:03004B0002079415
:0300530002012384
:03005B000207A3F6
:030063000207AFE2
:03006B0002048309
:03007B000204413B
:1000830002016C0101FF05030103000300030003E8
:10009300000300030003000300030005000A00142B
:1000A3000028004F009E00000087108710871087EC
:1000B30010430F3D0F8710531E000000002D1D003D
:1000C3000000000C0000000C003F065B4F666D7DD6
:1000D300077F6F00397779010000F51100000000F8
:1000E300000091120000000000000000A804FF01BE
:1000F300010100020D000000530DE80364006400D9
:10010300B8010202000800000502071E02051E0ACC
:1001130003B80B020103320002FFFF0202020612C0
:10012300C0E074F21203E2E5A7F8E5A1F958541010
:10013300600812189753A1EF802AE8A2E0C0D0E923
:10014300A2E092F01209C5158182F05017906198D0
:10015300E0F890105BE0C398A2D265D0335002E878
:10016300F053A1FE7F010204F2C0E074F21203E235
:100173009061A4E0F8759B00E591585408600875F8
:1001830091F71218D9802AE5915854106008759197
:10019300EF1218DF801BE8A2E0C0D0E591A2E09245
:1001A300F01209C5158182F05007E0C2E0F0121980
:1001B300FF9061A3E0F8E5E9585404600E1219D5E5
:1001C30075E9FB906193E0A2E640F28097C0E0748A
:1001D300F21203E29061A5E0F8E5BF58540460060B
:1001E30053BFFB121A17020167C3E498F8E499F9A5
:1001F30012022D8026C3E49AFAE49BFBE920E7E987
:1002030012022DE498F8E499F922C3E498F8E499EA
:10021300F912022DE498F8E499F9C3E49AFAE49BFD
:10022300FB22EB20E7CFE920E7E0B90010BB000891
:10023300E88AF084F8AAF022E4FBC8FA22EB7022E1
:100243007B10C833C8C933C9335007C39AC3DBF221
:1002530080069A50012ADBEAC833F4C8C933F4C9CB
:10026300FA2275F008E4C833C8C933C933C99AC937
:100273009B5004C92AC93BD5F0ECFBC833F4C8E44E
:10028300C9FA22080808EAC0E0EBC0E086F0E7A458
:10029300FA180986F0E7A42AFA180986F0E7A42ACF
:1002A300FA180986F0E7A42AFA1986F0E7A4FBE511
:1002B300F02AFA190886F0E7A42BFBE5F03AFA19BD
:1002C3000886F0E7A42BFBE5F03AFA18180986F044
:1002D300E7A4C5F02BFBE43AFA1908E7C5F0C6A476
:1002E30026F6E5F03BFBE43AFA1886F0E7A4F6E5D8
:1002F300F00826F6E43B08F6E43A08F6D0E0FBD033
:10030300E0FA22E4CFC0E0E4CEC0E0E4CDC0E0E414
:10031300CCC0E075F020C3E633F608E633F608E612
:1003230033F608E633F6181818EC33FCED33FDEE1C
:1003330033FEEF33FFC3EC9709ED9709EE9709EF0F
:1003430097191919400FFFEC97FC09ED97FD09EE7A
:1003530097FE191906D5F0BEECF709EDF709EEF78C
:1003630009EFF7191919D0E0FCD0E0FDD0E0FED079
:10037300E0FF222518C582C0E0E51934FFC583C01C
:10038300E0E518C3958224F810AF088583198582A8
:10039300188008858319858218D2AFCEF0A3E52093
:1003A300F0A37808E608F0A3DEFAEFF0A3E58124D2
:1003B300FAF8E608F0A3E608F0A3E608F0A30808B5
:1003C300E608F0A3E608F0A315811581D0E0FED07E
:1003D300E0F8158115811581E8C0E0EEC0E022C088
:1003E300D02518C582C0E0E51934FFC583C0E0E518
:1003F30018C3958224F310AF08858319858218806A
:1004030008858319858218D2AFC8F0A3E9F0A3EA5F
:10041300F0A3EBF0A37908E709F0A3D8FAECF0A373
:10042300EDF0A3EEF0A3EFF0A3D0E0F0A3D0E0F063
:10043300A3D0E0F0A3E520F0A3E5F0F0A322C0E011
:1004430074F21203E2E58AA2E15003120472758A80
:1004530000C2EB7F010204F2C0E074F21203E2E592
:100463008BA2E05003120472758B00C2E880E47C17
:10047300197D007A027B00900CE1E0F912145322FB
:10048300C0E074F21203E2E589A2E550031204729C
:10049300758900C2C580BC120AEAB900030204DCF4
:1004A300E4900301786C79128002F0A3D8FCD9FAA6
:1004B30090146CAA82AB83900086789E7901801594
:1004C300E493A3AC82AD838A828B83F0A3AA82AB2D
:1004D300838C828D83D8E9D9E77582987583E97413
:1004E3000212059675829375831C74001205968516
:1004F3001983851882E0C0E0A3E0F9A3E0FAA3E042
:10050300FBA37808E0F608A3DFFAE0FCA3E0FDA371
:10051300E0FEA3E0FFA3E0C0E0A3E0C0E0A3E0F5BA
:10052300D0A3E0F520A3E0A3F5F010AF088583196D
:100533008582188008858319858218D2AFD082D02E
:1005430083D0E0F8D0E032D083D082ECC0E0EDC0BD
:10055300E0E493A3FCE493A3FDED4C600D12066C61
:10056300EC24FFFCED34FFFD80EFE493A3FCE49364
:10057300A3FDED4C600D12073FEC24FFFCED34FFAF
:10058300FD80EFD0E0FDD0E0FCE493A3C0E0E49372
:10059300C0E022C0F0F5F0E59F5407C0E0E59F54AA
:1005A300F845F0D0F0F59FE473859FF053F0F8D051
:1005B300E045F0F59F22D083D082E59F5407C0E049
:1005C300E493C0E0740193C0E07402935407C0F055
:1005D300F5F0E59F54F845F0D0F0F59F22D083D095
:1005E30082E9C0E0E493A3C386F0C5F095F0F9086F
:1005F300E493A386F0C5F095F0700BE493A3C3993D
:100603004005E9048002A3E475F002A42582F58283
:10061300E5F03583F583D0E0F9E493A3C0E0E493F8
:10062300C0E022851983851882E0A3FEE0A3F520AC
:100633007808E0A3F608DFFAE0A3FFE0A3C0E0E058
:10064300A3C0E0E0A3C0E0E0A3C0E0E0A3C0E010EB
:10065300AF088582188583198008858218858319D8
:10066300D2AFD083D0820205ACC0E0C3E493960836
:100673007401939618400FE493667008087401930D
:10068300661870007019A3A3C3E4939608740193CA
:100693009618A3A3400DD0E0D0E0D0E0020586A3D6
:1006A300A3A3A3A3A3D0E022D083D082C5F0E49375
:1006B300A3C5F0C395F0F5F0E493A3C395F040050B
:1006C300E5F0048001E475F002A42582F582E5F0EB
:1006D3003583F583E493A3C0E0E493C0E02274047C
:1006E300800474028000CCC0E0EDC0E0E518C39C38
:1006F300CCAD1950011D10AF068C188D1980068CD6
:10070300188D19D2AF1207DDD0E0FDD0E0FC2274C2
:10071300028000CCC0E0EDC0E0E518C39CCCAD196D
:1007230050011D10AF068C188D1980068C188D1979
:10073300D2AF1207BBD0E0FDD0E0FC22C0E0C0F096
:1007430088F0E4936670080874019366187000A833
:10075300F0A3A3700BD0F0D0E0D0E0D0E002058688
:10076300A3A3D0F0D0E022D083D082CCC0E0E49326
:10077300A3600612083C1470FAE493A360061209FE
:100783000D1470FAD0E0FCE493A3C0E0E493C0E05E
:1007930022C0E074F21203E21217D77F010204F2BF
:1007A300C0E074F21203E21217DD80EFC0E074F2CE
:1007B3001203E21217E380E3CAC0E0E493A3C58205
:1007C300CCC582C583CDC583F0A3C582CCC582C504
:1007D30083CDC583DAE5D0E0CA22CAC0E0E0A3C571
:1007E30082CCC582C583CDC583F0A3C582CCC58227
:1007F300C583CDC583DAE6D0E0CA227009080808AC
:10080300226016181818C6C333C608C633C608C6EE
:1008130033C608C633C6D5E0EA22C008C3E096F55E
:100823000808A3E096420808A3E096420808A3E05C
:100833009645087001D3D00822C0E0E493A3D39C6B
:100843005010E493A3C39C400AD0E0D0E0D0E00270
:100853000787A3A3A3D0E0222518F58210AF08F5DC
:1008630018400215198008F51840021519D2AF85F2
:100873001983227404800A7403800674028002744C
:1008830001C0E0F40412085BD0E0120AC522BB01E8
:1008930002E722C082C08389828A83BB0003E0808F
:1008A30002E493D083D08222C0D0251810AF08F57C
:1008B30018500205198008F51850020519D2AFD057
:1008C300D0226016080808C6C313C618C613C61874
:1008D300C613C618C613C6D5E0EA22C3E0C696F609
:1008E30008A3E0C696F608A3E0C696F608A3E0C6FA
:1008F30096F622C0E074F21203E2C2C0E5D1A2E48C
:10090300500312180D7F010204F2C0E0E493A36CBC
:100913007009D0E0D0E0D0E0020787A3A3D0E022A3
:10092300251810AF08F518400215198008F518406E
:10093300021519D2AF22C3E09608A3E09608A3E0FC
:100943009608A3E096A2D265D03322E06670100821
:10095300A3E066700A08A3E066700408A3E06622B9
:10096300C3E7960809E7960809E7960809E796A2F8
:10097300D265D03322C3E096F008A3E096F008A333
:10098300E096F008A3E096F022E026F008A3E03614
:10099300F008A3E036F008A3E036F022E627F608D5
:1009A30009E637F60809E637F60809E637F622E0DE
:1009B30026F608A3E036F608A3E036F608A3E036E9
:1009C300F622C0E0E8C0E0E58124FCF8E6A2E7D027
:1009D300E0F8D0E022700422600D18C6C333C608C5
:1009E300C633C6D5E0F41822E657F60809E657F6EB
:1009F3000809E657F60809E657F622E056F608A373
:100A0300E056F608A3E056F608A3E056F622E056B1
:100A1300F008A3E056F008A3E056F008A3E056F070
:100A230022E647F60809E647F60809E647F6080905
:100A3300E647F622E4C396F608E496F608E496F64B
:100A430008E496F622C3E7960809E7960809E796AD
:100A53000809E79622C6F4C608C6F4C608C6F4C653
:100A630008C6F4C622600D08C6A2E713C618C6134B
:100A7300C6D5E0F322C3E09608A3E09608A3E09668
:100A830008A3E0962275D000758140751801751989
:100A9300030002049A600C08C6C313C618C613C623
:100AA300D5E0F422E6F008A3E6F008A3E6F008A3F5
:100AB300E6F022E0F608A3E0F608A3E0F608A3E0D8
:100AC300F622CAC0E0E6F0A308DAFAD0E0FA22E0A0
:100AD300FAA3E0FBA3E0FCA3E0FD22EAF0A3EBF022
:100AE300A3ECF0A3EDF022E5C754F84401F5C77970
:100AF30001222518F582E43519F583221205B91F61
:100B0300AD011205B9B1AD011205B984AE011205EB
:100B1300B9A2AE011205B9D2AE011205B9E4AE0114
:100B23001205B903AF011205B974AF011205B9FE7D
:100B3300AF011205B9D0B0011205B940B1011205D8
:100B4300B95BB1011205B97FB1011205B9BAB1019F
:100B53001205B9FAB1011205B947B2011205B91F5D
:100B6300B3011205B9C2B3011205B952B40112059A
:100B7300B965B5011205B9E3B5011205B9F5B501BA
:100B83001205B9FFB5011205B9E7B6011205B95E41
:100B9300B7011205B99BB7011205B9FAB7011205DE
:100BA300B94AB9011205B966B9011205B9C8B90143
:100BB3001205B962BA011205B9A9BA011205B944FD
:100BC300BB011205B9F1BB011205B92FBC01120516
:100BD300B99FBC011205B9EABC011205B923BD01D5
:100BE3001205B951BE011205B982BF011205B9E15F
:100BF300BF011205B92AC0011205B952C00112057D
:100C0300B9D5C0011205B953C1011205B9C8C10153
:100C13001205B9D9C1011205B94FC2011205B901B3
:100C2300C3011205B943C3011205B9D9C3011205A2
:100C3300B920C4011205B969C4011205B9D9C501A6
:100C43001205B9A7C7011205B98BC8011205B985E9
:100C5300CA011205B98FCA011205B999CA01120551
:100C6300B9A3CA011205B9ADCA011205B9B7CA01C0
:100C73001205B9C1CA011205B9E2CA011205B906C2
:100C8300CB011205B92ACB011205B987CB01120595
:100C9300B9D6CB011205B9F4CB011205B964CC0165
:100CA3001205B9A1CC011205B9EFCC011205B96146
:100CB300CD011205B99ACF011205B914D00112055D
:100CC300B961D2011205B9BDD2011205B9E2D2014F
:100CD3001205B90CD4011205B94BD4011205B9910F
:100CE300D4011205B96FD5011205B9C9D501120591
:100CF300B91BD6011205B99FD6011205B94C2000C4
:100D03001205B99820001205B97622001205B9B46C
:100D130022001205B90023001205B9A5230012050C
:100D2300B90B24001205B95624001205B97A25001F
:100D33001205B99A26001205B9D129001205B94E38
:100D43002A001205B9452B001205B9EA2B0012053A
:100D5300B9002D001205B92A30001205B9D03000B0
:100D63001205B90631001205B9DA31001205B9715D
:100D730032001205B9BB32001205B9E83200120580
:100D8300B90A33001205B91835001205B9ED35005B
:100D93001205B93A36001205B9A936001205B9573A
:100DA30037001205B98C37001205B9DA370012057E
:100DB300B90F38001205B96738001205B9C13800F8
:100DC3001205B94139001205B9A239001205B9213A
:100DD3003A001205B9F03B001205B9B23C00120506
:100DE300B9E63D001205B95340001205B9054100AB
:100DF3001205B99F42001205B93C43001205B98D93
:100E030043001205B94845001205B95C45001205B7
:100E1300B96945001205B99D45001205B9A94500F8
:100E23001205B9C745001205B9BD46001205B9F44C
:100E330046001205B90147001205B95E47001205C5
:100E4300B95F48001205B94549001205B9DE4900EA
:100E53001205B9554A001205B96C4A001205B9A525
:100E63004A001205B9C34A001205B9074B0012051F
:100E7300B9284B001205B9104C001205B9744C0087
:100E83001205B9E64C001205B9EB4D001205B9F491
:100E93004E001205B95F4F001205B90D500012053F
:100EA300B93350001205B91C51001205B95F510046
:100EB3001205B9CE51001205B94452001205B98189
:100EC30052001205B9CC52001205B9F352001205B3
:100ED300B97853001205B90A55001205B9775500C0
:100EE3001205B9DD55001205B93956001205B9913D
:100EF30056001205B9CB8C031205B9168D031205E2
:100F0300B9F757001205B95858001205B9B8580077
:100F13001205B90959001205B92459001205B9542B
:100F230059001205B97559001205B9815900120506
:100F3300B9C25A001205B9E05A001205B9495B005B
:100F43001205B95C5B001205B9735B001205B906A3
:100F53005C001205B9055D001205B9015E001205BA
:100F6300B9835E001205B98D5E001205B9F05E000B
:100F73001205B9015F001205B9445F001205B98B70
:100F83005F001205B9C15F001205B9F75F001205D2
:100F9300B91560001205B93960001205B97A60000D
:100FA3001205B96D61001205B9B361001205B9EEFE
:100FB30061001205B94B62001205B9736200120594
:100FC300B9AC62001205B9BA62001205B91B63001D
:100FD3001205B95863001205B99A63001205B9CB1B
:100FE30063001205B9FF63001205B90A6400120514
:100FF300B92864001205B9F064001205B9FA640057
:101003001205B93965001205B94F65001205B958C3
:1010130065001205B9C265001205B9D6650012054F
:10102300B9CE66001205B9E166001205B9F666008D
:101033001205B99667001205B9FA67001205B9BD22
:1010430068001205B9C868001205B9E769001205FE
:10105300B9036A001205B95B6A001205B9926A0006
:101063001205B9AC6A001205B9EB6A001205B9069C
:101073006D001205B9706D001205B9DB6D00120524
:10108300B93270001205B94270001205B9457000FB
:101093001205B95170001205B96570001205B96DDA
:1010A30070001205B9A270001205B9507100120543
:1010B300B9C071001205B92472001205B9BD7200DE
:1010C3001205B95773001205B97E73001205B90EE4
:1010D30074001205B91A74001205B9497400120597
:1010E300B96B74001205B99274001205B9F8740053
:1010F3001205B96276001205B96576001205B9DCEE
:1011030076001205B9C877001205B9A07800120558
:10111300B92A79001205B95F7A001205B9117B006B
:101123001205B94A7B001205B97B7B001205B9840D
:101133007B001205B9707C001205B9EC7C00120526
:10114300B9797D001205B9437E001205B9C77E0047
:101153001205B9FD7E001205B9467F001205B9F3E9
:101163008D031205B9FC8D031205B9C0A502120542
:10117300B9CEA5021205B937A6021205B96FA602A8
:101183001205B9C2A6021205B95EA8021205B93E3C
:10119300AA021205B91DAD021205B949AD02120525
:1011A300B969AD021205B9C7AD021205B905AE02A0
:1011B3001205B943AE021205B989AE021205B9CFC1
:1011C3008B031205B9648E031205B98E81031205D0
:1011D300B9AC81031205B9FD81031205B94282033B
:1011E3001205B9EC82031205B915FC021205B95AAE
:1011F300FD021205B985F8011205B908F9011205B6
:10120300B912F9011205B939F9011205B94DF901FC
:101213001205B9B3F9011205B9E3F9011205B9E5EC
:10122300FA011205B9B5FB011205B915FC01120546
:10123300B95EFC011205B99BFC011205B9FEFC0164
:101243001205B92AFD011205B9B5FD011205B90F41
:10125300FE011205B9AAF8021205B9C3F802120574
:10126300B93DF9021205B9EAF9021205B912FA02F7
:101273001205B999EC021205B913ED021205B91E54
:10128300ED021205B93FED021205B9E49B02120506
:10129300B9E79B021205B9A89C021205B9D69C02B4
:1012A3001205B9319D021205B9559D021205B97592
:1012B3009D021205B9BF9D021205B9ED9D021205EB
:1012C300B91C9F021205B94B9F021205B96C9F020C
:1012D3001205B9C79F021205B98AA0021205B9AA5D
:1012E300A0021205B91FA2021205B9B7A202120584
:1012F300B9C0A3021205B929A4021205B957A40261
:101303001205B91CA5021205B951A5021205B9842B
:10131300A5021205B9C7AE021205B933A101120520
:10132300B919AF021205B987AF021205B9AAAF0204
:101333001205B94AB0021205B9F9B2021205B9028F
:10134300B3021205B94FB3021205B978B3021205FD
:10135300B9D8B3021205B96EB4021205B9A2B40228
:101363001205B9EFB4021205B949B5021205B9D194
:10137300B5021205B9CDAB011205B955B602120576
:10138300B98AB6021205B99CB6021205B9AEB60205
:101393001205B9CDB6021205B996B7021205B938CE
:1013A3008A031205B9BBF6021205B91FF70212052B
:1013B300B943F7021205B93CF8021205B9EBE7018C
:1013C3001205B9CAE8011205B906E9011205B9A364
:1013D300EA011205B9E5EA011205B999EC01120512
:1013E300B9DDEC011205B9BEED011205B94BEE01F1
:1013F3001205B9D6EE011205B92CEF011205B96C2D
:10140300EF011205B90EF1011205B997F2011205A8
:10141300B9AEF4011205B9BCF4011205B921F50105
:101423001205B96BF5011205B944F8011205B9E6C5
:10143300FF021205B9208D031205B939E302120523
:10144300B94CE3021205B9EAE3021205B925E40235
:101453001205B940E4021205B965E4021205B9AAFE
:10146300E4021205B9DBE4021205B90CE502120528
:10147300B983E6021205B9B1FD021205B91EFE02D7
:101483001205B93AFE021205B97CFE021205B98CA7
:10149300FE021205B924FF021205B92EFF0212053E
:1014A300B9DDDF021205B952E0021205B958E202B2
:1014B3001205B9F7E2021205B96190021205B9AF3C
:1014C30090021205B96091021205B9F79102120553
:1014D300B94192021205B99E92021205B9B2920263
:1014E3001205B98394021205B90095021205B92AAF
:1014F30095021205B9E196021205B9FC960212058E
:10150300B93D97021205B97997021205B9D297022C
:101513001205B9ED97021205B95098021205B9DA0E
:1015230099021205B9029A021205B92B9A02120501
:10153300B98B9A021205B9A89A021205B9AB9A029D
:101543001205B9AE9A021205B9199B021205B934F4
:101553009B021205B99A9B021205B9D59B0212058B
:10156300B94E8C031205B95A8C031205B9948C0336
:101573001205B90080021205B92B80021205B9F7D2
:1015830080021205B98081021205B9E381021205B6
:10159300B92F82021205B99E82021205B92883026D
:1015A3001205B99F83021205B9E183021205B9A19D
:1015B30087021205B96789021205B9A089021205CB
:1015C300B9428A021205B9268B021205B9168D0299
:1015D3001205B9918D021205B9C18E021205B92304
:1015E300D7011205B9E2D7011205B959D80112057D
:1015F300B968D8011205B9EDD8011205B956D90158
:101603001205B956DA011205B97FDA011205B918C4
:10161300DB011205B95BDB011205B9B8DB01120569
:10162300B9E7DC011205B9A1DD011205B906DE0136
:101633001205B9B1DF011205B969E0011205B90458
:10164300E1011205B963E1011205B9CEE101120509
:10165300B9E1E2011205B9B4E4011205B94DE5019E
:101663001205B9B7E5011205B9B5E6011205B909C5
:10167300CA021205B97BCA021205B9E4CA021205ED
:10168300B952CB021205B98ACB021205B912CC02A8
:101693001205B95BCC021205B9B8CC021205B930F8
:1016A300CD021205B935CD021205B9A7CD02120537
:1016B300B9FBF1021205B94AF2021205B903F302AA
:1016C3001205B969F3021205B9DAF3021205B9205A
:1016D300EA021205B979EA021205B9F8EB0212051A
:1016E300B9AD85031205B9E785031205B9A28603CF
:1016F3001205B963FA021205B971FA021205B908A3
:101703008F031205B9368B031205B9468B031205F5
:10171300B9648B031205B9C58B031205B91A880383
:101723001205B94188031205B9C688031205B91F0A
:1017330089031205B9DD9E031205B9598403120505
:10174300B97B84031205B9E584031205B905850342
:101753001205B94B85031205B945CE021205B95AD4
:10176300CE021205B96FCF021205B9B0CF0212052E
:10177300B9CACF021205B97BD0021205B9EFD00264
:101783001205B909D1021205B91CD1021205B92AF1
:10179300D1021205B944D1021205B95BD102120577
:1017A300B985D1021205B9D6D1021205B978DC0286
:1017B3001205B986DC021205B900DD021205B9CCA7
:1017C300DD021205B978DF021205B90183031205A0
:1017D300B93A83031205B95783031205B9B58303D5
:1017E3001205B91A84031205B9F9BF021205B966C5
:1017F300C0021205B91DC1021205B98AC102120540
:10180300B9A7C2021205B943C4021205B9A7C4029B
:101813001205B9FCC4021205B905C5021205B914B3
:10182300C5021205B927C5021205B93DC502120545
:10183300B946C5021205B959C5021205B9ACC502AC
:101843001205B9B4C7021205B9E6C7021205B908F1
:10185300C8021205B921C8021205B93AC802120515
:10186300B93CC9021205B9CAC9021205B92EFE0153
:101873001205B960FE011205B96CFE011205B99F8C
:10188300FE011205B9D0FE011205B9FEFE011205D3
:10189300B973FF011205B9A2FF011205B965EF0281
:1018A3001205B98BEF021205B9C8EF021205B9DAB6
:1018B300EF021205B9F6EF021205B964F002120540
:1018C300B96DF0021205B9CCF0021205B9F0F002BD
:1018D3001205B9AFF1021205B9BCF1021205B9CD77
:1018E300F1021205B98C7F001205B9D97F001205E8
:1018F300B950D9021205B998DA021205B9A5DA026C
:101903001205B9B8DA021205B9D7DA021205B9ED30
:10191300DA021205B901DB021205B97BDB021205FB
:10192300B911DC021205B959DC021205B969DC02EE
:101933001205B94DFF021205B971FF021205B999DB
:10194300FF021205B9C1FF021205B95DF4021205C7
:10195300B976F4021205B982F4021205B996F402BB
:101963001205B9B4F4021205B9BEF4021205B9C8DE
:10197300F4021205B9DBF4021205B92FF5021205C0
:10198300B968F5021205B997F5021205B9E5F50232
:101993001205B934F6021205B94FF6021205B95908
:1019A300F6021205B96AF6021205B9B0F60212057B
:1019B300B96B8D031205B9BFB7021205B9EBB702B4
:1019C3001205B907B8021205B91AB8021205B930DF
:1019D300B8021205B99CB8021205B9CFB8021205B4
:1019E300B92CBC021205B957BD021205B98ABD0252
:1019F3001205B9EFBD021205B9D7BE021205B9FF30
:101A0300BE021205B914BF021205B924BF021205A2
:101A1300B968BF021205B9BDBF021205B9CDBF0235
:101A23001205B9E786031205B90287031205B92B1C
:101A330087031205B94587031205B96A870312059F
:101A4300B98987031205B9A187031205B9CF8703A3
:101A53001205B9E987031205B9B38D031205B90B52
:101A6300D2021205B912D2021205B91ED30212050F
:101A7300B94ED3021205B974D3021205B9A7D30222
:101A83001205B9B9D3021205B9F3D3021205B95934
:101A9300D4021205B992D4021205B9DED40212059A
:101AA300B90BD5021205B92BD5021205B900800373
:101AB3001205B91280031205B90181031205B93861
:101AC30089031205B99789031205B9D5890312054C
:101AD300B9168A031205B990E6021205B9ACE602FB
:101AE3001205B9F7E6021205B913E7021205B94464
:101AF300E7021205B96BE7021205B94EE8021205B7
:101B0300B958E8021205B965E8021205B96CE90291
:101B13001205B980E9021205B989E9021205B98BE8
:101B2300D5021205B905D9021205B9958E0312051E
:101B3300B92E8E031205B9C28E031205B9EA8E03BC
:101B43001205B97BA0011205B9BD9E011205B9C9E1
:101B53009C011205B95A9C011205B9FF9B0112059C
:101B6300B9A09B011205B9769B011205B95C9901D5
:101B73001205B93499011205B9E898011205B9C5DE
:101B830098011205B9A897011205B95097011205DA
:101B9300B9B995011205B9B695011205B997940122
:101BA3001205B97794011205B9D093011205B953FF
:101BB30092011205B91A92011205B9EB91011205AE
:101BC300B9E891011205B97CA9011205B90CA90163
:101BD3001205B9BBA8011205B924A8011205B9174A
:101BE300A8011205B9DA91011205B9BC91011205D8
:101BF300B9A591011205B9B290011205B9D2A40198
:101C03001205B94890011205B91590011205B9BD25
:101C13008F011205B98C8F011205B916B602120590
:101C2300B97AA2011205B9998C011205B99A8B01EF
:101C33001205B9308B011205B9F08A011205B9B941
:101C43008A011205B9AD8A011205B9208A0112056C
:101C5300B96E89011205B99687011205B91085017C
:101C63001205B9DA84011205B97183011205B9208D
:101C730083011205B95882011205B9B98101120510
:101C8300B99281011205B95881011205B9D1AE0289
:101C930000000080FBC2C732E47300013636010145
:101CA300000102010001030100010401060605020F
:101CB3000000070100340801000F090401010D01B0
:101CC30000FF0E08000017020000190100FF1A01AF
:101CD30000011B0100FE1C0100081D0200001F0182
:101CE300000120010001210200002301000F240252
:101CF30000002601000127010008280200FF2A0135
:101D030000072B0102402C0100002D0100012E01D0
:101D130000012F0100FF30010B1C310800003A01C4
:101D230000083B01000F2F010000010371030103B1
:101D3300010301030103010322030203010310034F
:101D43000003000300030003000300030003420336
:101D53000003240306030003000304031203250303
:101D630023032503230304030403000300030003E5
:101D73004403000300032303000365032100350329
:101D83008103000305030003000300030302710240
:101D9300300160021102700201020202020280029B
:101DA300100261023A00410063027302720262028E
:101DB300430200021302380000020002040212026E
:101DC300000200020002000204020402370037008E
:101DD3003C024402000239000002000265020002D4
:101DE3003502810200020502820283020002010120
:101DF3007101010101011101010131010101010120
:101E03008001100161013B00140063017301720141
:101E1300620143010001130106013D013500040184
:101E2300120100010001000100010401040133015A
:101E330033013C0144013201360000010001650118
:101E430000013500810100010501820183010001C8
:101E530003007100300160001100700031022003A3
:101E63005004800010006100000014006300730040
:101E7300720062004300000013000600000000002F
:101E83000400120000000000000000000400040031
:101E9300370037003C02440000000000000000004F
:101EA300650000003500810000000500000083008C
:101EB300000036000100060000000F0000000000D3
:101EC300000000000000000003FFFF00000403FF08
:101ED300FF0000FFFF0FF4010005C404032000010D
:101EE30000000B000000000000000003010F0100D0
:101EF3001B1602008B1503009115040097150500AE
:101F03009D150600A9151100C1151400C71515006C
:101F1300BB15FFFF000003000300040008001000CE
:101F23001F003E007B00F600EC01D703AF075D0FF7
:101F3300B91E713D000003EAF5E5D5D5C5B5A595F4
:101F4300958585757565655555454535352525153E
:101F530015059D0FCD0FA30FA90FC70FBB0FB50F0E
:101F6300D30FD90FDF0FEB0FAF0F970F910F0A6F3F
:101F73000D023F0D05510D07450D0C270D0D330DBA
:101F8300FF00009C36063A703DD9404344AD4717E5
:101F93004B814EEA5100160F00000B150B02000295
:101FA300220F320000060001020304050607080998
:101FB3000A0B0C0D0E0F871099109F10670FA510B9
:101FC300610F6D0FFF101D112311051111110B115D
:101FD30000034948424D1817250502000119161838
:101FE30016161523030000383C3E363B3B352B4386
:101FF3002C0C0E020B040B0A0708000F30301718C5
:102003001921301B1D1F30303016181920231A1CBC
:102013001E30C10FE50F1711F10FF70FF310AB10BF
:10202300B110BD10B7100005150D0910080400000C
:102033000000000000BE040A150004000E0028087A
:102043000C0C0A090504040F08C082C083E990033D
:10205300BEF0E4900372F0121AAD9003C2E4F0A351
:10206300F09003BFF0A3F0120EA7121AB39003412E
:10207300E4F0A3F09003DDE07002A3E060099003B5
:10208300DD12471C121C9B90204AE493FA7902123A
:102093001B0D02437D74F2120376EAFEEBFF74809C
:1020A3005FF9E47001E960619003BEE0F912135136
:1020B3008A088B09EA7001EB60467B0080010BEB19
:1020C30075F003A42471F8E5F0341FF9888289833D
:1020D300E493FA74FF6A6021850882850983E06AC4
:1020E30070DCAA08AB0988828983A3E493C0E074F7
:1020F3000193F583D082121C9BAA08AB09121345E6
:10210300EEFA74806FFB02226074105FF9E47001D1
:10211300E9601D120DC98A088B09EA7001EB600A98
:10212300120D33AA08AB09121345EEFA741080D4CA
:10213300EEA2E0501A900377E0640F700B7900125F
:102143000D09E9600312226C74016EFAEF80B65434
:1021530020700302222C750C0012350A7001EB70FB
:10216300107C027D007A207B009003BEE0F91214FC
:10217300597C0079047A007B00120DA58A088B092B
:10218300800D740188828983F0850A08850B09E52F
:10219300087002E50960707C007904AA08AB091293
:1021A3000DA58A0A8B0B750C01E5082404F8E509D3
:1021B300123BB924FFF0A3E034FF1240317002A3B5
:1021C300E070C6E5082409F8E5093400F9850882BA
:1021D300850983A3A3A3A3A3A3A3A3A3A3E0640148
:1021E30070A0850882850983A3A3A3A3A3A3E054B6
:1021F30004708F740688828983F07AB78508828594
:1022030009831223998082120D757C0079017A006B
:102213007B00120DA5EA7001EB7009E50C70057ADD
:10222300201246B2742002214D74025FF9E470015A
:10223300E9600A120EA1EEFA740202210774045F28
:10224300F9E47001E960121247FA12446E7901123F
:102253002B3BEEFA74040221077A007B008005749D
:10226300031208AB7F060206269014E312393412D8
:102273000D2122C082C08374EA1209238518828546
:102283001983AA82AB83794B121AE37408120AF5F5
:102293007402F07409120AF5AA82AB837950121AF8
:1022A300E37413120AF5124C01121B017416024354
:1022B3007A74F712037674E1120923EAFEEBFFEE58
:1022C3007001EF6033851882851983AC82AD831268
:1022D3000DED7406120AF5E0601E7417120AF5E09C
:1022E300FD7401120AF5E0FCEEFAEFFB7900120B24
:1022F3000BE9600479A4800279000238E874F612CD
:102303000376EAFEEBFF8E828F83A3A3A3A3A3A38B
:10231300E05440601B12471812483160067AFF7B75
:10232300FF801A8E828F83123BE0FAA3E0FB8003C7
:10233300120E1174FE6A700374FF6B60411247182A
:10234300124859120E65E98E828F8360061223921A
:10235300E480051223927401F07C0F7D0D8E828F31
:1023630083124599121B07E9F5087015EE7001EF0A
:1023730060097901EEFAEFFB120D8102470A750835
:10238300CDAA088E828F83122399E960DF80ECE067
:10239300240D123DC222E0240C123DC2E0F9120DBD
:1023A3001B2274F6120376E9FEEAFF7A0F7B001212
:1023B300133FEA7001EB6019740C8A828B83F0EE91
:1023C300A3A3F0EF8A828B83A3F0124746790080A0
:1023D30034EEF9120DAB8A088B09A808A909E87035
:1023E30001E9601F740688828983A3A3A3A3A3A31F
:1023F300A31250BBA3A3A3A3A3E0F9120CD3EEF93A
:10240300120D877910024713C082C083900377E0CF
:10241300640F7018EA7001EB6012900372E0FC74B1
:10242300086C600574046C700312243202437DEA65
:10243300FCEBFD7A017B009003BEE0F912145322FA
:10244300124819640222EE2409F8EF3400F9880ACD
:10245300890B2274F212037674FD1209238A088B06
:1024630009EA2402F50CEB124001F9120DAB8A0ABA
:102473008B0BAE0AAF0BEE7001EF70030225628582
:102483000882850983A385820A85830BE064F16052
:1024930014E064CD600FE0641A600AE064E960054B
:1024A300E064E1701C7900120D81E960148E828F63
:1024B30083A3A3A3A3A3A3E04420F0A3E0F00225F6
:1024C3004C850A82850B83E0C0E07402120AF5D0C2
:1024D300E0F0124F53EE240B1250A5851882851994
:1024E30083AA82AB837005120C438003120E4D85C1
:1024F3000A82850B83E064F1604FE064CD604AE0BB
:10250300641A6045E064E16040E064F0603B74029B
:10251300120AF5E0FC74B76C602F12256E750A0180
:10252300780A120882ECF50A780A120882E5082470
:102533000CF582E509125374122FE6FCA3E0FD8A21
:10254300828B831230001208ABEE240912244370ED
:10255300037406F0850C82850D83E0F9120D871252
:102563000D759014E712226F0222628E828F8312FE
:102573003CACE8FAE9FB2274F2120376EAFEEBFFC5
:10258300750A00EE240912445E2405122675F583AC
:10259300E06034750A08850882850983123BCB7095
:1025A30001EB600D750A2C850C82850D83E0D2E06A
:1025B300F0850C82850D83E05403640160030226D9
:1025C30070430A11022670EE24181250A56032EEF1
:1025D300241A1250A5FA70188508828509831226D9
:1025E3008B7003A3E0696003022670750A22807D65
:1025F300EE241B124EE7EE24191250AC120CC180CC
:102603006C8508828509831226947003750A0185F7
:1026130008828509831243847003A3E06B7006E587
:102623000AD2E1F50A1234FFE50A601585088285AE
:102633000983E07006E50AD2E58004E50AD2E6F5EF
:102643000A120E65E964017006E50AD2E0F50A850F
:102653000882850983E06015EE241DF582EF3400BE
:1026630012268164016006E50AC2E0F50AA90A029E
:102673002267F8EF3400F9880C890D888222123B17
:10268300E5E0F9120E53E922123CAC900363E068D3
:102693002212483564022274E812037674DE1209AA
:1026A30023EAFEEBFFEE2404123BA660109014E530
:1026B300E07002A3E060069014E512226FEE24029C
:1026C300F50CEF122FC27403120AF5AC82AD8385A9
:1026D3000882850983122FDCFAA3E0FB120DEDEECD
:1026E300241B1238F27410120AF512446E74091284
:1026F3000AF5E0601C741A120AF5E0FD7404120A6C
:10270300F5E0FC1245937901120B0BE960030229F2
:10271300AC7403120AF5AA82AB83120D2DE9F50AF4
:102723007409120AF5E0700E90035AE06008E9A2FA
:10273300E140030229ACE9A2E650277420120AF50E
:10274300124CDBE064037006A3E0640D60147403B1
:10275300120AF5AA82AB83120E77E96401700302B1
:1027630029ACEE2412F514EF3400F515EE242A12E9
:102773003502EE242EF516EF3400F517EE242C1255
:102783005371122CF9E0687003A3E069701E750B96
:1027930000780B120882780B12088285168285173F
:1027A30083E0F91229C11230001208AB7406120A31
:1027B300F5E0FA900360E06A60030229AC74091241
:1027C3000AF5E070030228841229C1124599120EFA
:1027D300C58A088B09A808A909E87001E9700302F2
:1027E30029257404120AF51229B6FAA3E03400FB72
:1027F300740D2AF582E43BF583E0FAE82404F50836
:10280300E9123505E82403F582E91250A86A601F2E
:10281300EAF09081387810120AB685088285098318
:10282300E510F0A3E511F0A3E512F0A3E513F079A9
:1028330004E9120AF51229B6FCA3E034008C82F5F0
:1028430083A3AA82AB8312132D8A0C8B0D8C0E8D5E
:102853000F8508828509837810120AB67810790CDF
:10286300120A4850030229AC908144780C1209B231
:10287300850882850983124ED0A3E50EF0A3E50FE8
:10288300F0900372E0FA74046A600874096A6003E2
:102893000229ACE50AA2E540030229678516828571
:1028A3001783E0851882851983F0EE242F1250A533
:1028B300C0E07401120AF5D0E0F0EE24301250A506
:1028C300C0E07402120AF5D0E0F07414120AF5E0C5
:1028D30064017028740E120AF51238F88514828583
:1028E3001583E0687003A3E0697011740C120AF594
:1028F30012269470077414120AF5E4F0EE242412DD
:1029030053711206E17404120AF5AC82AD837407A5
:10291300120AF5AA82AB83120C4974041208AB02A3
:1029230029AC9003B7E06401600302288474201289
:102933000AF5123BE064067009E50AA2E6500302B9
:1029430028847410120AF5E064FF7004A3E064FFA6
:102953006057EEFCEFFD7403120AF5AA82AB8312F3
:102963000D398045A2E650417420120AF5123BE06E
:10297300FA74046A7018741A120AF5E06402702972
:102983007403120AF5AA82AB83120E41801B7407EB
:102993006A7016741A120AF5E06404700C74031258
:1029A3000AF5AA82AB83120E3B74221208AB7F1086
:1029B300020626E0FA850C82850D83E02A2285082B
:1029C30082850983124EEE8514828515832274F263
:1029D300120376EAFEEBFF8C088D09122449790075
:1029E3008882F583124599120CDF8A828B83E582F4
:1029F3007002E583603AA3A3A3A3A3A3E0541860E2
:102A03002FE508241BF582E5091253741206E5E548
:102A1300082412F582E5091253741206E5EE241810
:102A23001250AC122A3E120CF174041208AB800847
:102A33007900122A3E120CB5022267850A82850BA1
:102A430083124EEEEE240B12392D2274F612037606
:102A530074F71209238A088B09900372E0FA74034E
:102A63006A600D74016A600874096A6003022B2DA1
:102A73008508828B83A3AE82AF83E06003022B12AF
:102A83007C007D007A027B00121AB9E50824021249
:102A93002B301238F890036312446E7953121AE9FB
:102AA3007900122B3B900372E06409600990037074
:102AB300124599120EBF74011247397404900372C0
:102AC300F07401120AF5AA82AB83794A121AE374ED
:102AD30001120AF5AC82AD837A687B03121AD19096
:102AE3000363124EEA7A037B00121AB9900366124B
:102AF3004EEA7A047B00121AB990035DE0A2E35018
:102B030004D2F08002C2F012472112226C8018FC1A
:102B13007D007A037B10121AB98E828F83E0F9123B
:102B23002B3BE4900372F0120D5D02470EFAE509A8
:102B33003400FB8A828B8322900370123934120C87
:102B43005522C082C083900341E07002A3E070412C
:102B5300900372E012076A000301672B05762B06C8
:102B6300852B942B900349E07002A3E060769003D9
:102B730049806B900345E07002A3E06067900345D2
:102B8300805C900347E07002A3E0605890034780A5
:102B93004D900341E07002A3E06009123269FC74B6
:102BA300016C702379009003BF800909EA12474F33
:102BB300EB1253741237D57001EB70EF9003BF1211
:102BC3004599120C4F801D74026C7005120E95808E
:102BD300139003DFE07002A3E060099003DF124764
:102BE3001C121C9B02437D74F412037674FB1209BE
:102BF300238A088B097A0F7B0012133F8A0A8B0BF7
:102C0300AE0AAF0BEE7001EF7003022CF474028E68
:102C1300828F83124C027950121AE3850882850948
:102C230083A3858208858309E06003022CDD90037A
:102C3300701250B4700374FF69602F74FE687003E0
:102C430074FF696025851882851983E0687003A382
:102C5300E069601674EA8508828509831230127A66
:102C6300707B037950121AE9807085188285198365
:102C7300122CF912446E7A637B037953121AE39090
:102C830003631244697A667B03794B121AE37A650C
:102C93007B0379E1121AE3900377E0C3940F502288
:102CA300900365E0C0E07402120AF5D0E0F074040A
:102CB300120AF57401F07402120AF5AA82AB8312A8
:102CC3001AFB750A00780A120882780A12088290A1
:102CD3001507E0F9122FF71208AB850882850983DF
:102CE300122FC7F07403900372F0EEFAEFFB124752
:102CF300467405023A04123CAC9003702274EC1241
:102D0300037674ED1209238A828B83A3122FCCEAF4
:102D13002408123A0CFEE9FF851882851983AC82D8
:102D2300AD838E828F83122FE6FAA3E0FB120D632D
:102D3300851882851983E070708E828F83E0C39437
:102D43000B4066850882850983A3A3A3A3A3A3A33A
:102D5300A3E064027053900372E0FAE5082410F5CF
:102D630010E5093400F511E5082409122FBE740299
:102D73006A603B74066A6036900341E07002A3E028
:102D830060071232696401605574086A600574044F
:102D93006A70167402120AF5E0F97407120AF5ACA8
:102DA30082AD83124593120D697413024EA19003F1
:102DB30041E07002A3E07026750A00780A120882C7
:102DC300780A120882851082851183122FDCFCA3F6
:102DD300E0FD8508828509831230001208AB900359
:102DE300BF1251169003BF124E99E508240DF50E3C
:102DF300E5093400F50F80308E828F83E0F8A3124B
:102E03002FDC687003A3E06970128E828F83A3A303
:102E1300E0FA850E82850F83E06A606D8E0A8F0B60
:102E2300EE12474FEF125113EE7001EF70CA7A188A
:102E33007B001213B18A128B13AE12AF13EE700123
:102E4300EF7003022DAC7C18125266125270EE24FE
:102E53000C12537174FFF0E508240BF8E509123BDB
:102E6300B9122FB4124031C4122FB4A3F09003BF90
:102E7300E07002A3E070059003BF800AE50A1247E1
:102E83004FE50B125374124F597401120AF5122FA6
:102E9300D6A3F07402120AF5122FD6F0850E82859E
:102EA3000F83122FC7A3F01250EB124298240DFA8E
:102EB300EF3400FB7402120AF5E06401600E74073C
:102EC300120AF5AC82AD83121AD180097C087D0009
:102ED30079FF1213277412120AF5E0C0E0EE2415ED
:102EE300125371D0E0123009FC901507E0C39C40E7
:102EF30003022DAC124CD2125374A3E05480F9E4B4
:102F03007001E97009900CF9E07003022DAC7D00AB
:102F1300EE240CF8EF3400F9EE240BFAEF3400FB47
:102F23009003AFE06402701D8A828B83E0F50AC3CD
:102F33009C500D7405120AF5E0C39414401B801ACB
:102F4300E50A6C70157405120AF5E0C0E088828901
:102F530083E0FCD0E0C39C50010D7406120AF5E037
:102F63006035ED6025850882850983124C69ECF094
:102F7300A3ED1230098A828B83F07405120AF512CD
:102F83003BD57406120AF5E0600D74018E828F83BF
:102F9300A3A3A3A3A3A3F07404120AF5E07003028E
:102FA3002DAC74018E828F83A3A3A3A3A3F0022D60
:102FB300AC540F8E828F83A3A3A322F50CE50934AF
:102FC30000F50D22123100A322A3A3E0F508A3E02C
:102FD300F50922123100023DDAE0F9850C82850DF4
:102FE30083E022E0F98A828B83A3A3A3A3A3A3A3F1
:102FF300A3A3E022900370124EEE900366123934BD
:10300300120E23740222F0851082851183E022F0D0
:103013007A637B03795312301D22121AE97A667B95
:1030230003794B121AE92274F012037674F8120929
:10303300238A0C8B0D8C0A8D0B890E8518828519BA
:1030430083AC82AD8375838175820274081207DDB8
:10305300F50FAC0CAD0D851882851983AA82AB835D
:10306300124EE27003750F019003BF8030AC0CADBC
:103073000DEE240DFAEF340012536A601A850882AC
:10308300850983E0650E700F8E828F83E0650A7079
:1030930004A3E0650B602FEE2416125371123860FF
:1030A3007001EF60211234FFE50F70C18E828F83B0
:1030B300E0650A7004A3E0650B70DC85088285096E
:1030C30083E0650E70D1EEFAEFFB0250CA74F7127B
:1030D30003769003BF1240FB800CEA2416125110B2
:1030E3001213B7EEFAEFFBEA7001EB70ED9003BF3A
:1030F300E4F0A3F00238ED7F07020626A3E08E82F8
:103103008F832274F1120376EAFEEBFF890A8C089F
:103113008D098E828F83E08C828D831244BDAE82B3
:10312300AF83E012432C1231D5C412432C1231C9A0
:10313300E054038C828D831231D3A2E2E492E08CBB
:10314300828D831231D2131313541F12432CA312F3
:1031530031D2A2E7E492E08C828D83A3A3A3A312CE
:1031630031C98E0C8F0D750E00780C12087A7C080D
:103173007D00E50824071231BD1208AB124EB88E4C
:103183000C8F0D780C12087A7C037D00E508240F60
:103193001231BD1208ABE5082412F8E5093400F931
:1031A300E50AC3940F400A8E828F83A3A3A3E08012
:1031B30001E488828983F00230FAFAE5093400FBDE
:1031C300121C8D740322A3A31244BD0EAF8322A34A
:1031D300A3A3A3F0024DE574F412037674F9120964
:1031E30023EAFEEBFF900341E07002A3E0601012BC
:1031F300326964027009EEFAEFFB120E8F8062905F
:103203000370E06E7003A3E06F7056740169600988
:103213007A847B03124EE270487A007B0212350EE9
:103223007001EB703C9003737808120AB68518821C
:103233008519837808120AA7900379E0C0E0740423
:10324300120AF5D0E0F07405120AF57401F0740661
:10325300120AF57402124C02120C25E96098120C42
:103263002B7407023A04900341123DCFE02274F716
:103273001203768A828B83A3AE82AF83E0F9120CAA
:103283006D8E828F83E0FA74EB6A600574E16A7075
:1032930002E4F012226C75080178081208828E820B
:1032A3008F83E0F50878081208827900122FF7124D
:1032B30008AB120D750238ED74F61203769003C154
:1032C300E0701F7C0079017A007B00120DA5EA7083
:1032D30001EB600E8A828B83E07002A3E06003122D
:1032E3000D15024713C082C083123740401079FF87
:1032F300120D9FE9FA902043E493C39A5004790195
:103303008002790002437D74EE1203768A088B09EA
:10331300890D750E00EA2408F50AEB3400F50B85D8
:103323000A82F583E0F9120DAB8A108B11AE10AF50
:1033330011750C01EE7001EF60030233CD85088235
:10334300850983A3A3A3A3A3A3124EEA850A8285B7
:103353000B83124100124599120D938A0A8B0BAE0F
:103363000AAF0BEE7001EF70030234F78E828F8386
:10337300A3A3A3A3E4F0A3F0E508240BFAE5091241
:10338300427FC0E012536ED0E0F0120E6BEE240CBD
:10339300124852750E01EE2406F8EF12374FE0542F
:1033A3007FF0A3E054FC1235E85404600302345F59
:1033B3009014EB1240F4740778081209D88A828BB0
:1033C30083E04508F0A3E04509F0EE2406F8EF1288
:1033D3003A0EFCE9FD8C828D8312459974805AF56F
:1033E3000874035BF50974077808120A98E508F571
:1033F30010EE2404F50AEF3400F50BEE2409123520
:1034030002E50D606074028508828509831231D656
:10341300240D123DBEE0A2E2500F90035E1238F875
:10342300850A82850B8312446EE51070030234BE55
:10343300747F5AFA74FC5BFB74FF2510F51074FF5C
:103443003400F511740778101209D8E5104AF8E52D
:10345300114BF98C828D8312446E805FE04480F0BF
:10346300A3E00233CCE5107005750C00804DEA54DF
:103473002060151213398A10747F5510F8745F2871
:10348300850A82850B83801BEA5410600E12133960
:103493008A10740F5510F8740F80E4850A82850B27
:1034A300837401F0A3E4F07404850882850983F032
:1034B30012350A7001EB70031246E77401650E7052
:1034C30036850A82850B83124EEA85088285098335
:1034D300E0F9EEFAEFFB120D99E9601BEE240C12F2
:1034E30053711237D57001EB60031213B7EEFAEF85
:1034F300FB1213B7750C00A90C024273EE2402F5FC
:1035030008EF3400F509227A207B009003BEE0F92E
:10351300121465EA2274F612037674F71209237EF5
:1035230000120DABEA7001EB70030235E38A828B64
:1035330083A3A3A3A3A3A3A3A3A3E064066003029B
:1035430035E38A828B83A3A3A3A3A3A3A3E0FF8A68
:10355300828B83123DC9E0C0E07408120AF5D0E003
:103563001235E812471D12493F12446E120DBD7405
:10357300085FF9E47001E960658518828519831293
:103583004EEA7A007B00120D8DEA7001EB704F90CA
:103593000370123A13121B137C007D007A007B0028
:1035A30080268E828F83E01238FC7004A3E064FFD0
:1035B300602C900370124EEA12183DE9641A601EE3
:1035C3007C007D00EEFAEFFB120D8D8A088B09AEAD
:1035D30008AF09EE7001EF70C97900121B197E0163
:1035E300EEF902470E12369EE02274F7120376EAD2
:1035F3007001EB70059003C280068A828B83A3A3BC
:103603001237D57001EB60288A828B83A3A3A3A30F
:10361300A3A3A3E05408F9E47001E960DDEC7001B1
:10362300ED6011123BDC6C7003A3E06D70CC800481
:103633007A007B000238ED74F2120376EAFEEBFFA8
:10364300890A8C088D097A0E7B001213B1EA700186
:10365300EB603AE48A828B83A3A3A3A3A3A3A3A3CC
:103663001236A2E50A123908E508F0A3E50912505B
:103673009CE4F01236A2A3A312369E124F59EA24F9
:103683000CF582EB123BC5123693F0A3F0022267CE
:10369300A31236982212369EA3A322F0022B36A33E
:1036A30012390CA3A32274F5120376EAFEEBFF8909
:1036B3000A8C088D09EE7001EF60567401650A707B
:1036C300147901120D9FE9FA90204BE493C39A50A9
:1036D3000F791180657404650A703012374040F128
:1036E3008E828F83A3A3A3A3A3A3A3A3A3E50A12F9
:1036F300428C1255C5E4F0A3F09003C2E07002A31C
:10370300E09003C260241238F8800A7402650A60EC
:10371300CF79C18025E824020808E912374F12380F
:103723000A7001E970EF8A828B83124F5912350AAE
:103733007001EB70031246E77900025629790412EF
:103743000D9FE9FA902047E493C39A22123A0EFAA6
:10375300E9022B35C082C083E9FC79009003C28063
:103763001D8A828B83A3A3A3A3A3A3A3A3A3E06C18
:10377300600574FF6C7001098A828B83A3A31237DF
:10378300D57001EB70DB02437D74F7120376EA70A8
:1037930001EB70059003C280068A828B83A3A31278
:1037A30037D57001EB60248A828B83A3A3A3A3A3E1
:1037B300A3A3A3A3E06970E1EC60148A828B83E086
:1037C300240D124DDFA2E240D080047A007B000278
:1037D30038ED123934EA22C082C0839003C28006D6
:1037E3008A828B83A3A31237D57001EB60128A827E
:1037F3008B83A3A3A3A3A3A3A3A3E06970E2800481
:103803007A007B0002437D123CACE82274F1120380
:10381300768A0A8B0B8C0C8D0D750800750900EAEE
:103823007001EB60319003C280068E828F83A3A365
:103833001238607001EF601EAC0CAD0DEEFAEFFBB9
:10384300850A82850B83121C9BE9640170DCEEF808
:10385300EFF988088909AA08AB090230FAE0FEA348
:10386300E0FFEE2274F71203769003C21238F87C5D
:10387300007D008007E8FCE9FD1238F8E87001E9F3
:10388300603AE82402F582E9125374EA687002EBA5
:103893006970E21245999003C2125116E86E7002E4
:1038A300E96F70099003C2EAF0A3EB800EEAF8EB2C
:1038B300F98C828D83A3A3E8F0A3E9F0802C74F73D
:1038C300120376EAFEEBFFEE7001EF6016120DB7FE
:1038D300123912EA7001EB60031213B7EEFAEFFB31
:1038E3001213B78005741F1208AB7F01020626F579
:1038F30082EF125108123CAC22FAA3E0FB8A828BBE
:1039030083E064FF2212390C2212369E023DDB8EC5
:10391300828F83E0241C123DC21239398E828F8339
:10392300123939EE240C12392D22F582EF3400F5C9
:10393300831240FBFB221240FBFB1213B722C0820F
:10394300C083EAFCEBFDEC7001ED70047905804C5B
:10395300EC24FBF582ED34FFF583E07002A3E07005
:1039630011EC24FFF8ED34FFF988828983E064FFCA
:10397300600512134580D59003BE123BD5902045B8
:10398300E493F97AC47B0312136FE96401700B7A31
:10399300007B101246EB79008002790402437D74A8
:1039A300F4120376A2AFE492E0F508C2AF9003C429
:1039B3001238607001EF603DEE24FBF582EF34FFB7
:1039C300F583E07002A3E07A007B109003BE6005EC
:1039D3001246EE8005E0F912137B750A00750B00A1
:1039E300780A12087EEEFCEFFD7AC47B031213699A
:1039F30074021208ABE508A2E092AFEEFAEFFB8087
:103A0300031208AB7F04020626F8EB3400F9E82220
:103A1300124EEE851882851983AA82AB832274EE37
:103A230012037674FC120923EAFEEBFF750CFE7594
:103A33000DFF120D7BE960057911023BA1EE240F06
:103A4300F50EEF3400F50FEE2402F50AEF3400F51E
:103A53000BEE2415123BA6603E901501E0C43354CF
:103A6300E0C0E0E0333354FCFAD0E04A85088285B5
:103A73000983F0850A82850B83123BCB7001EB60CF
:103A830016750CFF850E82850F83E04404F0A3E0D6
:103A9300123DE2E0D2E0F0850A82850B83124831C1
:103AA3006006EE2412123BC2EE24131250A57003DB
:103AB300741EF0EE2411F8EF1248227019900DA72E
:103AC300E0600D90035AE0700D8E828F83E07006E4
:103AD300E488828983F0EE2414080808123BB87046
:103AE3000C90034F123BD590034FE004F08E828F6E
:103AF30083E06401701712536E123BE06402700D91
:103B0300850E82850F83E04440F0A3E0F0851882A0
:103B1300851983AC82AD83EEFAEFFB120DE18A08BF
:103B23008B0974FE650C700474FF64FF7009850AC9
:103B330082850B83124015EA7001EB605D8E828FE4
:103B430083E0C0E07401120AF5D0E0F07402120AB7
:103B5300F5124F597401120AF585820A85830B7891
:103B63000A12087E850E82850F831206E51250A283
:103B7300F50A780A1208827405120AF5E0F9AC0C0A
:103B8300AD0D120DDB74051208ABE9FE74106E70F7
:103B93000BAA08AB091213B780027E10EEF9740466
:103BA300024270F508EF3400F509850882F583E0D9
:103BB30022EE2405F8EF123BBD22125634E022F523
:103BC30082EF125108E4F02212393479FF121BD329
:103BD300EA22E088828983F0228A828B83123BE780
:103BE300E022F583E0F8A3E0F583888222C082C057
:103BF3008374DE1209238A828B83A3A3A3A31238BF
:103C0300F8740E120AF5E8F0A3E9123CA5740C123D
:103C13000AF5123C9E240DF582EB1250A8C0E07405
:103C23001A120AF5D0E0F0EA240BF582EB1238F50C
:103C33007420120AF5123C9E2415F582EB1250A84B
:103C4300C0E07408120AF5D0E0F0EA241CF582EB18
:103C53001238F57412120AF512446E74FF85188235
:103C6300851983F07401120AF574FFF07402120AC5
:103C7300F574FFF09081381206E17404120AF5AC72
:103C830082AD837407120AF5AA82AB83120C4974BE
:103C9300041208AB7900742202437AE8F0A3E9F036
:103CA300EA22123698123CAC22E0F8A3E0F922741F
:103CB300EF12037674F01209238A0C8B0DECFEEDE0
:103CC300FF89107421120AF5E0F50F7422120AF528
:103CD300124E997424120AF5122FCE750E107A1E05
:103CE3007B001213B17402120AF5124859740212BE
:103CF3000AF5E07002A3E07003023DB285188285E5
:103D03001983AA82AB8379501245891245997402AB
:103D1300120AF5123DC9A31248597402120AF5E0BA
:103D2300240B123DBE7402F0120AF5123DC974024F
:103D3300F0120AF512471C124F597402120AF512B7
:103D43004A42E510F07402120AF5E0240C123DBE5B
:103D5300E50FF07402120AF5E0241C123DBE124E68
:103D6300D07408120AF5E50AF0A3E50BF0740A1201
:103D73000AF5E50F123DE2C082C083740D120AF505
:103D8300AC82AD83D083D08274031207DDF9740251
:103D9300120AF5AA82AB83120D81E96401700575DD
:103DA3000E00800B7402120AF51245991213B7A97B
:103DB3000E74101208AB7F09020626123DC222F8C8
:103DC300A3E012563422123DCFA3A322E0F8A3E0CE
:103DD300F58388828002A3A3A3A3A3A3A3A322F0B2
:103DE30002480974E8120376EAFEEBFF8C088D099A
:103DF3008E828F83A38582128583137408F0EE2449
:103E030016F50CEF124001600974108512828513B8
:103E130083F0EE2417F50EEF3400F50F850E82F5CF
:103E230083E0600A851282851383E02408F0EE2480
:103E3300151250A56009851282851383E004F0EE04
:103E43002407F514EF3400F515EE2406F516EF34C8
:103E530000F517851682F583E060158514828515B4
:103E630083E0C3332402FA851282851383E02AF0A8
:103E7300EE2411123BB76005750A0E8003750A0024
:103E8300851282851383E0C0E0EE240D125371D0B6
:103E9300E0FAE02A250A8C828D8312403160139068
:103EA300035BE0F9120B11E9FA850882850983E0C7
:103EB3002AF0850882850983E0FAC3947540097561
:103EC3000800750900023FF67B001250077001EBF2
:103ED3007003023FF6EEFAEFFB120DE7EA85088264
:103EE30085098312485AEE2402F812480412403816
:103EF300F0EE24040808124804A3A3124038A3A335
:103F0300F0EE241312401DF0EE241412401DA3F012
:103F1300751008850C82850D83E06010EE2418125D
:103F23004EE7E5082408124E8F751010850E828522
:103F33000F83E06016EE241A124EE785100CE50895
:103F4300250C124E8F74082510F5108516828517DF
:103F530083E06060851482851583E0C0E085100CE2
:103F6300E508250CF582E509125374D0E0124027C9
:103F7300E0C0E085100CE508250CF582E509125335
:103F830074D0E0124027A312400C12087A851482E1
:103F9300851583E0C333FCE433FD85100CE5082568
:103FA3000C1231BD1208AB851482851583E0C3332F
:103FB3002510F510EE24151250A56010C0E0E50899
:103FC3002510F582E509125374D0E0F012536E12F6
:103FD300400C12087AEE240D1250A5FC7D008512C8
:103FE300828513831244DEE50A28FAE439123FFD81
:103FF3001208ABAA08AB090229B1FB0231C3340092
:10400300F50D850C82F583E022124015750E0078BC
:104013000C22E0F50CA3E0F50D22125105124048E5
:10402300A3A3A322F005108E828F83023DD9F088CB
:10403300828983E02212403F12404822A3A3F088E2
:10404300828983A322E0850882850983A3A3A3220F
:1040530074F6120376EA2415F582EB1250A8600475
:104063007C0180027C008A828B83E0FE90036012D5
:1040730040F4740278081209D8E5084EFEAF09EA45
:1040830024121240EE740678081209D8E5084EF897
:10409300E5094FF9ECFDE8FCED49FDEA2411124076
:1040A300EE740978081209D8E5094DFDEA241612C1
:1040B30040EE740B78081209D8E5094DFDEA241780
:1040C3001240EE740C78081209D8E5094DFD8A8276
:1040D3008B83A3A3A3A3A3A31240F4740A780812A7
:1040E30009D8ECFAE5094DFB024713F582EB1251AF
:1040F30008E0F50875090022E0FAA3E022E0F902DE
:10410300480974EE1203768A088B09ECFEEDFFE989
:104113008E828F83F01244F3C0E0EE2411125371A8
:10412300D0E012448AC0E0EE2412125371D0E012A0
:1041330044AC60061244501244D08E828F83A3A3F2
:10414300A3A3A3A3A3A3E060031244C4123BB460DC
:1041530003124490EE2419F8EF3400F9E4888289BD
:1041630083F0EE241BF510EF3400F511851082F572
:1041730083E4F0A3F0EE2418FAEF12427F700302F7
:10418300420C850A82850B83E0FCE5082C12449BD4
:10419300FCE5082CF582E5091250A8C0E0EE241ACC
:1041A300125371D0E01244A688828983E0FC6053E5
:1041B300902044E493C39C5005750F0C80028C0F30
:1041C300850A82850B83E0F8E50828F50CE50912DA
:1041D300427812087AE50FC333FCE433FD7A717B2E
:1041E300131231C31208AB8510828511837471F0E9
:1041F300A37413F0E50FC333FA850A82850B83E0BA
:104203002A8005E48A828B83F0850A82850B83E00A
:10421300F50AF50CE508250CF8E5093400F9EE2458
:104223001DFAEF3400FBEAFCEBFD8C828D83124216
:10423300982417FAEF3400FB8A088B098E828F8348
:10424300E0C3950A8A828B8312428CA3A3E0601B8E
:104253008A828B83E024F2F0E8240EF8E912447496
:10426300FA850882850983E0C39AF080031208ABBC
:104273007F0A0206263400F50D02400F1242832204
:104283003400FB8A828B83E02212429022F08E82DA
:104293008F83023DDDE8F0A3E9F0EE2274F412030C
:1042A300768A088B09EA124333F0EA1313543F1258
:1042B300432CA3A3A3F0EAC41313124333A3A3F021
:1042C300EB124319F08A0A8B0B7409780A120A98C5
:1042D300E50A124319A3F08A0A8B0B740A780A12AF
:1042E3000A98E50A5401C0E0EC2418F582ED125354
:1042F30074D0E0F08A0A8B0B740B780A120A98E5E3
:104303000A124326F0740C7808120A98E50812433F
:1043130026A3F0023A0712431D2254018C828D8397
:10432300023DDC12431DA3A322540F8C828D8322F2
:1043330054038C828D83A3A322C082C0837900900F
:10434300035A1247F1A3A3A3A3E0600FEC70268ADC
:10435300828B83A3A3E0701D09801AEC60178A8205
:104363008B83A3A3A3A3A3A3A3A3A3124384700335
:10437300A3E06B70E380031208ABD083D082020505
:10438300AC123934900363E06A2274EE1203768A26
:10439300088B09890CECFEEDFF1244F3C0E0EE2418
:1043A30011125371D0E012448AC0E0EE241212536A
:1043B30071D0E01244AC60061244501244D08E8295
:1043C3008F83A3A3A3A3A3A3A3A3E060031244C463
:1043D300123BB46003124490EEFAEFFB120DF9E9BD
:1043E300F50D7064850A82850B83E0F50EF510E503
:1043F300082510FAE5093400FBEE241712445E2465
:104403001DF8EF123A0EFCE9FD8E828F83A3A3A35E
:10441300A3A3A3E07012EAF8EBF98C828D83124414
:104423006EE50CC3950E8019EA240EF8EB12447462
:10443300FB850A82850B83E0FAE50CC39A24F2C359
:104443009B850882850983F0A90D024273E5082440
:1044530008F8E5093400F9EE241322F8EF3400F9E3
:1044630088088909EE221250F5A3A3E8F0A3E9F026
:10447300223400F98C828D83E8F0A3E9F090035B8A
:10448300E0F9120B11E92212453E022FF2850A824E
:10449300850B83E0FAE5082AF582E50912481C88B2
:1044A3008289831244EA04F0221244BD85820A857C
:1044B300830B7408124290022FF2F08E828F83A333
:1044C30022850A82850B831244DEEE2415125105E0
:1044D300E8F0A3E91244EA2408F022E0F8E508280A
:1044E300F8E5093400F922F0850A82850B83E0227E
:1044F3008A828B83123934120DF3850882850983EE
:10450300A3A3124532E0F9EA8E828F83A3A3A3A368
:10451300A3A3A3A3A3124537124532A3A3E0F9EA49
:10452300F8EE240B125105E8124537A3A3E022E06D
:10453300FA024049F0A3E912453E22F0850882853C
:104543000983023DDDC082C0837AD27B0379E21204
:104553001AE37AD27B0302437DC082C08390036354
:1045630012459902437DC082C08374FE12092385DC
:104573001882851983AA82AB83794B124589124528
:1045830099740202437A121AE385188285198322E9
:10459300850C82850D8312393422C082C083794A07
:1045A300121AE302437D74F61203769003DAE0FEF7
:1045B30004F0EEF9120DABEA7001EB70EEEE60EB76
:1045C300F902471374EE120376EAFEEBFF8C088DB3
:1045D30009890A7412120AF5E0F50B7413120AF52D
:1045E300E0F50C750D00750E00120EC58A108B11C7
:1045F300AC10AD11EC7001ED7014E50C704DA90A0F
:10460300AC08AD09EEFAEFFB120EDD0246ADEC2469
:1046130002F8ED3400F9E50A601988828983E0FA2B
:10462300850A08E5082AFAE4340013EA13F0700354
:104633007401F0E50C6020E50B70108C828D83E033
:10464300600914F064027003750E017401650C7047
:1046530035E50B7016802A901507E0C0E088828943
:1046630083E0FAD0E0C39A504180DD9003E1E00497
:10467300F0C0E09014ECE0FAD0E0C39A4008750D66
:1046830001E49003E1F0E50E7004E50D601CE50D17
:104693006018900366E06E7003A3E06F700CEEFA8F
:1046A300EFFB7901120C671246B00242737A017B69
:1046B300009003BEE0F912145F22C082C08374012C
:1046C3006A7001EB70077A011246E980149014E3D3
:1046D300124859EA7001EB60051224328003124636
:1046E300B002437D7A207B009003BEE0F9121C1BCD
:1046F30022C082C0839014E512485902437DC082D0
:10470300C0839014E780F1A908800574091208ABEF
:104713007F020206268E828F83E0123BE822A2F0FC
:10472300E492E012472F7952121AE9228518828502
:104733001983F0023A1C12472F7942121AE922AA6E
:1047430008AB099003BEE0F912134B222416F5823D
:1047530022F582EF3400F58374012274F412037698
:10476300EAFEEBFF7A007B041246B41247FA1244C6
:104773006E7409900372F0120E058A088B09AC0857
:10478300AD09EE2413125371124599124EE26401DE
:10479300704E7A0F1247E67001EB604474028A820E
:1047A3008B83F0EE241DF8EF1256301245998A825E
:1047B3008B83A31247F1E0FBEC850882850983A371
:1047C300A312485A8882898312471CA3A3A31248C1
:1047D30008124810FAA3E0FB794A121AE912474279
:1047E300023A077B0012133F8A088B09EA22E0FC96
:1047F3008A828B83A3A322900343123CAC9014E7D9
:1048030022EF125634E085088285098322A3F0EE55
:10481300241512481922F582EF3400F583E02212A1
:104823003BBD640122A3A3A3A3A3A3A3A3A31248F1
:1048330035221240FBFB120E65E922124C0A120EBE
:104843005922EE2417124754F0120E05EE241AF5DE
:1048530082EF3400F583EAF0A3EBF02274F4120341
:104863007674F3120923EAFEEBFF7C0D7D007900D9
:10487300851882851983AA82AB83121327EE241D20
:1048830012537112471CA3E0F854206008740C12F1
:104893000AF57401F0E854806008740B120AF57489
:1048A30001F0E85440600A740A120AF57401F080BA
:1048B3000A740A120AF5E064017005EE24138003FA
:1048C300EE2415124EE77402120AF5AA82AB831284
:1048D3001AD1EE240BF8EF3400F98808890988828D
:1048E300F58312493F12446E740A120AF5E064011B
:1048F30070388E828F83124828703C120E118A0AF8
:104903008B0BA80AA90B850882850983E0687003CD
:10491300A3E0697022120E05EAFCEBFD7402120A91
:10492300F5AA82AB83124EE2600D85188285198346
:10493300AA82AB83120C61740D023A04123CAC02DE
:10494300458C74F612037674F31209238A088B09D3
:10495300ECFEEDFF7C0D7D007900851882851983BF
:10496300AA82AB8312526AA3A3A3A3A3A3A3A3A361
:1049730012493FE8F0A3E91249CFFAA2E5500874BF
:104983000B120AF57401F0EAA2E75008740A120A3E
:10499300F57401F0EAA2E6EE500424138002241514
:1049A300124EE77402120AF51249C5A3A3E0C0E050
:1049B300740C120AF5D0E0124C02120C5B740D0257
:1049C3004710AA82AB83121AD1024809F0EE241DC4
:1049D300F582EF3400123BE5A3E02274F71203766D
:1049E30074E1120923EAFEEBFF12256EEA2406F8AE
:1049F300EB123BB9A2E0504454FEF0A3E0124A4943
:104A03008A828B83124A42E0F98A828B83E0241CD8
:104A1300FAA3E0122B33124599120DFFE9701D74AE
:104A23001D120AF5123BE064047011851882851982
:104A330083AC82AD83EEFAEFFB120E470238E8E057
:104A4300241B123DC222124A51AC82AD8322F002D2
:104A5300458CE9FA790074046A600A740A6A60058D
:104A630074036A7001090205AC74F61203767420AC
:104A73008A828B83F07401A3A3F0120C198A088B2A
:104A830009AE08AF09EE7001EF600774018E828FE3
:104A930083F09003B0E07003124845EEFAEFFB0297
:104AA3004713C082C08374019003C6F0E9A2E350A8
:104AB300037403F0E9A2E15004E0D2E2F002437D83
:104AC30074F612037679007C008A088B0978081241
:104AD30005E0F8FF07F64AF44AF44AF44AF44AEDCB
:104AE3004AF14AF64AEA4A0C80097C0480050C80A4
:104AF300F67C089003C6E05C6003098003EC600168
:104B03000902471374F61203768A828B83E0700ED0
:104B1300A31237D57001EB6005121BF780047A00EE
:104B23007B0002471374F512037674F31209238A88
:104B3300088B09ECFEEDFF750A12EA7001EB7005B4
:104B43007900024BF9900363E065087004A3E06504
:104B5300097014120E05EAFCEBFD1253677005751C
:104B63000A018003750A00E4851882851983F074AD
:104B730001120AF5E508F0A3E509124C02120B59DC
:104B8300E960277403120AF5AA82AB83120B41E989
:104B930064017016750A017403120AF5AC82AD83C1
:104BA3001253676021750A00801C7412650A70161F
:104BB3009003AFE06402700EEEFCEFFDAA08AB09B0
:104BC300120B71E970DFEEFCEFFDAA08AB09120EC0
:104BD300CBE9FA740A6A7005750A01801774A06A32
:104BE3007012EEFCEFFDAA08AB09120ED7AA08ABB0
:104BF30009120EE9A90A740D1208AB025629E41230
:104C03004C0622124C0A22124A51023A1C74F71221
:104C13000376EAFEEBFF7508008E828F83A3A3A3BE
:104C2300A3A3A3A3A3E06014EE2415125371122AC5
:104C330044120E71E9640170037508018E828F833B
:104C4300A3A3A3A3A3A3A3E06017EE24131253719A
:104C5300124C69124599120E71E9640170037508CB
:104C630001A9080238ED124EEE8E828F83A3023D16
:104C7300D974F212037674FD1209238A088B09ECA6
:104C8300FEEDFF890A750B017401120AF574041213
:104C930050C57001EB6033EA240BF582EB1238F553
:104CA300740388828983F0A3E50AF0EE88828983FE
:104CB300A3A3F0EF88828983A3A3123693E508F0B8
:104CC300A3E509F0120C13E9F50BA90B022262E527
:104CD30008240BF582E50922123CAC8001F9888295
:104CE30089832274EC12037674F51209238A0C8BE0
:104CF3000D89108C0A8D0B741F120AF5E0F51174DF
:104D030020120AF5E0F50EA3E0F50F7E01EE120A7C
:104D1300F5740AF0E97007E511C333240AF0851826
:104D230082851983AA82AB83120E598A088B09EAFA
:104D33007001EB7003024DD812510D7409124EC16C
:104D43004511124EDBAC0AAD0B124EA9E510702DC6
:104D53007C008023ECC333F8E433F9E50E28F8E54F
:104D63000F39F988828983124ED888828983123059
:104D7300FFF0A30EAF830CECC3951140D7E50824D5
:104D8300171250DA120E05E508241AF582E5091206
:104D930048557403120AF5AC82AD83AA0CAB0D120D
:104DA3000B47E9601EE50824161250DA7403120A51
:104DB300F5A882A983E5082418F582E5091253743E
:104DC30012446E850882850983124ECEAA08AB0968
:104DD300120C13E9FEEEF9740B024EA1FEA3E034AC
:104DE30000FF8E828F83E02274EC1203768A0C8B91
:104DF3000D89118C0E8D0F7414120AF5E0F51074E1
:104E030015120AF5124E99900D16E07002A3E06098
:104E130078E510C333F508E433F509740E2508FA71
:104E2300E43509FB12133F8A128B13AE12AF13EE54
:104E33007001EF605474D48E828F83F0124ECE8E45
:104E4300828F83A3A3A3A3E511F0AC0EAD0FEE24D1
:104E530005FAEF124E92EE240D125371E510F08510
:104E63000A0C850B0D750E00780C12087AAC08AD90
:104E730009EE240EFAEF1231C01208ABEEFAEFFB83
:104E8300900D1612471C121C9B024EA4FAE509341E
:104E930000FB121AD122E0F50AA3E0F50B22120857
:104EA300AB7F0C020626EEFAEFFB124EB122121A6A
:104EB300D1124EB822EE2408FEEF3400FF228E8278
:104EC3008F83F0A3E510C43354E022A3A3E50CF0D1
:104ED300A3E50DF022123100F0A3AE82AF832212BC
:104EE3001ACBE922125105124EEE22E0FCA3E0FD9B
:104EF3002274F6120376EAFEEBFF9003C780138851
:104F0300828983E06E7003A3E06F603B88828983AC
:104F1300A3A312380A7001E970E57A047B00121327
:104F2300B18A088B09A808A909E87001E960188803
:104F3300828983124F599003C7124F4DA3A312487E
:104F4300599003C712446E024713123934024CE1DD
:104F5300851882851983EEF0A3EFF02274F412030F
:104F6300767E009003C780070E88828983A3A312ED
:104F7300380A7001E970F1EEC333FAE433FB1250DF
:104F8300077001EB60787F009003C78024888289D3
:104F930083124EEAEFC333FAE433FBE5082AF582C2
:104FA300E5093BF583ECF0A3EDF00F88828983A339
:104FB300A312380A7001E970D49003B912438470C4
:104FC30003A3E06B7808701612087EEEF50A780AE0
:104FD3001208827C847D037900120E8980141208E2
:104FE3007EEEF50A780A1208827C847D037900122A
:104FF3000E8374031208ABAA08AB091213B7120C81
:105003002B023A071213B10247EBC082C08380120E
:105013008A828B83A3A31238F89003C712446E12BB
:1050230013B79003C71237D57001EB70E302437DCA
:1050330074F61203769003701251169003DB122C50
:10504300F912446E7ADB7B037950121AE99003DB81
:105053001250E3120EE39003DB125116900D18E089
:105063007002A3E060307A067B0012133FEA7001FE
:10507300EB602374D58A828B83F0E4A3A3F07401DD
:105083008A828B83A3A3A312509C124F59900D18AD
:1050930012471C121C9B024713123698A3A322EE3D
:1050A300240EF582EF12481C22F582EF12481CF9F8
:1050B30022123CAC74FF68221250BF2212403FA35D
:1050C300A32212483EEA2274081208AB7F080206A4
:1050D3002608E93400F922F582E509124757F02240
:1050E300124EEEEEFAEFFB22850C82850D831250F1
:1050F300F522E0F8A3E0F9023101F0EE240F12519A
:105103000522F582EF3400F58322EA240BF582EBC6
:10511300125108E0FEA3E0FF2274F71203767E002B
:105123008008EE1252BF120EB90E902049E493FA92
:10513300EEC39A40ED7E00EE125151125278E4888C
:10514300828983F00EEEC3940340EC0238ED75F0D0
:1051530003A424C9F8E5F03403024CE074F7120306
:105163007678007900800312523E902049E493FE42
:10517300C3E89EE99400504CE8FEE9FFEE75F01792
:10518300A4FE85F00875F017EFA42508FFEE24FDB3
:10519300FEEF12567F6A7003A3E06B70CA8E828F94
:1051A30083A3A3A3A3A3A3A3A3A3A3E06C7003A3B9
:1051B300E06D600A74FF6C700374FF6D70A9EEFA02
:1051C300EFFB80047A007B000238ED74F61203765D
:1051D3007CFF7DFF7AFE7BFF120EADEA7001EB7060
:1051E30057750800750900803FE50875F017A4F8A6
:1051F300ACF075F017E509A42CF9E824FDFEE934B9
:1052030011FFEE240F1250A560051250A2700E8AF2
:10521300828B83124599120CF7EEFAEFFBE5082413
:1052230001F508E509123505902049E493F8C3E533
:105233000898E509940040B1024713E8240102509D
:10524300D474F7120376EAFEEBFFEE7001EF600E03
:105253001252641252798E828F83A31252700238D3
:10526300ED7C177D007900121327023101A3A3A35C
:10527300A3A3A3A3A3A374FEF0A374FFF02274F764
:10528300120376EAFEEBFF7508008021E50812524F
:10529300BF8A828B83A3A3A3A3A3A3A3A3A3A3E0F4
:1052A3006E7003A3E06F6003120EB90508902049E6
:1052B300E493FAE508C39A40D30238ED75F017A4D6
:1052C30024FDFAE5F03411FB2274F6120376120E74
:1052D300AD8A088B09A808A909E87001E9600AE802
:1052E300240DFAE93400FB80047A007B00024713A3
:1052F30074F01203768A0A8B0BECFEEDFF750E0039
:10530300750F00804AE50F75F017A424FDF50CE531
:10531300F03411F50DE50C2402F508E50D12350501
:10532300AA08FB120B41E96024850C82850D83E0FA
:10533300650A7004A3E0650B7003750E0AEEFCEFBB
:10534300FDAA08AB09124EE26003430EA0050F90BD
:105353002049E493FAE50FC39A5004E50E60A6A929
:105363000E0250CFEEFAEFFB024EE2EE240BF58273
:10537300EF1251082274F01203768A088B09ECFEAF
:10538300EDFF7410120AF5124E99750C007C007D26
:10539300018010121339E50CF5F0EA84ACF0750CBA
:1053A300007D0078007900800312523E1254DC50D5
:1053B30070E8FAE9FBEA75F017A4FA85F00D75F0C9
:1053C30017EBA4250DFBEA24FDFAEB34111254F973
:1053D300700474FF650F60D1E508650E7004E5097C
:1053E300650F60C5EE650E7003EF650F60BBE50AE0
:1053F300650E7004E50B650F60AFEA240EF582EBD2
:105403001250A860A4C39407509F74016D050C60EB
:1054130098E50CC39C40928A828B8312459902546F
:10542300D978007900800312523E1254E9400302F6
:1054330054C0E8FAE9FBEA75F012A4FA85F00D7599
:10544300F012EBA4250DFBEA2483FAEB341012547B
:10545300F9700474FF650F60CEE508650E7004E50E
:1054630009650F60C2EE650E7003EF650F60B8E566
:105473000A650E7004E50B650F60AC8A828B83A30B
:10548300A3A3A3A3A3A3A3A3E0609CC394075097E0
:105493008A828B83A3A3A3A3E0F50D7401650D603A
:1054A300867402650D608074016D050C70030254EF
:1054B3002AE50CC39C500302542A02541AE50C60DB
:1054C30011EC700E7401650C60030253967C0102AB
:1054D30053A17AFE7BFF0250CF902049E493FAC395
:1054E300E89AE994002290203BE493FA740193FB39
:1054F300C3E89AE99B22FB8A828B83E0F50EA3E043
:10550300F50F74FE650E2274F21203768A0A8B0B72
:105513008C0C8D0D7E007F008008EE24010EEF348D
:1055230000FF902049E493F8C3EE98EF94005036BF
:10553300EEF8EFF9E875F017A4F8AAF075F017E99B
:10554300A42AF9E824FDF508E93411F509AC0CADFA
:105553000D12556C124EE260C1850882850983E500
:105563000AF0A3E50BF0022267E5082402FAE50935
:105573003400FB2274F01203768A088B098C0A8D9F
:105583000B890C1255B87001EF6027125264125543
:10559300C5A3A3A3A3A3A3A3A3E50AF0A3E50B12A7
:1055A30050FDE50C70027401F0EE240E12537112DB
:1055B30055D00250CF120EB38A0E8B0FAE0EAF0F23
:1055C300EE22E508F0A3E5091244BDA3227401F01D
:1055D300EE240D1251057402F02274F51203768A3B
:1055E300088B09ECFEEDFF750A00800DEE6C70026E
:1055F300EF6D6003120EB9050A902049E493FAE5B2
:105603000AC39A5021E50A1252BFEA240A12562EFF
:10561300124EEAE5086C7003E5096D70CF88828944
:1056230083124F5980D17F03020626F8EB125634BA
:10563300223400024CE074F51203768A088B097554
:105643000A00801DE50A12567265087004A3E0651E
:1056530009700C1256847007EEFAEFFB120EB905AF
:105663000A902049E493FAE50AC39A40D780B775B4
:10567300F017A424FDFEE5F012567F223411024DEB
:10568300E4EE2402FAEF3400FB120B41E922C0825C
:10569300C08374F8120923851882851983AC82ADFF
:1056A300837583807582FA74081207DD85188285F5
:1056B3001983AC82AD83124EE264017004790080D9
:1056C300027901740802437AF582EB12701EA2E29A
:1056D3002274091208AB7F04020626E0F508750957
:1056E30000750A00750B002234FFF5832212714AFC
:1056F300E822EE2412FAEF3400FB121063E9227958
:105703000512106F7402221260331208AB7F080275
:105713000626F09003EBE022121159900455127102
:105723004A7A147B002279031A1AEFFB1210697468
:10573300022212573EE8F0A3E9F02224FFF8A3E087
:1057430034FFF98A828B8322E0F50CA3E0F50D2266
:10575300E0026FC18E828F83A3A3A3A322A3E08E53
:10576300828F8312576A22F0EE24FF1EEF34FFFF6D
:10577300227F0A020626E50824FBF582E509025684
:10578300EBF582EF12701E227F06020626127008C6
:10579300E0227AE27B03121369740222E0FEA3E0A3
:1057A300FF221257A922EE126FB9EF1257B2223419
:1057B30000F583E022A2AFE492E0FAC2AF9003E9DE
:1057C300E004F0EAA2E092AF22EE240EF582EF3479
:1057D30000F58322E0FEA3E0FFEE22EE240D12701B
:1057E3001B640122A3A302575B7F07020626F0EE88
:1057F300FAEFFB22C082C08374FE12092380077A6A
:10580300E27B0312583C9003E2E07002A3E070EFE6
:105813009003E4E07002A3E060097AE47B0312588A
:105823003C80ED9003E2E4F0A3F09003E8F09003F2
:10583300E9F09003EAF00260111213638518828580
:105843001983EAF0A3EB12585012105122125A9DF9
:10585300AA82AB832274F41203768982AE82EE2489
:10586300E9F582E4341FF583E493F508FA7B00122B
:10587300133FEA7001EB6012EA25081265B3E48A6C
:10588300828B83A3A3A3A3F080287A027B00121345
:105893003FEA7001EB6017EE24FFF582E4341FF555
:1058A30083E4938A828B83F0741AA3125BFC7A00DD
:1058B3007B000256D9C008740629FBEAA2E0501EF9
:1058C300EB75F00A84AAF0EA6014740A2BC39AFBFE
:1058D300EAC394054004740A2BFB740B2BFBE9C346
:1058E30094134004781480027806E82BFB8B087429
:1058F300092508F8E43400F97A0A7B00120225E846
:10590300F9D0080205ACC082C083900408E05402B9
:10591300600A121B25E96004790180027900025FA5
:10592300B2C082C083900408E05402601F9003E871
:10593300E070159003EBE07002A3E0600F9003EBBF
:10594300E02410125CF75004790180027900025FB1
:10595300B2C082C0839003EAE0C0E0908125E0FCFE
:10596300D0E0C39C500512133F80047A007B0002F1
:105973005FB2C082C0831210517900025FB2C0824D
:10598300C08374FE120923851882851983125AB4C1
:105993001206AB0003625AA259F159625A155A9082
:1059A3000435E0640F6012121027E9700C126FCDFA
:1059B300901496125E73121C9B90045DE0C0E0127B
:1059C3005A79A3D0E0125AA57414125A94FCA3E096
:1059D300FD7AE47B0312135DA2AFE492E0FAC2AF57
:1059E3009003EA1257C379201210150260111210A6
:1059F30021E98518828519836011125E73740D1273
:105A03005A94FAA3E0FB121B1F80E0125E73741515
:105A130080B8851882851983E02404125A8D603F6B
:105A230014125AA5125A72C0E0125A79D0E0125ACF
:105A3300942402125A8D125CE188828983125AB42B
:105A4300FA601CC3940A5017740A2AC0E0851882AE
:105A5300851983125AADD0E0125AB8040259CD8584
:105A63001882851983AA82AB831210510259EEA3BF
:105A7300A3125E77E022851882851983125A832246
:105A8300127C65A3A3A322E0240FF8A3E0125D0018
:105A930022125A9822125A9DE022F0851882851903
:105AA3008322125AA922125A98F8A3E0F583888216
:105AB30022EAF0A3EB125AA9A3A3A3A3A3E022C053
:105AC30082C0839003EDE07002A3E0600B9003EDCE
:105AD300125E73121C9B80027900025FB274F7128C
:105AE3000376EAFEEBFFEE240D1257CF7401F0EEBE
:105AF300242F125784C0E01257CCD0E0F0EE2430AC
:105B0300125784C0E0EE24121257CFD0E012701364
