:020000040000FA
:06000000020A880201D093
:03002B000220525E
:0300330002045B69
:030043000208F6BA
:03004B0002079415
:0300530002012384
:03005B000207A3F6
:030063000207AFE2
:03006B0002048309
:03007B000204413B
:1000830002016C0101FF01010503010F10FEFF03D3
:100093000003000300030003000300030003000345
:1000A3000005000A00140028004F009E0000005DB8
:1000B300135D135D135D13191213125D136F220089
:1000C3000000000D22000000000C0000000C003FA7
:1000D300065B4F666D7D077F6F00397779010000FE
:1000E300C5140000000000006115000000000000BE
:1000F3000000DF04FF0102003B11000000AE1164A9
:10010300000202000800000502071E02051E020A83
:1001130003B80B02803E0103320002FFFF02020616
:10012300C0E074F21203E2E5A7F8E5A1F958541010
:100133006008121C4553A1EF802AE8A2E0C0D0E971
:10014300A2E092F01209C5158182F05017906198D0
:10015300E0F89014BAE0C398A2D265D0335002E815
:10016300F053A1FE7F010204F2C0E074F21203E235
:100173009061A4E0F8759B00E591585408600875F8
:1001830091F7121C87802AE59158541060087591E5
:10019300EF121C8D801BE8A2E0C0D0E591A2E09293
:1001A300F01209C5158182F05007E0C2E0F0121D7C
:1001B300AD9061A3E0F8E5E9585404600E121D8385
:1001C30075E9FB906193E0A2E640F28097C0E0748A
:1001D300F21203E29061A5E0F8E5BF58540460060B
:1001E30053BFFB121DC5020167C3E498F8E499F9F4
:1001F30012022D8026C3E49AFAE49BFBE920E7E987
:1002030012022DE498F8E499F922C3E498F8E499EA
:10021300F912022DE498F8E499F9C3E49AFAE49BFD
:10022300FB22EB20E7CFE920E7E0B90010BB000891
:10023300E88AF084F8AAF022E4FBC8FA22EB7022E1
:100243007B10C833C8C933C9335007C39AC3DBF221
:1002530080069A50012ADBEAC833F4C8C933F4C9CB
:10026300FA2275F008E4C833C8C933C933C99AC937
:100273009B5004C92AC93BD5F0ECFBC833F4C8E44E
:10028300C9FA22080808EAC0E0EBC0E086F0E7A458
:10029300FA180986F0E7A42AFA180986F0E7A42ACF
:1002A300FA180986F0E7A42AFA1986F0E7A4FBE511
:1002B300F02AFA190886F0E7A42BFBE5F03AFA19BD
:1002C3000886F0E7A42BFBE5F03AFA18180986F044
:1002D300E7A4C5F02BFBE43AFA1908E7C5F0C6A476
:1002E30026F6E5F03BFBE43AFA1886F0E7A4F6E5D8
:1002F300F00826F6E43B08F6E43A08F6D0E0FBD033
:10030300E0FA22E4CFC0E0E4CEC0E0E4CDC0E0E414
:10031300CCC0E075F020C3E633F608E633F608E612
:1003230033F608E633F6181818EC33FCED33FDEE1C
:1003330033FEEF33FFC3EC9709ED9709EE9709EF0F
:1003430097191919400FFFEC97FC09ED97FD09EE7A
:1003530097FE191906D5F0BEECF709EDF709EEF78C
:1003630009EFF7191919D0E0FCD0E0FDD0E0FED079
:10037300E0FF222518C582C0E0E51934FFC583C01C
:10038300E0E518C3958224F810AF088583198582A8
:10039300188008858319858218D2AFCEF0A3E52093
:1003A300F0A37808E608F0A3DEFAEFF0A3E58124D2
:1003B300FAF8E608F0A3E608F0A3E608F0A30808B5
:1003C300E608F0A3E608F0A315811581D0E0FED07E
:1003D300E0F8158115811581E8C0E0EEC0E022C088
:1003E300D02518C582C0E0E51934FFC583C0E0E518
:1003F30018C3958224F310AF08858319858218806A
:1004030008858319858218D2AFC8F0A3E9F0A3EA5F
:10041300F0A3EBF0A37908E709F0A3D8FAECF0A373
:10042300EDF0A3EEF0A3EFF0A3D0E0F0A3D0E0F063
:10043300A3D0E0F0A3E520F0A3E5F0F0A322C0E011
:1004430074F21203E2E58AA2E15003120472758A80
:1004530000C2EB7F010204F2C0E074F21203E2E592
:100463008BA2E05003120472758B00C2E880E47C17
:10047300197D007A027B00901118E0F912173522DA
:10048300C0E074F21203E2E589A2E550031204729C
:10049300758900C2C580BC120AEAB900030204DCF4
:1004A300E4900301783B79188002F0A3D8FCD9FAD1
:1004B300901A3BAA82AB83900086789E79018015BF
:1004C300E493A3AC82AD838A828B83F0A3AA82AB2D
:1004D300838C828D83D8E9D9E77582C57583D374FC
:1004E3000312059675824D75832074001205968557
:1004F3001983851882E0C0E0A3E0F9A3E0FAA3E042
:10050300FBA37808E0F608A3DFFAE0FCA3E0FDA371
:10051300E0FEA3E0FFA3E0C0E0A3E0C0E0A3E0F5BA
:10052300D0A3E0F520A3E0A3F5F010AF088583196D
:100533008582188008858319858218D2AFD082D02E
:1005430083D0E0F8D0E032D083D082ECC0E0EDC0BD
:10055300E0E493A3FCE493A3FDED4C600D12066C61
:10056300EC24FFFCED34FFFD80EFE493A3FCE49364
:10057300A3FDED4C600D12073FEC24FFFCED34FFAF
:10058300FD80EFD0E0FDD0E0FCE493A3C0E0E49372
:10059300C0E022C0F0F5F0E59F5407C0E0E59F54AA
:1005A300F845F0D0F0F59FE473859FF053F0F8D051
:1005B300E045F0F59F22D083D082E59F5407C0E049
:1005C300E493C0E0740193C0E07402935407C0F055
:1005D300F5F0E59F54F845F0D0F0F59F22D083D095
:1005E30082E9C0E0E493A3C386F0C5F095F0F9086F
:1005F300E493A386F0C5F095F0700BE493A3C3993D
:100603004005E9048002A3E475F002A42582F58283
:10061300E5F03583F583D0E0F9E493A3C0E0E493F8
:10062300C0E022851983851882E0A3FEE0A3F520AC
:100633007808E0A3F608DFFAE0A3FFE0A3C0E0E058
:10064300A3C0E0E0A3C0E0E0A3C0E0E0A3C0E010EB
:10065300AF088582188583198008858218858319D8
:10066300D2AFD083D0820205ACC0E0C3E493960836
:100673007401939618400FE493667008087401930D
:10068300661870007019A3A3C3E4939608740193CA
:100693009618A3A3400DD0E0D0E0D0E0020586A3D6
:1006A300A3A3A3A3A3D0E022D083D082C5F0E49375
:1006B300A3C5F0C395F0F5F0E493A3C395F040050B
:1006C300E5F0048001E475F002A42582F582E5F0EB
:1006D3003583F583E493A3C0E0E493C0E02274047C
:1006E300800474028000CCC0E0EDC0E0E518C39C38
:1006F300CCAD1950011D10AF068C188D1980068CD6
:10070300188D19D2AF1207DDD0E0FDD0E0FC2274C2
:10071300028000CCC0E0EDC0E0E518C39CCCAD196D
:1007230050011D10AF068C188D1980068C188D1979
:10073300D2AF1207BBD0E0FDD0E0FC22C0E0C0F096
:1007430088F0E4936670080874019366187000A833
:10075300F0A3A3700BD0F0D0E0D0E0D0E002058688
:10076300A3A3D0F0D0E022D083D082CCC0E0E49326
:10077300A3600612083C1470FAE493A360061209FE
:100783000D1470FAD0E0FCE493A3C0E0E493C0E05E
:1007930022C0E074F21203E2121B857F010204F20D
:1007A300C0E074F21203E2121B8B80EFC0E074F21C
:1007B3001203E2121B9180E3CAC0E0E493A3C58253
:1007C300CCC582C583CDC583F0A3C582CCC582C504
:1007D30083CDC583DAE5D0E0CA22CAC0E0E0A3C571
:1007E30082CCC582C583CDC583F0A3C582CCC58227
:1007F300C583CDC583DAE6D0E0CA227009080808AC
:10080300226016181818C6C333C608C633C608C6EE
:1008130033C608C633C6D5E0EA22C008C3E096F55E
:100823000808A3E096420808A3E096420808A3E05C
:100833009645087001D3D00822C0E0E493A3D39C6B
:100843005010E493A3C39C400AD0E0D0E0D0E00270
:100853000787A3A3A3D0E0222518F58210AF08F5DC
:1008630018400215198008F51840021519D2AF85F2
:100873001983227404800A7403800674028002744C
:1008830001C0E0F40412085BD0E0120AC522BB01E8
:1008930002E722C082C08389828A83BB0003E0808F
:1008A30002E493D083D08222C0D0251810AF08F57C
:1008B30018500205198008F51850020519D2AFD057
:1008C300D0226016080808C6C313C618C613C61874
:1008D300C613C618C613C6D5E0EA22C3E0C696F609
:1008E30008A3E0C696F608A3E0C696F608A3E0C6FA
:1008F30096F622C0E074F21203E2C2C0E5D1A2E48C
:100903005003121BBB7F010204F2C0E0E493A36C0B
:100913007009D0E0D0E0D0E0020787A3A3D0E022A3
:10092300251810AF08F518400215198008F518406E
:10093300021519D2AF22C3E09608A3E09608A3E0FC
:100943009608A3E096A2D265D03322E06670100821
:10095300A3E066700A08A3E066700408A3E06622B9
:10096300C3E7960809E7960809E7960809E796A2F8
:10097300D265D03322C3E096F008A3E096F008A333
:10098300E096F008A3E096F022E026F008A3E03614
:10099300F008A3E036F008A3E036F022E627F608D5
:1009A30009E637F60809E637F60809E637F622E0DE
:1009B30026F608A3E036F608A3E036F608A3E036E9
:1009C300F622C0E0E8C0E0E58124FCF8E6A2E7D027
:1009D300E0F8D0E022700422600D18C6C333C608C5
:1009E300C633C6D5E0F41822E657F60809E657F6EB
:1009F3000809E657F60809E657F622E056F608A373
:100A0300E056F608A3E056F608A3E056F622E056B1
:100A1300F008A3E056F008A3E056F008A3E056F070
:100A230022E647F60809E647F60809E647F6080905
:100A3300E647F622E4C396F608E496F608E496F64B
:100A430008E496F622C3E7960809E7960809E796AD
:100A53000809E79622C6F4C608C6F4C608C6F4C653
:100A630008C6F4C622600D08C6A2E713C618C6134B
:100A7300C6D5E0F322C3E09608A3E09608A3E09668
:100A830008A3E0962275D000758140751801751989
:100A9300030002049A600C08C6C313C618C613C623
:100AA300D5E0F422E6F008A3E6F008A3E6F008A3F5
:100AB300E6F022E0F608A3E0F608A3E0F608A3E0D8
:100AC300F622CAC0E0E6F0A308DAFAD0E0FA22E0A0
:100AD300FAA3E0FBA3E0FCA3E0FD22EAF0A3EBF022
:100AE300A3ECF0A3EDF022E5C754F84401F5C77970
:100AF30001222518F582E43519F583221205B9DAA6
:100B0300E1021205B9F8E1021205B99B24001205AE
:100B1300B9AD24001205B9CC24001205B93D250056
:100B23001205B9D725001205B9A926001205B9196E
:100B330027001205B93427001205B95827001205FA
:100B4300B99327001205B9D327001205B9F427007A
:100B53001205B94128001205B91B29001205B9CCA9
:100B630029001205B95C2A001205B94C2B001205A5
:100B7300B98F2B001205B9B42B001205B90A2C004A
:100B83001205B92F2C001205B9542D001205B9C84E
:100B93002D001205B9EB2D001205B90E2E0012051A
:100BA300B9362E001205B9482E001205B9522E008F
:100BB3001205B9D62E001205B9452F001205B9EE5C
:100BC3002F001205B9F62F001205B9973000120550
:100BD300B9F730001205B9C331001205B93A320032
:100BE3001205B97732001205B9D632001205B923BE
:100BF30034001205B93F34001205B9A134001205BF
:100C0300B93E35001205B98535001205B920360005
:100C13001205B9CD36001205B90B37001205B97BA1
:100C230037001205B9C637001205B9FF37001205A0
:100C3300B92D39001205B9673A001205B9C83A004F
:100C43001205B9113B001205B9393B001205B9BCB5
:100C53003B001205B93C3C001205B9B63C00120535
:100C6300B9DB3C001205B9513D001205B9F53D0051
:100C73001205B98B3E001205B9B23E001205B9D771
:100C83003F001205B9EA3F001205B9794000120589
:100C9300B99940001205B93141001205B97B4100F1
:100CA3001205B9BD41001205B9A942001205B9AC3C
:100CB30044001205B9B644001205B9C04400120538
:100CC300B9CA44001205B9D444001205B9EE440070
:100CD3001205B9F844001205B90245001205B90C12
:100CE30045001205B92D45001205B97B45001205D3
:100CF300B98545001205B9A945001205B9CD4500CE
:100D03001205B92A46001205B97546001205B993B2
:100D130046001205B90347001205B9404700120502
:100D2300B98747001205B9EF47001205B993480088
:100D33001205B9604A001205B9834A001205B95574
:100D43004B001205B97B4B001205B95B4C00120531
:100D5300B9F34E001205B95550001205B91C5200E3
:100D63001205B96E52001205B96753001205B9B4E2
:100D730053001205B91F54001205B9295400120576
:100D8300B9E555001205B91457001205B974570097
:100D93001205B92A58001205B91259001205B9CF24
:100DA3005A001205B9EE5A001205B94A5B00120542
:100DB300B9225C001205B9475C001205B9985C00C2
:100DC3001205B97A5D001205B9B25D001205B9F2D8
:100DD3005D001205B9555E001205B9715F00120579
:100DE300B9D15F001205B9B760001205B9BF62003F
:100DF3001205B9DB62001205B98064001205B9C699
:100E030064001205B9A465001205B9FE6500120558
:100E1300B94666001205B9B666001205B944670003
:100E23001205B9C867001205B93468001205B9B4D0
:100E330081011205B90682011205B9408401120528
:100E4300B98C84011205B95E85011205B9CD8501FE
:100E53001205B91087011205B95D89011205B9841C
:100E63008A011205B9EB92011205B96893011205C3
:100E7300B9E895011205B9D496011205B980970115
:100E83001205B9B198011205B9A499011205B9BBAC
:100E93009C011205B9BD9E011205B91D9F011205E2
:100EA300B9DE9F011205B909A0011205B9AAA00173
:100EB3001205B98EA1011205B969A2011205B9FD86
:100EC300A2011205B92AA3011205B94CA301120507
:100ED300B93FA5011205B91FA6011205B96CA601F8
:100EE3001205B9CDA6011205B98FA7011205B9C420
:100EF300A7011205B912A8011205B942A8011205EA
:100F0300B980A8011205B9D8A8011205B9DDA80155
:100F13001205B938A9011205B960A9011205B97FF3
:100F2300AA011205B9EBAA011205B955AB011205C5
:100F3300B9E1AB011205B9F8AE011205B9C4AF01AD
:100F43001205B934B1011205B988B3011205B930DC
:100F5300B4011205B9E5B4011205B973B60112055E
:100F6300B910B7011205B958B7011205B9F4B801A0
:100F73001205B908B9011205B915B9011205B9303D
:100F8300B9011205B93CB9011205B95AB9011205E3
:100F9300B957BB011205B94ABC011205B98EBC0190
:100FA3001205B911BD011205B912BE011205B9D05E
:100FB300BE011205B96FC0011205B944C101120582
:100FC300B9E5C1011205B975C2011205B98CC20197
:100FD3001205B9C5C2011205B9CFC2011205B9DBA9
:100FE300C2011205B9F9C2011205B93DC3011205C7
:100FF300B98EC3011205B9AFC3011205B9C9C30143
:101003001205B941C4011205B982C5011205B9CC53
:10101300C5011205B9BFC6011205B9DBC601120528
:10102300B93EC7011205B993C7011205B951C801E9
:101033001205B960C9011205B90CCA011205B9E359
:10104300CA011205B94FCB011205B9E3CB01120551
:10105300B9B3CC011205B9E2CC011205B941CD01F6
:101063001205B9EFCD011205B915CE011205B98DDF
:10107300CE011205B9B2CE011205B9D5CE011205C2
:10108300B910CF011205B9EED0011205B9D1D101C2
:101093001205B989D2011205B91ED4011205B9721C
:1010A300D4011205B9B5D4011205B924D50112052D
:1010B300B998D5011205B9F1D5011205B917D601B1
:1010C3001205B952D6011205B97ED6011205B9C966
:1010D300D6011205B922D7011205B99ED70112050F
:1010E300B97CD8011205B90EDA011205B97BDA0110
:1010F3001205B9A4DA011205B90ADB011205B961B7
:10110300DB011205B99ADB011205B9EFDB01120508
:10111300B914DC011205B95ADC011205B977DC01F7
:101123001205B921DD011205B9AB7F001205B9F62D
:101133007F001205B96C80021205B9A08002120566
:10114300B97681021205B94A82021205B975830282
:101153001205B9F984021205B97785021205B93E61
:1011630086021205B95F87021205B9D187021205FB
:10117300B93388021205B98188021205B98B880236
:101183001205B9C988021205B93289021205B9D10B
:1011930089021205B94F8A021205B9048B0212059E
:1011A300B9768B021205B99C8B021205B9CC8B025E
:1011B3001205B9F98B021205B99F8C021205B9AF5A
:1011C3008C021205B9028D021205B90E8D021205A9
:1011D300B91A8D021205B9238D021205B9848D0245
:1011E3001205B9E48D021205B9358E021205B95004
:1011F3008E021205B9808E021205B9A18E02120564
:10120300B9AD8E021205B9EE8F021205B90C900228
:101213001205B97590021205B98890021205B99F9B
:1012230090021205B93291021205B93192021205E8
:10123300B92D93021205B9AF93021205B9B99302FE
:101243001205B91C94021205B92D94021205B97046
:1012530094021205B9B794021205B9ED940212056E
:10126300B92395021205B94195021205B965950294
:101273001205B9A695021205B99996021205B9DFAE
:1012830096021205B91A97021205B9799702120547
:10129300B9A197021205B9DA97021205B9E89702C4
:1012A3001205B94998021205B98698021205B9C800
:1012B30098021205B9F998021205B92D990212057F
:1012C300B93899021205B95699021205B91E9A0244
:1012D3001205B9289A021205B96D9A021205B9D7F7
:1012E3009A021205B9EB9A021205B9E39B021205A1
:1012F300B9F69B021205B90B9C021205B9AB9C020D
:101303001205B90F9D021205B9D29D021205B9DD6E
:101313009D021205B9FC9E021205B9189F0212051F
:10132300B9709F021205B9A79F021205B9C19F02A6
:101333001205B935A0021205B9C6A0021205B90EED
:10134300A1021205B929A3021205B993A30212053A
:10135300B9FEA3021205B957A6021205B967A60280
:101363001205B96AA6021205B976A6021205B98A50
:10137300A6021205B992A6021205B9C7A602120562
:10138300B975A7021205B9E5A7021205B949A80262
:101393001205B9E2A8021205B97CA9021205B9AA7D
:1013A300A9021205B940AA021205B96FAA021205D1
:1013B300B991AA021205B9B8AA021205B91EAB0265
:1013C3001205B988AC021205B98BAC021205B90239
:1013D300AD021205B9EEAD021205B9C6AE02120591
:1013E300B950AF021205B985B0021205B937B1027F
:1013F3001205B970B1021205B9A1B1021205B9AA59
:10140300B1021205B996B2021205B912B30212055E
:10141300B9A2B3021205B96CB4021205B9F0B40251
:101423001205B926B5021205B96FB5021205B95EE8
:10143300F6031205B967F6031205B93093031205D3
:10144300B93E93031205B9A793031205B9DF9303BA
:101453001205B93294031205B9CE95031205B9AE3C
:1014630097031205B98D9A031205B9B99A031205A8
:10147300B9D99A031205B9379B031205B9759B03B2
:101483001205B9B39B031205B9F99B031205B94EB3
:10149300F4031205B9CFF6031205B9A0EA03120546
:1014A300B9BEEA031205B90FEB031205B954EB03F6
:1014B3001205B9FEEB031205B96CE7031205B9B1C6
:1014C300E8031205B922F9011205B9A5F9011205BC
:1014D300B9AFF9011205B9D6F9011205B9EAF90153
:1014E3001205B950FA011205B980FA011205B98241
:1014F300FB011205B952FC011205B91ED8021205EF
:10150300B9FBFC011205B938FD011205B99BFD01B8
:101513001205B9C7FD011205B952FE011205B9AC96
:10152300FE011205B901E4031205B91AE403120519
:10153300B994E4031205B941E5031205B969E5035A
:101543001205B937FD021205B9B1FD021205B9BC86
:10155300FD021205B90DE1021205B900800312055F
:10156300B90380031205B9C480031205B9F28003DD
:101573001205B94D81031205B97181031205B991A1
:1015830081031205B9DB81031205B9098203120530
:10159300B93883031205B96783031205B988830336
:1015A3001205B9E383031205B9A684031205B9C66C
:1015B30084031205B93B86031205B9D386031205CA
:1015C300B9DC87031205B94588031205B97388038B
:1015D3001205B93889031205B96D89031205B9A03B
:1015E30089031205B9DC89031205B9E689031205DB
:1015F300B92E8A031205B99C8A031205B9BF8A035F
:101603001205B95F8B031205B90E8E031205B917C4
:101613008E031205B9648E031205B98D8E0312056C
:10162300B9ED8E031205B9838F031205B9B78F0382
:101633001205B90490031205B95E90031205B98C23
:1016430090031205B91491031205B95991031205B8
:10165300B99891031205B9CD91031205B9DF91032E
:101663001205B9F191031205B91092031205B9C716
:1016730092031205B90793031205B917F203120572
:10168300B943E0031205B9A7E0031205B9CBE003A0
:101693001205B9C4E1031205B928E2021205B9071C
:1016A300E3021205B943E3021205B9E0E4021205AD
:1016B300B922E5021205B9D6E6021205B91AE70204
:1016C3001205B9FBE7021205B988E8021205B9133E
:1016D300E9021205B969E9021205B9A9E90212057D
:1016E300B94BEB021205B9D4EC021205B9EBEE02C9
:1016F3001205B9F9EE021205B95EEF021205B9A897
:10170300EF021205B981F2021205B955F70312056A
:10171300B96BF7031205B939F5031205B96ED00396
:101723001205B981D0031205B91FD1031205B95AA5
:10173300D1031205B975D1031205B99AD103120564
:10174300B9DFD1031205B910D2031205B941D2038F
:101753001205B9B8D3031205B908E9031205B9751F
:10176300E9031205B991E9031205B9D3E903120597
:10177300B9E3E9031205B97BEA031205B985EA0364
:101783001205B99DEA031205B9C6D6031205B93588
:10179300D7031205B9C0D8031205B95FD9031205DF
:1017A300B9C2F2021205B910F3021205B900F4022C
:1017B3001205B992F4021205B9DCF4021205B92B31
:1017C300F5021205B988F5021205B99CF502120556
:1017D300B9D0F5021205B9E8F6021205B95AF702B3
:1017E3001205B97BF7021205B9BCF7021205B9F16C
:1017F300F7021205B94AF8021205B968F802120590
:10180300B9CBF8021205B94AFA021205B96CFA0209
:101813001205B9A1FA021205B9C9FA021205B9D61D
:10182300FA021205B9DBFA021205B9DEFA02120551
:10183300B92AFB021205B9CFFB021205B9F4FB0268
:101843001205B9FEFB021205B901FC021205B975B6
:10185300FC021205B990FC021205B9A3FC021205A1
:10186300B9DEFC021205B9E1FC021205B9ECFC0277
:101873001205B989F5031205B9A1F5031205B93AA1
:10188300A7031205B989A7031205B92DA9031205E8
:10189300B9E3AA031205B92BAB031205B971AC0363
:1018A3001205B9BCAD031205B9DEAD031205B928A3
:1018B300AE031205B9AAAE031205B95BDD01120529
:1018C300B97CDD011205B906DE011205B98FDE010F
:1018D3001205B90BDF011205B96EDF011205B9BAA2
:1018E300DF011205B929E0011205B9B3E0011205C0
:1018F300B92AE1011205B96CE1011205B92CE50120
:101903001205B909E7011205B942E7011205B9FC4D
:10191300E7011205B9FFE7011205B9E3E801120572
:10192300B928EA011205B9C2EB011205B91EEE018D
:101933001205B9A5EE011205B99BEF011205B90510
:10194300F3011205B915F3011205B975F401120576
:10195300B9F0F4011205B934F6011205B9BCF60168
:101963001205B9F8F7011205B98CF8011205B98609
:1019730068001205B94569001205B9BC6900120572
:10198300B9CB69001205B9506A001205B9B96A00EA
:101993001205B9B96B001205B9E26B001205B97BE8
:1019A3006C001205B9BE6C001205B91B6D0012055F
:1019B300B9F56F001205B9AF70001205B9147100C3
:1019C3001205B9BB72001205B96F73001205B90A8B
:1019D30074001205B96374001205B9CE74001205C0
:1019E300B9DE75001205B99B77001205B9D27800EC
:1019F3001205B96B79001205B9D579001205B9CB77
:101A03007A001205B93EB4031205B9AAB40312054C
:101A1300B913B5031205B981B5031205B9B9B503F5
:101A23001205B92DB6031205B9B1B6031205B9DE15
:101A3300B6031205B9F7B6031205B957B703120572
:101A4300B9A4B7031205B91CB8031205B921B80329
:101A53001205B98DB8031205B991D9031205B9E07E
:101A6300D9031205B999DA031205B9FFDA0312058E
:101A7300B970DB031205B94DD4031205B9A6D4031B
:101A83001205B925D6031205B9BFEE031205B9F93C
:101A9300EE031205B9B4EF031205B9BAE503120553
:101AA300B9C8E5031205B993F7031205B9B5F303F2
:101AB3001205B9C5F3031205B9E3F3031205B944DB
:101AC300F4031205B9F9EF031205B920F003120567
:101AD300B9A5F0031205B9FEF0031205B9DD9E03A3
:101AE3001205B96BED031205B98DED031205B9F7B4
:101AF300ED031205B917EE031205B95DEE031205E6
:101B0300B9E7BD031205B9FCBD031205B911BF0343
:101B13001205B952BF031205B96CBF031205B9E828
:101B2300BF031205B903C1031205B977C103120537
:101B3300B991C1031205B9A4C1031205B9B2C10316
:101B43001205B9CCC1031205B9E3C1031205B90DDE
:101B5300C2031205B95EC2031205B909CD0312050A
:101B6300B917CD031205B991CD031205B95DCE03A3
:101B73001205B909D0031205B913EC031205B94CC8
:101B8300EC031205B969EC031205B9C7EC0312059E
:101B9300B92CED031205B9DEAE031205B94BAF0341
:101BA3001205B902B0031205B96FB0031205B98C5F
:101BB300B1031205B928B3031205B98CB303120597
:101BC300B9E1B3031205B9EAB3031205B9F9B303D3
:101BD3001205B90CB4031205B922B4031205B92BCB
:101BE300B4031205B937B9031205B98AB90312054B
:101BF300B992BB031205B9C4BB031205B9E6BB0313
:101C03001205B9FFBB031205B918BC031205B91AB3
:101C1300BD031205B9A8BD031205B932E2031205CB
:101C2300B964E2031205B970E2031205B9A3E20332
:101C33001205B9D4E2031205B902E3031205B97719
:101C4300E3031205B9A6E3031205B9419C03120588
:101C5300B9679C031205B9A49C031205B9B69C038A
:101C63001205B9D29C031205B9409D031205B94967
:101C73009D031205B9A89D031205B9CC9D03120556
:101C8300B98B9E031205B9989E031205B9A99E0349
:101C93001205B9CDF4031205B91AF5031205B9E11A
:101CA300C9031205B929CB031205B936CB031205B3
:101CB300B949CB031205B968CB031205B97ECB032F
:101CC3001205B992CB031205B90CCC031205B9A2C4
:101CD300CC031205B9EACC031205B9FACC031205F9
:101CE300B91CF3031205B940F3031205B968F303F2
:101CF3001205B990F3031205B9F3DB031205B90C0E
:101D0300DC031205B918DC031205B92CDC03120538
:101D1300B94ADC031205B954DC031205B95EDC03CE
:101D23001205B971DC031205B9C5DC031205B9FE4E
:101D3300DC031205B92DDD031205B97BDD031205A2
:101D4300B9CADD031205B9E5DD031205B9EFDD03F9
:101D53001205B900DE031205B946DE031205B9D632
:101D6300F5031205B9009F031205B92C9F03120551
:101D7300B9489F031205B95B9F031205B9719F030D
:101D83001205B9DD9F031205B910A0031205B96D41
:101D9300A3031205B998A4031205B9CBA403120532
:101DA300B930A5031205B918A6031205B940A60355
:101DB3001205B955A6031205B965A6031205B9A9FB
:101DC300A6031205B9FEA6031205B90EA703120551
:101DD300B9CBFE011205B9E6FE011205B90FFF01E9
:101DE3001205B929FF011205B94EFF011205B96D9C
:101DF300FF011205B985FF011205B9B3FF011205F1
:101E0300B9CDFF011205B91EF6031205B91BC603AE
:101E13001205B922C6031205B92EC7031205B95E0E
:101E2300C7031205B984C7031205B9B7C70312055F
:101E3300B9C9C7031205B903C8031205B969C803B1
:101E43001205B9A2C8031205B9EEC8031205B91BDE
:101E5300C9031205B93BC9031205B951DE031205C3
:101E6300B969DE031205B95BDF031205B917F10384
:101E73001205B976F1031205B9B4F1031205B9F5E8
:101E8300F1031205B90B7C001205B92A7C00120577
:101E9300B9757C001205B9917C001205B9C97C00A3
:101EA3001205B9D67C001205B9F37C001205B9D628
:101EB3007D001205B90D7E001205B9147F001205CD
:101EC300B91F7F001205B9317F001205B93A7F00AF
:101ED3001205B9447F001205B993C2031205B90D67
:101EE300C6031205B900F7031205B999F6031205E3
:101EF300B92DF7031205B975F7031205B9C3D50256
:101F03001205B967D4021205B9BBD3021205B9028F
:101F1300D2021205B912D0021205B9A3CF021205DB
:101F2300B948CF021205B9D5CE021205B9ABCE021C
:101F33001205B999CC021205B971CC021205B91672
:101F4300CC021205B9F3CB021205B922CB0212055A
:101F5300B9CACA021205B934C9021205B931C90294
:101F63001205B931C8021205B911C8021205B961C7
:101F7300C7021205B9E3C5021205B9AAC5021205C3
:101F8300B971E0021205B905DF021205B9ADDC0231
:101F93001205B940DC021205B9EFDB021205B97B69
:101FA300C5021205B978C5021205B96AC502120540
:101FB300B956C5021205B958DB021205B943C50269
:101FC3001205B945C4021205B9D5C3021205B99B5E
:101FD300C3021205B9DDFD021205B94BDB0212057E
:101FE300B943C3021205B912C3021205B92AC002CA
:101FF3001205B9E8BF021205B9DCBF021205B94FD9
:10200300BF021205B99DBE021205B93CBC021205FE
:10201300B9A6B9021205B970B9021205B904B8021A
:102023001205B9B3B7021205B9F7B6021205B9CA58
:10203300B6021205B91CB6021205B9EFB5021205B4
:10204300B9B5B5021205B9B2FC0100000080FBC2AC
:10205300C732E473000136360101000102010001B9
:102063000301000104010606050200000701003414
:102073000801000F090401010D0100FF0E08000013
:1020830017020000190100FF1A0100011B0100FEE5
:102093001C0100081D0200001F01000120010001B6
:1020A300210200002301000F240200002601000189
:1020B30027010008280200FF2A0100072B01024024
:1020C3002C0100002D0100012E0100012F0100FF52
:1020D30030010B1C310800003A0100083B01000FDE
:1020E3002F0100000302710230016002110270022D
:1020F3000102020202028002100261023A00410060
:102103006302730272026202430200021302380086
:102113000002000204021202000200020002000296
:1021230004020402370037003C0244020002390073
:10213300000200026502000235028102000205026C
:1021430082028302000201017101010101011101F7
:1021530001013101010101018001100161013B0015
:102163001400630173017201620143010001130151
:1021730006013D01350004011201000100010001C7
:10218300000104010401330133013C014401320124
:1021930036000001000165010001350081010001E5
:1021A3000501820183010001030471040204600438
:1021B3001104700402040204010402041004610403
:1021C30000041404630473047204620443040004EB
:1021D30013040604000400040404120400040004AD
:1021E30000040004510464000004000400044404D7
:1021F30000040004000400046504000435048104A1
:102203006400050400048304000401037103010353
:10221300010301030103010322030203010310036A
:102223000003000300030003000300030003420351
:10223300000324030603000300030403120325031E
:102243002303250323030403040300030003000300
:102253004403000300032303000365032100350344
:10226300810300030503000300030003030071005F
:10227300300160001100700031022003500480001F
:10228300100061000000140063007300720062001C
:1022930043000000130006000000000004001200C9
:1022A30000000000000000000400040037003700B5
:1022B3003C02440000000000000000006500000034
:1022C3003500810000000500000083000000360097
:1022D3000100060000000F000000000000000000E5
:1022E3000000000003FFFF00000403FFFF0000FFE6
:1022F300FF0FF4010005C4040320000100000B00DC
:102303000000000000000003010F0000AB191300E0
:1023130021190100AB190200D9180300DF180400CA
:10232300E5180500EB180600F7181100151914003D
:102333001B1915000919FFFF0000016B0E069B0E08
:1023430008950E0BA70E10F30D02710E05890E07EB
:10235300770E0C530E0D5F0EFF0000030003000405
:1023630000080010001F003E007B00F600EC01D7C0
:1023730003AF075D0FB91E713D00007312A31279FD
:10238300127F129D1291128B12A912AF12B512C1B4
:102393001285126D12671203EAF5E5D5D5C5B5A509
:1023A300959585857575656555554545353525255A
:1023B3001515059C36063A703DD9404344AD471781
:1023C3004B814EEA5100160F00000B150B02000261
:1023D300220F320000060001020304050607080964
:1023E3000A0B0C0D0E0F5D136F1375133D127B1348
:1023F30037124312CF13ED13F313D513E113DB138A
:1024030077117111AD11B311A7115F113030171886
:102413001921301B1D1F3000034948424D18172551
:10242300050200383C3E363B3B352B432C303016FF
:10243300181920231A1C1E300C0E020B040B0A075A
:1024430008000F000119161816161523030097121A
:10245300BB12E713C712CD12C31381138713931350
:102463008D13831189117D11B9110005150D091003
:1024730008040000000000008F11A11100BE040A2F
:102483000E0004001500010309280C05100C0A09AD
:1024930000040008040F0C08C082C0838A828B8367
:1024A300E0D2E7F0121843024174C082C08379007E
:1024B300124B26900332125357C3EA9CEB9D5006EE
:1024C300122B7460010902417474F7120376EA1245
:1024D300520DEB1255B01226F5AEF075F00BEDA4CC
:1024E3002EFD900334E02CFEA3E03DFFEA2403FC21
:1024F300EB3400FD740169600574026970278A82F8
:102503008B83A3124B308E828F83A3123E8574027A
:1025130069701DECFAEDFB120B35E97013E48E8242
:102523008F83F0800BEE2403FAEF3400FB120B2FA2
:10253300EEFAEFFB120B0B02349C74F21203768A51
:10254300088B09EA240BF50CEB12581579008A82E3
:102553008B83E0606F890A890B805EE50A75F00B57
:10256300A4FAACF075F00BE50B1229067048AE82A5
:10257300AF8385088285098312628E1229C0A31254
:1025830055B612410DE5082403FCE5093400FDEEC0
:1025930024030A0A0AEF3400FB120B2F850C8285F1
:1025A3000D83E50AF0A3E50B12466F120B0B7901BD
:1025B300900332125AB81225CA1228FEE50A9AE588
:1025C3000B9B4097023DF0E50A2401F50AE50B3425
:1025D30000F50B2274F1120376EAFEEBFF740F127F
:1025E3000AF5123A27750E01850882F583A38582C1
:1025F3000C85830DEE240BF8EF3400F9EC7001ED3C
:102603006030EC12520DED123E7B7901EEFAEFFBD6
:10261300120B17E5087002E50970030226A2850C68
:1026230082850D8312581A7902AA08AB09120B1777
:10263300806DEE2403F50AEF1225D2E5087002E55A
:1026430009603312520BE509123E7BE5082403FAB5
:10265300E50934001228F6700CEEFAEFFB120B1D9D
:10266300E9F50E80B9AA0AAB0B1228F7703179038A
:10267300EEFAEFFB80B78E828F83A3E064FE7004D3
:10268300A3E064FF700A0A0A0AAB0B1228F7700C66
:10269300EEFAEFFB120B1DE9F50E8003750E00A990
:1026A3000E7F0702062674F7120376900332123E5A
:1026B30085EA7001EB6031EA75F00BA4FAACF075B2
:1026C300F00BEBA42CFBEAFEEBFF12168D90033408
:1026D300123E85900334E07002A3E06012EEFCEF3B
:1026E300FD79001215F78007900334E4F0A3F0029C
:1026F300349C1255DFEC75F00BA4FC22E875F00B4B
:10270300A4F8AAF075F00BE9A42AF9900334E028A1
:1027130022EE98EF9922C082C083EC7001ED600530
:10272300121E7F80097C087D0079001215F7024193
:102733007474F61203767900EA7001EB60147C007E
:102743008C08125D69600479017C080CECC3940861
:1027530040EE02412C74F712037674F3120923EC52
:10276300FEEDFFE4851882851983F07401120AF5E2
:10277300123A5F120B537403120AF5AC82AD83EE67
:10278300FAEFFB120B2FEEFAEFFB120B3502349725
:1027930074F712037674F3120923ECFEEDFFE4855C
:1027A3001882851983F0EAFCEBFD7403120AF51213
:1027B3003A947401120AF51255B612410E74FE686A
:1027C300700374FF69600479018002790002349711
:1027D30074F7120376EAFEEBFF1228217010122819
:1027E3002C64FFFC8A828B83E05CF0120B0B023DAE
:1027F3004C74F7120376EAFEEBFF7508008E828FA6
:1028030083E06017122821701212282CFC8A828B15
:1028130083E05C7006E04CF0120B0B023D4C120B94
:1028230011E9F5087401650822EE1240511244A81B
:102833001226FFFAA3E039FB8E828F83E02274F025
:102843001203768A088B09EA2403FEEB3400FF7C2B
:10285300007D000A0A0AFB120B2FE508240BF50C76
:10286300E5091258157900850882850983A38582B5
:102873000A85830BE064FE7004A3E064FF6065894E
:102883000889098054E50875F00BA4FAACF075F0DB
:102893000BE509122906603E850A82850B831264C3
:1028A3006DA3E06C7003A3E06D702BEA2403F50EB7
:1028B300EB3400F50F1228F3700BAC0EAD0FEEFAEC
:1028C300EFFB120B2F850C82850D831256EA7901DB
:1028D300900332123A271241141228FEE5089AE5B2
:1028E300099B40A18005740D1208AB7F08020626E0
:1028F3000A0A0AFB120B35E9640122900332124BD8
:102903003AC322A42CFB900334E02AFAA3E03BFB56
:102913008A828B83E0540F2274EF1203768A828BB0
:1029230083A385820E85830F12581AEA240BF508B8
:10293300EB12411C850882125818751000EA240313
:10294300F50CEB3400F50D1228F37065750A00756C
:102953000B008055E50A75F00BA4F8AAF075F00B8F
:10296300E50B1229BB540F603DAE82AF83EE240307
:10297300FCEF3400FDAA0CAB0D121E79E964017063
:10298300258E828F83A312405B850E82850F83E899
:10299300F0A3E91229C0E50AF0A3E50BF0751001D5
:1029A300900332125AB81225CA90033212391A40D0
:1029B300A3A9107F09020626122A4AE0221229C47B
:1029C30022F08508828509832274F3120376EAFED6
:1029D300EBFF8E828F83A385820A85830B12581A9D
:1029E300EE2403F508EF12411C7C007D000A0A0A5D
:1029F300FB120B2FEEFAEFFB120B11E9F50C74012E
:102A0300650C703EEE12520DEF122A5475F00BA4B2
:102A1300F8AAF075F00BE9122A4AA3124B30850A83
:102A230082850B83123E85E82403FEE93400FFEE22
:102A3300FAEF1228F6700BEEFCEFFDAA08AB0912B1
:102A43000B2FA90C02353912270BF8A3E039024AE0
:102A5300411240561244A8E82274EE12037674E63B
:102A6300120923EAFEEBFFEE240BF50AEF1225D23F
:102A7300850A82125818750E0175080075090075CC
:102A83001000751100E4851882851983F0EE240384
:102A9300FCEF3400FD7403120AF5AA82AB83120B18
:102AA3002F8E828F83A385820C85830D8518828563
:102AB3001983AA82AB83120B59E964017034740B36
:102AC300120AF512405B850A82850B8312410E744C
:102AD30001120AF512405B850C82850D83E0687054
:102AE30003A3E0696055851882851983858208856B
:102AF3008309740D120AF5E41256DBF8A3E0F974A6
:102B03000E120AF512410E740D120AF5AA82AB8356
:102B1300120B53E96401700B740D120AF5858210D0
:102B2300858311781012087EAC08AD09EEFAEFFB2D
:102B3300120B2374021208ABE9F50EEEFAEFFB1247
:102B43000B4DA90E741A0253ACC082C0837800796E
:102B53000080031232CD1228FEE89AE99B500DE85B
:102B6300FAE9FB122B7470EB7900800279010241C0
:102B730074EA75F00BA4FAACF075F00BEBA42CFB24
:102B83009003341265F5F583E0540F22C082C083AD
:102B9300902487123437EC75F012A4FCAAF075F078
:102BA30012EDA42AFD79FF7AE47B141215F7024192
:102BB3007474F61203767E007F007C007D008034FF
:102BC3008C088D09E50875F012A4F508ABF075F0D3
:102BD30012E509A42BF509E50824E8F582E5093493
:102BE30014F583E0FBC3994008EAC39B4003123604
:102BF300A21230C8123060C3EC9508ED950940C0AD
:102C0300EEFAEFFB02412CC082C08378007900808A
:102C1300031232CD9024871236175009122FD26433
:102C2300FF70EE80047A007B0002417474F012039B
:102C33007674F31209238A0A8B0BECFEEDFF890CE1
:102C4300EE7001EF6011EEFAEFFB120BA78A088B0F
:102C530009EA7001EB7050120B7D8A088B09EA7048
:102C630001EB60437401851882851983F0120AF51C
:102C7300E50AF0A3E50BF0EEFCEFFD7403120AF591
:102C8300122DC1740B120AF512405B124106E48542
:102C93000882850983A3A3A3A3A3A31255D7AA0AD2
:102CA300AB0B1210B7800BE5087002E50970030245
:102CB3002D397A00E50C6007C3940550027A048528
:102CC3000882850983125709A3A3A3E50CF0EA85BB
:102CD3000882850983A3A3A3A3A3F07402850882B2
:102CE300850983A3A3A3A3A3A3A3A3F074018508C6
:102CF30082850983A3A3A3A3A3A3A3A3122D4DA3F7
:102D0300A3A3F0E5082410F582E5091255B0E4F019
:102D1300122D4DF012520BE5091255B0E4F09081DB
:102D2300A0780C120AB6E508240CF582E5091255C1
:102D3300B0780C120AA7122F334005E4901A3FF023
:102D4300120F91AA08AB090228E9A312406A02559F
:102D5300C974F212037674F31209238A088B09ECFF
:102D6300FEEDFF750A00EEFAEFFB120BA78A0C8B40
:102D73000DA80CA90DE87001E9603E88828983E003
:102D830065087004A3E06509602F88828983A3A383
:102D9300A3A3E0C3940550211256E674018518825B
:102DA300851983F0120AF51256EAEEFCEFFD74035F
:102DB300120AF5122DC1750A01A90A023DEB123A56
:102DC3009B120B652274F6120376122E2C7002E509
:102DD300836010A3A3A3A3E06009C39405500479FF
:102DE300018002790002412C74F6120376122E2C14
:102DF3007002E5836010A3A3A3A3E06009C3940357
:102E0300500479018002790002412C74F612037692
:102E1300122E2C7002E583600BA3A3A3A3E070041E
:102E230079018002790002412C120BA18A828B83E3
:102E3300E58222C082C083EAFCEBFD7A007B0012AC
:102E43000BAD024174C082C0837C007D0080F074AE
:102E5300F212037674F31209238A0C8B0D8C0A8DFC
:102E63000B7E007F0080211231B2120AF5122ECAA6
:102E730060137403120AF5AC82AD83AA0CAB0D1276
:102E83001E79E970351236A29024871236B250307B
:102E930012307C60F0E50C7002E50D70CA74FF65BA
:102EA3000A700474FF650B60DC850882850983E082
:102EB300650A7004A3E0650B70CBAA08AB09800414
:102EC3007A007B00023DEBE8F0A3E9123ABF120B54
:102ED3005FE92274F412037674F312092375080070
:102EE300120BA78A0A8B0BAE0AAF0BEE7001EF60D1
:102EF3002A7401851882851983124093F8A3E0F997
:102F0300740B120AF5123AB7120B477C127D007943
:102F1300FFEEFAEFFB1215F7750801122F33500974
:102F23007401901A3FF0120F91A908740D0241B574
:102F33007A047900120B779024871236B8EA98EB5B
:102F4300992274F7120376E9FE74FE6A700374FF24
:102F53006B780079007005804D1232CD9024871272
:102F630032C05042E8FCE9FDEC75F012A4FCAFF06E
:102F730075F012EDA42FFDEC24E4FCED3414FD8C6C
:102F8300828D83A3A3A3A3E064FF60CD8C828D8392
:102F9300E06A7003A3E06B70C08008EC6005C39423
:102FA30005401C1232CD902487123617501A122F67
:102FB300D2FCEE70E674016C600574036C70E48AF5
:102FC300828B83124B3080047AFE7BFF02349CE8B1
:102FD300FAE9FBEA75F012A4FAACF075F012EBA46F
:102FE3002C1230E722120BB9024174C082C08379DC
:102FF3000180F274F01203768A0A8B0B7A0479014A
:10300300120B778A0CEA7001EB6040EAC333FAEBE8
:1030130033FB12168D8A088B09AE08AF09EE7001D7
:10302300EF60237AFE7BFF120BBF74FE6A7003749A
:10303300FF6B601B850882850983123E85E50824A2
:103043000212411880E1750C0080047E007F008528
:103053000A82850B83E50C12466F0228EE902487C3
:1030630012306722E493F508740193F50922902442
:1030730087E493FA740193FB22EEF8EFF9E875F015
:1030830012A4F8AAF075F012E9123197A3A3A3A32F
:10309300E064FF2274F71203767C007D008004193C
:1030A3001230C81230BF500D1230D1C3940550F006
:1030B300E970EC80047A007B0002349C123071C307
:1030C300EC9AED9B22EC24010CED3400FD22ECFA8A
:1030D300EDFBEA75F012A4FAAEF075F012EBA42E34
:1030E3001230E722FBEA24E4FAEB3414FB8A828BE6
:1030F30083025F6674F312037674F3120923750A6D
:1031030000750B008052E50C12559D8E828F831241
:103113005762E0687003A3E06960257401120AF541
:10312300E0687003A3E0696017EE2402FCEF34004B
:10313300FD7403120AF5AA82AB83121E79E96007B4
:10314300EEFAEFFB1210C3050C90248FE493FAE51B
:103153000CC39A40B11225CA1231AAE50A98E50BAD
:1031630099502CE50A75F012A4F8AAF075F012E54F
:103173000B123197E064FF7004A3E064FF60D61282
:1031830031B2120AF5122ECA60CB750C0080BA74E4
:103193000D023536A42AF9E824E4F508E93414F5D8
:1031A30009850882F58322902487E41236B92274B4
:1031B3000185188285198312406A1244A8740B2270
:1031C30074F61203761237BC123437EC8508F0A478
:1031D300CCAAF08509F0A42AFA8508F0EDA42AFD0B
:1031E30079FF7AFB7B191215F790033774E9F0A383
:1031F300740BF090033974E3F0A3740BF090033B6A
:10320300740DF0A3740CF090033D741FF0A3740CC1
:10321300F090033F7425F0A3740CF0900341742BDA
:10322300F0A3740CF09003437431F0A3740CF0E436
:10323300900336F002412CC082C08378007900806D
:10324300031232CD1236145024E8FAE9FBEA75F082
:103253000EA4FAACF075F00EEBA42CFBEA24FBF5FC
:1032630082EB123CAE70DAAA82AB8380047A007BD5
:103273000002417474F71203767A007B00780079B8
:1032830000802FE8FCE9FDEC75F00EA4FCAEF075B0
:10329300F00EEDA42EFDEC24FBF582ED123CAE60A6
:1032A3000EA3A3A3A3A3E0FCEA2CFAEB3400FB12C6
:1032B30032CD9024851232C040C902349CE493FC81
:1032C300740193FDC3E89CE99D22E8240108E934D5
:1032D30000F92274EC12037689108A088B098C0D8D
:1032E3008D0C7414120AF5125AB87E007F00120C6A
:1032F30049AA08AB09120C4F8A0E8B0F85088285E9
:103303000983A3A3A3A3A3A3A3A3E06401700775E5
:1033130008018E0980058E08850D0974FE650E70FF
:103323000474FF650F700302341A8E0D8002050DBD
:10333300850D129024851262AF5071E50D75F00E64
:10334300A424FBFEE5F0123775651070E1A3E06578
:103353000870DB8E828F83A3A3E0650E7004A3E065
:10336300650F70CA8E828F83A3A3A3A3E065097040
:10337300BD750D00E50DC3950C400302341AE50D30
:10338300C333F8E433F9E50A28F508E50B39F50901
:103393008508821260AF120BF5E9700C85088285EF
:1033A30009831260B1120C01050D80C8120BDD8A6E
:1033B300128B13AE12AF13EE7001EF605A8E828F31
:1033C30083E510F0A3E5081240F7A3E50EF0A3E5AB
:1033D3000F1240F7A3A3A3E509F0902497E493C346
:1033E300950C5004E493F50C8E828F83A3A3A3A3BF
:1033F300A3E50CF0850A08850B09750A0078081205
:10340300087AE50CC333FCE433FDEE2406FAEF340B
:10341300001257021208ABEEFAEFFB7F0C020626EE
:10342300C082C08312343479FF1215F77901024147
:1034330074902483E493FC740193FD2274F71203C4
:1034430076EA7001EB60498A828B83A3A3A3A3A3CB
:10345300A3E5827002E58360377E0080010E8A82D5
:103463008B83A3A3A3A3A3E0FFEEC39F5022EEC3CA
:1034730033F8E433F9EA28F582EB39F583A3A3A300
:10348300A3A3A3E06C7003A3E06D70D17901800264
:1034930079008005740D1208AB7F0102062674F3D0
:1034A300120376EA2405F8EB3400F9E8FEE9FFEAB3
:1034B3007001EB606F8E828F83E06073EA240608ED
:1034C300EB3400F9E0F50B750A00800B8E828F83D5
:1034D300E014F0605A050AE50AC3950B5046E50A65
:1034E300C333F508E433F509EA2508F508EB350994
:1034F300F50974062508F508E43509F509850882F8
:10350300F583E06C7003A3E06D60C18508828509D3
:1035130083E0F508A3E01256E4E824020808E9343E
:1035230000F980B18E828F83E06004790180027993
:103533000080031208AB7F0502062674F712037698
:10354300EA7001EB603712645BC0E0902497E49368
:10355300FED0E0C39E502688828983E0C333FEE415
:1035630033FFEA2EF582EB3FF583A3A3A3A3A3A323
:10357300ECF0A3ED125F6C04F07901800279000294
:10358300349C74F212037689088C091236C17005D3
:10359300125AB4800312369A74FE650A700474FFDB
:1035A300650B70067A007B008064780079008018D0
:1035B3007401650C700F8C828D83E0650A7004A31F
:1035C300E0650B60491232CD12361450D7123A43DC
:1035D3008A828B83E0650870ECA3E0F50CEA240291
:1035E300FCEB3400FD8E828F83E0640160C2E50C46
:1035F30070D38C828D83E0650A7004A3E0650B7041
:10360300C48A828B83A3A3A3A3E0650970B7023D99
:10361300F0902485123074C3E89AE99B2274F21265
:103623000376EA2408F8EB12408A64017005125A03
:10363300B4800312369A74FE650A700474FF650B36
:1036430060527E007F008047EEF8EFF9E875F00ED8
:10365300A4F8AAF075F00EE9A42AF9E824FBFAE924
:103663003419FB850882850983E06401701B8A8213
:103673008B83A3E0640170148A828B83A3A3E06528
:103683000A7004A3E0650B7003120BEF1236A2124B
:1036930036AF40B4023DF0120C378A0A8B0B22126C
:1036A30036A7FF22EE24010EEF3400229024851268
:1036B30036B8022714E493F8740193F9C322EA2479
:1036C30008F8EB125801E064012274F312037689BF
:1036D3000C8A0A8B0B7508007509007E007F008039
:1036E3001B1239F4650C7011AC0AAD0BAA82AB83C3
:1036F300120BF5E960031241141236A21236AF40E1
:10370300E0AA08AB0902353974F1120376890D8AF0
:103713000A8B0B8C0E750C0075080075090080056B
:10372300050C1241149024851231ADE50898E50982
:10373300995038E50875F00EA4F8AAF075F00EE577
:1037430009A42AF9E824FBFEE9123775650D70D246
:10375300AC0AAD0BEEFAEFFB120BF5E960C4E50C16
:10376300C3950E40BBEEFAEFFB80047A007B0002A8
:1037730026A43419FF02283B74F612037675080059
:10378300750900780812087E1237BC1239D1E9A4F2
:103793002AF9758324758283E49328FCA3E493397F
:1037A300FD7A417B001216F374021208ABE9FE6046
:1037B30003120C25EEF902412C90248312306790FA
:1037C30024852274F612037674FE1209231237EA53
:1037D30012087E750802750900780812087E7C00BD
:1037E3007D007A41024121851882851983E4F0A383
:1037F300123A3785820885830978082274F4120304
:103803007674E71209237E007F0085188285198369
:10381300858208858309780812087E7508028E0957
:10382300780812087E7C007D007A4112392512083F
:10383300ABE960030239098E0A8E0B8058740212B9
:103843000AF5AC82AD83740D120AF5124B30120CDB
:103853003D740A120AF5E060397411120AF5858283
:1038630008858309780812087E7412120AF5E0FDB0
:103873007411120AF5E0FC7404120AF5AA82AB83F0
:10388300740D120AF5E0F9120BE974021208AB1277
:1038930036A21225CA85188285198312391A5066F1
:1038A300740B120AF5858208858309780812087E4D
:1038B300902483120712902483123912E8850AF0A8
:1038C300A4C8AAF0850BF0A42AFA850AF01239E6F7
:1038D3001239251208ABE970B9740A120AF5E4F03B
:1038E300740C120AF5E07003023840740A120AF5E8
:1038F3007401F0740D120AF512405B7402120AF59A
:1039030012410E02385CEEFAEFFB74190241B5E482
:1039130093F8740193F9221244A8C3E50A98E50BBE
:1039230099227B0012170574042274F5120376742E
:10393300F0120923851882851983E4F0A3F0FE8031
:103943005A1239F464FF6050858208858309750A29
:1039530000780812087A1234347405120AF5AA8220
:10396300AB831257031208AB7402120AF58582085F
:10397300858309780812087E902483120712740441
:10398300120AF5123A279024831239D11239E6121A
:103993003A2F1208AB123A171236A7FF1236AF406E
:1039A300A085188285198385820885830978081282
:1039B300087E750802750900780812087E7C007D70
:1039C300007A41123A2F1208AB7410023C8A123962
:1039D30012E88508F0A4C8AAF08509F0A42AFA859C
:1039E30008F022E9A42AF9740228FCE439FD7A419B
:1039F300221239F9E022EEF8EFF9E875F00EA4F897
:103A0300AAF075F00EE9A42AF9E824FBF582E9345B
:103A130019F58322851882851983E02401F0A3E038
:103A23003400F022E0F508A3E0F509227B0012162A
:103A3300FF740422123A3B22F085188285198322EF
:103A4300E8FAE9FBEA75F00EA4FAACF075F00EEBB8
:103A5300A42CFBEA24FBFAEB3419FB22EAF0A3EBD8
:103A6300123ABF22C082C08374F3120923123C2886
:103A73006402700E123AAD120AF5123AB7120B53E2
:103A8300800CEAFCEBFD7403120AF5123A9402412E
:103A930069123A9B120B5922AA82AB83120B2F8510
:103AA3001882851983AA82AB83228A828B8312446C
:103AB300A8740122E8F0A3E9123ABF22123AC32202
:103AC300123A3B80E074F712037674F3120923EC85
:103AD300FEEDFF7404851882851983F0740B120AB6
:103AE300F5EAF0A3EB122ECEF508601D74038E8267
:103AF3008F83A3A3A3A3A3A3A3A3F0120AF5AC826A
:103B0300AD83EEFAEFFB121E7FA908023497C08241
:103B1300C08374F31209237404851882851983F012
:103B2300740B120AF5123A5F120B5F740102416BB8
:103B3300124B3A740D2274F612037674F3120923AE
:103B4300900336E0706E7404851882851983F090B3
:103B53000375123AB1120AF512410E120F6DEAFC07
:103B6300EBFD7403120AF5122DC1120F798A088B2B
:103B730009A808A9097401120AF5E0687003A3E013
:103B830069602B74FE68700374FF6960217401120D
:103B93000AF512410E7403120AF5AA82AB83120FBF
:103BA3007F851882851983AA82AB83120B65740102
:103BB300900336F0740D024129C082C08374F3125E
:103BC3000923123C28FC74026C701E123AAD120ACF
:103BD300F5E8F0A3E9125417704885188285198314
:103BE300AA82AB83120B65803974036C7011EAFCF3
:103BF300EBFD7403120AF5123A94E9702580DB7425
:103C0300016C70128A828B8312405B740B120AF56B
:103C1300E8F0A3E9800B740B120AF574FEF0A374A9
:103C2300FFF00241697404851882851983F08A8242
:103C33008B83A3A3A3A3025F6674F51203767800B4
:103C43007900880888097C007D0080031230C890C1
:103C53002485E493FE740193FFC3EC9EED9F5021F2
:103C6300ECFEED123C9260E4AE08AF0974012EF550
:103C730008E43FF509EA6E7002EB6F70CFA882A9E2
:103C830083E8FAE9FB80031208AB7F03020626FFF1
:103C9300EE75F00EA4FE85F00A75F00EEFA4250A6A
:103CA300FFEE24FBF582EF123CAE223419F583E0DC
:103CB30064FF22C082C08390034A7483F0A3740E0E
:103CC300F090034C747DF0A3740EF090035074B520
:103CD300F0A3740CF002417474F7120376EAFEEB5E
:103CE300FF900384E0FA74086A601974046A60142C
:103CF3008E828F83E06401704612404C124C4EE07A
:103D03006406703B8E828F83A3A312405B74FE68AC
:103D1300700374FF696028900375E0687003A3E083
:103D230069700BEE2415F582EF125D6F600AEEFAEF
:103D3300120F31E9F508800AEEFA120F3780F47595
:103D430008C2EEFAEFFB121693A90802349C74F230
:103D53001203768A088B098A828B83A385820A855C
:103D6300830B8A828B83E0F8850A82850B83E028A4
:103D7300FAE43400FB12168D8A0C8B0DAE0CAF0DDA
:103D8300EE7001EF605C850882850983E0FC7D00AD
:103D930079001215F78E828F83A3A312581A120F7C
:103DA300738E828F83A3A3A3A3123E858508828586
:103DB3000983E0F8EE28F8EF3400F912404C12447E
:103DC3008BC0E01255AAD0E0F0120F85EE240E123C
:103DD30055ADE9124066E0C0E0EE24111255ADD0B6
:103DE300E0F0EEFAEFFB8005740D1208AB7F0602DC
:103DF300062674F412037674EB120923EAFEEBFF32
:103E0300900346E07002A3E070677A077B00121606
:103E13008D900346123E85900346E07002A3E06056
:103E23004C9003461253578F838E8274071207DD1B
:103E33008E828F837808120AB68518828519837853
:103E430008120AA78E828F83A3A3A3A3E0C0E07402
:103E530005120AF5D0E0125F63C0E07404120AF59C
:103E6300D0E0F07407120AF5123FC580067910807E
:103E730002790174150241B5124056124B3A8882F9
:103E83008983EAF0A3EBF022C082C083900346E06B
:103E93007002A3E06010900346124B301216939009
:103EA3000346E4F0A3F0120EA112106302417474EE
:103EB300F312037674EB120923ECFEEDFF74221266
:103EC3000AF57808120AB67426120AF5E0FC74277C
:103ED300120AF5E0FD7428120AF5E0F50C740F6C74
:103EE3007005740F6D6012901AC6E0640270057954
:103EF300C1023FC0ECC39D40F69003857808120AC7
:103F0300A7E990038BF0EC900389F0ED90038AF01E
:103F1300E50C90038CF074FF6A700374FF6B701FE1
:103F2300901AD3E064FF7004A3E064FF70051216D7
:103F330009800C901AD312405FE8F0A3E980079040
:103F43000382EAF0A3EBF0EE7001EF6017EEFAEFF5
:103F5300FB121123E96401700BEEFCEFFD7A967BF3
:103F630003121E7F900375E4F0A3F0900378F0A38F
:103F7300F0900395F0901AC6E06402700A740F90F3
:103F83000389F090038AF07405900384F07404129B
:103F93000AF5E4F09003857808120AB6851882853D
:103FA30019837808120AA790038BE0C0E074051206
:103FB3000AF5D0E0F07407120AF5123FC574150232
:103FC3003536E4123FCA22123AC3121EA922E0F97F
:103FD30012174122C082C083900345E07003121977
:103FE3000F120C85024174C082C083900345E070B8
:103FF30007E4901A3EF080317401901A3EF090036A
:1040030045E064FF60237C41E0C394415002E0FC3F
:10401300ECFAE0C39AF0EC75F0E8A4CCAAF075F0E2
:1040230003A42AFD7A801240387A3E7B1A79411222
:104033001E970241747B009003D0E0F912173522DA
:10404300F582EF124056740122EE12405122240BE6
:10405300F582EF3400F583221244A8221244A8907B
:1040630003822212406A22F0850882850983A3A372
:1040730022F8A3E0F922C082C083EB90038CF012F4
:104083000E8F024174F8EF1242A18882F583E02279
:104093001240FBA3E02274F712037674F81209238B
:1040A300EAFEEBFF7900900384E064087041851811
:1040B3008285198374FD12581C120F6D7402120A43
:1040C300F5123E857405120AF5E41240F7E0C0E0EC
:1040D3007404120AF5D0E0124102C0E07406120A19
:1040E300F5D0E0F07407120AF512449C120FAF7476
:1040F300080234991240FB22F08E828F83A322F0B0
:1041030002283B850882850983A3A3E8F0A3E9F08D
:1041130022E5082401F508E5093400F50922123ADD
:104123002F1208AB74021208AB7F02020626C0826C
:10413300C083900356743FF0A3740DF09003FC7496
:1041430009F0A37410F090035A746FF0A3740DF088
:1041530090035C743FF0A3740DF090035E7475F0EC
:10416300A3740DF0800B740B120AF5123B33120883
:10417300ABD083D0820205AC74F412037674F912C7
:1041830009238A088B098C0A8D0B8518828519836C
:104193007808120AA77404120AF5E9F07405120AE2
:1041A300F5E4F07406120AF512449C120C6D7407C0
:1041B30080001208AB7F0402062674F01203768A8D
:1041C300828B8312590CEE7001EF700302429EEA58
:1041D3002402F8EB1242A1900312E07002A3E06004
:1041E3001388828983E0F9EEFAEFFB900312124CF5
:1041F3004E122055EE2406F8EF3400F9880A890B95
:10420300EE2409080808EF3400F9880C890D888228
:10421300F583E06402704B850A82850B83E05402C8
:104223006052850882850983E064E96047EE240AC9
:1042330008EF126460700A901AC8E00488828983C8
:10424300F0E014F07404850C82850D83F0901AC994
:104253001255C4E8F0A3E91264757001EB70031200
:104263005F48850C82850D83E0FA74026A600574E9
:10427300066A7027850A82850B83E0A2E0501C85BD
:104283000882850983E0F9EEFAEFFB121F3F850AE6
:1042930082850B83E054FEF0A3E0F00228EE3400A5
:1042A300F9880889092274EC12037674DD12092354
:1042B300EAFEEBFF8C128D137437120AF5780C1299
:1042C3000AB67510007405120AF5AC82AD83121F8D
:1042D3008DEE240BF508EF12411C7405120AF5E06C
:1042E300A2E55019751001AC82AD8385088285095A
:1042F30083124B30121F4BE96003024444740512CE
:104303000AF5E0A2E650227406120AF5E05403709F
:10431300187405120AF5E0540CFA740C6A600A74F6
:10432300086A600575110180037511007405120A8E
:10433300F5E05403FA74026A7013AC82AD83850806
:1043430082850983124B30121555024444EE24062C
:10435300F50AEF1225D274016A7037E51160031272
:10436300447A7405120AF5A882A9837403120AF524
:10437300E8F0A3E91244A185188285198312448BBE
:10438300C0E07402120AF5D0E012449D1220290203
:104393004444EA600302444490036CE06401700CFB
:1043A300850A82850B83E070030244447422120A57
:1043B300F574021244A1741A120AF512410EE511A2
:1043C30060087405120AF512447A7405120AF5E0BE
:1043D300540C64047073EE240FF582EF125D6FC00A
:1043E300E07417120AF5D0E0F0900314E07002A312
:1043F300E0604E120F738A088B09A808A909741A82
:10440300120AF5E0687003A3E0697035780C1208AE
:1044130076E510F5087808120882781212087EA94A
:1044230011740C120AF5AC82AD837421120AF5AA39
:1044330082AB83900314124C4E122055740712085A
:10444300AB74231208AB02341E780C120876781270
:1044530012087E9003821206E5A9107422120AF54F
:10446300AC82AD83740D120AF5AA82AB83121F339B
:1044730074081208AB80CAAC82AD838508828509B3
:1044830083124B3A121F8722E8F0A3E912449322C6
:10449300F0850A82850B83E022E4123ABF221229B7
:1044A300C41244A822E0024074C082C083121801DF
:1044B300024174C082C083121807024174C082C0D3
:1044C3008312180D024174C082C083121813024173
:1044D3007474F71203767409120AF5E0F508780884
:1044E30012088212181F7401023499C082C0831209
:1044F300182B024174C082C083121831024174C068
:1045030082C08312183702417474F7120376EAFEED
:10451300EBFF74016970107900120DB17C1E7900F4
:10452300EEFAEFFB120D2D02349C74F41203767431
:10453300F91209238A088B098C0A8D0B7413120A4A
:10454300F5124B3090116EE07002A3E06027E9850D
:104553001882851983F07401120AF57808120AA7E4
:10456300EAF8EBF97405120AF5123AB790116E12D4
:104573004C4E1220550241B1C082C083121867020B
:10458300417474F7120376901A41E0F97F00800BAF
:104593001247C2540D64017001190F12477F500373
:1045A300E970ED02349C74F7120376901A42E0F935
:1045B3007F00800B1247C2548D64817001190F1262
:1045C300477F5003E970ED02349C74F3120376893C
:1045D3000CE975F006A4F8A9F0740C28F508E43981
:1045E300F509EA2508FAE43509FB12168D8A0A8BC8
:1045F3000BAE0AAF0BEE7001EF6025AC08AD097985
:10460300001215F712404CE50CF0EE2508F8EF35D3
:1046130009F98E828F83A3A3A3A3A3A3A312410C9F
:10462300EEFAEFFB02353974F6120376EAFEEBFF7E
:10463300120D09901A40E0FAE9C39A400990035217
:10464300124B30120D0FEE2402F8EF1242A1900329
:1046530054E088828983F0900354E00412466F1279
:104663000D15850882850983E00237B8F0EEFAEF6D
:10467300FB22C082C0837900900352800109124B50
:10468300308A828B83E5827002E58370F002417485
:1046930074F7120376EAFEEBFFEE7001EF605E90B3
:1046A3000352E07002A3E06054900352124EE17A89
:1046B300007B00800FAA82AB83124EE1E582700279
:1046C300E5836039EE65827003EF658370E78E8260
:1046D3008F8312405B900352125357EE6C7002EFBC
:1046E3006D700590035280048A828B8312410EEE13
:1046F300FAEFFB121FF9EEFAEFFB12169302349C4A
:10470300C082C083900352E0F8A3E08003ECF8ED8D
:10471300F9E87001E96009125353EC7001ED70ED93
:104723008A828B83E4F0A3F0E87001E96006888253
:1047330089838003900352123E8502417474F712F9
:10474300037690035280048A828B8312581070017F
:10475300EB60227F0080010F12477F50EAEF75F074
:1047630006A4FCADF0EA2CFCEB3DFD74101247D619
:104773006970E480047A007B0002349C1247E3FCF6
:10478300EFC39C2274F71203767800800108124766
:10479300DFFDE8C39D5025E875F006A4FEAFF0EAFF
:1047A3002EFEEB3FFFEE2410F582EF125D6F697072
:1047B300DCEE2411F582EF125D6F4CF002349CEFB6
:1047C30075F006A4FCADF0EA2CFCEB3DFD74111270
:1047D30047D6222CF582E43DF583E0221247E322FB
:1047E300EA240BF582EB3400F583E02274F612031E
:1047F30076120E297A008010EA12575D1248801251
:104803005768F0124A39F00A9024991262A840E8D6
:104813007A00801E8A08750900740378081209D883
:10482300125D5E88828983124880A3A3A3A3A3A3F6
:10483300F00A9024961262A840DA7A00801A8A0855
:10484300750900740378081209D8E5082486F582EF
:10485300E50934191258180A1262A540E190248917
:10486300E493900360F012486F02412C7CE87D03CF
:104873007A107B009003D0E0F912173B2212488490
:1048830022A374FEF0A374FFF0E488828983A32239
:1048930074F012037674F51209238A088B09890AC6
:1048A3008C0BE9A2E050147508FC7509FFA2E150D6
:1048B30005D2E402495DD2E302495D120E0B8A0C74
:1048C3008B0DA80CA90D900375E0687003A3E06934
:1048D30070057900024A34AC0A7902AA08AB0912BE
:1048E3000E05E960EDE50AF50C780C1208827902F1
:1048F3007CFE7DFFAA08AB0912504F1208ABE9609A
:1049030003024A32E50AC2E5F50A9003C2E0704C9D
:10491300E50AA2E640467403120AF5AC82AD83AA07
:1049230008AB09120B3BE9702D124B40F8EBF9EA87
:104933007001EB6027E82402FEE93400FF0A0AFB5A
:10494300120B35E96016EEFCEFFD7403120AF5AAAB
:1049530082AB83121E7FE50AD2E5F50A900355E088
:10496300F50C900375E0F50EA3E0F50F780E120831
:104973007E7D017C00900355E0F9AA0EAB0F120D6A
:10498300BD74021208ABE9FA900355E004F0EA6043
:1049930003024A32E50AA2E550047A0E80027A063F
:1049A3007401120AF5125AC78A0E8B0FAE0EAF0F9F
:1049B300EE7001EF6075124A4712404D123AB1880A
:1049C300828983F07478550A124A39A3A3E50C123D
:1049D3005D73E508F0E50988828983A3A3A3A3F0A7
:1049E300E488828983A3A3A3A3A3F0E50AA2E550E5
:1049F300147403120AF5AC82AD83E82406FAE93491
:104A030000FB121E7F8E828F83A3A374FD12581C9A
:104A1300E50B600EC3941E5009EE24131255ADE549
:104A23000BF0EEFAEFFB120C61800679108002792D
:104A3300C7740B0228EBA3124A3E22F08001F988C7
:104A430082898322EE24171240537401F0120F6DF2
:104A5300EE241A124053EAF0A3EBF0EE22C082C018
:104A63008390120FE06401901AC77006E0FC79018D
:104A73008004E0FC79037A007B00120D2D0241745F
:104A830074F41203768A088B09E9FE120FE5E960D4
:104A9300067AFF7BFF8078901AC6E0640270637920
:104AA30000124B15EA7001EB604212645BFC740167
:104AB3006C7022900374E08A828B83A3A3A3A3F078
:104AC3008A828B83A3A3124B3074FE6A700374FF34
:104AD3006B6010803A74036C601A74046C70047A0F
:104AE300FE80B088828983E0640270089003C1E08D
:104AF3006402700E124B407001EB6006AA08AB090A
:104B0300800DAA08AB09900356124C4E1220550291
:104B130041B8AA08AB09124B1D22120E0BEEF91273
:104B23000DFF22EA240BF582EB3400F583124B3A96
:104B330022850E82850F83E0FAA3E0FB22124B4805
:104B43001210A5EA22900382E0FCA3E0FDAA08ABC1
:104B5300092274F7120376EAFEEBFF120B8FE9705A
:104B63000AEEFAEFFB120B9BE96006EEFAEFFB800D
:104B7300047AFE7BFF02349C74F21203768A088B5C
:104B8300098C0A8D0BE9FE7F00120FE5E9790060BD
:104B930003024C44AA08AB091265E67002E5836080
:104BA30017A3A3A3A3A3E0FA74026A704F9003C1EF
:104BB300E064027003024C42AA08AB0990035C1242
:104BC3004C4E122055120BA18A0C8B0DA80CA90D6B
:104BD300E87001E96069E82405F582E9125D6FA2D6
:104BE300E0505C750C01A2E1501C7901AC08AD09E1
:104BF300AA0AAB0B120D5DE9700F804374036A7050
:104C03003E750C028003D2E1F0900375E0650A70F3
:104C130004A3E0650B700E7C1EEEF9AA08AB091223
:104C23000D2D0F801AA90CAC08AD09AA0AAB0B1203
:104C33000D5DE9700A0FEEF9AA08AB09120DB1EF89
:104C4300F9023DF0EEFAEFFB900358124C5222E0CA
:104C5300F8A3E0F58388822274E812037674F012D5
:104C630009238A148B158C088D097428120AF5E020
:104C7300F510A3E0F511900402E07002A3E06012C6
:104C83001265EC7002E5836009A3E0700579000208
:104C93004EC0E514241DF516E5153400F5178516E9
:104CA30082124EDFA3E0F50A8882898312502FFA1D
:104CB30088828983A3A3A3A3E0F9EAFEE9FFAA08F4
:104CC300AB09120DB7E9FA124EE7E02AF50B530AC6
:104CD30078E514240BF50EE5153400F50F7808126A
:104CE300087E7D00124ED21208ABE9FA74036A60A3
:104CF3009CEA70407418550A7003024DDEE50AD22F
:104D0300E0F50AA2E45004D2E1F50AE50AF50D78CC
:104D13000D120882124EC51208ABE9701785108276
:104D230085118374FFF0A3F0850E82850F83124BE8
:104D330030121825851082851183E064FF7004A367
:104D4300E064FF60399003C1E064027003024C9099
:104D5300850E82850F83E0FAA3E0124C4A12205598
:104D6300EA65087003EB65096003024C90124C4737
:104D7300122055851082851183EAF0A3EBF07808A1
:104D830012087E7D01124ED21208ABA90AEEFAEF89
:104D9300FB120E0B8A088B09A808A909900375E07A
:104DA300687003A3E0696003024EB7EEFAEFFB12EB
:104DB3002E2C7002E5836064A3A3A3A3E0FA74011D
:104DC3006A600574026A7054851882851983AC82FF
:104DD300AD83EEFAEFFB120B3B805590036EE06060
:104DE3000FE50AF50D780D120882124EC51208ABB5
:104DF300E50AF50D780D12088279027CFE7DFFEE3F
:104E0300FAEFFB12504F1208ABE96003024D3785EE
:104E1300108285118374FFF0A3024D80120F6DEA97
:104E2300FCEBFD851882851983AA82AB83121E7F52
:104E3300851482851583A3A3A3A3A3A3A3A3E064DB
:104E430001701AE5142415F582E5151255B01253B5
:104E5300577408120AF5AA82AB83121E7F85168245
:104E6300851783124C4EA3E04430F50878081208E6
:104E7300827401120AF5858208858309780812086D
:104E83007E740B120AF58582088583097808120857
:104E93007EE50CF50878081208827900EEFCEFFD38
:104EA300850E82850F83124B30120D57740612083C
:104EB300AB024C90124EE7E50BF0120F8574100213
:104EC30062867901AC08AD09124B3412504F22AC03
:104ED3000BA90C124B34120DBD740222F58312443C
:104EE300A8024A42851682851783124C520255C97D
:104EF30074EE12037674F01209238A108B11EA24DC
:104F03001DF50EEB3400F50F850E82124EDF1250A5
:104F13002FFC88828983A3A3A3A3E0FBECFEEBFF12
:104F230088828983A3A3A3A3A3E0FC88828983A3A4
:104F3300A3A3A3A3A3E0FAE4CAFBECF508EBF509EA
:104F430088828983A3A3A3A3A3A3A3E0F50A8882EA
:104F53008983A3E05478F50BA2E45016E82408FCF7
:104F6300E93400FD7408120AF5AA82AB83121E7F8E
:104F73007A08E50BA2E55024EAF8850E82850F83B3
:104F8300E028F8A3E03400F9740828FCE439FD852F
:104F93001882851983AA82AB83121E7FAC0AA90CDF
:104FA300EEFAEFFB120DC3E9FA74036A607990031A
:104FB30075E06E7003A3E06F605EEA7054E50BF575
:104FC3000D780D12088212503B1208ABE970587825
:104FD3000B1208827401120AF585820E85830F78FD
:104FE3000E12087E740B120AF585820E85830F78E4
:104FF3000E12087EE50CF50B780B120882A90AAC99
:1050030008AD09EEFAEFFB120D5774061208AB80D8
:105013001674046A701180B7E50BF50A780A120852
:105023008212503B1208AB74100253ACA3A3E0F5F9
:105033000C88828983025F677901E510240BF5826E
:10504300E511124056124B4B12504F22120D7B7436
:10505300012274E812037674F5120923EAFEEBFFCA
:105063008C088D0989127423120AF5E0F50F742454
:10507300120AF5E0F516A3E0F5177428120AF5E015
:10508300F50EA90F120DC98A108B117401120AF5BE
:105093007408F0E50EA2E450037410F0E50EA2E5E7
:1050A3005004E02408F0851882851983AA82AB8313
:1050B300120FCD8A0C8B0DEA7001EB7003025206BE
:1050C300EA2417F582EB124046F0120F6DE50C242B
:1050D3001AF582E50D1255B0123E85E50C2418F53C
:1050E30014E50D3400F515E50C2416F50AE50D124B
:1050F30025D27403120AF5AC82AD83AA10AB111248
:105103000B3BE9601E7401850A82850B83F07403EF
:10511300120AF5A882A983851482851583E8F0A372
:10512300E98025E50EA2E45020E5106E7003E51139
:105133006F70167401850A82850B83F0851482854E
:105143001583E516F0A3E517F0E50C12520DE50DF6
:105153001255B0125AB87402850A82850B83F0A3E4
:10516300E50E125212E50FF0EE850A82850B83A33A
:10517300A3A3F0EF850A82850B83A3A3A3A31252F3
:1051830012A3A3A3E508F0E509850A82850B83A38F
:10519300A3A3A3A3A3F0AA10AB11120DB7E9251281
:1051A300850A82850B83A3A3A3A3A3A3A3F07508F6
:1051B30000E50EA2E45014AC16AD17E50A2408FA74
:1051C300E50B3400FB121E7F750808E50EA2E550BF
:1051D3001C7426120AF5125357E50A2508F8E50B45
:1051E3003400F9740828FAE439FB121E7F850C8217
:1051F300850D83A3A3E510F0A3E511F0AA0CAB0D75
:10520300120C61740B026286E508240BF58222F00E
:10521300850A82850B83A3A32274F21203768A087C
:105223008B09ECFEEDFF890A7900120E0B900375D2
:10523300122A576A7002E96B70047901802A750B90
:1052430001E865087003E965096012A90AEEFCEF3D
:10525300FDAA08AB09121021E9F50B80097901EECB
:10526300FAEFFB120CDFA90B023DF074F512037683
:105273007ECE7F177A1012535B7001EB70031248D6
:105283006F900360E014F0700C902489E493900312
:1052930060F0120E17750A008052EE2404F582EFB7
:1052A300125D6F603D14F07039EE2405124088647E
:1052B30003701579028E828F831253578E828F83E8
:1052C300A3A3124B30120D5D850882850983E06428
:1052D30001600F8E828F8312581AE4850882850934
:1052E30083F0050AEE2407FEEF3400FF90248C12AE
:1052F300534B40A6750A00802C850A087509007473
:105303000378081209D8125D592407F582E9125D62
:105313006F14F0700E88828983A312581AE488826E
:105323008983F0050A90249612534B40CC750A00EA
:10533300800BE50A1256F2600214F0050A902499D4
:1053430012534B40ED023C8DE493FAE50AC39A22D3
:10535300888289831255DF227B009003D0E0F91203
:105363001747EA2274F6120376E970247900900352
:105373005A124C4E1220558A088B09AE08AF097495
:10538300FE6E700374FF6F701A902493E49360139E
:10539300790190035A124C4E1220558A088B09AE9C
:1053A30008AF09120F91022C031208AB7F0A020601
:1053B3002674F612037674F31209231216098A0867
:1053C3008B09AE08AF09900375E06E7003A3E06F1D
:1053D30060E9120F79EA6E7002EB6F60DEEEFAEFAE
:1053E300FB120FE5E970D4EE7001EF60CEE485188F
:1053F30082851983F07401120AF5EEF0A3EF1254BB
:105403001770B874FE6E700374FF6F60AEEEFAEF40
:10541300FB023BB7123ABF120B53E922C082C0838F
:10542300120F9102417474F2120376EAFEEBFF8CC1
:10543300088D09890A740E120AF5E0F50B74FC6EE7
:10544300700374FF6F70057900023DF07900120E4E
:105453000B8A0C8B0DAE0CAF0D900375E06E7003D1
:10546300A3E06F7006E50BA2E650DCA90B12559082
:105473007001E9701279007AFE7BFF12559070017A
:10548300E97004790280C288828983EEF0A3EFF089
:1054930074FE6508700474FF650960098882898356
:1054A300A3A31256EAE82406F582E91255B0E50BE8
:1054B300F0A2E05003D2E2F0E82404FAE93400FB5E
:1054C300E82405F8E93400F97401650A70267401CB
:1054D30088828983F0900374E08A828B831255D784
:1054E300AA08AB091210CFEA7001EB600302544A19
:1054F3007C00801E88828983E06401700302544A21
:10550300900373E08A828B83124A3AE50AF00254CD
:105513004A0C90248FE493FAECC39A400302544A52
:105523007B0080010B90248C125E4E40F7EC1255E9
:105533009DEB75F007A424D0F582E5F034171255DE
:10554300B4E0687003A3E069700302544A90248CAA
:10555300E4936B70BC7C177D007900EEFAEFFB12CD
:1055630015F78E828F831256EA9003821255C4A3D5
:10557300A3A3A3A3A3E8F0A3E91255CF7401F0EE0C
:10558300240E124043F01255AA74028080120DFFBC
:105593008A0C8B0DA80CA90DE82275F017A4245EC4
:1055A300FEE5F03416FF22EE240DF582EF1240568D
:1055B30022F5831255BA22E0F8A3E0F98E828F8395
:1055C300221255BA8001A3A3A3A3A322F0EE240FB2
:1055D30012405322F09003821255DF22E0FCA3E035
:1055E300FD2274EF1203768A088B098910ECFEED15
:1055F300FF9024901266AF400579050256CBAA08A6
:1056030012186DAA08AB09125752F50A687001E423
:1056130070097AFE7BFF120D8DE9F8C3E8950AE461
:105623009400C365D03340030256C9E875F006A45D
:1056330024E6F50AE5F03418F50BE50A2404F50C25
:10564300E50B12580B7001EB6003121693E510C3C0
:1056530033F50EE433F50FE5106011AA0EAB0F120C
:1056630056CE7002A3E0700E7901805C850C8285B2
:105673000D83E4F0A3F0850A82850B83A3A312565E
:10568300EA850A82850B83A3A882A983E510F0909B
:1056930003CAE0850A82850B83125F6C6024850C44
:1056A30082850D831258107001EB60168E088F09E6
:1056B300750A00780812087AAC0EAD0F1257031260
:1056C30008AB7900800279070229B612168D850C82
:1056D30082850D83EAF0A3EBF0850C82850D83E0D0
:1056E30022F50988828983E508F0A3E509F022758C
:1056F300F006A424E6F582E5F03418F583E022FBF6
:105703001215EB740322E50AF0A3E50B1229C4A3D7
:105713002274F6120376ECFEEDFF740A120AF512F8
:10572300405B88088909125752FAC3E89AE4940047
:10573300C365D0335014E812575D12628E12576856
:1057430012576212410E79008002790402412C1231
:105753000D8DE9F8902499E493221257F3A32212B2
:1057630044A80229C512576C22F088828983025506
:10577300CA74F7120376750800801BE50875F006F6
:10578300A424E8F582E5F03418F583E06A7003A3F6
:10579300E06B60590508902499E493FCE508C39CE9
:1057A30040D9E4936508704574FE6A700374FF6B17
:1057B300703B75080080020508902499E493FAE58C
:1057C30008C39A5028E5081257F3E070EAA3A3121E
:1057D300581AE82404F8E91258011258107001EB22
:1057E300600B1216938E828F83E4F0A3F0023D4C7C
:1057F30075F006A424E6F8E5F03418024A413400B3
:10580300F9E8FEE9FF0255BF125822F583124B3A1D
:10581300EA22125822F58374FEF0A374FFF02234B7
:1058230000F50D850C822274F6120376EA241DF529
:1058330082EB122A54FCE9FD8C828D83A3E0F9608C
:1058430041125905902490E493FEE9C39E4003025C
:105853005902780080278C828D83E0F508A3E0FF4E
:10586300E42508EFF509E833FEE433FFEE242EF5D3
:1058730082EF3419F5831256EA12590508E8C399E1
:1058830040D48A828B83A3A3A3A3A3A3A3A3A3121A
:10589300590C900375E06E7003A3E06F700C7C2EBF
:1058A3007D19124B26120D818055EA2411125D6C6D
:1058B300604DFC74FF2CF07508017808120882759E
:1058C300082E750919780812087EE9F50878081278
:1058D3000882EA2412125D6CF5087808120882EA3D
:1058E3002415F582EB1255B01206E5ECF9EA1252D3
:1058F3000DEB34001260AF120D9974071208AB025E
:10590300412CEC24020C0230CBE0FEA3E0FF227416
:10591300EA12037674FD1209238A148B158C0C8DFD
:105923000D89127419120AF5E0F50EA3E0F50F7450
:105933001B120AF5E0F513741C120AF5E0F5107456
:105943001D120AF5123A27741F120AF5E0F51160C9
:1059530009E510C3332404FA80027A027401120A9F
:10596300F5125AC78A0A8B0BAE0AAF0BEE7001EF22
:105973007003025A908E828F83A3A3E514F0A3E5EC
:1059830015F0EE2404F50AEF125A9AE50CF0A3E59C
:105993000DF0EE24131255ADE512F0EE241412555A
:1059A300ADE513F0EE2417F50CEF125AA464017061
:1059B30038120F738A128B13A812A913850A8285D2
:1059C3000B83E0687003A3E069601EE50E7002E5D7
:1059D3000F600EEE241A1255ADE50EF0A3E50F800D
:1059E30007E4850C82850D83F012404C125AB8747B
:1059F30005850A82850B83F0A385820A85830BA321
:105A0300A882A983E511700A850A82850B83E510B4
:105A1300807874012510850A82850B83F0880A89B2
:105A23000B78007900802A850882850983125AAB96
:105A3300850C0A850D0B850882850983A3125AAB51
:105A4300E5082402124118A385820A85830B1232CA
:105A5300CD850A82850B83A385820C85830D8510F2
:105A63000EC3E8950EE99400A2D265D03340B81274
:105A73000F73EA850A82850B83F0850C0A850D0B6B
:105A8300120F73EB850A82850B83125AC0740312BB
:105A930008AB7F0E0206263400F50B850A82F583D8
:105AA30022125822F583E022E0850A82850B83F0D7
:105AB300228A828B83E0F50AA3E0F50B2212466F5C
:105AC300120C6122EA123ABF120FCD22C082C083A8
:105AD300E9C333F8E433F9EA28F8EB39F974FE281B
:105AE300F58274FF39124B2E02417474F21203765D
:105AF30089098A0AECFEEDFF9024901266AF4004F8
:105B03007900804075080080020508E508C39509FF
