:020000040000FA
:06000000020A710201D0AA
:03002B0002200BA5
:0300330002045B69
:03004B0002079415
:0300530002012384
:03005B000207A3F6
:030063000207AFE2
:03006B0002048309
:03007B000204413B
:1000830002016C0101FF01010503010F10FEFF03D3
:100093000003000300030003000300030003000345
:1000A3000005000A00140028004F009E0000004CC9
:1000B300134C134C134C13081202124C1328220036
:1000C300000000C621000000000C0000000C003FEF
:1000D300065B4F666D7D077F6F00397779010000FE
:1000E300B4140000000000005015000000000000E0
:1000F3000000DF04FF0102004111000000B411649D
:10010300000202000800000502071E02051E020A83
:1001130003B80B02803E0103320002FFFF02020616
:10012300C0E074F21203E2E5A7F8E5A1F958541010
:100133006008121C0453A1EF802AE8A2E0C0D0E9B2
:10014300A2E092F01209AE158182F05017906198E7
:10015300E0F89012B2E0C398A2D265D0335002E81F
:10016300F053A1FE7F0102049AC0E074F21203E28D
:100173009061A4E0F8759B00E591585408600875F8
:1001830091F7121C46802AE5915854106008759126
:10019300EF121C4C801BE8A2E0C0D0E591A2E092D4
:1001A300F01209AE158182F05007E0C2E0F0121D93
:1001B3006C9061A3E0F8E5E9585404600E121D4207
:1001C30075E9FB906193E0A2E640F28097C0E0748A
:1001D300F21203E29061A5E0F8E5BF58540460060B
:1001E30053BFFB121D84020167C3E498F8E499F935
:1001F30012022D8026C3E49AFAE49BFBE920E7E987
:1002030012022DE498F8E499F922C3E498F8E499EA
:10021300F912022DE498F8E499F9C3E49AFAE49BFD
:10022300FB22EB20E7CFE920E7E0B90010BB000891
:10023300E88AF084F8AAF022E4FBC8FA22EB7022E1
:100243007B10C833C8C933C9335007C39AC3DBF221
:1002530080069A50012ADBEAC833F4C8C933F4C9CB
:10026300FA2275F008E4C833C8C933C933C99AC937
:100273009B5004C92AC93BD5F0ECFBC833F4C8E44E
:10028300C9FA22080808EAC0E0EBC0E086F0E7A458
:10029300FA180986F0E7A42AFA180986F0E7A42ACF
:1002A300FA180986F0E7A42AFA1986F0E7A4FBE511
:1002B300F02AFA190886F0E7A42BFBE5F03AFA19BD
:1002C3000886F0E7A42BFBE5F03AFA18180986F044
:1002D300E7A4C5F02BFBE43AFA1908E7C5F0C6A476
:1002E30026F6E5F03BFBE43AFA1886F0E7A4F6E5D8
:1002F300F00826F6E43B08F6E43A08F6D0E0FBD033
:10030300E0FA22E4CFC0E0E4CEC0E0E4CDC0E0E414
:10031300CCC0E075F020C3E633F608E633F608E612
:1003230033F608E633F6181818EC33FCED33FDEE1C
:1003330033FEEF33FFC3EC9709ED9709EE9709EF0F
:1003430097191919400FFFEC97FC09ED97FD09EE7A
:1003530097FE191906D5F0BEECF709EDF709EEF78C
:1003630009EFF7191919D0E0FCD0E0FDD0E0FED079
:10037300E0FF222518C582C0E0E51934FFC583C01C
:10038300E0E518C3958224F810AF088583198582A8
:10039300188008858319858218D2AFCEF0A3E52093
:1003A300F0A37808E608F0A3DEFAEFF0A3E58124D2
:1003B300FAF8E608F0A3E608F0A3E608F0A30808B5
:1003C300E608F0A3E608F0A315811581D0E0FED07E
:1003D300E0F8158115811581E8C0E0EEC0E022C088
:1003E300D02518C582C0E0E51934FFC583C0E0E518
:1003F30018C3958224F310AF08858319858218806A
:1004030008858319858218D2AFC8F0A3E9F0A3EA5F
:10041300F0A3EBF0A37908E709F0A3D8FAECF0A373
:10042300EDF0A3EEF0A3EFF0A3D0E0F0A3D0E0F063
:10043300A3D0E0F0A3E520F0A3E5F0F0A322C0E011
:1004430074F21203E2E58AA2E15003120472758A80
:1004530000C2EB7F0102049AC0E074F21203E2E5EA
:100463008BA2E05003120472758B00C2E880E47C17
:10047300197D007A027B0090111EE0F912172422E5
:10048300C0E074F21203E2E589A2E550031204729C
:10049300758900C2C580BC851983851882E0C0E0D8
:1004A300A3E0F9A3E0FAA3E0FBA37808E0F608A32E
:1004B300DFFAE0FCA3E0FDA3E0FEA3E0FFA3E0C0BE
:1004C300E0A3E0C0E0A3E0F5D0A3E0F520A3E0A320
:1004D300F5F010AF08858319858218800885831984
:1004E300858218D2AFD082D083D0E0F8D0E0321228
:1004F3000AD3B90003020534E49003017833791673
:100503008002F0A3D8FCD9FA901833AA82AB839067
:100513000086789E79018015E493A3AC82AD838A2B
:10052300828B83F0A3AA82AB838C828D83D8E9D993
:10053300E77582567583C77403120596758206752F
:1005430083207400120596D083D082ECC0E0EDC006
:10055300E0E493A3FCE493A3FDED4C600D12066C61
:10056300EC24FFFCED34FFFD80EFE493A3FCE49364
:10057300A3FDED4C600D12073FEC24FFFCED34FFAF
:10058300FD80EFD0E0FDD0E0FCE493A3C0E0E49372
:10059300C0E022C0F0F5F0E59F5407C0E0E59F54AA
:1005A300F845F0D0F0F59FE473859FF053F0F8D051
:1005B300E045F0F59F22D083D082E59F5407C0E049
:1005C300E493C0E0740193C0E07402935407C0F055
:1005D300F5F0E59F54F845F0D0F0F59F22D083D095
:1005E30082E9C0E0E493A3C386F0C5F095F0F9086F
:1005F300E493A386F0C5F095F0700BE493A3C3993D
:100603004005E9048002A3E475F002A42582F58283
:10061300E5F03583F583D0E0F9E493A3C0E0E493F8
:10062300C0E022851983851882E0A3FEE0A3F520AC
:100633007808E0A3F608DFFAE0A3FFE0A3C0E0E058
:10064300A3C0E0E0A3C0E0E0A3C0E0E0A3C0E010EB
:10065300AF088582188583198008858218858319D8
:10066300D2AFD083D0820205ACC0E0C3E493960836
:100673007401939618400FE493667008087401930D
:10068300661870007019A3A3C3E4939608740193CA
:100693009618A3A3400DD0E0D0E0D0E0020586A3D6
:1006A300A3A3A3A3A3D0E022D083D082C5F0E49375
:1006B300A3C5F0C395F0F5F0E493A3C395F040050B
:1006C300E5F0048001E475F002A42582F582E5F0EB
:1006D3003583F583E493A3C0E0E493C0E02274047C
:1006E300800474028000CCC0E0EDC0E0E518C39C38
:1006F300CCAD1950011D10AF068C188D1980068CD6
:10070300188D19D2AF1207DDD0E0FDD0E0FC2274C2
:10071300028000CCC0E0EDC0E0E518C39CCCAD196D
:1007230050011D10AF068C188D1980068C188D1979
:10073300D2AF1207BBD0E0FDD0E0FC22C0E0C0F096
:1007430088F0E4936670080874019366187000A833
:10075300F0A3A3700BD0F0D0E0D0E0D0E002058688
:10076300A3A3D0F0D0E022D083D082CCC0E0E49326
:10077300A360061207FE1470FAE493A3600612093D
:100783000C1470FAD0E0FCE493A3C0E0E493C0E05F
:1007930022C0E074F21203E2121B7A7F0102049A70
:1007A300C0E074F21203E2121B8080EFC0E074F227
:1007B3001203E2121B8680E3CAC0E0E493A3C5825E
:1007C300CCC582C583CDC583F0A3C582CCC582C504
:1007D30083CDC583DAE5D0E0CA22CAC0E0E0A3C571
:1007E30082CCC582C583CDC583F0A3C582CCC58227
:1007F300C583CDC583DAE6D0E0CA22C0E0E493A383
:10080300D39C5010E493A3C39C400AD0E0D0E0D023
:10081300E0020787A3A3A3D0E022C008C3E096F5B4
:100823000808A3E096420808A3E096420808A3E05C
:100833009645087001D3D008227009080808226081
:1008430016181818C6C333C608C633C608C633C637
:1008530008C633C6D5E0EA227404800A740380060E
:10086300740280027401C0E0F404120876D0E0122E
:100873000AAE222518F58210AF08F51840021519A3
:100883008008F51840021519D2AF85198322C0D00C
:10089300251810AF08F518500205198008F51850EF
:1008A300020519D2AFD0D022BB0102E722C082C019
:1008B3008389828A83BB0003E08002E493D083D0E0
:1008C30082226016080808C6C313C618C613C618C2
:1008D300C613C618C613C6D5E0EA22C3E0C696F609
:1008E30008A3E0C696F608A3E0C696F608A3E0C6FA
:1008F30096F622251810AF08F5184002151980083E
:10090300F51840021519D2AF22C0E0E493A36C702E
:1009130009D0E0D0E0D0E0020787A3A3D0E022E033
:1009230066701008A3E066700A08A3E06670040806
:10093300A3E06622C3E7960809E7960809E7960845
:1009430009E796A2D265D03322C3E09608A3E096C6
:1009530008A3E09608A3E096A2D265D03322C3E0B1
:1009630096F008A3E096F008A3E096F008A3E096BB
:10097300F022E026F008A3E036F008A3E036F00802
:10098300A3E036F022E627F60809E637F60809E67B
:1009930037F60809E637F622E026F608A3E036F62E
:1009A30008A3E036F608A3E036F622C0E0E8C0E08C
:1009B300E58124FCF8E6A2E7D0E0F8D0E022700459
:1009C30022600D18C6C333C608C633C6D5E0F41873
:1009D30022E657F60809E657F60809E657F6080926
:1009E300E657F622E056F608A3E056F608A3E056CB
:1009F300F608A3E056F622E056F008A3E056F00806
:100A0300A3E056F008A3E056F022E647F60809E60D
:100A130047F60809E647F60809E647F622E4C396CF
:100A2300F608E496F608E496F608E496F622C3E799
:100A3300960809E7960809E7960809E79622C6F497
:100A4300C608C6F4C608C6F4C608C6F4C622600DB6
:100A530008C6A2E713C618C613C6D5E0F322C3E03F
:100A63009608A3E09608A3E09608A3E0962275D023
:100A730000758140751801751903000204F2600CBA
:100A830008C6C313C618C613C6D5E0F422E6F00899
:100A9300A3E6F008A3E6F008A3E6F022E0F608A335
:100AA300E0F608A3E0F608A3E0F622CAC0E0E6F009
:100AB300A308DAFAD0E0FA22E0FAA3E0FBA3E0FC11
:100AC300A3E0FD22EAF0A3EBF0A3ECF0A3EDF02208
:100AD300E5C754F84401F5C77901222518F582E4E6
:100AE3003519F583221205B958AB021205B925ACA5
:100AF300021205B943AC021205B99F81011205B96F
:100B0300B181011205B9D081011205B941820112E7
:100B130005B9DB82011205B9AD83011205B91D8444
:100B2300011205B93884011205B95C84011205B9B3
:100B33009784011205B9D784011205B9F88401120B
:100B430005B94585011205B91F86011205B9D0867D
:100B5300011205B96087011205B95088011205B960
:100B63009388011205B9B888011205B90E890112DB
:100B730005B93389011205B9588A011205B9CC8A1E
:100B8300011205B9EF8A011205B9128B011205B9D9
:100B93003A8B011205B94C8B011205B9568B011220
:100BA30005B9DA8B011205B9498C011205B9F28C2A
:100BB300011205B9FA8C011205B99B8D011205B911
:100BC300FB8D011205B9C78E011205B93E8F0112C3
:100BD30005B97B8F011205B9DA8F011205B9279187
:100BE300011205B94391011205B9A591011205B985
:100BF3004292011205B98992011205B92493011297
:100C030005B9D193011205B90F94011205B97F9467
:100C1300011205B9CA94011205B90395011205B968
:100C23003196011205B96B97011205B9CC970112E0
:100C330005B91598011205B93D98011205B9C09877
:100C4300011205B94099011205B9BA99011205B902
:100C5300DF99011205B9559A011205B9F99A0112E2
:100C630005B98F9B011205B9B69B011205B9DB9C2F
:100C7300011205B9EE9C011205B97D9D011205B95A
:100C83009D9D011205B9359E011205B97F9E011282
:100C930005B9C19E011205B9AD9F011205B9B0A1F5
:100CA300011205B9BAA1011205B9C4A1011205B90E
:100CB300CEA1011205B9D8A1011205B9F2A1011201
:100CC30005B9FCA1011205B906A2011205B910A2CA
:100CD300011205B931A2011205B97FA2011205B9AA
:100CE30089A2011205B9ADA2011205B9D1A201125F
:100CF30005B92EA3011205B979A3011205B997A36A
:100D0300011205B907A4011205B944A4011205B9DA
:100D13008BA4011205B9F3A4011205B997A5011219
:100D230005B964A7011205B987A7011205B959A826
:100D3300011205B97FA8011205B95FA9011205B90E
:100D4300F7AB011205B959AD011205B920AF011274
:100D530005B972AF011205B96BB0011205B9B8B08C
:100D6300011205B923B1011205B92DB1011205B95B
:100D7300E9B2011205B918B4011205B978B4011228
:100D830005B92EB5011205B916B6011205B9D3B7C7
:100D9300011205B9F2B7011205B94EB8011205B92E
:100DA30026B9011205B94BB9011205B99CB9011253
:100DB30005B97EBA011205B9B6BA011205B9F6BA78
:100DC300011205B959BB011205B975BC011205B968
:100DD300D5BC011205B9BBBD011205B9C3BF0112D0
:100DE30005B9DFBF011205B984C1011205B9CAC132
:100DF300011205B9A8C2011205B902C3011205B94E
:100E03004AC3011205B9BAC3011205B948C4011294
:100E130005B9CCC4011205B938C5011205B954246A
:100E2300001205B9A624001205B9E026001205B97F
:100E33002C27001205B9FE27001205B96D280012F0
:100E430005B9B029001205B9FD2B001205B9242DEF
:100E5300001205B98B35001205B90836001205B921
:100E63008838001205B97439001205B9203A001206
:100E730005B9513B001205B9443C001205B95B3F6B
:100E8300001205B95D41001205B9BD41001205B953
:100E93007E42001205B9A942001205B94A43001265
:100EA30005B92E44001205B90945001205B99D453F
:100EB300001205B9CA45001205B9EC45001205B97F
:100EC300DF47001205B9BF48001205B90C490012EB
:100ED30005B96D49001205B92F4A001205B9644AD4
:100EE300001205B9B24A001205B9E24A001205B967
:100EF300204B001205B9784B001205B97D4B001247
:100F030005B9D84B001205B9004C001205B91F4DA5
:100F1300001205B98B4D001205B9F54D001205B944
:100F2300814E001205B99851001205B9645200129E
:100F330005B9D453001205B92856001205B9D05685
:100F4300001205B98557001205B91359001205B9E6
:100F5300B059001205B9F859001205B9945B001293
:100F630005B9A85B001205B9B55B001205B9D05BE2
:100F7300001205B9DC5B001205B9FA5B001205B972
:100F8300F75D001205B9EA5E001205B92E5F001283
:100F930005B9B15F001205B9B260001205B97061FD
:100FA300001205B90F63001205B9E463001205B915
:100FB3008564001205B91565001205B92C65001288
:100FC30005B96565001205B96F65001205B97B6542
:100FD300001205B99965001205B9DD65001205B95E
:100FE3002E66001205B94F66001205B96966001234
:100FF30005B9E166001205B92268001205B96C68EB
:10100300001205B95F69001205B97B69001205B9C1
:10101300DE69001205B9336A001205B9F16A0012DC
:1010230005B9006C001205B9AC6C001205B9836DEB
:10103300001205B9EF6D001205B9836E001205B9F0
:10104300536F001205B9826F001205B9E16F0012E8
:1010530005B98F70001205B9B570001205B92D716D
:10106300001205B95271001205B97571001205B964
:10107300B071001205B98E73001205B971740012B4
:1010830005B92975001205B9BE76001205B91277A4
:10109300001205B95577001205B9C477001205B9D6
:1010A3003878001205B99178001205B9B7780012A3
:1010B30005B9F278001205B91E79001205B96979EC
:1010C300001205B9C279001205B93E7A001205B9BA
:1010D3001C7B001205B9AE7C001205B91B7D001202
:1010E30005B9447D001205B9AA7D001205B9017E38
:1010F300001205B93A7E001205B98F7E001205B9B8
:10110300B47E001205B9FA7E001205B9177F0012EA
:1011130005B9C17F001205B92DEF031205B978EFA8
:10112300031205B9F6C5011205B92AC6011205B99C
:1011330000C7011205B9D4C7011205B9FFC80112CE
:1011430005B983CA011205B901CB011205B9C8CB90
:10115300011205B9E9CC011205B95BCD011205B93C
:10116300BDCD011205B90BCE011205B915CE011281
:1011730005B953CE011205B9BCCE011205B95BCF37
:10118300011205B9D9CF011205B98ED0011205B9E3
:1011930000D1011205B926D1011205B956D10112A8
:1011A30005B983D1011205B929D2011205B939D282
:1011B300011205B98CD2011205B998D2011205B9F1
:1011C300A4D2011205B9ADD2011205B90ED3011291
:1011D30005B96ED3011205B9BFD3011205B9DAD32C
:1011E300011205B90AD4011205B92BD4011205B9AC
:1011F30037D4011205B978D5011205B996D5011274
:1012030005B9FFD5011205B912D6011205B929D6C0
:10121300011205B9BCD6011205B9BBD7011205B934
:10122300B7D8011205B939D9011205B943D9011249
:1012330005B9A6D9011205B9B7D9011205B9FAD969
:10124300011205B941DA011205B977DA011205B9BC
:10125300ADDA011205B9CBDA011205B9EFDA0112E1
:1012630005B930DB011205B923DC011205B969DCCC
:10127300011205B9A4DC011205B903DD011205B998
:101283002BDD011205B964DD011205B972DD01120E
:1012930005B9D3DD011205B910DE011205B952DE1D
:1012A300011205B983DE011205B9B7DE011205B9D2
:1012B300C2DE011205B9E0DE011205B9A8DF011291
:1012C30005B9B2DF011205B9F7DF011205B961E013
:1012D300011205B975E0011205B96DE1011205B9F5
:1012E30080E1011205B995E1011205B935E2011258
:1012F30005B999E2011205B95CE3011205B967E387
:10130300011205B986E4011205B9A2E4011205B977
:10131300FAE4011205B931E5011205B94BE50112F1
:1013230005B9BFE5011205B950E6011205B998E602
:10133300011205B9B3E8011205B91DE9011205B996
:1013430088E9011205B9E1EB011205B9F1EB0112CC
:1013530005B9F4EB011205B900EC011205B914EC5F
:10136300011205B91CEC011205B951EC011205B9C2
:10137300FFEC011205B96FED011205B9D3ED0112AE
:1013830005B96CEE011205B906EF011205B934EF88
:10139300011205B9CAEF011205B9F9EF011205B936
:1013A3001BF0011205B942F0011205B9A8F00112B0
:1013B30005B912F2011205B915F2011205B98CF241
:1013C300011205B978F3011205B950F4011205B9F8
:1013D300DAF4011205B90FF6011205B9C1F60112CB
:1013E30005B9FAF6011205B92BF7011205B934F75D
:1013F300011205B920F8011205B99CF8011205B9CB
:101403002CF9011205B9F6F9011205B97AFA01129C
:1014130005B9B0FA011205B9F9FA011205B9A7F035
:10142300031205B9B0F0031205B9CEF6021205B9DD
:10143300DCF6021205B945F7021205B97DF702126F
:1014430005B9D0F7021205B96CF9021205B94CFBC4
:10145300021205B92BFE021205B957FE021205B995
:1014630077FE021205B9D5FE021205B913FF021267
:1014730005B951FF021205B997FF021205B942EEF1
:10148300031205B918F1031205B96BE3031205B989
:1014930089E3031205B9DAE3031205B91FE4031262
:1014A30005B9C9E4031205B937E0031205B97CE1B4
:1014B300031205B9A4A6031205B927A7031205B998
:1014C30031A7031205B958A7031205B90EA00212DA
:1014D30005B9D2A7031205B902A8031205B904A9D5
:1014E300031205B9D4A9031205B934AA031205B925
:1014F3007DAA031205B9BAAA031205B91DAB0312DB
:1015030005B949AB031205B9D4AB031205B92EAC27
:10151300031205B9CCDC031205B9E5DC031205B9E6
:101523005FDD031205B9BCAA021205B934DE03124A
:1015330005B95ACA031205B9D4CA031205B9DFCAD9
:10154300031205B900CB031205B90080031205B9D4
:101553000380031205B9C480031205B9F280031294
:1015630005B94D81031205B97181031205B9918142
:10157300031205B9DB81031205B90982031205B908
:101583003883031205B96783031205B988830312ED
:1015930005B9E383031205B9A684031205B9C6840A
:1015A300031205B93B86031205B9D386031205B9A5
:1015B300DC87031205B94588031205B97388031242
:1015C30005B93889031205B96D89031205B9A089D4
:1015D300031205B9DC89031205B9E689031205B9BB
:1015E3002E8A031205B99C8A031205B9BF8A031216
:1015F30005B95F8B031205B90E8E031205B9178E59
:10160300031205B9648E031205B98D8E031205B951
:10161300ED8E031205B9838F031205B9B78F031239
:1016230005B90490031205B95E90031205B98C90B5
:10163300031205B91491031205B95991031205B99F
:101643009891031205B9CD91031205B9DF910312E5
:1016530005B9F191031205B91092031205B9C792A6
:10166300031205B90793031205B915EC031205B963
:101673000ED9031205B972D9031205B996D903120B
:1016830005B98FDA031205B9BFDB021205B99EDC77
:10169300021205B9DADC021205B977DE021205B9C6
:1016A300B9DE021205B96DE0021205B9B1E002120A
:1016B30005B992E1021205B91FE2021205B9AAE2C5
:1016C300021205B900E3021205B940E3021205B99B
:1016D300E2E4021205B96BE6021205B982E80212CE
:1016E30005B990E8021205B9F5E8021205B93FE918
:1016F300021205B918EC021205B99BF1031205B9E0
:10170300B1F1031205B982EF031205B9FFC3031246
:1017130005B912C4031205B9B0C4031205B9EBC469
:10172300031205B906C5031205B92BC5031205B982
:1017330070C5031205B9A1C5031205B9D2C50312B9
:1017430005B949C7031205B9D3E1031205B940E24C
:10175300031205B95CE2031205B99EE2031205B94F
:10176300AEE2031205B946E3031205B950E30312CF
:1017730005B968E3031205B9BCCF031205B949D013
:10178300031205B917D1031205B9B0D1031205B974
:1017930076F1031205B959EC021205B9A7EC02124E
:1017A30005B997ED021205B929EE021205B973EED8
:1017B300021205B9C2EE021205B91FEF021205B9F2
:1017C30033EF021205B967EF021205B97FF0021277
:1017D30005B9F1F0021205B912F1021205B953F17C
:1017E300021205B988F1021205B9E1F1021205B935
:1017F300FFF1021205B962F2021205B9E1F3021216
:1018030005B903F4021205B938F4021205B960F4FC
:10181300021205B96DF4021205B972F4021205B988
:1018230075F4021205B9C1F4021205B966F5021284
:1018330005B98BF5021205B995F5021205B998F5AC
:10184300021205B90CF6021205B927F6021205B900
:101853003AF6021205B975F6021205B978F60212C4
:1018630005B983F6021205B9D2EF031205B9EAEFFF
:10187300031205B9009F031205B94F9F031205B95F
:10188300F3A0031205B9A9A2031205B9F1A2031229
:1018930005B937A4031205B982A5031205B9A4A596
:1018A300031205B9EEA5031205B970A6031205B913
:1018B30073AC021205B994AC021205B91EAD021243
:1018C30005B9A7AD021205B923AE021205B986AE5A
:1018D300021205B9D2AE021205B941AF021205B91F
:1018E300CBAF021205B942B0021205B984B002129D
:1018F30005B944B4021205B921B6021205B95AB6A4
:10190300021205B914B7021205B917B7021205B9C5
:10191300FBB7021205B940B9021205B9DABA0212CD
:1019230005B936BD021205B9BDBD021205B9B3BE74
:10193300021205B91DC2021205B92DC2021205B960
:101943008DC3021205B908C4021205B94CC50212AF
:1019530005B9D4C5021205B910C7021205B9A4C747
:10196300021205B93AC8021205B9F9C8021205B93B
:1019730070C9021205B97FC9021205B904CA02125D
:1019830005B96DCA021205B96DCB021205B996CB22
:10199300021205B92FCC021205B972CC021205B995
:1019A300CFCC021205B9A9CF021205B963D0021236
:1019B30005B9C8D0021205B96FD2021205B923D3F3
:1019C300021205B9BED3021205B917D4021205B922
:1019D30082D4021205B992D5021205B94FD7021269
:1019E30005B986D8021205B91FD9021205B989D9DA
:1019F300021205B97FDA021205B94DAC031205B91B
:101A0300B9AC031205B922AD031205B990AD0312A7
:101A130005B9C8AD031205B93CAE031205B9C0AE92
:101A2300031205B9EDAE031205B906AF031205B9EA
:101A330066AF031205B9B3AF031205B92BB0031296
:101A430005B930B0031205B99CB0031205B95CD2D5
:101A5300031205B9ABD2031205B964D3031205B956
:101A6300CAD3031205B93BD4031205B9E1C7031264
:101A730005B93AC8031205B9B9C9031205B98AE70A
:101A8300031205B9C4E7031205B97FE8031205B9C8
:101A930085DE031205B993DE031205B9EFFF0112C8
:101AA30005B9B3ED031205B9C3ED031205B9DEEDB4
:101AB300031205B93FEE031205B9F7E9031205B99D
:101AC3001EEA031205B9A3EA031205B9FCEA0312DD
:101AD30005B9DD9E031205B936E6031205B958E6CA
:101AE300031205B9C2E6031205B9E2E6031205B90A
:101AF30028E7031205B946B1031205B95BB1031216
:101B030005B970B2031205B9B1B2031205B9CBB26C
:101B1300031205B947B3031205B962B4031205B939
:101B2300D6B4031205B9F0B4031205B903B5031211
:101B330005B911B5031205B92BB5031205B942B5A1
:101B4300031205B96CB5031205B9BDB5031205B986
:101B53009AC0031205B9A8C0031205B922C1031222
:101B630005B9EEC1031205B99AC3031205B9DEE440
:101B7300031205B917E5031205B934E5031205B9D4
:101B830092E5031205B9F7E5031205B9D9F103127A
:101B930005B9DEF1031205B9E5F1031205B9E7F161
:101BA300031205B93FFB011205B992FB011205B9F6
:101BB3009AFD011205B9CCFD011205B9EEFD011222
:101BC30005B907FE011205B920FE011205B922FF6E
:101BD300011205B9B0FF011205B9FDDA031205B907
:101BE3002FDB031205B93BDB031205B96EDB0312CE
:101BF30005B99FDB031205B9CDDB031205B942DC3E
:101C0300031205B971DC031205B926CD031205B918
:101C13004CCD031205B989CD031205B99BCD03122F
:101C230005B9B7CD031205B925CE031205B92ECEDA
:101C3300031205B98DCE031205B9B1CE031205B94E
:101C430070CF031205B97DCF031205B98ECF0312EE
:101C530005B9C1EE031205B90EEF031205B9B09B26
:101C6300031205B9F89C031205B9059D031205B9C2
:101C7300189D031205B9379D031205B94D9D031233
:101C830005B9619D031205B9DB9D031205B9719E68
:101C9300031205B9B99E031205B9C99E031205B90A
:101CA3001AED031205B93EED031205B966ED0312F1
:101CB30005B98EED031205B9BED4031205B9D7D405
:101CC300031205B9E3D4031205B9F7D4031205B916
:101CD30015D5031205B91FD5031205B929D503126A
:101CE30005B93CD5031205B990D5031205B9C9D579
:101CF300031205B9F8D5031205B946D6031205B97F
:101D030095D6031205B9B0D6031205B9BAD6031294
:101D130005B9CBD6031205B911D7031205B91FF0C4
:101D2300031205B93093031205B95C93031205B985
:101D33007893031205B98B93031205B9A193031288
:101D430005B90D94031205B94094031205B99D9783
:101D5300031205B9C898031205B9FB98031205B914
:101D63006099031205B9489A031205B9709A0312D0
:101D730005B9859A031205B9959A031205B9D99A3B
:101D8300031205B92E9B031205B93E9B031205B935
:101D9300C4E8031205B9DFE8031205B908E9031221
:101DA30005B922E9031205B947E9031205B966E942
:101DB300031205B97EE9031205B9ACE9031205B9AB
:101DC300C6E9031205B967F0031205B91ABD031278
:101DD30005B921BD031205B92DBE031205B95DBEB8
:101DE300031205B983BE031205B9B6BE031205B9C2
:101DF300C8BE031205B902BF031205B968BF0312B7
:101E030005B9A1BF031205B9EDBF031205B91AC085
:101E1300031205B93AC0031205B91CD7031205B959
:101E230034D7031205B926D8031205B915EB0312EB
:101E330005B974EB031205B9B2EB031205B9F3EB61
:101E4300031205B9F2B5031205B911B6031205B9A8
:101E53005CB6031205B978B6031205B9B0B603121E
:101E630005B9BDB6031205B9DAB6031205B9BDB794
:101E7300031205B9F4B7031205B9FBB8031205B988
:101E830006B9031205B918B9031205B921B903122A
:101E930005B92BB9031205B992B9031205B90CBDE3
:101EA300031205B949F1031205B9E2F0031205B9AA
:101EB300D5FF021205B9BBF1031205B9B29E021296
:101EC30005B9069E021205B94D9C021205B95D9A29
:101ED300021205B9EE99021205B99399021205B9D6
:101EE3002099021205B9F698021205B9E496021276
:101EF30005B9BC96021205B96196021205B93E9660
:101F0300021205B96D95021205B91595021205B9AC
:101F13007F93021205B97C93021205B97C920212D7
:101F230005B95C92021205B9AC91021205B92E9063
:101F3300021205B9F58F021205B9C68F021205B94F
:101F430050A9021205B9F8A6021205B98BA602120E
:101F530005B93AA6021205B9A3A5021205B9C38FA2
:101F6300021205B9B58F021205B9A18F021205B984
:101F73008E8F021205B996A5021205B9908E021230
:101F830005B9208E021205B9E68D021205B98E8DB0
:101F9300021205B90CDE031205B969A2021205B9D2
:101FA3005D8D021205B9758A021205B9338A0212D0
:101FB30005B9278A021205B99A89021205B9E88878
:101FC300021205B98786021205B9F183021205B917
:101FD300BB83021205B94F82021205B9FE810212B8
:101FE30005B94281021205B91581021205B967804C
:101FF300021205B93A80021205B90080021205B92E
:102003006CA70300000080FBC2C732E473000136F3
:102013003601010001020100010301000104010670
:102023000605020000070100340801000F0904013E
:10203300010D0100FF0E0800001702000019010046
:10204300FF1A0100011B0100FE1C0100081D020014
:10205300001F0100012001000121020000230100F3
:102063000F240200002601000127010008280200B6
:10207300FF2A0100072B0102402C0100002D010063
:10208300012E0100012F0100FF30010B1C3108005C
:10209300003A0100083B01000F2F01000003027109
:1020A3000230016002110270020102020202028088
:1020B30002100261023A004100630273027202627B
:1020C300024302000213023800000200020402125B
:1020D3000200020002000200020402040237003779
:1020E300003C0244020002390000020002650200C3
:1020F300023502810200020502820283020002010C
:10210300017101010101011101010131010101010C
:10211300018001100161013B00140063017301722E
:1021230001620143010001130106013D0135000471
:102133000112010001000100010001040104013347
:102143000133013C01440132013600000100016505
:1021530001000135008101000105018201830100B5
:1021630001030471040204600411047004020402F4
:1021730004010402041004610400041404630473DE
:1021830004720462044304000413040604000400FC
:102193000404041204000400040004000451046451
:1021A30000000400040004440400040004000400CC
:1021B30004650400043504810464000504000483F9
:1021C300040004010371030103010301030103017B
:1021D30003220302030103100300030003000300AF
:1021E3000300030003000342030003240306030068
:1021F300030003040312032503230325032303041A
:102203000304030003000300034403000300032348
:102213000300036503210035038103000305030065
:10222300030003000303007100300160001100701C
:1022330000310220035004800010006100000014EC
:102243000063007300720062004300000013000685
:102253000000000000040012000000000000000065
:102263000004000400370037003C02440000000073
:10227300000000000065000000350081000000053B
:102283000000008300000036000100060000000F7C
:102293000000000000000000000000000003FFFF3A
:1022A30000000403FFFF0000FFFF0FF4010005C45B
:1022B300040320000100000B0000000000000000E8
:1022C30003010F0000A019130016190100A0190241
:1022D30000CE180300D4180400DA180500E018062D
:1022E30000EC1811000A19140010191500FE18FF4C
:1022F300FF0000015A0E068A0E08840E0B960E107C
:10230300E20D02600E05780E07660E0C420E0D4EAE
:102313000EFF0000030003000400080010001F006C
:102323003E007B00F600EC01D703AF075D0FB91E3B
:10233300713D00006212921268126E128C128012AA
:102343007A1298129E12A412B01274125C125612D0
:1023530003EAF5E5D5D5C5B5A59595858575756567
:102363006555554545353525251515059C36063ADC
:10237300703DD9404344AD47174B814EEA51001697
:102383000F00000B150B020002220F3200000600A3
:102393000102030405060708090A0B0C0D0E0F4C76
:1023A300135E1364132C126A1326123212BE13DC4B
:1023B30013E213C413D013CA13661160119C11A244
:1023C3001196114E11303017181921301B1D1F3073
:1023D30000034948424D181725050200383C3E3694
:1023E3003B3B352B432C303016181920231A1C1E67
:1023F300300C0E020B040B0A0708000F000119161C
:10240300181616152303008612AA12D613B612BC89
:1024130012B2137013761382137C13721178116C3A
:1024230011A8110005150D09100804000000000093
:10243300007E11901100BE040A0E00040015000175
:102443000309280C05100C0A0900040008040F0CEA
:1024530008C082C083E99003D0F0E4900384F012B3
:102463001E1A9003E3E4F0A3F09003D1F0A3F0125B
:10247300108E120B60120D16121E20900346E4F00C
:10248300A3F0900400E07002A3E06009900400123E
:102493005DC812200E902451E493FA7902121E7A39
:1024A300024D8474F2120376EAFEEBFF74805FF947
:1024B300E47001E960619003D0E0F91216108A0814
:1024C3008B09EA7001EB60467B0080010BEB75F032
:1024D30003A424F6F8E5F03422F988828983E4938F
:1024E300FA74FF6A6021850882850983E06A70DCDB
:1024F300AA08AB0988828983A3E493C0E07401939B
:10250300F583D08212200EAA08AB09121604EEFA44
:1025130074806FFB0226D274105FF9E47001E960E6
:102523001D120F148A088B09EA7001EB600A120E60
:102533004EAA08AB09121604EEFA741080D4EE54B6
:1025430020700302261F750C00124A217001EB70E4
:10255300107C027D007A207B009003D0E0F91217F3
:102563002A7C0079047A007B00120EDE8A088B092C
:10257300800D740188828983F0850A08850B09E53B
:10258300087002E50960707C007904AA08AB09129F
:102593000EDE8A0A8B0B750C01E5082404F8E509A5
:1025A30012514F24FFF0A3E034FF1256067002A32A
:1025B300E070C6E5082409F8E5093400F9850882C6
:1025C300850983A3A3A3A3A3A3A3A3A3A3E0640154
:1025D30070A0850882850983A3A3A3A3A3A3E054C2
:1025E30004708F740688828983F07AB785088285A0
:1025F30009831227F38082120EAE7C0079017A00E0
:102603007B00120EDEEA7001EB7009E50C70057AAF
:10261300201226D574206EFAEF022516EE541060B0
:1026230007120D52741080EEEE54406007120DCA6B
:10263300744080E2EE54806007120C6E748080D682
:1026430074015FF9E47001E9601A900402E070021A
:10265300A3E06009900402125DC812200EEEFA7422
:102663000102251574085FF9E47001E9602D120D6C
:1026730022901213E06401701B901214E06015FCA9
:1026830075F0E8A4CCAAF075F003A42AFD7A007BC8
:1026930008122864EEFA740802251574025FF9E43F
:1026A3007001E9600A121058EEFA740202251574DB
:1026B300045FF9E47001E96012126148125AD37998
:1026C3000112396AEEFA74040225157A007B0002BE
:1026D3002D177B009003D0E0F91217302274F71204
:1026E300037674E11208F6EAFEEBFFEE7001EF6089
:1026F30033851882851983AC82AD83120F44740627
:10270300120ADEE0601E7417120ADEE0FD74011285
:102713000ADEE0FCEEFAEFFB7900120AEEE9600450
:1027230079A480027900024CC974F6120376EAFE9A
:10273300EBFF8E828F83A3A3A3A3A3A3124B1B54EC
:102743004060178E828F83125DC81262BD60067A65
:10275300FF7BFF80321227E7802390036FE0A2E123
:102763005018741059F9E47001E96004794080024B
:1027730079001227E7120D288003120F6874FE6A8E
:10278300700374FF6B60458E828F83125DC8126382
:1027930009120FD4E98E828F8360061227E0E4804A
:1027A300051227E07401F07C2A7D0E8E828F83123E
:1027B30053C2121E74E9F5087015EE7001EF60093B
:1027C3007901EEFAEFFB120EBA025DBE7508CDAACF
:1027D300088E828F831227F3E960DF80ECE0240DFB
:1027E3001253CA228E828F83126508FAA3E0FB225A
:1027F300E0240C124D1AF9120E362274F6120376E7
:10280300E9FEEAFF7A0F7B001215FEEA7001EB6026
:1028130019740C8A828B83F0EEA3A3F0EF8A828B68
:1028230083A3F0125FA879008034EEF9120EE48AD4
:10283300088B09A808A909E87001E9601F740688D4
:10284300828983A3A3A3A3A3A3A3127467A3A3A3AC
:10285300A3A3E0F9120DDCEEF9120EC07910025DAC
:10286300D19003D0E0F91217242274EE120376EA12
:10287300FEEBFF8C088D09890E7412120ADEE0F557
:1028830010A3E0F511851082F583E4F0A3F012297B
:1028930080EE241DF8EF3400F9880C890D8882122C
:1028A30029A560191229997014850A82850B831250
:1028B3004E6F851082851183125AD38003750E00E3
:1028C300850C82850D831265041206AB01097B29F1
:1028D300E728012913291E290A293F297B2952297F
:1028E3006B2974297810120863AC08AD09EEFAEF6E
:1028F300FB120D3A7402120891E9F50E807AEEFA92
:10290300EFFB120D408071EEFAEFFB120D8280682F
:10291300A90EEEFAEFFB12101680DEEE2417126AF0
:10292300DB64027053E50E700A12298D7003A3E075
:10293300697045EEFAEFFB120FA4803CEE241712E8
:102943006ADB64027032EEFAEFFB120F8C8029907F
:102953000404E07002A3E0601FEEFAEFFB900404AE
:10296300125DC812200E8010EEFAEFFB12102280C7
:1029730007EEFAEFFB12102EA90E0258E5EE24091A
:10298300F8EF3400F9880A890B22850A82850B83C4
:1029930012685DE06822850A82850B831262C16436
:1029A3000222F583126508F9120FB6E92274ED12BB
:1029B300037674DE1208F6EAFEEBFFEE24021251F0
:1029C30058F9120EE48A088B09EA7001EB700302CE
:1029D3002A95EE240C122BE6EA2409F50AEB12736E
:1029E3006DEA2406F50EEB12351E8E828F83A3AE9D
:1029F30082AF83E064F16017E064CD6012E0641A93
:102A0300600DE064E96008E064E16003022B258562
:102A13000E82850F83A3E05408F9E47001E9607F17
:102A23007405850A82850B83F0900408E07002A385
:102A3300E06009900408125DC812200E90040AE0B9
:102A43007002A3E0603390036FE0A2E1502B85088E
:102A530082850983126AEBA3A3A3A3A3A3A3124CA6
:102A6300D312352AEA7001EB600F8E828F83E0F96F
:102A730090040A125DC812200E850A82850B83E03A
:102A8300640270037406F0851082851183E0F912E5
:102A93000EC0120EAE74221208917F0B0206267925
:102AA30000120EBAE9607B90036FE0A2E1506485E7
:102AB3000882850983126E6E7002A3E06055740369
:102AC300120ADE126E588E828F83E064E970181248
:102AD3002BEE1208678E828F83E0F51278121208AC
:102AE30067123F28120891740C120ADE1253C212A5
:102AF3005DC21263097408120ADEE0600479408043
:102B0300027900740E120ADE125160740C120ADE8E
:102B1300123523850E82850F83E04420F0A3E00263
:102B23002A2B8E828F83E0C0E07402120ADED0E08B
:102B3300125778126099126ACF126ADE851882855D
:102B43001983AA82AB837005120C928003120FB013
:102B53008E828F83E064F16034E064CD602FE064A3
:102B63001A602AE064E16025E064F06020740212D8
:102B73000ADEE0FC74B76C6014122BEE120867ECEB
:102B8300F5127812120867123F2812089190036F0A
:102B9300E0A2E14003022A7C850A82850B83E0647C
:102BA30002702A850E82850F83E05404601F125D34
:102BB300C21262BD7013125DC274FFF0A3F07405FC
:102BC300850A82850B83022A89740380F38E828FA0
:102BD30083E064E96003022A7CAA08AB091210347B
:102BE300022A7CF50CEF3400F50D22850882850955
:102BF300831264F175120178122274F2120376EAD9
:102C0300FEEBFF750C00750D00EE240912736AEEDE
:102C13002405F8EF12680A603A750C08850A828564
:102C23000B831253C279FF121F52EA7001EB600D3E
:102C3300750C2C850882850983E0D2E0F085088233
:102C4300850983E0540364016003022CFE430C11E5
:102C5300022CFEEE2418126ADB603AEE241A126A82
:102C6300DBFA701D12298D7003A3E0697006750CE1
:102C730022022CFE900384E06404707F750D0180B2
:102C83007AEE241B12515DEE2419122D1C120D94A1
:102C9300E9706880E71229997003750C01850A822F
:102CA300850B831259EF7003A3E06B7006E50CD21A
:102CB300E1F50C124273E50C6015850882850983E2
:102CC300E07006E50CD2E58004E50CD2E6F50C12C3
:102CD3000FD4E964017006E50CD2E0F50C85088297
:102CE300850983E06015EE241DF582EF3400122977
:102CF300A564016006E50CC2E0F50CE50CA2E14019
:102D03000AE50D7006E50CD2E7F50CA90C800574F5
:102D1300031208917F06020626F582EF126AE5F98F
:102D23002274E812037674DC1208F6EAFEEBFF85E0
:102D330018828519831260AA75140075150074052D
:102D4300120ADEAC82AD838E828F83A3A3A3123FCC
:102D530018A3A31253C2120F44EE241BF582EF12E1
:102D63004E6C7412120ADE125AD3740B120ADEE08E
:102D73006022741C120ADEE0FD7406120ADEE0FC17
:102D83008E828F83A3A31253C27901120AEEE960E4
:102D93000302332B7405120ADEAA82AB83120E4898
:102DA300E9F508740B120ADEE0700E90036CE06024
:102DB30008E9A2E1400302332BE9A2E6502774227B
:102DC300120ADE1262AAE064037006A3E0640D60D7
:102DD300147405120ADEAA82AB8312100AE9640195
:102DE300700302332BEE2412F516EF3400F517EEC1
:102DF300242A12736AEE242C127694123A19E0688C
:102E03007003A3E069701C750900780912086778DC
:102E130009120867EE242E122D1C123536123F3884
:102E23001208917408120ADEE0FA900372E06A60F5
:102E33000302332B740B120ADEE07003022ED91245
:102E4300353612352A8A0A8B0BA80AA90BE87001BA
:102E5300E97003022F867406120ADE123531FAA3D3
:102E6300E03400FB740D2AF582E43BF583E0FAE8D5
:102E73002404F50AE912736DE82403F582E9126A62
:102E8300DE6A600DEAF090817B780C120A9F12359E
:102E93007579047406120ADE123531FCA3E034009E
:102EA3008C82F583A3AA82AB831215EC8A0C8B0D5B
:102EB3008C0E8D0F850A82850B837810120A9F78FA
:102EC30010790C120A31500302332B90818F780C46
:102ED30012099B123575EE242412351BEE24301291
:102EE3002BE6EE242F12736A90036FE0A2E15003E6
:102EF30002301D900384E0FA74046A600874096A5E
:102F0300600302332BE508A2E54003022FCC126ACB
:102F1300D8C0E07402120ADED0E0123568C0E07453
:102F230003120ADED0E0123F52C0E07404120ADE3C
:102F3300D0E0F07416120ADEE064017020741012FF
:102F43000ADE12355C7003A3E0697011740E120A75
:102F5300DE12299F70077416120ADEE4F0850E82D2
:102F6300850F831206E17406120ADEAC82AD837408
:102F730009120ADEAA82AB83120C98740412089118
:102F830002332B9003C9E064016003022ED974223B
:102F9300120ADE12650464067009E508A2E650030E
:102FA300022ED97412120ADEE064FF7004A3E064F7
:102FB300FF700302332BEEFCEFFD7405120ADEAA49
:102FC30082AB83120E5402332BA2E6400302332B4F
:102FD3007422120ADE123546701C741C120ADEE0DB
:102FE3006402600302332B7405120ADEAA82AB83E8
:102FF300120FA402332B74076A600302332B741C71
:10300300120ADEE06404600302332B7405120ADE45
:10301300AA82AB83120F9802332B7416120ADEE0D6
:10302300601D8E828F83A3A3123F4D141244FAA313
:10303300123F4DC0E07416120ADED0E0F07006E5D0
:1030430008C2E7F508E508A2E35066751510A2E289
:103053005018740A120ADEE054E3F0740A120ADE0E
:10306300E0131313541FFAE08031A2E4502F740AC3
:10307300120ADEE0FB741C5B1313543FFA600974FD
:10308300076A600A1AEA7006E508C2E7F508EA3338
:103093003354FCC0E074E35BFAD0E04AF0740A12E4
:1030A3000ADEE0C0E08E828F83A3A31248AED0E095
:1030B300F0900384E0FA74046A600574096A706D21
:1030C300740E120ADE1259EF7003A3E06B6017123D
:1030D3000FD4E96402600F740A120ADEE054036439
:1030E30001600302332B7407120ADEE07027126AB1
:1030F300D8C0E07402120ADED0E0123568C0E07472
:1031030003120ADED0E0123F52C0E07404120ADE5A
:10311300D0E0022F5F7422120ADE123546700302DA
:103123002FDD74076A600302332B02300175090037
:10313300746155087003023333E508A2E0507D85BE
:1031430016828517831251607405120ADEAA82ABB8
:1031530083120DD0E97062120F74E9F50974161227
:103163000ADEE0700F7410120ADE12355C7003A3DE
:10317300E0696048A9098516828517831251607436
:1031830005120ADEAA82AB83120DD6E96020E50898
:10319300A2E3500C85188285198374FFF0A380087D
:1031A300740E120ADE12646AF0751404800EE508C8
:1031B300C2E5F508750900800353089FE508A2E5F9
:1031C3005048126AD8C0E07402120ADED0E0123509
:1031D30068C0E07403120ADED0E0123F52C0E0740C
:1031E30004120ADED0E0F0850E82850F831206E119
:1031F3007406120ADEAC82AD837409120ADEAA8257
:10320300AB83120C987404120891E508A2E65044AB
:1032130085188285198385820A85830B780A1208AB
:1032230063A9098516828517831251607407120AF0
:10323300DEAA82AB83120E3C7402120891E9F509EF
:1032430060127422120ADE1265046401700674109F
:103253004514F514851882851983E064FE7004A370
:10326300E064FF7003750900E508A2E74003023339
:103273002BE509700302332B8518828519831235D8
:103283005C7003A3E069700B741D120ADEE0700327
:10329300022FB98E828F83A3A3A3A3E0FA7B00122C
:1032A300167C8A0A8B0BEA7001EB607C8E828F831B
:1032B300A312354E12085F8E828F83A3A3A3A3E0CC
:1032C300FC7D001244EB1208917407120ADEE0C081
:1032D300E07402120ADED0E0F07403120ADEE4F0B6
:1032E300A3F07402120ADE85820C85830D780C121A
:1032F30008637814120863E509F50878081208676B
:103303008E828F83A3A3A3A3E0F97405120ADE12AE
:103313005160AA0AAB0B120F2C7405120891E960D5
:1033230007AA0AAB0B12168274241208910255E401
:103333007407120ADEE06401703B7422120ADE1283
:1033430065046405702F8518828519838582088535
:10335300830978081208637900851682851783121A
:1033630051607407120ADEAA82AB83120E3C740208
:1033730012089180B37416120ADEE07003022FB9AB
:10338300120EB4E970A2741D120ADEE07003023457
:10339300587420120ADE125160741F120ADEE0FA1A
:1033A300741E120ADEE0F9120D94E9700302344030
:1033B300741F120ADEE0F97019740E120ADE125A33
:1033C300D085188285198312432CEA7001EB70644F
:1033D300805F7420120ADE1253C2120D8E8518828A
:1033E300851983126309740D120ADEE060047808FC
:1033F30080027800E82408FA740C120ADEE0600404
:10340300780880027800E82AFA740A120ADEE0607B
:1034130004780180027800E82AFA0AEAF88E828F9B
:1034230083A3A3E028FAA3E034008A82F583E0149F
:10343300F0751440120F74E9F509023257790B74D1
:103443000E120ADE1251607410120ADE1253C212F7
:10345300101002332B740E120ADE125AD0E508A2A2
:10346300E350047A4080027A00EAF50978091208E9
:1034730067741E120ADEAC82AD83740F120ADE1269
:1034830053C2740A120ADEE0F9120E007401120824
:1034930091E9600F7514208E828F83A3A3126504B4
:1034A300543FF0741D120ADEE06023740E120ADE2C
:1034B300125160741E120ADEAA82AB83120F3E857C
:1034C300188285198312630974404514F51474072F
:1034D300120ADEE06401601579007410120ADE122C
:1034E3005160740E120ADE1253C2120D9AE508A23D
:1034F300E350047940800279007410120ADE1251FD
:1035030060740E120ADE123523E970030234377435
:10351300204514F514023437F50EEF3400F50F226D
:10352300124D16120D3422124D161210BE22126DB8
:10353300B42A22850A82850B8312516485168285FB
:10354300178322126508FA74046A22A3E0F50CA318
:10355300E0F50D750E00780C2212524B851682850C
:103563001783E0682212356C22F0850A82850B836B
:10357300E022850A82850B83E50CF0A3E50DF0A319
:10358300E50EF0A3E50FF02274F2120376EAFEEBE8
:10359300FF8C088D0912298079008882F5831253E4
:1035A300C2120DEE8A828B83E5827002E583603A54
:1035B300A3A3A3A3A3A3E05418602FE508241BF53A
:1035C30082E5091276971206E5E5082412F582E5ED
:1035D300091276971206E5EE2418122D1C1235F8FF
:1035E300120E0C7404120891800879001235F81237
:1035F3000D4C022D17850A82850B83125164EE242C
:103603000B124D0F2274EE12037674EA1208F68A37
:103613000C8B0DEA2402F50EEB12351E0A0AFB127F
:103623000B968A088B09AE08AF09750901850C82D0
:10363300850D83A3E0F508750A01AC0EAD0F85185F
:1036430082851983AA82AB83121E3E7408120ADE96
:103653001260AA740A120ADE7402F07413120ADEEC
:10366300E4F0E50C240AF50CE50D122BE99018366D
:10367300E07010EE7001EF700AE50870067509C37B
:103683000237DE900384E0640860067509C20237DE
:10369300DA850C82850D83E0A2E1500EA2E350058A
:1036A300750A04800C750A038007A2E35003750AA8
:1036B30002EE7001EF60648E828F83A3A3A3A3E065
:1036C300FA74046A600574036A700C7404650A6012
:1036D3001C7403650A601674026A600574016A70DB
:1036E300207402650A60067401650A700F8E828F6A
:1036F3008312426D120ADE125AD3801F74026A606B
:103703000574016A700A8E828F8312433312200E6E
:10371300AA0EAB0F120BA27E007F007408120ADE02
:10372300E064FE7004A3E064FF7038120B5AE97082
:1037330032E50860179003C1E06402700F90183DF2
:1037430012426D120ADEE8F0A3E98016850C828529
:103753000D83E05402F9120D587408120ADEEAF0E0
:10376300A3EBF07408120ADE123881700374FF6B46
:1037730070057509C78060E508F50B780B120867BB
:10378300850C82850D83E0F9AC0EAD0F120CB67477
:1037930001120891E97040A90AAC0EAD0F7408122A
:1037A3000ADE1239638A108B11AE10AF11EE70016D
:1037B300EF601C74026508700BEE2405126ADB547B
:1037C300FB4408F0740A120ADEE4F0F50980087479
:1037D30008120ADE1260AAE508700F85188285199F
:1037E30083AA82AB83121E5C8010FCA90A8518820F
:1037F300851983AA82AB83120F92E9FAEE7001EF67
:10380300603EEE2405F8EF3400F9E5086012888283
:103813008983E0D2E6F0740265087004E0D2E5F033
:10382300850C82850D83E0A2E6500888828983E0B7
:10383300D2E7F08E828F83A3A3A3A3A3A3E004F014
:10384300E5097003EA602FFC7D007A017B10121EEC
:1038530026EE7001EF6007AA0EAB0F120BA27408DD
:10386300120ADE123881700374FF6B600990035EE5
:10387300125DC812200E74161208910258E5124DFB
:103883001674FE6A2274F612037674F71208F68A27
:10389300088B09900384E0FA74036A600D74016A6B
:1038A300600874096A60030239588508828B83A310
:1038B300AE82AF83E0600302393D7C007D007A0273
:1038C3007B00121E26E508240212395B1268591286
:1038D3005AD37953121E56790012396A900384E041
:1038E300640960099003821253C21210B874011262
:1038F3005DEE7404900384F07401120ADEAA82ABB5
:1039030083794A121E507401120ADEAC82AD837AA7
:103913007A7B03121E3E79007401120ADEAC82AD7B
:103923008390037812396390036FE0A2E35004D2CB
:10393300F08002C2F0125DD68018FC7D007A037B12
:1039430010121E268E828F83E0F912396AE49003E7
:1039530084F0120E90025DCCFAE509340002525E47
:10396300124D16120B7222900382124D16120CB0D6
:1039730022C082C083900346E07002A3E0704190AE
:103983000384E012076A000301963905A53906B4DA
:1039930039C33990034EE07002A3E0607690034E82
:1039A300806B90034AE07002A3E0606790034A8053
:1039B3005C90034CE07002A3E0605890034C804D90
:1039C300900346E07002A3E06009123F4AFC7401D1
:1039D3006C702379009003D1800909EA126076EBB9
:1039E300127697124AAD7001EB70EF9003D1125328
:1039F300C2120C9E801D74026C700512104C801351
:103A0300900406E07002A3E06009900406125DC80A
:103A130012200E024D8412524B9003822274F41230
:103A2300037674EB1208F6EA124E59FAE9FB8A821E
:103A33008B837808120A9F7808120A4190038578CD
:103A4300081209FA7F7F7E7F7C00750801750900E3
:103A5300750A00750B00EC780812083C9003857812
:103A6300081209E790817B7808120922602A7D00F9
:103A73009003D1801288828983A3A3E06C70010D27
:103A8300126075E9127697124B1B7001E970E6ED2F
:103A9300C39F5004EDFFECFE0CECC3941B40AB8AB8
:103AA300828B837808120A9F90817B7808120922FF
:103AB30060459003857808120A908A828B83780880
:103AC300120A9F8518828519837808120A90740454
:103AD300120ADE7401F090038BE0C0E07405120A51
:103AE300DED0E0F07407120ADE123C3C805B120C5D
:103AF300DA9003821263099003D1124B1B7001E920
:103B03006022900382126FDBE06A7003A3E06B70A4
:103B13000A88828983A3A3E06E60D3126075E912D9
:103B2300769780D6EE900377F0120E7EE9601AE462
:103B3300900384F0900350E07002A3E0600B79C41B
:103B4300900350125DC812200E7415024DED74F0EF
:103B530012037674EB1208F68A828B83A3A3A3A3C2
:103B6300A3A3A3A3A31264ED7C00750C01750D0040
:103B7300750E00750F00EC780C12083C850C088557
:103B83000D09850E0A850F0B90038578081209E746
:103B930090817B7808120922602590183CE0C0E0F0
:103BA3008C08EA2508F582EB126ADEFDD0E0C39D9E
:103BB300500D780C120A41900385780C1209FA0C07
:103BC300ECC3941B40A49003857808120A9F90814C
:103BD3007B78081209226039851882851983780851
:103BE300120A907404120ADE7401F07407120ADEDA
:103BF3007401F090038BE0C0E07405120ADED0E09C
:103C0300F07407120ADE123C3C7406900384F080C1
:103C130023E4900384F0FCFD7A047B10121E2690AB
:103C23000350E07002A3E0600B79C4900350125D6F
:103C3300C812200E7415027677E4126957121E68B3
:103C43002274EC12037674ED1208F68A828B83A336
:103C5300123F0DEA2408124E5FFEE9FF85188285A4
:103C63001983AC82AD838E828F83123F411253C27C
:103C7300120EA2851882851983E0707A8E828F8353
:103C8300E0C3940B4070850882850983A3A3A3A393
:103C9300A3A3A3A3E06402705D900384E0FAE508A4
:103CA3002410F510E5093400F511E5082409F50C95
:103CB300E509122BE974026A604174066A603C905C
:103CC3000346E07002A3E06007123F4A64016054B8
:103CD30074086A600574046A701C7402120ADEE0D8
:103CE300F97407120ADEAC82AD83850C82850D83DD
:103CF3001253C2120EA87413026D62900346E07051
:103D030002A3E0701F750A00780A120867780A1286
:103D13000867851082851183123F041247D9123F29
:103D2300381208919003D112770C9003D1126D5A77
:103D3300E508240DF50EE50912351E80318E828FBC
:103D430083E0F8A3123F04E0687003A3E0697012F4
:103D53008E828F83A3A3E0FA850E82850F83E06AA8
:103D6300606D8E0A8F0BEE126076EF127709EE709C
:103D730001EF70C97A187B0012167C8A128B13AE7E
:103D830012AF13EE7001EF7003023CF97C18127945
:103D9300141260A1EE240C12769474FFF0E508244B
:103DA3000BF8E50912514F123EFA125606C4123EA1
:103DB300FAA3F09003D1E07002A3E070059003D161
:103DC300800AE50A126076E50B1276971271277462
:103DD30001120ADE123F20A3F07402120ADE123F20
:103DE300201251868E828F83A3A3123F52123F1754
:103DF300125900240DFAEF3400FB7402120ADEE0BC
:103E03006401600E7407120ADEAC82AD83121E3E9B
:103E130080097C087D0079FF1215E67412120ADE10
:103E2300E0C0E0EE2415127694D0E012518FFC909E
:103E330018CFE0C39C4003023CF9126ACF12769775
:103E4300A3E05480F9E47001E97009901136E07041
:103E530003023CF97D00EE240CF8EF3400F9EE2464
:103E63000BFAEF3400FB9003C1E06402701D8A82F9
:103E73008B83E0F50AC39C500D7405120ADEE0C380
:103E83009414401B801AE50A6C70157405120ADE3F
:103E9300E0C0E088828983E0FCD0E0C39C50010D40
:103EA3007404120ADEE06020ED601D850882850936
:103EB300831269D4ECF0A3ED12518F8A828B83F0C5
:103EC3007405120ADE12516A7406120ADEE0600DEE
:103ED30074018E828F83A3A3A3A3A3A3F0740412FC
:103EE3000ADEE07003023CF974018E828F83A3A380
:103EF300A3A3A3F0023CF9540F8E828F83A3A3A341
:103F030022E0F9850C82850D8322A3A3E0F508A3A3
:103F1300E0F50922F8A3E0F98E828F8322E08E82F6
:103F23008F83027B14850C82850D83123F411251CE
:103F3300648A828B83124D16120F7A740222E0F97F
:103F43008A828B83027B129003461248B4E022F0EC
:103F5300850C82850D83E02274F412037674C912F2
:103F630008F6900384E06408700302400E9003C1D6
:103F7300E064027034902440E493900366F090244C
:103F830040E493900364F090818F7808120A9F9025
:103F9300038D7808120A9090818F7808120A9F90F7
:103FA30003917808120A908062900395E0F824DA6E
:103FB300F582E43412F583E0FA900366F0E824DB3B
:103FC300F582E43412F583E0FB900364F07508FF97
:103FD3007509FFEA78081209C1E508F4FCE509F45C
:103FE300FD3395E0FE90038D12413A7508FF750984
:103FF300FFEBC39A78081209C1E508F4FCE509F45C
:10400300FD3395E0FE90039112413AE4125DE479A9
:1040130004121E56900395E07009741E120ADE7492
:10402300018006741E120ADEE4F0740F851882857F
:104033001983F090183B1269537946121E56740186
:10404300120ADEE4F09018B8E0C0E07402120ADE4F
:10405300D0E0F0900372E0C0E07403120ADED0E017
:10406300F07404120ADEE4F07405120ADEE4F0745C
:1040730007120ADEE4F0900395E0FAC3940F740686
:104083005006120ADEEA8005120ADE740FF07C96EF
:104093007D037408120ADEAA82AB83121E3E7C03E0
:1040A3007D0079FF7410120ADEAA82AB831215E633
:1040B3009003CFE0C0E07413120ADED0E0125EE496
:1040C300120ADE125ED3120F80900389E0C0E074FF
:1040D3001C120ADED0E0F090038AE0C0E0741D12E7
:1040E3000ADED0E0F0900377E0C0E0741A120ADE33
:1040F300D0E0F0900382124E6F7418120ADE125A47
:10410300D37420120ADEE4F090038CE0C0E0741F45
:10411300120ADED0E0F07434120ADEE4F0742912DD
:104123000ADEE41241457414120ADEAA82AB83123A
:104133001E6E7437024DEDECF0A3EDF0A3EEF0A389
:10414300F022F07A757B03795312415022121E56E6
:104153007A787B03794B121E5622C082C0838A82EF
:104163008B83A3E06007E4900384F0804A74089093
:104173000384F0900395E0701F900350E07002A356
:10418300E0600B7900900350125DC812200E90037B
:10419300821251607A05801A7900120CAA90037575
:1041A3001251607A067B00121E269003781251602A
:1041B3007A047B00121E26024D8474F41203767473
:1041C300EA1208F6EA2402FEEB3400FF0A0AFB12A5
:1041D3000B968A088B09EA7001EB70030242688A26
:1041E300828B83A3A3A3A3E0FA74016A600F740212
:1041F3006A600A74036A600574046A7068EEFCEF0F
:10420300FD85188285198312646012426D120ADEDD
:10421300125AD3740A120ADE7401F07413120ADEFE
:10422300126952121E62890AAC0A7D007A077B006A
:10423300121E26850882850983A3A3A3A3A3E0C234
:10424300E0F07401850882850983A3A3A3A3A3A334
:10425300A3A3A3F07402850882850983A3A3A3A360
:10426300A3A3A3A3F07416024DED12524B740822BC
:10427300EE2402F508EF3400F5092274F7120376F1
:104283009003D1E0FAA3E0800CEA24161277061219
:104293001682EEFAEFFBEA7001EB70ED9003D1E4C6
:1042A300F0A3F0024CCE74F41203768A088B09EA69
:1042B300240BFEEB3400FFEA2413F582EB126ADED3
:1042C30064037009EEFAEFFB120B96800CE06402B4
:1042D30070548E828F8312432CEA7001EB6047EA9D
:1042E3002406F8EB122985850882850983A3E070EB
:1042F30007E488828983802D64F16005E064E170BE
:104303001A88828983E0640170118A828B83124345
:104313003312200EEEFAEFFB120BA2850A82850BF5
:1043230083E0600214F0024DF0124D16120B90223E
:10433300124D1690035E12433D2212434122E0F8D0
:10434300A3E0F58388822274F11203768A088B092D
:10435300ECFEEDFF890A8A828B83126D778A828B4A
:104363008312441AF0EEF8EFF9A30EAF838A828B1F
:1043730083A3A3E0C454F0FA88828983E04A1244F9
:104383002512441A12441FE0333354FCFA8E828FF1
:1043930083E04A12441FA3E033333354F8FA8E8286
:1043A3008F83E04AF008EFF9A30EAF838508828B71
:1043B30083A3A3A3A3A3A3E0A2E0E492E013135473
:1043C30080FA88828983E04AF0E5082407F50CEB3C
:1043D3001258FB12085F7C081255E9120891126B00
:1043E300F7E508240FF50CE509122BE9780C120800
:1043F3005F7C031255E9120891E50AC3940F40123A
:10440300E5082412F582E50912769712441BA3A34B
:10441300A3F07F07020626A3E0023F1B124425A355
:10442300A322F08508828B83A3A32274F11203765F
:10443300EAFEEBFF890A8C088D098E828F83E08C5C
:10444300828D831244FAAE82AF83E01259A01245E3
:1044530004C41259A01244F1E054038C828D8312D8
:104463004502A2E2E492E08C828D8312450113138C
:1044730013541F1259A0A3124501A2E7E492E08C42
:10448300828D83A3A3A3A31244F18E0C8F0D750E0B
:1044930000780C12085F7C087D00E50824071244AD
:1044A300E5120891126BF78E0C8F0D780C12085FD2
:1044B3007C037D00E508240F1244E5120891E5080A
:1044C3002412F8E5093400F9E50AC3940F400A8E73
:1044D300828F83A3A3A3E08001E488828983F0020F
:1044E3004415FAE5093400FB1215DA740322A3A379
:1044F3001244FA0EAF8322F08E828F83A322A3A3EA
:10450300A3A3F0026CA674F412037674F91208F6EE
:10451300EAFEEBFF900346E07002A3E06010123F57
:104523004A64027009EEFAEFFB12104680629003B0
:1045330082E06E7003A3E06F705674016960097ABC
:10454300967B03126DEA70487A007B02124A25704B
:1045530001EB703C9003857808120A9F85188285C9
:1045630019837808120A9090038BE0C0E074041258
:104573000ADED0E0F07405120ADE7401F07406124C
:104583000ADE7402126953120C5CE96098120C6221
:104593007407024DEDE0F9024D8474F61203769030
:1045A30003E2E0701F7C0079017A007B00120EDECB
:1045B300EA7001EB600E8A828B83E07002A3E060F5
:1045C30003120E30025DD1C082C083124A0540102F
:1045D30079FF120ED8E9FA902446E493C39A500463
:1045E300790180027900024D8474EE1203768A0801
:1045F3008B09890D750E00EA2408F50AEB12736D19
:10460300850A82F583E0F9120EE48A108B11AE104D
:10461300AF11750C01EE7001EF60030246AE850821
:1046230082850983A3A3A3A3A3A3125160850A824E
:10463300850B831257801253C2120ECC8A0A8B0B3E
:10464300AE0AAF0BEE7001EF70030247D18E828F7B
:1046530083A3A3A3A3E4F0A3F0E508240BFAE509DD
:104663001258F7C0E0127691D0E0F0120FE0EE247A
:104673000C126302750E01EE2406F8EF124A14E0E1
:10468300547FF0A3E054FC1248BA54046003024779
:10469300409018B11256C9740778081209C18A826A
:1046A3008B83E04508F0A3E04509F0EE2406F8EF1C
:1046B300124E61FCE9FD8C828D831253C274805AC1
:1046C300F50874035BF50974077808120A81E50895
:1046D300F510EE240412736AEE2409F508EF340092
:1046E300F509E50D6060740285088285098312452A
:1046F30005240D1253C6E0A2E2500F900370124E30
:104703006F850A82850B83125AD3E5107003024723
:104713009E747F5AFA74FC5BFB74FF2510F51074CA
:10472300FF3400F511740778101209C1E5104AF837
:10473300E5114BF98C828D83125AD3805EE044805D
:10474300F0A3E00246ADE5107005750C00804CEA5D
:10475300542060151215F88A10747F5510F8745F91
:1047630028850A82850B83801BEA5410600E12157C
:10477300F88A10740F5510F8740F80E4850A828547
:104783000B837401F0A3E4F0740485088285098324
:10479300124A1C7001EB7003125DB17401650E7057
:1047A30030850A82850B831247D9E0F9EEFAEFFBD5
:1047B300120ED2E9601BEE240C127694124AAD70ED
:1047C30001EB6003121682EEFAEFFB121682750CF0
:1047D30000A90C0258E512516402615D74F61203DC
:1047E3007674F71208F67E00120EE4EA7001EB709D
:1047F300030248A98A828B83A3A3A3A3A3A3A3A38E
:10480300A3E0640660030248A98A828B83A3A3A35F
:10481300A3A3A3A3E0FF8A828B831248AEE0C0E088
:104823007408120ADED0E01248BA124342125AD078
:10483300120F0274085FF9E47001E960678518825A
:104843008519831251607A007B00120EC6EA70014B
:10485300EB7051900382124E73121E867C007D0012
:104863007A007B0080288E828F83126152E064FF7E
:104873007004A3E064FF602C900382125160121B4A
:10488300AAE9641A601E7C007D00EEFAEFFB120EAB
:10489300C68A088B09AE08AF09EE7001EF70C779BD
:1048A30000121E8C7E01EEF9025DCC1248B4A3A364
:1048B30022124341027B1512525BE02274F712036A
:1048C30076EA7001EB70059003E380068A828B839E
:1048D300A3A3124AAD7001EB60288A828B83A3A342
:1048E300A3A3A3A3A3E05408F9E47001E960DDECFA
:1048F3007001ED60111265006C7003A3E06D70CC64
:1049030080047A007B00024CCE74F2120376EAFE36
:10491300EBFF890A8C088D097A0E7B0012167CEA5C
:104923007001EB603BE48A828B83A3A3A3A3A3A3BD
:10493300A3A3124966E50A124CE31260978A828B9D
:1049430083A3A3A3A3E4F0124966A3A3F0127123E4
:10495300EA240CF582EB127AF3A3125255F0A3F07A
:10496300022D17A3124CE7027B1774F5120376EAA4
:10497300FEEBFF890A8C088D09EE7001EF60567417
:1049830001650A70147901120ED8E9FA902453E4F0
:1049930093C39A500F791180667404650A703012BC
:1049A3004A0540F18E828F83A3A3A3A3A3A3A3A34A
:1049B300A3E50A125907127D92E4F0A3F09003E3F2
:1049C300E07002A3E09003E36024124E6F800A7448
:1049D30002650A60CF79C18026E824020808E9123B
:1049E3004A14124B1B7001E970EF8A828B83EEF03D
:1049F300A3EF124A1C7001EB7003125DB179000240
:104A03007DF67904120ED8E9FA902447E493C39A09
:104A130022124E61FAE902525EF0124A21227A20F2
:104A23007B009003D0E0F9121736EA22C082C083DC
:104A3300E9FC79009003E3801D8A828B83A3A3A3FF
:104A4300A3A3A3A3A3A3E06C600574FF6C70010987
:104A53008A828B83A3A3124AAD7001EB70DB024DF4
:104A63008474F7120376EA7001EB70059003E38018
:104A7300068A828B83A3A3124AAD7001EB60248A5A
:104A8300828B83A3A3A3A3A3A3A3A3A3E06970E13E
:104A9300EC60148A828B83E0240D126CA0A2E240A6
:104AA300D080047A007B00024CCE124D16EA22C05D
:104AB30082C0839003E380068A828B83A3A3124A76
:104AC300AD7001EB60128A828B83A3A3A3A3A3A37C
:104AD300A3A3E06970E280047A007B00024D84C0E6
:104AE30082C0839003E3800688828983A3A3124B49
:104AF3001B7001E9601B88828983E0FCA3E0F583D6
:104B03008C82E06A7003A3E06B70DDE8FAE9FB8056
:104B1300047A007B00024D8412524BE82274F11296
:104B230003768A0A8B0B8C0C8D0D750800750900B2
:104B3300EA7001EB60319003E380068E828F83A3DA
:104B4300A3124B717001EF601EAC0CAD0DEEFAEFCA
:104B5300FB850A82850B8312200EE9640170DCEE6B
:104B6300F8EFF988088909AA08AB09024415E0FEA1
:104B7300A3E0FFEE2279000205AC74F712037690EE
:104B830003E3124E6F7C007D008007E8FCE9FD1211
:104B93004E6FE87001E9603AE82402F582E9127683
:104BA30097EA687002EB6970E21253C29003E31252
:104BB300770CE86E7002E96F70099003E3EAF0A3E3
:104BC300EB800EEAF8EBF98C828D83A3A3E8F0A3C4
:104BD300E9F0024CCE74F7120376EAFEEBFFEE70B7
:104BE30001EF6016120EFC124CEDEA7001EB60034C
:104BF300121682EEFAEFFB121682024CCE74F712F3
:104C03000376126500FCA3E0FD9003E3124E6F757B
:104C130008007E00803388828983A3A3A3A3A3A370
:104C2300A3A3A3E0640570180E88828983E0FFA321
:104C3300E0F5838F82E06C7003A3E06D70020508DA
:104C430088828983A3A3124E6FE87001E970C7EAD3
:104C53002404F8EB3400F9902443E493FCE508C3FF
:104C63009C500B902444E493FCEEC39C400B88823D
:104C730089837401F0A3E4800A900370124CD3EC8F
:104C8300F0A3EDF074058A828B83A3A3A3A3A3A34C
:104C9300124CE0A3A3E0F0A3E044081248BAFAA33D
:104CA300E0FB8A828B83E064FF7004A3E064FF600F
:104CB3000E900382125160121E80E9641A70057906
:104CC30001121E8C8005741F1208917F01020626B3
:104CD30012516480033400F98882898322A3A3A339
:104CE300124CE72212525B027B178E828F83E024E1
:104CF3001C124D1AFAA3E0FB1216828E828F8312C6
:104D03004D16121682EE240C124D0F22F582EF344B
:104D130000F583E00227EE1253CEE022C082C08367
:104D2300EAFCEBFDEC7001ED70047905804CEC249A
:104D3300FBF582ED34FFF583E07002A3E07011EC24
:104D430024FFF8ED34FFF988828983E064FF60056E
:104D530012160480D59003D012516A90244AE4932A
:104D6300F97AE57B03121634E96401700B7A007B50
:104D730010125DB57900800279048005740212086F
:104D830091D083D0820205AC74F4120376A2AFE40F
:104D930092E0F508C2AF9003E5124B717001EF602A
:104DA3003DEE24FBF582EF34FFF583E07002A3E0D0
:104DB3007A007B109003D06005125DB88005E0F99E
:104DC300121640750A00750B00780A120863EEFC90
:104DD300EFFD7AE57B0312162E7402120891E508A3
:104DE300A2E092AFEEFAEFFB80031208917F040278
:104DF300062674F712037674E11208F6EA2413F513
:104E030082EB126ADEC0E07411120ADED0E01252A5
:104E1300447409120ADE12523D124E59FCE9FD8C0C
:104E2300828D83124E6F740B120ADE12523D2414CC
:104E3300F582EB126ADEC0E07412120ADED0E0F0F3
:104E4300EA240EF582EB122D1F8C828D83124E7392
:104E5300120DD6024CC92404124E5F22F8EB340023
:104E6300F9E822EA240BF582EB1276B912524B22AF
:104E7300125164851882851983AA82AB832274EA4E
:104E830012037674FC1208F6EAFEEBFF750B00754D
:104E93000A007508FE7509FF120EB4E96005791161
:104EA300025140EE240F12351BEE2402122BE6EEC4
:104EB300241512515860469018CAE0C43354E0C018
:104EC300E0E0333354FCFAD0E04A85108285118345
:104ED300123F52FAA3E0FB79FF121F52EA7001EB73
:104EE3006018750B017508FF850E82850F83E044FA
:104EF30004F0A3E012518FD2E0F0750A40EE2412C1
:104F0300F514EF3400F515850C82850D831262BD0F
:104F13006008E4851482851583F0EE24131251583A
:104F23007003741EF0EE2411F8EF1262A170199051
:104F3300120AE0600D90036CE0700D8E828F83E0A7
:104F43007006E488828983F0EE241408080812515D
:104F53004E700C90036112516A900361E004F0EE0D
:104F6300240BF512EF3400F51390036FE0A2E15028
:104F730052E50B701D850C82850D831262BD604363
:104F83008E828F83E0600B8512828513831229A79B
:104F93006031850E82850F83E0544060198510824D
:104FA300851183E06401700E850E82850F83E054C2
:104FB300FB1262DE800DEEFAEFFB120F1AE97003AB
:104FC300024EA18E828F83E0640170108512828568
:104FD3001383126504640270031262D5850E828501
:104FE3000F83E0544060030250ACE50B60030250B2
:104FF300AC90036FE0A2E140030250ACEE2406F54F
:1050030010EF3400F511E50AF50B780B120867ACC5
:1050130010AD11850C82850D831253C285148285D0
:105023001583E0F9120E007401120891E9600FE490
:1050330085148285158312518644201262DE851001
:1050430082851183E06034850C82850D8312516063
:10505300EE2407FAEF3400FB120F3E8A088B098512
:105063000C82850D83E065087004A3E06509700870
:10507300E4851082851183F01262D5EE2404F510C5
:10508300EF3400F5118E828F83E0640160061251C4
:1050930071120D9A125171120D34E9600C850E8252
:1050A300850F83E044201262DE851882851983AC64
:1050B30082AD83EEFAEFFB120F328A0A8B0B74FE7A
:1050C3006508700474FF65097009850C82850D837A
:1050D300123F0FEA7001EB60608E828F83E0C0E0C5
:1050E3007401120ADED0E0F07402120ADE12712794
:1050F3007401120ADE85820C85830D780C12086315
:10510300850E82850F831206E5EE240E126ADBF507
:105113000C780C1208677405120ADEE0F9AC08ADCE
:1051230009120F2C7405120891E9FE74106E700BAE
:10513300AA0AAB0B12168280027E10EEF9740412D7
:1051430008917F0E020626EE2405F8EF1251532232
:10515300124CD8E0221258EAE0221276B6125164B9
:1051630022E0FCA3E0FD22E088828983F022A90AE1
:10517300851082851183125164850C82850D8312FB
:105183004D1622F0850E82850F83E022F085108272
:10519300851183E022C082C08374DE1208F68A82FE
:1051A3008B83A3A3A3A3124E6F740E120ADEE8F03F
:1051B300A3E9125244740C120ADE12523D240DF577
:1051C30082EB126ADEC0E0741A120ADED0E0F0123B
:1051D3004E667420120ADE12523D2415F582EB123C
:1051E3006ADEC0E07408120ADED0E0F0EA241C1282
:1051F3004E697412120ADE125AD374FF851882851F
:105203001983F07401120ADE74FFF07402120ADECD
:1052130074FFF090817B1206E17404120ADEAC8203
:10522300AD837407120ADEAA82AB83120C9874044E
:1052330012089179007422024D81E8F0A3E9F0EAA3
:105243002212525512524B2212524F22E0F8A3E07F
:10525300F92212525BA3A322F08001FB8A828B8383
:105263002274EC12037674F01208F68A128B13EC94
:10527300FEEDFF890F7424120ADEE0F50C7425128B
:105283000ADE123F0F7427120ADE126D5A750D10D3
:105293007A1E7B0012167C7402120ADE12630974F2
:1052A30002120ADEE07002A3E070030253B2750E2D
:1052B30000EEFAEFFB120B908A828B83E582700279
:1052C300E583601CA3A3A3A3E0FA74016A600574D9
:1052D300036A700CE5085440700674044509F50927
:1052E30074045509F9E47001E96003750E0185182A
:1052F30082851983AA82AB8379501253B97402123F
:105303000ADE1248AEA31263097402120ADEE02415
:105313000B1253C67402F0120ADE1248AE7402F086
:10532300120ADE125DC81271277402120ADE1264B9
:10533300F9E50FF07402120ADEE0240C1253C6E5FD
:105343000CF07402120ADEE0241C1253C6E512F0BC
:10535300A3E513F07408120ADE126099740A120AA4
:10536300DEE50CF0850A82850B83C082C083740D51
:10537300120ADEAC82AD83D083D08274031207DDC0
:10538300A90E7402120ADEAA82AB83120EBAE96472
:10539300017011E50E6008A90C120EE4120F0875D6
:1053A3000D00800B7402120ADE1253C2121682A978
:1053B3000D7410026D62121E5085188285198312B6
:1053C3004D16221253CA221253CE22F8A3E0024CE6
:1053D300D874E8120376EAFEEBFF8C088D098E82FF
:1053E3008F83A38582128583137408F0EE2416F548
:1053F3000CEF12769BE0600974108512828513838B
:10540300F0EE241712351B850E82F583E0600A85C2
:105413001282851383E02408F0EE2415126ADB6000
:1054230009851282851383E004F0EE2407F514EF57
:105433003400F515EE2406F516EF3400F51785163E
:1054430082F583E06015851482851583E0C33324D8
:1054530002FA851282851383E02AF0EE2411125199
:105463004D6005750A0E8003750A00851282851347
:1054730083E0C0E0EE240D127694D0E0FAE02A2512
:105483000A8C828D83125606601390036DE0F91225
:105493000AF4E9FA850882850983E02AF0850882FF
:1054A300850983E0FAC394754009750800750900FE
:1054B3000255E07B001270897001EB70030255E026
:1054C300EEFAEFFB120F38EA85088285098312632F
:1054D3000AEE2402F812615812560DF0EE24040865
:1054E30008126158A3A312560DA3A3F0EE241312BE
:1054F30055F2F0EE24141255F2A3F0751008850C42
:1055030082850D83E06010EE241812515DE50824B6
:1055130008126D50751010850E82850F83E060169A
:10552300EE241A12515D85100CE508250C126D50FE
:1055330074082510F510851682851783E0605F8552
:105543001482851583E0C0E085100CE508250CF571
:1055530082E509127697D0E01255FCE0C0E0851091
:105563000CE508250CF582E509127697D0E0125573
:10557300FC12354E12085F851482851583E0C33310
:10558300FCE433FD85100CE508250C1244E51208F4
:1055930091851482851583E0C3332510F510EE241D
:1055A30015126ADB6010C0E0E5082510F582E509F5
:1055B300127697D0E0F012769112354F12085FEE13
:1055C300240D126ADBFC7D00851282851383125B36
:1055D3003DE50A28FAE4391255EE120891AA08AB00
:1055E300097F100206267D00EEFAEFFB0244EB1260
:1055F30076B612561DA3A3A322F005108E828F83C5
:10560300027B13F088828983E02212561412561DFE
:1056130022A3A3F088828983A322E08508828509D7
:1056230083A3A3A32274F6120376EA2415F582EB6F
:10563300126ADE60047C0180027C008A828B83E034
:10564300FE9003721256C9740278081209C1E50864
:105653004EFEAF09EA24121256C3740678081209E3
:10566300C1E5084EF8E5094FF9ECFDE8FCED49FD0D
:10567300EA24111256C3740978081209C1E5094DC9
:10568300FDEA24161256C3740B78081209C1E50902
:105693004DFDEA24171256C3740C78081209C1E5AC
:1056A300094DFD8A828B83A3A3A3A3A3A31256C987
:1056B300740A78081209C1ECFAE5094DFB025DD1C1
:1056C300F582EB1276B9E0F5087509002274F4123D
:1056D300037674FD1208F68A088B09ECFEEDFF745D
:1056E30001120ADE85820A85830B780A1208637425
:1056F30002120ADEAC82AD83EEFAEFFB120D767472
:1057030002120891E9706585188285198312615C1C
:10571300F07401120ADEE0F8A3125780A3A3125A11
:10572300D3850882850983A3A882A98385188285E6
:105733001983E0602C1488828983125778E0C3337D
:10574300F8E433F97401120ADEE028F8A3E039F92A
:1057530074FE28F58274FF39F583E0FAA3E0FB8039
:105763000FE488828983F0EEFAEF80F27AFE7BFF02
:105773007403024DEDF085188285198322E0F90246
:10578300615D74EE1203768A088B09ECFEEDFFE986
:105793008E828F83F0125B49C0E0EE24111276945F
:1057A300D0E0125AEFC0E0EE2412127694D0E01249
:1057B3005B136006125AC2125B2F8E828F83A3A3E0
:1057C300A3A3A3A3A3A3E06003125B2312514A6024
:1057D30003125AF7EE2419F8EF3400F9E4888289AA
:1057E30083F0EE241B1258EAE4F0A3F0EE2418FA37
:1057F300EF1258F77003025883850A82850B83E002
:10580300FCE5082C125B02FCE5082CF582E5091285
:105813006ADEC0E0EE241A127694D0E0125B0D88A3
:10582300828983E0FC6053902449E493C39C500530
:10583300750F0C80028C0F850A82850B83E0F8E5D7
:105843000828F50CE5091258FB12085FE50FC3336E
:10585300FCE433FD7A267B171244EB120891851082
:10586300828511837426F0A37417F0E50FC333FA0E
:10587300850A82850B83E02A8005E48A828B83F084
:10588300850A82850B83E0F50AF50CE508250CF8FB
:10589300E5093400F9EE241DFAEF3400FBEAFCEBD2
:1058A300FD8C828D831259002417FAEF3400FB8A92
:1058B300088B098E828F83E0C3950A8A828B8312B9
:1058C3005907A3A3E0601B8A828B83E024F2F0E8EC
:1058D300240EF8E9125AD9FA850882850983E0C3B0
:1058E3009AF07F0A020626F510EF3400F5118510B1
:1058F30082F58322126E7A223400023554E8F0A333
:10590300E9F0EE2212590B22F08E828F83027B176D
:1059130074F41203768A088B09EA1259A7F0EA1382
:1059230013543F1259A0A3A3A3F0EAC413131259AB
:10593300A7A3A3F0EB12598DF08A0A8B0B74097895
:105943000A120A81E50A12598DA3F08A0A8B0B7495
:105953000A780A120A81E50A5401C0E0EC2418F51A
:1059630082ED127697D0E0F08A0A8B0B740B780ADB
:10597300120A81E50A12599AF0740C7808120A8106
:10598300E50812599AA3F0024DF0125991225401DD
:105993008C828D83027B16125991A3A322540F8C00
:1059A300828D832254038C828D83A3A322C082C061
:1059B30083790090036C126141A3A3A3A3E0600F5A
:1059C300EC70268A828B83A3A3E0701D09801AECF6
:1059D30060178A828B83A3A3A3A3A3A3A3A3A31266
:1059E30059EF7003A3E06B70E3024D84124D1690E0
:1059F3000375E06A2274EE1203768A088B09890C18
:105A0300ECFEEDFF125B49C0E0EE2411127694D058
:105A1300E0125AEFC0E0EE2412127694D0E0125B4B
:105A2300136006125AC2125B2F8E828F83A3A3A325
:105A3300A3A3A3A3A3E06003125B2312514A600351
:105A4300125AF7EEFAEFFB120F50E9F50D706B8562
:105A53000A82850B83E0F50EF510E5082510FAE5BB
:105A6300093400FBEE2417F8EF3400F9880889099C
:105A7300EE241DF8EF124E61FCE9FD8E828F83A3A5
:105A8300A3A3A3A3A3E07012EAF8EBF98C828D839E
:105A9300125AD3E50CC3950E8019EA240EF8EB12C3
:105AA3005AD9FB850A82850B83E0FAE50CC39A2455
:105AB300F2C39B850882850983F0A90D0258E5E5A9
:105AC300082408F8E5093400F9EE2413221264725D
:105AD300E8F0A3E9F0223400F98C828D83E8F0A387
:105AE300E9F090036DE0F9120AF4E922126293A33C
:105AF300A3A3E022850A82850B83E0FAE5082AF551
:105B030082E509126AE58882898312356C04F022E2
:105B13001244FA85820A85830B740812590B80CFCD
