:020000040800F2
:10000000281600204901000857230008AB220008E9
:1000100055230008750F0008FD26000800000000A9
:100020000000000000000000000000005B2300084A
:10003000770F000800000000592300085D23000826
:100040006301000863010008630100086301000800
:1000500063010008630100086301000863010008F0
:1000600063010008630100086301000863010008E0
:1000700063010008630100086301000863010008D0
:1000800063010008630100086301000863010008C0
:1000900063010008630100086301000863010008B0
:1000A00063010008630100086301000863010008A0
:1000B0006301000863010008630100086301000890
:1000C0006301000863010008630100086301000880
:1000D000630100084926000863010008692600083A
:1000E0006301000863010008630100086301000860
:1000F0006301000863010008630100086301000850
:10010000630100086301000863010008630100083F
:10011000630100086301000863010008630100082F
:10012000630100086301000863010008630100081F
:10013000DFF810D000F008FD00480047216B0008F0
:10014000AFF3008028160020064880470648004785
:10015000FEE7FEE7FEE7FEE7FEE7FEE7FEE7FEE777
:10016000FEE7FEE7BF23000831010008202A04DB78
:10017000203A21FA02F00021704721FA02F3D04020
:10018000C2F120029140084319467047A0F1410195
:10019000192900D82030704740EA01039B0703D09B
:1001A00009E008C9121F08C0042AFAD203E011F8B6
:1001B000013B00F8013B521EF9D27047D2B201E078
:1001C00000F8012B491EFBD270470022F6E710B55C
:1001D00013460A4604461946FFF7F0FF204610BDB5
:1001E00030B505462A460B4612F8010B13F8014BB1
:1001F00008B1A042F8D01CB1002802D06D1CF1E774
:10020000284630BDCAB2401E10F8011F8A4202D0F3
:100210000029F9D100207047421C10F8011B002969
:10022000FBD1801A7047034611F8012B00F8012B0F
:10023000002AF9D11846704730B50546002003461C
:1002400000E05B1C934205D2EC5CC85C201A01D133
:10025000002CF6D130BD00000FB400B58DB010A950
:1002600009900B9000914FF0FF300A9000200C9005
:1002700005480690054807906A4609A80F9900F0BE
:1002800039FB0DB05DF814FB110900082F090008B7
:100290002DE9FF5F1D464FF0FF3BD5E90146914632
:1002A0005F464FF00008A9697F1C01988847296ABA
:1002B000824688470028F6D1BAF1FF3F0CD024F4DB
:1002C000C064002E19DD600614D5BAF12B0F09D0D9
:1002D000BAF12D0F0ED103E0584604B0BDE8F09FEF
:1002E00044F48064A9697F1C01988847761E824681
:1002F000002E02DDBAF1300F03D0B9F1000F26D085
:1003000032E0A969761E44F400747F1C0198884786
:100310008246002E05DDBAF1780F06D0BAF1580FEB
:1003200003D0B9F1000F10D01EE0B9F1000F02D0D8
:10033000B9F1100F18D1A969761E24F400747F1C3E
:10034000019888478246102002E0082000E00A2039
:10035000814609E008FB0908A969761E44F4007487
:100360007F1C019888478246002E05DD494650468D
:1003700000F0ACFA0028EDDAE96901988847A00599
:1003800002D46FF00100A8E7E00725D1600613D57D
:10039000600502D5C8F1000000E0404629680A1D4A
:1003A0002A600968220501D5087015E0220701D5E9
:1003B000088011E008600FE02868011D29600068CE
:1003C000210502D580F8008006E0210702D5A0F8BB
:1003D000008001E0C0F8008038467EE72DE9FF5F2D
:1003E000D2E901A74FF00008916999461446DDF85B
:1003F00038B0464601988847054659EA0B0005D0B3
:1004000009E0A169761C019888470546216A2846BB
:1004100088470028F5D1681C03D05FEACA7005D070
:1004200015E04FF0FF3004B0BDE8F09F2068011DDB
:100430002160D0F800800AE05FEACA7001D108F8B4
:10044000015BA169761C7F1E019888470546002F35
:100450001ADD681C18D0B9F1000F0DD0E81705EBB4
:10046000D060421120F01F0059F822102A1A0120F2
:1004700090400142E0D107E0BBF1000FDCD1216ADE
:10048000284688470028D7D0E16901988847BBF102
:10049000000F07D1002E05DD5FEACA7002D10021EE
:1004A00088F80010A068B84203DDBBF1000F03D04C
:1004B00017B16FF00100B6E73046B4E72DE9FE4F03
:1004C000804681EA0300C00F0C46009021F00041F5
:1004D00023F00045B8EB0200A94105D24046214671
:1004E00090461C460B46024623F00040104347D07E
:1004F000270DC7F30A00C3F30A510290401A019076
:1005000040286BDAC3F3130040F4801B0098924636
:1005100020B10023D2EB030A63EB0B0B0198594681
:10052000C0F14002504600F0B0F906460D46504674
:100530005946019A00F0B8F910EB08006141002417
:1005400087EA115284EAE7731A4340D0009A62B3F3
:10055000019A012A4FEA075215DC001B61EB0201E8
:100560004FF0004202EA0752CDE90042001C41F57B
:10057000801132462B4600F0FAF903B0BDE8F08F47
:1005800040462146F9E7001B61EB0201001C41F5E2
:10059000801300185B412018A2F5001747EB0301F8
:1005A00040EAD570B6196D4111E06D084FEA360684
:1005B00045EAC0754FEA0752001B61EB0201001CBF
:1005C00041F5801149084FEA300000195141324687
:1005D0002B4603B0BDE8F04F00F0BAB900980122F5
:1005E00040000023D0EB020263EBE0730098214649
:1005F0004FEAE074B8EB000061EB0401E9E783F037
:1006000000435BE781F0004158E72DE9FE4F81EAA6
:10061000030404F0004421F0004100944FF0000B6B
:1006200023F0004350EA01045ED052EA03045BD099
:10063000C3F30A54C1F30A552C44A4F2F3340194D1
:10064000A0FB0254C1F3130141F48011C3F313035F
:1006500043F4801301FB024400FB034E840A970A13
:1006600044EA815447EA8357A4FB076802958D0A40
:1006700005FB07854FEA932C04FB0C542705029DCC
:100680004FEA065847EA1637B5EB08056EEB070C3C
:10069000870E920E47EA811742EA8312A7FB0201F6
:1006A000B6EB0B0164EB00042B0D43EA0C335E1830
:1006B00044EB1C50DA465146E7FB0201C5F3130434
:1006C0004FEA0B3343EA14534FEA0432019C43EAE6
:1006D0000603A4F10C040294009CCDE900B400F0E0
:1006E00046F903B0BDE8F08F00200146F9E70EB5EA
:1006F000C10F80EAE0700844CA07002140F233438A
:100700008DE80E000A460B4600F031F903B000BD3B
:100710000EB540F2334102910021CDE900110A46A5
:100720000B4600F024F903B000BD70B5C1F30A52C6
:1007300001F000450024C1F3130140F2FF3341F4FE
:1007400080119A4201DA002070BD40F233439A4290
:10075000A2F2334203DC5242FFF708FD00E0904072
:100760002C43F1D0404270BDC1F30A5210B5C1F321
:10077000130140F2FF3341F480119A4201DA002064
:1007800010BD40F233439A42A2F2334203DC52429C
:10079000FFF7ECFC10BD904010BD000030B5041E0A
:1007A00071F1000404DB4FF00044404264EB0101AE
:1007B000141E73F1000405DB1C464FF00043524247
:1007C00063EB04038B4208BF824230BD30B5041E88
:1007D00071F1000404DB4FF00044404264EB01017E
:1007E000141E73F1000405DB1C464FF00043524217
:1007F00063EB0403994208BF904230BD30B50B460D
:10080000014600202022012409E021FA02F59D4240
:1008100005D303FA02F5491B04FA02F52844151E14
:10082000A2F10102F1DC30BD2DE9F05F05460020A8
:1008300092469B4688460646814640241BE0284651
:10084000414647462246FFF791FC53465A46C01A96
:10085000914110D311461846224600F016F82D1A81
:1008600067EB01084F4622460120002100F00DF8F9
:1008700017EB00094E41201EA4F10104DFDC4846BD
:1008800031462A464346BDE8F09F202A04DB203A41
:1008900000FA02F1002070479140C2F1200320FAD3
:1008A00003F3194390407047202A06DBCB17203A08
:1008B00041FA02F043EAE07306E041FA02F3D04065
:1008C000C2F1200291400843194670473A2800D2ED
:1008D000303820F02002412A01D3A2F137008842AB
:1008E00001D34FF0FF307047026811441378016064
:1008F00018467047D16004495161044911620021D2
:100900001161114600F038B9E90800086D0B0008C4
:10091000426842B1016811F8013B23B1521EC0E99F
:100920000012184670470121C160881E7047426856
:100930005AB1C368016843B983688B4205D0491E28
:10094000521CC0E90012002070474FF0FF30704782
:1009500010B5141E73F1000408DA401C41F10001C7
:1009600092185B411A4301D120F0010010BD2DE91E
:10097000F04D92469B4611B1B1FA81F202E0B0FA15
:1009800080F220329046FFF780FF04460F4640EA8F
:100990000A0041EA0B0153465A46084313D0114658
:1009A00053EA010019D0C8F140025046FFF7DEFBC0
:1009B00005460E46504659464246FFF766FF084335
:1009C00005D0012004E020463946BDE8F08D002026
:1009D000054346EAE0762C4337430A986305E40A68
:1009E000A0EB08000022FD0A44EA47540A3002D571
:1009F00000200146E9E7010510196941DDE90845D4
:100A000000196941BDE8F04DA2E72DE9F04D81EAFA
:100A1000030404F0004B21F0004514464FF0000A97
:100A200023F0004150EA050220D054EA01021DD013
:100A3000C5F30A570246C5F31303C1F31300C1F30C
:100A40000A5640F4801543F48013A7EB0608101BE8
:100A5000D64608F2FD3873EB050002D308F1010811
:100A600001E092185B41B8F1000F03DA0020014663
:100A7000BDE8F08D00204FF48011064684460EE05C
:100A8000171B73EB050705D3121B63EB0503064326
:100A90004CEA010C49084FEA300092185B4150EAD9
:100AA0000107EDD152EA030012D082EA040083EA82
:100AB0000501084305D0101BAB4106D201220023DB
:100AC00006E000224FF0004302E06FF001025310F5
:100AD0001AEB06004CEB085110EB0A0041EB0B013E
:100AE000BDE8F04DFFF734BF70B521F0004303437C
:100AF0000CD0C1F30A550024D5EB040564EB0403C4
:100B0000D617AD1AB34102DB0020014670BD201894
:100B100041EB025170BDC1F30A52C1F3130140F21F
:100B2000FF3341F480119A4202DA002001467047F7
:100B300040F233439A42A2F2334202DC5242FFF7C0
:100B400015BBFFF7A2BE0000064C074D06E0E068AB
:100B500040F0010394E8070098471034AC42F6D304
:100B6000FFF7EAFA4CBA00086CBA0008C0B24FF4BA
:100B7000F05100F0EBB900002DE9F34F8BB04FF0CE
:100B8000000801F10C000C464FF0010B46460DF138
:100B9000080A01906269012101989047051E2DD035
:100BA000252D2CD0216A8847C0B1626901210198A6
:100BB0009047216A88470028F7D1411E6269019851
:100BC000904700E0761CA1690B988847216A884706
:100BD0000028F7D1E1690B988847DBE7A1690B98FA
:100BE00088470746A84201D1761CD3E7E1690B98F4
:100BF00088477F1C02D1B8F1000F6FD047E1002772
:100C000062693D463946019890472A2804D16269B5
:100C10000121019890470125DFF88892626901213E
:100C200001989047A0F130010A290AD24F45E5DC2E
:100C300007EB870100EB4107303FDFD445F010059B
:100C4000ECE7E90601D46FF000476C280AD04C2885
:100C500014D0682815D06A280DD074281CD07A28A2
:100C60001AD01DE062690121019890476C2802D0DA
:100C700045F0040514E045F002050DE045F02005BF
:100C80000AE06269012101989047682802D045F086
:100C9000080505E045F40065626901210198904767
:100CA000C4E9015765283DD019DC58287AD00CDCFE
:100CB000452837D004DC252826D0412831D131E021
:100CC00046282FD047282CD12CE05B2877D06128EC
:100CD00028D063287CD0642823D15AE0D1E06F2843
:100CE00048D008DC66281DD067281BD0692821D091
:100CF0006E2816D127E0702845D0732868D0752853
:100D000047D078280DD14DE0A1690B98884705465A
:100D100025283FF469AFE1690B9888476D1C3FF4C3
:100D20006AAFB4E023466A466FF001000B99AFF357
:100D300000809FE045F040006060A80723464FF028
:100D4000000236D43EE0E8077FF447AF2068011D7B
:100D500021600068290501D506701BE7290701D528
:100D6000068017E7A90703D5F117C0E9006111E76D
:100D700006600FE745F040006060A80723464FF08B
:100D8000080216D41EE040F60E0125EA010060605C
:100D900016E045F040006060A80723464FF00A02C5
:100DA00007D40FE045F040006060A80708D523464F
:100DB00010226FF001000B99AFF300805AE007E0BA
:100DC000234610226FF001000B99FFF761FA51E002
:100DD0004FF000094F464B46632802D05B2807D0EE
:100DE00041E02079C00601D40120A06001273AE04B
:100DF00062690121019890475E2805D14FF00109F1
:100E00006269494601989047216939B900210A462B
:100E1000534643F82120491C0829FADBB0B3216965
:100E200069B9C11700EBD16253110AEB830122F0BB
:100E30001F02821A01200B68904003430B60626915
:100E40000121019890475D28E8D1B9F1000F09D040
:100E50000020514651F82020D24341F82020401C68
:100E60000828F7DB02AB224600976FF001000B99D0
:100E7000FFF7B4FA00280CDA401C08D1BBF1000FD0
:100E800005D04FF0FF300DB0BDE8F08FFFE74046D2
:100E9000F9E7E90701D108F1010806444FF0000B1A
:100EA00078E60000CCCCCC0C2DE9F04D00231A469E
:100EB0001B1A8A4103DB00200146BDE8F08DC1F317
:100EC0000A52C1F3130141F480154FF0000BD10712
:100ED00002D100186D41521E0027044640F2FF1156
:100EE000384601EB620A3E468046024600204FF437
:100EF0008011FFF73BF9C2197141BB1846EB0100A5
:100F0000B4EB030C75EB000C04D3E41A65EB00059D
:100F100017460E46241908F101006D418046342819
:100F2000E3DDF91946EB0600091BA84103D24FF097
:100F3000FF32134601E0002213461BEB070046EB8D
:100F40000A51BDE8F04DFFF703BD00007F2801D92D
:100F5000002208E0064A02EB5002C007127800D1D6
:100F6000120902F00F020120904008407047000073
:100F700018B90008FEE7704710B54FF4FA7201285F
:100F800005D0022806D003280CD0032010BD07A1ED
:100F900007A001E005A109A000F0E8F80028F5D0BD
:100FA000012010BD01A108A0F6E700004F4B000092
:100FB00041542B43574D4F44453D310041542B4341
:100FC000574D4F44453D320041542B43574D4F44FC
:100FD000453D330010B54FF4FA7218B1012804D022
:100FE000032010BD05A106A001E004A106A000F0A9
:100FF000BDF80028F5D0012010BD00004F4B0000C7
:1010000041544530000000004154453100000000CB
:1010100000B5ADF5017D024607A1684601F080FBF1
:101020004FF47A720BA1684600F0A0F8002800D0B7
:1010300001200DF5017D00BD41542B4D5154544309
:101040004C49454E5449443D302C222573220D0A0B
:10105000000000004F4B000000B5ADF5017D0B46D0
:101060000092024607A101A801F05AFB4FF47A72E0
:101070000BA101A800F07AF8002800D001200DF59E
:10108000017D00BD41542B4D515454434F4E4E3DB4
:10109000302C222573222C25642C25640D0A000097
:1010A0004F4B000000B5ADF5017D024607A1684633
:1010B00001F036FB4FF47A720AA1684600F056F848
:1010C000002800D001200DF5017D00BD41542B4DBD
:1010D0005154545355423D302C222573222C310D4E
:1010E0000A0000004F4B000000B5ADF5017D0B4636
:1010F000024608A1684601F013FB4FF47A7211A171
:10110000684600F033F8002800D001200DF5017D7D
:1011100000BD000041542B4D51545455534552438A
:1011200046473D302C312C224E554C4C222C22254A
:1011300073222C222573222C302C302C22220D0AD3
:10114000000000004F4B000010B54FF4FA7204A1EC
:1011500004A000F00BF8002800D0012010BD000012
:101160004F4B000041542B525354000070B51446AD
:101170000D46064602F01CF831460CA001F0F0FFC7
:101180003DB134B102F004F838B12946FFF728F830
:1011900008B1002070BD02F00BF80120641E00F0C1
:1011A0005BF9002CEED1022070BD000025730D0A02
:1011B0000000000000B5A1B00B46024607A168463A
:1011C00001F0AEFA40F6B83209A16846FFF7CEFF4B
:1011D000002800D0012021B000BD000041542B4365
:1011E000574A41503D222573222C222573220000AC
:1011F0004F4B000072B6FEE730B5B3F5804F05D017
:101200006FF0704140F82210002030BD8C690B68EF
:101210008D6823434C688989240144EA05242343CB
:1012200043EA014150F82230014C23401943E9E7D9
:101230000000F0CF10B50A6850F8223023F0010307
:1012400040F822308C68082C23D000234A682243BF
:10125000CC681C430B6922431A434B690E4C1A435A
:10126000CB691A430B6A1A434B6A1A438B6A1A43B7
:10127000CB6A1A430B6B1A438B6913434A6B096899
:101280001A4350F82130A343134340F82130002083
:1012900010BD4023DAE700007FFF0F0030B5D1E931
:1012A000003443EA04138C688D89240244EA05441F
:1012B00023430C8A094D00EB820005EB04542343C1
:1012C0000C7D6D0105EB0464896923430B43416880
:1012D00001F040410B434360002030BD0000F0FFAF
:1012E00010B590F821100022022905D00421816355
:1012F00080F82020012010BD01680B6823F00E0348
:101300000B6001680B6823F001030B6090F840301C
:10131000C46B012101FA03F3636080F8211080F8A7
:101320002020104610BD00002DE9F05F90F821103C
:101330000024022903D004218163012485E001688F
:101340000A6822F00E020A6001680A6822F00102AF
:101350000A603F4E3E4FB215DFF8F4C0DFF8F09060
:10136000DFF8ECA0DFF8E8B0DFF8E4E00168783FF0
:1013700013011502ACF1640CA9F15009AAF13C0A61
:10138000ABF1280BAEF1140E4FF48018B14227D9FF
:10139000B9420ED0614512D049451DD0514518D0F3
:1013A000594518D0714501D1424615E0294EB14248
:1013B00001D1012210E0274E1436B14201D1102292
:1013C0000AE0244E2836B14206D0224A3C329142ED
:1013D00001D11A4600E02A461E49091F0A602BE087
:1013E000B94213D0614517D0494522D051451DD08F
:1013F00059451DD0714501D142461AE0B14202D192
:101400004FF0807215E0134EB14201D1012210E07D
:10141000104E1436B14201D110220AE00D4E28368A
:10142000B14206D00B4A3C32914201D11A4600E04B
:101430002A46074980394A60012180F8211000219D
:1014400080F82010416B01B188472046BDE8F09F2D
:10145000800002400804024080B202F0A3B80000FD
:101460002DE9F84FDFF8C8910024A9F1040B2346B9
:101470000F2709F1040AABF1040ED1E00125A540C4
:1014800006EA0502AA4276D1DFF8A8C14E68A6EBAB
:101490000C0866452BD00DDC032E34D005DC36B3AA
:1014A000012E19D0022E2FD11BE0112E16D0122E94
:1014B0002AD119E0B8F5881F19D006DCB8F5803FAD
:1014C00015D0B8F5801F1FD111E0B8F5001F0ED060
:1014D000B8F5041F18D10AE0CB6815E0CB681B1DD6
:1014E00012E0CB6808330FE0CB680C330CE08B685C
:1014F0002BB1012B4FF0080303D0456104E0042316
:1015000002E0056100E00023FF2A01D8064601E061
:1015100000F104064FEA840501D9A5F12005D6F8AB
:10152000008007FA05FC28EA0C0803FA05F548EAEA
:101530000508C6F800804D68ED0070D53E4DAE69D7
:1015400046F00106AE61AD6924F0030605F0010521
:1015500000953A4D06EB050CDCF80850A607360F4F
:1015600007FA06F825EA0805DFF8D480404503D1DC
:101570004FF0000825E052E0DFF8C880404502D176
:101580004FF001081DE0DFF8C080404502D14FF068
:10159000020816E0DFF8B480404502D14FF003089E
:1015A0000FE0DFF8AC80404502D14FF0040808E0BE
:1015B000DFF8A080404502D14FF0050801E04FF070
:1015C000060808FA06F848EA0508CCF808804D68CD
:1015D000D9F80060ED024D4601D5164300E0964370
:1015E0002E604D68DAF80060AD02554601D516430D
:1015F00000E096432E604D68DBF80060AD035D4669
:1016000001D5164300E096432E604D68DEF8006079
:10161000ED03754601D5164300E096432E60641C29
:101620000A681646E2407FF429AFBDE8F88F000053
:1016300008040140000011100010024000000140A9
:1016400000080140000C014000100140001401405E
:1016500000180140001C01408068084000D00120B3
:1016600070470AB1016170470904FBE701488068CF
:10167000704700001400002002488168027811447D
:101680008160704714000020074810B5016841F0E0
:1016900010010160032000F075F80F2000F006F83B
:1016A00000F024F8002010BD0020024070B50D4D60
:1016B00004464FF47A712878B1FBF0F00A490968C2
:1016C000B1FBF0F000F046FB48B9102C07D2002225
:1016D0002146501E00F036F800206C6070BD0120DD
:1016E00070BD000014000020200000200C4808B548
:1016F000816941F001018161816901F0010100917D
:10170000C16941F08051C161C06900F08050009012
:101710000448416821F0E06141F00071416008BD7A
:101720000010024000000140002809DB00F01F0209
:10173000012191404009800000F1E020C0F8001133
:1017400070470000F0B40E4B1B680C46C3F3022335
:10175000C3F10705042D00D90425191D072901D25D
:10176000002300E0DB1E012606FA05F1491E214098
:1017700099409E40761E16403143F0BC01F00AB8F5
:101780000CED00E0064900F0070208684FF6FF0381
:10179000184040EA0220034A1043086070470000E6
:1017A0000CED00E00000FA052DE9F0470F460500BA
:1017B00061D0434E306800F00700B84209D230686B
:1017C00020F0070038433060306800F00700B8426E
:1017D00051D128683B4C810712D5400703D560687A
:1017E00040F4E06060602878000703D5606840F44A
:1017F000605060606068A96820F0F0000843606095
:101800002878C00728D06868012810D021680228ED
:1018100010D0890700292EDA616821F00301014305
:101820006160FFF723FF804641F288390DE02168AF
:101830008903EFE78901EDE7FFF718FFA0EB080147
:10184000494502D90320BDE8F0876068696800F067
:101850000C00B0EB810FEFD1306800F00700B84208
:101860000BD9306820F0070038433060306800F052
:101870000700B84201D00120E5E72878400705D5E8
:101880006068E96820F4E060084360602878000739
:1018900006D56068296920F4605040EAC1006060A4
:1018A00000F038F86168084AC1F30311515CC84080
:1018B0000649086006480068FFF7F8FE0020C2E706
:1018C000002002400010024062B800082000002002
:1018D000180000200448054900684968044AC1F31B
:1018E0000221515CC84070472000002000100240D7
:1018F00072B800080448054900684968044AC1F301
:10190000C221515CC84070472000002000100240F6
:1019100072B800080E4A51680E4801F00C03042BFF
:1019200011D0082B0FD10C48C1F38343C903C05C0D
:101930000AD55168084AC1F34041921E515C054ADC
:101940005043B0FBF1F07047044948437047000032
:101950000010024000127A0052B8000800093D0051
:101960002DE9F84F040070D02078C04DC00749D051
:101970006868C0F38100012807D06868C0F381005F
:10198000022809D16868C00306D52868800339D5C4
:1019900060680028E7D035E06068B0F5803F0BD084
:1019A00010B1B0F5A02F11D0286820F48030286045
:1019B000286820F4802002E0286840F48030286005
:1019C000606890B1FFF752FE06460AE0286840F4CE
:1019D00080202860F0E700BFFFF748FE801B6428E6
:1019E00073D828688003F7D50CE0FFF73FFE064662
:1019F00005E000BFFFF73AFE801B6428F0D8286896
:101A00008003F7D420789A4E80074FF001094FF0F9
:101A1000000839D5686810F00C0F07D06868C0F36B
:101A20008100022809D16868C00306D428688007AD
:101A300014D52069012808D110E02069B0B1C6F89A
:101A40000090FFF713FE074605E00AE1FFF70EFEE0
:101A5000C01B0228C4D828688007F7D528686169A8
:101A600020F0F80040EAC10028600DE0C6F80080D0
:101A7000FFF7FCFD074604E0FFF7F8FDC01B022856
:101A800023D828688007F7D4207800072CD5794818
:101A9000A169D9B1C0F80090FFF7E8FD074604E05E
:101AA000FFF7E4FDC01B02280FD8686A8007F7D54E
:101AB00071484FF4FA510068B0FBF1F0009000BF9C
:101AC0000098411E0091FAD20EE080E0C0F800803C
:101AD000FFF7CCFD074604E0FFF7C8FDC01B022856
:101AE00075D8686A8007F7D42078400760D5E86920
:101AF0000027C00008D4E86940F08050E861E86938
:101B0000012700F0805000905C480168C90513D49B
:101B10000168834641F480710160FFF7A7FD8246AA
:101B200006E000BFFFF7A2FDA0EB0A0064284ED834
:101B3000DBF80000C005F5D5E06801280AD008B13F
:101B4000052813D0286A20F001002862286A20F0B6
:101B5000040002E0286A40F001002862E06841F2D7
:101B6000883B98B1FFF782FD82460BE0286A40F07F
:101B700004002862EEE700BFFFF778FDA0EB0A0142
:101B800059455AD8286A8007F6D50CE0FFF76EFD54
:101B9000824605E0FFF76AFDA0EB0A0159454CD8E3
:101BA000286A8007F6D41FB1E86920F08050E86108
:101BB000E06988B36968C1F38101022944D0022831
:101BC000C6F8608004D0FFF751FD044638E034E0E9
:101BD000FFF74CFD074604E0FFF748FDC01B022855
:101BE0002BD828688001F7D4206AB0F5803F05D152
:101BF0006868A16820F4003008436860D4E90801EF
:101C00000843696821F4741108436860C6F860905D
:101C1000FFF72CFD044606E025E000BFFFF726FD98
:101C2000001B022809D828688001F7D51BE000BFF7
:101C3000FFF71CFD001B022802D90320BDE8F88F26
:101C400028688001F4D40EE00128F7D06868226A81
:101C500000F48031914204D1616A00F4701088422E
:101C600001D00120EAE70020E8E700000010024070
:101C700000004242800442422000002000700040E8
:101C800070B515460E46040007D0A069B0F5807FF8
:101C900003D094F8410010B107E0012070BD00208E
:101CA00084F84000204600F01DF804F10801206887
:101CB000FFF7C0FA3146A2682068FFF7EFFAD4E9CF
:101CC00001022946236BFFF797FAA168206850F8B4
:101CD000212042F0010240F82120012084F8410037
:101CE000002070BD184800B5416985B041F480718D
:101CF0004161416901F480710491816941F02001E1
:101D00008161816901F020010491816941F0400104
:101D100081618069694600F0400004904CF20370D4
:101D200000900220019001200290032003900748B8
:101D3000FFF796FB4FF68070009069460448FFF766
:101D40008FFB05B000BD00000010024000140140F0
:101D50000018014010B5401EB0F1807F01D3012072
:101D600010BD4FF0E02460610F21601700F012FDFC
:101D70000020A06107202061002010BD704770473F
:101D8000F8B5016804460868CA684B6910F00F0F7F
:101D90004FF0000559D003F0010602F49077374365
:101DA00065D0C10705D0D10503D5616C41F00101B3
:101DB0006164410705D5D90703D0616C41F0020188
:101DC0006164810705D5D90703D0616C41F0040136
:101DD0006164010707D502F02001314303D0616C33
:101DE00041F008016164616C00293AD0800604D595
:101DF000900602D5204600F012FB20684069616C15
:101E0000C0F38010090700D460B3204600F0E0FA68
:101E100020684069400621D52068143050E8001F32
:101E200021F0400140E80012002AF5D1E06BA8B192
:101E30006D494163E06BFFF777FA002811D0E06B42
:101E4000416B01B0BDE8F040084783060FD593060B
:101E50000DD52046BDE8F84000F0E1BA2046FFF776
:101E60008EFFF8BD2046FFF78AFF6564F8BD266B3C
:101E70002023012E7CD1C6067AD5D60678D50868EF
:101E80004868009048694FF00206400640D5E16B73
:101E9000086840680004000CE8D0A28D8242E5D9B1
:101EA000E085886920282DD020680C3050E8001F7C
:101EB00021F4807140E80012002AF5D12068143026
:101EC00050E8001F21F0010140E80012002AF5D17E
:101ED0002068143050E8001F21F0400140E8001253
:101EE000002AF5D184F84230256320680C3050E890
:101EF000001F21F0100140E80012002AF5D1E06B2C
:101F0000FFF7EEF96663A08DE18D401A81B22AE0F9
:101F1000A08DE18D401A81B2E08D0028A6D0002965
:101F2000A4D022680C3252E8000F20F4907042E8EE
:101F30000007002FF5D12068143050E8002F22F060
:101F4000010240E80027002FF5D184F842302563D4
:101F500020680C3050E8002F22F0100240E80023E7
:101F6000002BF5D166632046FFF708FFF8BDFFE7B9
:101F700005062BD5150629D594F841002128F5D161
:101F8000A068B0F5805F01D12069B0B1206A411C22
:101F90002162216800784860E08C401E0004000C3B
:101FA000E084E3D12068C16821F08001C16020682D
:101FB000C16841F04001C160D8E7206A0088C0F3E1
:101FC00008004860206A801C2062E5E74006CDD505
:101FD0005006CBD5CA68204622F04002CA6084F879
:101FE000413000F061F9C1E7C123000870B5040079
:101FF00004D094F84100002510B106E0012070BD26
:1020000084F84050204600F023F8242084F8410052
:102010002068C16821F40051C160204600F060FAD8
:102020002068016921F4904101612068416921F033
:102030002A0141612068C16841F40051C1606564B2
:10204000202084F8410084F842006563002070BDC0
:10205000F0B585B0002400940194029403940546E1
:102060000368334F0220334903224602BB4229D181
:102070008B6943F480438B618B6903F48043049341
:102080008B6943F004038B6189692B4D01F00401D6
:1020900004910102CDE90010039269462846FFF73A
:1020A000DFF9CDE90064694628460294FFF7D8F9C4
:1020B000032211462520FFF745FB2520FFF734FBBF
:1020C00005B0F0BD1D4FBB42FAD1CB6943F480236C
:1020D000CB61CB6903F4802304938B6943F008033D
:1020E0008B61896901F00801CDE90321CDE9006028
:1020F000134E69463046FFF7B3F9F014CDE90004FA
:10210000694630460294FFF7ABF9002211462720BA
:10211000FFF718FB2720FFF707FB2868C16841F08D
:102120002001C1602868C16841F01001C160C7E7A3
:102130000038014000100240000801400048004003
:10214000000C01402DE9F843044690F842009946FE
:1021500016460D46202802D00220BDE8F883ADB116
:10216000A6B100206064222184F842102063FFF7AA
:102170007DFAA6858046E685A0684FF48057B84270
:1021800001D1206920B12E46002526E00120E4E798
:10219000002622E04346002220212046CDF8009070
:1021A00000F015FA08B10320D7E726B1A068B842BD
:1021B0001BD038B108E020684068C0F3080025F85B
:1021C000020B07E0206980B12068406800F07F00C2
:1021D00006F8010BE08D401EE085E08D0028D9D186
:1021E000202084F842000020B7E720684068EFE72D
:1021F00090F84230202B01D00220704721B11AB153
:102200000023036300F0C8B90120704770472DE92F
:10221000F843044690F841001F4616460D46202814
:1022200002D00220BDE8F8837DB176B10020606461
:10223000212084F84100FFF719FAA6848046E6843D
:10224000A068B0F5805F02D003E00120EAE72069D2
:1022500010B12E4600250EE000260CE0802120461D
:1022600000F0B5F9A0B9AEB116F8010B21684860CD
:10227000E08C401EE084E08C43464FF00002009763
:102280000028EBD14FF04001204600F0A0F930B11A
:102290000320C7E735F8020BC0F30800E6E720206B
:1022A00084F841000020BDE77047FEE7094808B503
:1022B000816941F008018161816901F008010091A3
:1022C000816941F004018161806900F0040000909F
:1022D00008BD0000001002400E4810B50C49016016
:1022E0004FF4E1314160002181600C22C160C0E9FE
:1022F00004128161C161FFF779FE08B1FEF77AFF30
:10230000BDE81040012204490248FFF771BF0000F8
:102310000038014040050020080000200C4810B59E
:102320000A4901604FF4E1314160002181600C22D3
:10233000C160C0E904128161C161FFF757FE002846
:1023400003D0BDE81040FEF755BF10BD0048004067
:1023500088050020FEE7FEE770477047FFF78CB95D
:1023600030B58FB028216846FDF72FFF14210AA849
:10237000FDF72BFF01210804CDE900100024029491
:1023800002250491CDE907504FF4E010099068460A
:10239000FFF7E6FA08B172B6FEE70F20CDE90A05AD
:1023A0004FF48060CDE90C4002210AA80E94FFF79B
:1023B000FBF9002801D072B6FEE70FB030BD7047C0
:1023C00010B5406A0021C185C184FFF7D8FC10BD5B
:1023D00001680C3151E8002F22F4907241E800238B
:1023E000002BF5D10168143151E8002F22F00102D1
:1023F00041E80023002BF5D1016B012909D10168C7
:102400000C3151E8002F22F0100241E80023002B8C
:10241000F5D1202180F8421000210163704708B5F2
:1024200090F84210222901D0022008BD82684FF4A2
:1024300080539A4201D1016921B1816A9A421BD02D
:102440004AB10AE00268816A5268C2F308020A804F
:10245000816A891C08E0026972B10268526802F060
:102460007F020A70816A491C8162C18D491E09047C
:10247000090CC18503D01BE002685268F1E70168CE
:10248000CA6822F02002CA600168CA6822F4807219
:10249000CA6001684A6922F001024A61202180F87D
:1024A000421000214163026B012A03D0FFF7AEFE08
:1024B000002008BD016301680C3151E8002F22F0B3
:1024C000100241E80023002BF5D101680A68D2060A
:1024D00002D50A6849680091818DFFF74FFCE7E754
:1024E00070B5044600680169E26821F44051114367
:1024F00001612169A0680843616908432168CA68CD
:1025000041F20C639A430243CA6020684169A269A0
:1025100021F44071114341611E492068884202D173
:10252000FFF7E8F901E0FFF7D5F900EBC00101EB97
:102530000012606864218000B2FBF0F3B3FBF1F39A
:102540006FF018067343B2FBF0F5B2FBF0F605EB43
:102550008305322303EB0515B5FBF1F5B6FBF1F668
:1025600005F0F00505EB0615B2FBF0F6B2FBF0F056
:10257000B0FBF1F06FF01802504306EB800003EB64
:102580000010B0FBF1F0216800F00F0028448860D3
:1025900070BD00000038014081628285C285002143
:1025A0004164222180F84210016921B10168CA68A2
:1025B00042F48072CA6001684A6942F001024A61CD
:1025C0000068C16841F02001C160002070472DE91A
:1025D000F041984617460E460446069D27E0681CC3
:1025E00025D02DB1FFF742F8A0EB0800A8421ED974
:1025F00020680C3050E8001F21F4D07140E8001230
:10260000002AF5D12068143050E8001F21F00101A4
:1026100040E80012002AF5D1202084F8410084F817
:102620004200002084F840000320BDE8F0812068CB
:10263000006836EA000004D00020B842CFD0002065
:10264000F3E70120F9E7000010B50548FFF798FB14
:10265000012204490248FFF7CBFD0028F8D110BD44
:1026600040050020080000207CB52248FFF788FBC9
:10267000204D28680168C943090704D401684168EE
:1026800001910168416800681B4CC043800622D458
:102690004FF0FF33012269461648FFF753FDB4F8A7
:1026A00000214FF40030C2F30E01FF2902D29DF841
:1026B000002007E0D10BC903A4F800119DF8002009
:1026C000C1F30E016254B4F8001100EBF1304FEA8F
:1026D0007040A4F8000128680168C943C90608D4FD
:1026E000B4F8001141F40041A4F8001101684068F9
:1026F00001907CBD880500203C000020FEE7000022
:102700000FB4054B10B503A9044A029800F0A0F9D4
:1027100010BC5DF814FB0000C53800080400002060
:102720000FB4084B10B504A902AA039800F090F961
:10273000044602A9002000F00EFD204610BC5DF802
:1027400014FB00005731000837B514460846064B05
:102750006A46214600F07CF904466946002000F0F4
:10276000FAFC20463EBD000057310008490050EAFF
:10277000C12018BF04204A0D18BF40F0010040F2EC
:10278000FF72B2EB515F08BF40F00200012808BFA2
:10279000052070470907090E002804DB00F1E0203E
:1027A00080F80014704700F00F0000F1E02080F87E
:1027B000141D70472DE9F0414F1E00EBC701044680
:1027C000D1E9000115461E4637F006020DD02A4613
:1027D0003346FDF71AFF7F1E04EBC703D3E900233E
:1027E000FDF76CFE37F00602F1D1022F25D0042F41
:1027F00013D0062F18BFBDE8F0812A463346FDF7F7
:1028000004FFD4E90A23FDF759FE2A463346FDF7B3
:10281000FCFED4E90823FDF751FE2A463346FDF7B6
:10282000F4FED4E90623FDF749FE2A463346FDF7B8
:10283000ECFED4E90423FDF741FE2A463346FDF7BA
:10284000E4FED4E90223FDF739FE2A463346FDF7BC
:10285000DCFED4E90023BDE8F041FDF72FBE000007
:102860000022134610460149FEF7CFB80000F03FA2
:10287000FDF724BE0022134610461146FEF7C5B8E8
:1028800040F2013200204FF0E041FEF72DB9000088
:10289000024A00201107FEF727B9000001FDFFFFE3
:1028A00002E008C8121F08C1002AFAD17047704719
:1028B000002001E001C1121F002AFBD17047000077
:1028C0000149086070470000380000202DE9FF5FD3
:1028D00082B00021DDE90430020DDDF840B0034391
:1028E00018D044F61050A2F2FF324243151411984A
:1028F00001281FD0A5EB0B00401C5FEA000A4FF037
:1029000000064E4FDFF83891B046504615D5CAF153
:10291000000413E0119801244AA3012801D16FEAB1
:102920000B010298119AC0E90031C0E9024206B0D9
:10293000BDE8F09FCBF10000DFE704460021404AEC
:10294000491842EB0450CDE9001012E0E00707D02F
:1029500032463B4640464946FDF757FE804689468B
:1029600032463B4610461946FDF74FFE06460F46D7
:102970006410002CEAD1DDE90401DDE90023BAF19D
:10298000000F06DAFDF741FE42464B46FDF73DFEDD
:1029900005E0FEF73AF842464B46FEF736F80446A5
:1029A0000E460022284BFDF711FF03D84FF0FF30F1
:1029B000014607E00022254B20463146FDF77EFD0B
:1029C000FEF7A9F8102409E0002C0ADB0A220023F4
:1029D000FDF72AFF039B30321A55641E50EA0102AC
:1029E000F2D1641C039AC4F111031444119A012A10
:1029F00003D0012208430DD10AE0084304D000208F
:102A00004FF0110B119072E7A3EB0B056D1E0DE05B
:102A10005B4504DD4FF0000205F1010504E003DA37
:102A20004FF00002A5F10105002AECD0029811999F
:102A3000C0E90231C0E9004579E700000000144018
:102A40000000F03F300000000000F0430000E03FD5
:102A50002DE9FF4F95B09A46884606460025EEE1DF
:102A6000252877D100242746F94A0121039400E064
:102A7000044316F8013F203B01FA03F01042F7D15E
:102A800030782A2811D06FF02F033078A0F130026F
:102A9000092A16D8039A44F0020402EB820203EBDF
:102AA00042021044761C0390EFE758F8042B03927F
:102AB000002A03DA504244F40054039044F0020424
:102AC000761C30782E2816D116F8010F44F0040435
:102AD0002A280DD06FF02F023078A0F13003092B97
:102AE00009D807EB870302EB4303C718761CF3E70B
:102AF00058F8047B761C30786C280FD006DC4C2804
:102B000017D068280DD06A2814D104E0742810D09A
:102B10007A280FD10DE044F400140AE044F4801444
:102B200001E044F440147278824202D104F580142A
:102B3000761C761C307866280BD013DC582877D0AA
:102B400009DC002875D04528F6D04628F4D047285F
:102B50001AD193E118E0632835D0642879D065282C
:102B600012D18BE1702873D008DC6728F1D0692876
:102B70006FD06E280DD06F2806D1ACE073282CD012
:102B8000752874D0782853D05246179990476D1CF9
:102B900054E1C4F30250022809D003280DD0D8F81C
:102BA000001004280DD00D6008F1040846E1D8F8A3
:102BB0000010EA17C1E90052F6E7D8F800100D80BE
:102BC000F2E70D70F0E718F8041B8DF800100020F4
:102BD0008DF80100EB46012003E058F804BB4FF0EC
:102BE000FF3061074FF0000102D40DE009F101014F
:102BF0008946B9420FDA8145F8DB1BF80910002934
:102C0000F4D108E009F1010189468142FADB1BF8A1
:102C100009100029F6D103985346A0EB0907214675
:102C20003846179A00F080FA284400EB090507E0BF
:102C300044E008E10DE01BF8010B5246179990475C
:102C4000B9F10109F7D2534621463846179AF2E006
:102C500039E00A21C4F302524FF0000B0091022A1E
:102C600006D058F8040BC117032A09D00AE023E064
:102C700008F1070020F00702F2E80201904605E0A3
:102C800000B2C117042A01D140B2C117002906DAE7
:102C90000A460021404261EB02012D2202E022059A
:102CA00004D52B228DF80420012203E0E20701D095
:102CB0002022F7E7914657E00A2100E010214FF06B
:102CC000000B00910BE010214FF0000B44F00404C6
:102CD0000827009103E008204FF0000B0090C4F398
:102CE0000252022A05D058F8040B0021032A08D00A
:102CF00008E008F1070020F00702F2E80201904620
:102D000003E080B2042A00D1C0B24FF000092207CC
:102D10002AD53278702A07D0DDF800C08CF0100C6C
:102D20005CEA0B0C05D00EE040228DF80420012255
:102D300008E050EA010306D030238DF804308DF806
:102D4000052002229146009B83F0080353EA0B03FF
:102D50000AD150EA010201D1620705D530228DF86F
:102D600004204FF001097F1E3278582A04D039A27E
:102D70000C920CAA02920BE03BA2F9E75B46009A88
:102D8000FDF752FD0C9B9B5C029A521E029213703F
:102D900050EA0102F2D1029804A9081A00F1200BAE
:102DA000600702D524F4803400E001275F4502DD8E
:102DB000A7EB0B0000E0002000EB0B010090039854
:102DC0004944401A0390E00306D453462146179A1B
:102DD000039800F0A9F90544002706E001A852462F
:102DE000C05D179990476D1C7F1C4F45F6DBE003D3
:102DF0000CD553462146179A039800F095F90544DF
:102E000004E030205246179990476D1C0099481EE7
:102E100000900029F5DC08E00298029952460078FB
:102E2000491C0291179990476D1CBBF10001ABF151
:102E3000010BF1DC5BE100F065F90544761C3078AC
:102E400000287FF40DAE19B02846BDE8F08F0000D1
:102E50000928010030313233343536373839616270
:102E60006364656600000000303132333435363734
:102E7000383941424344454600000000600700D411
:102E8000062708F1070020F00700F0E8022380463B
:102E900003F0004C5FEA0C0001D097A009E0200588
:102EA00001D596A005E0E00701D095A001E0AFF2C2
:102EB0004C001390307823F0004365280CD006DCDA
:102EC000452809D046281DD047287FD13BE06628F9
:102ED00018D067287AD136E00021112F01DB1120AC
:102EE00000E0781CCDE9000104A90CA8FFF7EEFC76
:102EF000DDE90D010C9A4FF0000B07F1010910926A
:102F000000914EE04FF000400097CDE9011004A978
:102F10000CA8FFF7DBFCDDE90D020C9B0F994FF0CD
:102F2000000B91461093009211B9791C00EB010936
:102F3000B7EB090003D4C0F1FF3B07F10109A9EB8E
:102F40000700019042E0012F00DA01270021112F34
:102F500001DD112000E03846CDE9000104A90CA8EC
:102F6000FFF7B4FCDDE90D010C9A00914FF0000B66
:102F7000B946109221070FD4009A4A4503DA9146C8
:102F800001E0A9F10109B9F1010F05DD109AA9F1DC
:102F90000101515C3029F4D0B84202DA10F1040F7B
:102FA00003DA0121CDE9011010E0002803DC83449D
:102FB000A9EB000102E0411C494500DD8946A0EB78
:102FC0000B00401C01904FF000400290200705D4F8
:102FD0000198484502DB4FF0FF30019000208DF84A
:102FE0004B0002980DF14B07B0F1004F25D00220A5
:102FF0000C902B200D90029800280CDA4042029091
:103000002D200D9007E00A210298FDF7F7FB3031E3
:10301000029007F8011D0C99481E0C900029F2DC63
:1030200002980028EFD1791E0D980870307800F0D2
:10303000200040F0450007F8020D11A8C01BC01D7C
:1030400002901398007800B1012000EB090101986B
:1030500001EBE071029801440398401A401E03906E
:10306000E00306D453462146179A039800F05CF813
:1030700005441398007818B15246179990476D1C73
:10308000E00323D553462146179A039800F04CF8E5
:1030900005441BE0BBF1000F07DB0098584504DD39
:1030A0001098179910F80B0001E01799302052463C
:1030B000904701980BF1010B401E05F101050190AD
:1030C00004D12E205246179990476D1CB9F100018A
:1030D000A9F10109DEDC05E017F8010B524617994A
:1030E00090476D1C0299481E02900029F4DC53465B
:1030F0002146179A03989EE62D0000002B00000041
:10310000200000002DE9F041044600251E46174628
:10311000880404D405E039462020B0476D1C641EA5
:10312000F9D52846BDE8F0812DE9F0410446002597
:103130001E469046C80301D5302700E020278804AA
:1031400004D505E041463846B0476D1C641EF9D5EC
:103150002846BDE8F0810A68531C0B601070704768
:103160000FB40A4810B503AA0299FFF7EDFA074811
:10317000FDF752F8054982B24FF0FF3301F24A40A1
:10318000FFF745F810BC5DF814FB00003E0100207D
:103190000649B1F80001020405D5C0F30E00002273
:1031A0000A54084670470020704700003C00002089
:1031B0000348B0F800116FF30F01A0F80011704739
:1031C0003C0000208268002901D01AB98160704754
:1031D000020002D010680028FAD111604A607047DE
:1031E00070B514000D4606460ED0206A10B107498E
:1031F00049688847284600F0CDF8206221463046CD
:10320000BDE87040FFF7DEBF70BD00002400002065
:1032100070B505460E4600F055F8040008D00320AE
:10322000E060C4E9065628463146FDF77EFA606143
:10323000204670BD10B500F045F8002801D00621E9
:10324000C16010BD70B5054600F03CF8040005D023
:103250000420E060284600F09DF82061204670BD03
:1032600070B504460F4E19E0A0892568C0050AD440
:10327000A06820B1FFF7F4FFA089C00503D420693E
:1032800008B171688847A089800503D4206A08B115
:10329000716888477168204688472C46002CE3D126
:1032A00070BD00002400002070B50D46846800E069
:1032B00024682CB12946206A00F04BF80028F7D189
:1032C000204670BD054910B50968282088470400CC
:1032D00002D02821FCF779FF204610BD24000020F1
:1032E00000221146AFF300802DE9F04190460E46D2
:1032F0000446FFF7E7FF134F05004FF00000B860EA
:1033000015D0204605F018FA0146284603F068FF5C
:1033100004000FD0B8F1000F10D0204605F00CFAD1
:103320000446007850B12846FFF79AFFBC600020A1
:10333000BDE8F0812846FFF793FFF8E706B1346057
:103340002846F5E72400002000231A46194605F018
:103350009FB870B505000C4601D00CB108E009B16A
:10336000012070BD002070BD0028FCD0641C6D1CC5
:103370002878FCF70BFF06462078FCF707FF86420B
:103380002878F1D0FCF702FF05462078FCF7FEFE16
:10339000281A70BD70B50646FCF73EFF0649401C72
:1033A000044609688847051E04D022463146FCF7CA
:1033B000F3FE284670BD0000240000202DE9F043F4
:1033C0000025ADF6140D884607462E46FFF732FF5E
:1033D0008146FFF72FFF04464046FDF799F9FFF7B6
:1033E00017FF02463AA12046FFF7FAFE3846FDF7DE
:1033F0008FF9FFF70DFF024638A12046FFF7F0FED8
:1034000039480078FDF784F9FFF702FF024637A13B
:103410002046FFF7E5FE38A0FFF714FF02463DA166
:103420004846FFF7DDFE3DA0FFF70CFF02463EA138
:103430004846FFF7D5FE22463CA14846FFF7D0FE9E
:103440003CA0FFF7FFFE02463CA14846FFF7C8FE3E
:103450004846FFF779FF044601463AA0FFF750F9C6
:1034600068465C220BE041556178222901D02C2965
:1034700001D16D1C4255761C641CB6B26D1C2178BE
:103480000029F0D10146A41B32A0FFF739F96A46A2
:1034900035490DF58060FFF743F90DF5806133A0E4
:1034A000FFF72EF94FF4FA7235A10DF58060FDF7A4
:1034B0005DFE4846FFF7D4FE002C05D0204600F004
:1034C0000DFA30A0FFF71CF90DF6140DBDE8F083DE
:1034D00048756D69646974790000000074656D70E9
:1034E0006572617475726500020000204C4544539A
:1034F00077697463680000007468696E672E73658D
:1035000072766963652E70726F70657274792E7051
:103510006F7374006D6574686F6400003939313100
:103520003936333500000000696400007061726153
:103530006D730000312E302E3000000076657273FE
:10354000696F6E006A736F6EB8F1CABD203D2025A9
:10355000730D0A00706172616D735F627566203D64
:103560002025730D0A00000058B90008BFAACABC84
:10357000B7A2CBCDCAFDBEDD3A25730D0A0000000F
:103580004F4B0000CACDB7C5737472BFD5BCE4B34E
:10359000C9B9A60D0A000000014908607047000083
:1035A0000C0000204FF47A71484300F001B800008D
:1035B00070B54FF0E024002265690949A3690968E4
:1035C0004843A1699942FCD002D2A3EB010302E077
:1035D000A5EB010633441A440B468242F1D370BD79
:1035E0000C0000202DE9F041002425464FF4006630
:1035F000124F04E0641CE4B20120FFF7D9FF31460A
:103600003846FEF729F810B1642CF3D30FE0642C90
:103610000DD2002404E0641CE4B20120FFF7C8FFCF
:1036200031463846FEF718F828B1642C00D301253E
:103630002846BDE8F081642CEDD3F8E70020014076
:103640000E4800B5816985B041F48071816180695F
:10365000694600F4807004904FF4006000901120DF
:10366000019001200290032003900548FDF7F8FE29
:1036700000F06AF8FFF7B6FF05B000BD0010024089
:103680000020014070B500244FF40065134E04E0A3
:10369000641CE4B20120FFF78BFF29463046FDF79A
:1036A000DBFF08B1642CF3D3002404E0641CE4B213
:1036B0000120FFF77DFF29463046FDF7CDFF08B911
:1036C000642CF3D32820FFF773FF29463046FDF71B
:1036D000C3FF002800D0012070BD00000020014081
:1036E0002DE9FC478846814600F02EF8FFF77AFF67
:1036F00010B10120BDE8FC8700246F46002005467C
:103700004006060EFFF7BEFF6D1C3043EDB2082DDC
:10371000F6D33855641CE4B2052CEFD39DF80010A5
:103720009DF801009DF803300A189DF8020003443B
:103730001A449DF804309A4203D188F8001089F8A1
:1037400000000020D6E7000070B50A4D4FF4006479
:10375000002221462846FDF784FF1420FFF722FFB0
:10376000012221462846FDF77CFFBDE870401E205F
:10377000FFF71EBF002001402DE9F041040009D0F1
:1037800023683BB1A26850186168814204DB981835
:10379000BDE8F0810020FBE7401E40EA600040EAFF
:1037A000A00040EA20100F4F40EA202040EA2046C7
:1037B000761C39683046884705000BD0D4E90012E2
:1037C000FCF7EAFC796820688847C4E90056A068DD
:1037D0002844DDE779682068884700206060206021
:1037E000D8E70000240000202DE9F041C1F30A527F
:1037F000A2F2FF362F4A304B0D460446142E2FDA24
:10380000002E12DAFCF75AFE00221346FCF7DEFF08
:103810004CD2002DA4BF0024254647DA25F00040F5
:10382000204318BF254D41D018E0DFF894C02CFA92
:1038300006F705EA070C5CEA040C08BFBDE8F08156
:10384000FCF73CFE00221346FCF7C0FF2ED2002DF1
:1038500003DA4FF48010F0400544BD43002425E016
:10386000332EC8BFBDE8F081A6F1140C4FF0FF372E
:1038700027FA0CF73C4208BFBDE8F081FCF7C2FE16
:1038800000221346FCF7A2FF10D2002D0DDA142EF1
:1038900008BF6D1C09D0C6F13400012101FA00F007
:1038A0002044A04238BF6D1C0446BC432946204634
:1038B000BDE8F0819C7500883CE4377E0000F0BFD5
:1038C000FFFF0F0004490A685206FCD5024AC1B244
:1038D000121D1160704700000038014010B500282B
:1038E00021D0114B0022001F196803E0814203D848
:1038F0000A4649680029F9D152B11368841A9C42DA
:1039000004D1006818441060104602E0506000E0E6
:10391000186039B102680B1A934203D10B681A443C
:1039200002604968416010BD3000002070B509494F
:103930000646002408884D8821464543204602F06B
:1039400019FF03F0A3F8044801E00680641CAC42B0
:10395000FBD370BD180600200008006C2DE9F04F65
:1039600038492C260A46887192884FF4305A4FF411
:10397000285B41F6631E2B274FF02A0C4FF0F0080E
:1039800045F210594FF448754FF4A0744FF4F0739A
:1039900058B10C80A1F802804A4530D1A1F808A0A6
:1039A000A1F80AB03802888141E0A1F800804C807B
:1039B0004A4507D1A1F808A0A1F80AB04FF42C504D
:1039C000888105E072450E8105D14F81A1F80CC0B8
:1039D0000B804D8002E0A1F80AC08F81A2F5A640BD
:1039E000103803D0A2F5EE40963801D10C804B8000
:1039F000A2F5184006381FD10B804D801CE072459F
:103A000011D0A2F5184006380DD00E81A1F80AC0D9
:103A1000A1F80C70A2F5A64010380BD0A2F5EE402C
:103A2000963807D008E00E81A1F80AC08F810D807A
:103A30004B80EFE70B804C80BDE8F04F002002F098
:103A4000D7BD00001806002010B5144602F092FE03
:103A500003F01CF80148048010BD00000008006C51
:103A600010B5CF2003F006F8002002F0F7FFC120C8
:103A700002F0F4FF302002F0F1FFED2002F0FAFF37
:103A8000642002F0EBFF032002F0E8FF122002F0B6
:103A9000E5FF812002F0E2FFE82002F0EBFF852045
:103AA00002F0DCFF102002F0D9FF7A2002F0D6FFEE
:103AB000CB2002F0DFFF392002F0D0FF2C2002F0F3
:103AC000CDFF002002F0CAFF342002F0C7FF022021
:103AD00002F0C4FFF72002F0CDFF202002F0BEFF6D
:103AE000EA2002F0C7FF002002F0B8FF002002F039
:103AF000B5FFC02002F0BEFF1B2002F0AFFFC120C7
:103B000002F0B8FF012002F0A9FFC52002F0B2FFC9
:103B1000302002F0A3FF302002F0A0FFC72002F007
:103B2000A9FFB72002F09AFF362002F0A3FF482039
:103B300002F094FF3A2002F09DFF552002F08EFF24
:103B4000B12002F097FF002002F088FF1A2002F057
:103B500085FFB62002F08EFF0A2002F07FFFA22030
:103B600002F07CFFF22002F085FF002002F076FFD9
:103B7000262002F07FFF012002F070FFE02002F01B
:103B800079FF0F2002F06AFF2A2002F067FF282049
:103B900002F064FF082002F061FF0E2002F05EFFD9
:103BA000082002F05BFF542002F058FFA92002F029
:103BB00055FF432002F052FF0A2002F04FFF0F2072
:103BC00002F04CFF002002F049FF002002F046FF07
:103BD000002002F043FF002002F040FFE12002F04D
:103BE00049FF002002F03AFF152002F037FF1720AE
:103BF00002F034FF072002F031FF112002F02EFF07
:103C0000062002F02BFF2B2002F028FF562002F0A6
:103C100025FF3C2002F022FF052002F01FFF1020AC
:103C200002F01CFF0F2002F019FF3F2002F016FFE8
:103C30003F2002F013FF0F2002F010FF2B2002F0B4
:103C400019FF002002F00AFF002002F007FF012008
:103C500002F004FF3F2002F001FF2A2002F00AFFD9
:103C6000002002F0FBFE002002F0F8FE002002F02F
:103C7000F5FEEF2002F0F2FE112002F0FBFE7820AC
:103C8000FFF790FCBDE81040292002F0F3BE10B50C
:103C9000FF2002F0EFFEFF2002F0E0FE982002F08D
:103CA000DDFE062002F0DAFEBC2002F0E3FE012079
:103CB00002F0D4FE0F2002F0D1FE612002F0CEFE11
:103CC000FF2002F0CBFE012002F0C8FE012002F02E
:103CD000C5FE0B2002F0C2FE102002F0BFFE37200E
:103CE00002F0BCFE632002F0B9FEFF2002F0B6FE37
:103CF000FF2002F0B3FE012002F0B0FE012002F02E
:103D0000ADFE002002F0AAFE002002F0A7FEFF2078
:103D100002F0A4FE522002F0A1FE012002F09EFE5D
:103D2000002002F09BFE402002F098FEBD2002F031
:103D3000A1FE012002F092FE232002F08FFE45201A
:103D400002F08CFE672002F089FE012002F086FE60
:103D5000232002F083FE452002F080FE672002F05F
:103D60007DFEBE2002F086FE002002F077FE0120DC
:103D700002F074FEAB2002F071FE602002F06EFED5
:103D8000222002F06BFE222002F068FE222002F0C8
:103D900065FE222002F062FE222002F05FFEC720B4
:103DA00002F068FE362002F059FEED2002F062FEBD
:103DB0007F2002F053FE0F2002F050FEC02002F0E0
:103DC00059FE0F2002F04AFE0B2002F047FE0A20A7
:103DD00002F044FEFC2002F04DFE082002F03EFE00
:103DE000DF2002F047FE002002F038FE002002F043
:103DF00035FE002002F032FE002002F02FFE0020EF
:103E000002F02CFE202002F029FEF32002F032FE08
:103E1000742002F023FEB42002F02CFE002002F0F9
:103E20001DFE002002F01AFE002002F017FEF7200F
:103E300002F020FE822002F011FEB12002F01AFEF4
:103E4000002002F00BFE132002F008FE132002F007
:103E500005FEF22002F00EFE802002F0FFFD04209D
:103E600002F0FCFD402002F0F9FD282002F0F6FDF2
:103E7000C12002F0FFFD172002F0F0FD882002F0C3
:103E8000EDFD882002F0EAFD202002F0E7FDE020B1
:103E900002F0F0FD002002F0E1FD0A2002F0DEFD5C
:103EA000122002F0DBFD102002F0D8FD0E2002F0FF
:103EB000D5FD202002F0D2FDCC2002F0CFFD07205E
:103EC00002F0CCFD062002F0C9FD0B2002F0C6FD79
:103ED0000E2002F0C3FD0F2002F0C0FD0D2002F005
:103EE000BDFD152002F0BAFD102002F0B7FD002044
:103EF00002F0B4FDE12002F0BDFD002002F0AEFDB5
:103F00000B2002F0ABFD132002F0A8FD0D2002F003
:103F1000A5FD0E2002F0A2FD1B2002F09FFD7120E6
:103F200002F09CFD062002F099FD062002F096FDAD
:103F30000A2002F093FD0F2002F090FD0E2002F007
:103F40008DFD0F2002F08AFD152002F087FD0C2068
:103F500002F084FD002002F081FD2A2002F08AFD9B
:103F6000002002F07BFD002002F078FD012002F02D
:103F700075FDDF2002F072FD2B2002F07BFD00209A
:103F800002F06CFD002002F069FD032002F066FDE6
:103F90001F2002F063FD3A2002F06CFD552002F074
:103FA0005DFD362002F066FD002002F057FD112075
:103FB00002F060FD7820FFF7F5FA292002F05AFDA3
:103FC0001420FFF7EFFABDE810402C2002F052BD9C
:103FD00010B5ED2002F04EFD012002F03FFDFE2065
:103FE00002F03CFDEE2002F045FDDE2002F036FD41
:103FF000212002F033FDF12002F03CFD012002F00F
:104000002DFDDF2002F036FD102002F027FDC42038
:1040100002F030FD8F2002F021FDC62002F02AFDC3
:10402000002002F01BFDE22002F018FDE22002F069
:1040300015FDE22002F012FDBF2002F01BFDAA20B8
:1040400002F00CFDB02002F015FD0D2002F006FD7F
:10405000002002F003FD0D2002F000FD002002F020
:10406000FDFC112002F0FAFC002002F0F7FC192000
:1040700002F0F4FC002002F0F1FC212002F0EEFC42
:10408000002002F0EBFC2D2002F0E8FC002002F002
:10409000E5FC3D2002F0E2FC002002F0DFFC5D20A8
:1040A00002F0DCFC002002F0D9FC5D2002F0D6FC1E
:1040B000002002F0D3FCB12002F0DCFC802002F0F2
:1040C000CDFC002002F0CAFC8B2002F0C7FC0020CF
:1040D00002F0C4FC962002F0C1FC002002F0BEFCFD
:1040E000B22002F0C7FC002002F0B8FC002002F071
:1040F000B5FC022002F0B2FC002002F0AFFC03206D
:1041000002F0ACFC002002F0A9FCB32002F0B2FCEB
:10411000002002F0A3FC002002F0A0FC002002F02E
:104120009DFC002002F09AFC002002F097FC002089
:1041300002F094FC002002F091FC002002F08EFCC2
:10414000002002F08BFC002002F088FC002002F02E
:1041500085FC002002F082FC002002F07FFC0020A1
:1041600002F07CFC002002F079FC002002F076FCDA
:10417000002002F073FC002002F070FC002002F02E
:104180006DFC002002F06AFC002002F067FC0020B9
:1041900002F064FC002002F061FC002002F05EFCF2
:1041A000B42002F067FC8B2002F058FC002002F0E3
:1041B00055FC962002F052FC002002F04FFCA1209A
:1041C00002F04CFC002002F049FCB52002F052FC49
:1041D000022002F043FC002002F040FC032002F029
:1041E0003DFC002002F03AFC042002F037FC0020E5
:1041F00002F034FCB62002F03DFC002002F02EFC60
:10420000002002F02BFCB72002F034FC002002F06A
:1042100025FC002002F022FC3F2002F01FFC0020C1
:1042200002F01CFC5E2002F019FC002002F016FCDB
:10423000642002F013FC002002F010FC8C2002F03D
:104240000DFC002002F00AFCAC2002F007FC00206C
:1042500002F004FCDC2002F001FC002002F0FEFB76
:10426000702002F0FBFB002002F0F8FB902002F02F
:10427000F5FB002002F0F2FBEB2002F0EFFB002048
:1042800002F0ECFBDC2002F0E9FB002002F0E6FB90
:10429000B82002F0EFFB002002F0E0FB002002F06B
:1042A000DDFB002002F0DAFB002002F0D7FB00204B
:1042B00002F0D4FB002002F0D1FB002002F0CEFB84
:1042C000002002F0CBFBBA2002F0D4FB242002F045
:1042D000C5FB002002F0C2FB002002F0BFFB002063
:1042E00002F0BCFBC12002F0C5FB202002F0B6FBAF
:1042F000002002F0B3FB542002F0B0FB002002F0DB
:10430000ADFBFF2002F0AAFB002002F0A7FBC220B9
:1043100002F0B0FB0A2002F0A1FB002002F09EFB9D
:10432000042002F09BFB002002F098FBC32002F067
:10433000A1FB3C2002F092FB002002F08FFB3A2010
:1043400002F08CFB002002F089FB392002F086FB92
:10435000002002F083FB372002F080FB002002F0F7
:104360007DFB3C2002F07AFB002002F077FB362038
:1043700002F074FB002002F071FB322002F06EFBB1
:10438000002002F06BFB2F2002F068FB002002F0FF
:1043900065FB2C2002F062FB002002F05FFB29206D
:1043A00002F05CFB002002F059FB262002F056FBD5
:1043B000002002F053FB242002F050FB002002F00A
:1043C0004DFB242002F04AFB002002F047FB232093
:1043D00002F044FB002002F041FB3C2002F03EFBD7
:1043E000002002F03BFB362002F038FB002002F0F8
:1043F00035FB322002F032FB002002F02FFB2F2091
:1044000002F02CFB002002F029FB2C2002F026FBFE
:10441000002002F023FB292002F020FB002002F004
:104420001DFB262002F01AFB002002F017FB2420BF
:1044300002F014FB002002F011FB242002F00EFB1E
:10444000002002F00BFB232002F008FB002002F00A
:1044500005FBC42002F00EFB622002F0FFFA0020F0
:1044600002F0FCFA052002F0F9FA002002F0F6FA58
:10447000842002F0F3FA002002F0F0FAF02002F0BB
:10448000EDFA002002F0EAFA182002F0E7FA002024
:1044900002F0E4FAA42002F0E1FA002002F0DEFAD1
:1044A000182002F0DBFA002002F0D8FA502002F0C7
:1044B000D5FA002002F0D2FA0C2002F0CFFA002048
:1044C00002F0CCFA172002F0C9FA002002F0C6FA76
:1044D000952002F0C3FA002002F0C0FAF32002F0A7
:1044E000BDFA002002F0BAFAE62002F0B7FA002086
:1044F00002F0B4FAC52002F0BDFA322002F0AEFAA2
:10450000002002F0ABFA442002F0A8FA002002F0EA
:10451000A5FA652002F0A2FA002002F09FFA7620A8
:1045200002F09CFA002002F099FA882002F096FA34
:10453000002002F093FAC62002F09CFA202002F03C
:104540008DFA002002F08AFA172002F087FA002084
:1045500002F084FA012002F081FA002002F07EFAD3
:10456000C72002F087FA002002F078FA002002F05B
:1045700075FA002002F072FA002002F06FFAC820EB
:1045800002F078FA002002F069FA002002F066FAE0
:10459000002002F063FA002002F060FAC92002F065
:1045A00069FA002002F05AFA002002F057FA0020BF
:1045B00002F054FA002002F051FA002002F04EFA04
:1045C000002002F04BFA002002F048FA002002F02E
:1045D00045FA002002F042FA002002F03FFA0020E3
:1045E00002F03CFA002002F039FA002002F036FA1C
:1045F000002002F033FA002002F030FA002002F02E
:104600002DFAE02002F036FA162002F027FA0020F8
:1046100002F024FA1C2002F021FA002002F01EFA17
:10462000212002F01BFA002002F018FA362002F0D6
:1046300015FA002002F012FA462002F00FFA0020CC
:1046400002F00CFA522002F009FA002002F006FAF9
:10465000642002F003FA002002F000FA7A2002F04F
:10466000FDF9002002F0FAF98B2002F0F7F90020A2
:1046700002F0F4F9992002F0F1F9002002F0EEF9CD
:10468000A82002F0EBF9002002F0E8F9B92002F0CE
:10469000E5F9002002F0E2F9C42002F0DFF9002081
:1046A00002F0DCF9CA2002F0D9F9002002F0D6F9B4
:1046B000D22002F0D3F9002002F0D0F9D92002F084
:1046C000CDF9002002F0CAF9E02002F0C7F900207D
:1046D00002F0C4F9F32002F0C1F9002002F0BEF9A3
:1046E000E12002F0C7F9162002F0B8F9002002F02C
:1046F000B5F91C2002F0B2F9002002F0AFF9222037
:1047000002F0ACF9002002F0A9F9362002F0A6F977
:10471000002002F0A3F9452002F0A0F9002002F0E9
:104720009DF9522002F09AF9002002F097F96420D6
:1047300002F094F9002002F091F97A2002F08EF94B
:10474000002002F08BF98B2002F088F9002002F0A3
:1047500085F9992002F082F9002002F07FF9A82063
:1047600002F07CF9002002F079F9B92002F076F924
:10477000002002F073F9C42002F070F9002002F06A
:104780006DF9CA2002F06AF9002002F067F9D22020
:1047900002F064F9002002F061F9D82002F05EF91D
:1047A000002002F05BF9E02002F058F9002002F04E
:1047B00055F9F32002F052F9002002F04FF9E220FF
:1047C00002F058F9052002F049F9002002F046F9FC
:1047D0000B2002F043F9002002F040F91B2002F008
:1047E0003DF9002002F03AF9342002F037F90020B8
:1047F00002F034F9442002F031F9002002F02EF9E1
:104800004F2002F02BF9002002F028F9612002F07D
:1048100025F9002002F022F9792002F01FF900208A
:1048200002F01CF9882002F019F9002002F016F9B4
:10483000972002F013F9002002F010F9A62002F0F0
:104840000DF9002002F00AF9B72002F007F9002064
:1048500002F004F9C22002F001F9002002F0FEF893
:10486000C72002F0FBF8002002F0F8F8D12002F097
:10487000F5F8002002F0F2F8D62002F0EFF8002060
:1048800002F0ECF8DD2002F0E9F8002002F0E6F892
:10489000F32002F0E3F8002002F0E0F8E32002F059
:1048A000E9F8052002F0DAF8002002F0D7F80A2033
:1048B00002F0D4F8002002F0D1F81C2002F0CEF86B
:1048C000002002F0CBF8332002F0C8F8002002F0FC
:1048D000C5F8442002F0C2F8002002F0BFF85020D2
:1048E00002F0BCF8002002F0B9F8622002F0B6F83D
:1048F000002002F0B3F8782002F0B0F8002002F0B7
:10490000ADF8882002F0AAF8002002F0A7F897205E
:1049100002F0A4F8002002F0A1F8A62002F09EF810
:10492000002002F09BF8B72002F098F8002002F077
:1049300095F8C22002F092F8002002F08FF8C7200C
:1049400002F08CF8002002F089F8D12002F086F8FD
:10495000002002F083F8D52002F080F8002002F059
:104960007DF8DD2002F07AF8002002F077F8F320DD
:1049700002F074F8002002F071F8E42002F07AF8F6
:10498000012002F06BF8002002F068F8012002F02C
:1049900065F8002002F062F8022002F05FF80020C3
:1049A00002F05CF82A2002F059F8002002F056F8D4
:1049B0003C2002F053F8002002F050F84B2002F0A7
:1049C0004DF8002002F04AF85D2002F047F8002080
:1049D00002F044F8742002F041F8002002F03EF8A2
:1049E000842002F03BF8002002F038F8932002F017
:1049F00035F8002002F032F8A22002F02FF8002053
:104A000002F02CF8B32002F029F8002002F026F87A
:104A1000BE2002F023F8002002F020F8C42002F0AB
:104A20001DF8002002F01AF8CD2002F017F800203F
:104A300002F014F8D32002F011F8002002F00EF872
:104A4000DD2002F00BF8002002F008F8F32002F05D
:104A500005F8002002F002F8E52002F00BF8002033
:104A600001F0FCFF002001F0F9FF002001F0F6FF4B
:104A7000002001F0F3FF022001F0F0FF002001F020
:104A8000EDFF292001F0EAFF002001F0E7FF3C20C4
:104A900001F0E4FF002001F0E1FF4B2001F0DEFF18
:104AA000002001F0DBFF5D2001F0D8FF002001F0C5
:104AB000D5FF742001F0D2FF002001F0CFFF842049
:104AC00001F0CCFF002001F0C9FF932001F0C6FFE8
:104AD000002001F0C3FFA22001F0C0FF002001F080
:104AE000BDFFB32001F0BAFF002001F0B7FFBE20E8
:104AF00001F0B4FF002001F0B1FFC42001F0AEFFCF
:104B0000002001F0ABFFCD2001F0A8FF002001F054
:104B1000A5FFD32001F0A2FF002001F09FFFDC20C1
:104B200001F09CFF002001F099FFF32001F096FFB7
:104B3000002001F093FFE62001F09CFF112001F01E
:104B40008DFF002001F08AFF342001F087FF002054
:104B500001F084FF562001F081FF002001F07EFF6C
:104B6000762001F07BFF002001F078FF772001F034
:104B700075FF002001F072FF662001F06FFF00203A
:104B800001F06CFF882001F069FF002001F066FF52
:104B9000992001F063FF002001F060FFBB2001F0CD
:104BA0005DFF002001F05AFF992001F057FF00201F
:104BB00001F054FF662001F051FF002001F04EFF8C
:104BC000552001F04BFF002001F048FF552001F077
:104BD00045FF002001F042FF452001F03FFF00208B
:104BE00001F03CFF432001F039FF002001F036FFC7
:104BF000442001F033FF002001F030FFE72001F0F6
:104C000039FF322001F02AFF002001F027FF552054
:104C100001F024FF002001F021FF762001F01EFFAB
:104C2000002001F01BFF662001F018FF002001F0BA
:104C300015FF672001F012FF002001F00FFF672031
:104C400001F00CFF002001F009FF872001F006FFB2
:104C5000002001F003FF992001F000FF002001F087
:104C6000FDFEBB2001F0FAFE002001F0F7FE9920C6
:104C700001F0F4FE002001F0F1FE772001F0EEFEDD
:104C8000002001F0EBFE442001F0E8FE002001F0DE
:104C9000E5FE562001F0E2FE002001F0DFFE2320B9
:104CA00001F0DCFE002001F0D9FE332001F0D6FE39
:104CB000002001F0D3FE452001F0D0FE002001F0DD
:104CC000CDFEE82001F0D6FE002001F0C7FE002056
:104CD00001F0C4FE992001F0C1FE002001F0BEFEEB
:104CE000872001F0BBFE002001F0B8FE882001F013
:104CF000B5FE002001F0B2FE772001F0AFFE0020EB
:104D000001F0ACFE662001F0A9FE002001F0A6FE35
:104D1000882001F0A3FE002001F0A0FEAA2001F0EF
:104D20009DFE002001F09AFEBB2001F097FE0020BE
:104D300001F094FE992001F091FE002001F08EFE1A
:104D4000662001F08BFE002001F088FE552001F066
:104D500085FE002001F082FE552001F07FFE00203C
:104D600001F07CFE442001F079FE002001F076FE87
:104D7000442001F073FE002001F070FE552001F088
:104D80006DFE002001F06AFEE92001F073FEAA200A
:104D900001F064FE002001F061FE002001F05EFEE3
:104DA000002001F05BFE002001F064FEAA2001F06B
:104DB00055FECF2001F05EFE002001F04FFE0020E6
:104DC00001F04CFE002001F049FE002001F046FEFB
:104DD000002001F043FE002001F040FE002001F021
:104DE0003DFE002001F03AFE002001F037FE0020D9
:104DF00001F034FE002001F031FE002001F02EFE13
:104E0000002001F02BFE002001F028FE002001F020
:104E100025FE002001F022FE002001F01FFEF02000
:104E200001F028FE002001F019FE502001F016FECE
:104E3000002001F013FE002001F010FE002001F020
:104E40000DFEF32001F016FE002001F007FEF92010
:104E500001F010FE062001F001FE102001F0FEFD21
:104E6000292001F0FBFD002001F0F8FD3A2001F0BF
:104E700001FE552001F0F2FD112001F0FBFD642040
:104E8000FEF790FB292001F0F5FD352001F0F2FD41
:104E9000002001F0E3FD512001F0ECFDFF2001F0C6
:104EA000DDFD532001F0E6FD2C2001F0D7FD55205B
:104EB00001F0E0FD822001F0D1FDBDE810402C2082
:104EC00001F0D8BD2DE9F05F4FF47043552118462D
:104ED00001F0E6FD4FF20104AA21204601F0E0FDB9
:104EE000651C5221284601F0DBFDA61C0821304636
:104EF00001F0D6FDE71C0121384601F0D1FD0D215E
:104F00004FF4304001F0CCFD0D214BF2010001F0D7
:104F1000C7FD0D214BF2020001F0C2FD4FF43648EF
:104F20003421404601F0BCFD34214BF2016001F018
:104F3000B7FD34214BF2026001F0B2FD4FF431496C
:104F40000D21484601F0ACFD4BF2011A0D215046EF
:104F500001F0A6FD0D214BF2021001F0A1FD4FF46E
:104F6000374B3421584601F09BFD34214BF2017040
:104F700001F096FD34214BF2027001F091FD002109
:104F80004FF4324001F08CFD00214BF2012001F082
:104F900087FD00214BF2022001F082FD24214FF415
:104FA000384001F07DFD24214BF6010001F078FD31
:104FB00024214BF6020001F073FD01214FF43F4024
:104FC00001F06EFD0F214FF4334001F069FD0F2118
:104FD0004BF2013001F064FD0F214BF2023001F081
:104FE0005FFD34214FF4394001F05AFD34214BF676
:104FF000011001F055FD34214BF6021001F050FD77
:1050000008214FF4354001F04BFD08214BF20150CF
:1050100001F046FD08214BF2025001F041FD032151
:105020004FF4424001F03CFD24214FF43A4001F09E
:1050300037FD24214BF6012001F032FD24214BF6EF
:10504000022001F02DFD00214FF43C4001F028FD2D
:1050500078214BF6014001F023FD00214BF6024080
:1050600001F01EFD00214FF43D4001F019FD7821B3
:105070004BF6015001F014FD00214BF6025001F0F7
:105080000FFD00214FF43E4001F00AFD64214BF674
:10509000016001F005FD00214FF4514001F000FDD9
:1050A00033214DF2011001F0FBFC00214DF2021002
:1050B00001F0F6FC34214DF2031001F0F1FC002167
:1050C0004DF2041001F0ECFC3A214DF2051001F014
:1050D000E7FC00214DF2061001F0E2FC4A214DF2FE
:1050E000071001F0DDFC00214DF2081001F0D8FCA2
:1050F0005C214DF2091001F0D3FC00214DF20A10A1
:1051000001F0CEFC81214DF20B1001F0C9FC002111
:105110004DF20C1001F0C4FCA6214DF20D1001F06F
:10512000BFFC00214DF20E1001F0BAFCE5214DF25A
:105130000F1001F0B5FC01214DF2101001F0B0FC90
:1051400013214DF2111001F0ABFC01214DF21210B0
:1051500001F0A6FC54214DF2131001F0A1FC012135
:105160004DF2141001F09CFC82214DF2151001F05B
:1051700097FC01214DF2161001F092FCCA214DF26C
:10518000171001F08DFC02214DF2181001F088FC7F
:1051900000214DF2191001F083FC02214DF21A108A
:1051A00001F07EFC01214DF21B1001F079FC02217F
:1051B0004DF21C1001F074FC34214DF21D1001F071
:1051C0006FFC02214DF21E1001F06AFC67214DF2C6
:1051D0001F1001F065FC02214DF2201001F060FC6F
:1051E00084214DF2211001F05BFC02214DF22210CE
:1051F00001F056FCA4214DF2231001F051FC0221D4
:105200004DF2241001F04CFCB7214DF2251001F0B5
:1052100047FC02214DF2261001F042FCCF214DF255
:10522000271001F03DFC02214DF2281001F038FC5E
:10523000DE214DF2291001F033FC02214DF22A103B
:1052400001F02EFCF2214DF22B1001F029FC02217D
:105250004DF22C1001F024FCFE214DF22D1001F036
:105260001FFC03214DF22E1001F01AFC10214DF20B
:105270002F1001F015FC03214DF2301001F010FC4D
:1052800033214DF2311001F00BFC03214DF23210AD
:1052900001F006FC6D214DF2331001F001FC0021FC
:1052A0004FF4524001F0FCFB33214DF2012001F09C
:1052B000F7FB00214DF2022001F0F2FB34214DF208
:1052C000032001F0EDFB00214DF2042001F0E8FB8A
:1052D0003A214DF2052001F0E3FB00214DF20620BA
:1052E00001F0DEFB4A214DF2072001F0D9FB00213D
:1052F0004DF2082001F0D4FB5C214DF2092001F0B1
:10530000CFFB00214DF20A2001F0CAFB81214DF2B2
:105310000B2001F0C5FB00214DF20C2001F0C0FB79
:10532000A6214DF20D2001F0BBFB00214DF20E2015
:1053300001F0B6FBE5214DF20F2001F0B1FB012198
:105340004DF2102001F0ACFB13214DF2112001F0C1
:10535000A7FB01214DF2122001F0A2FB54214DF2D6
:10536000132001F09DFB01214DF2142001F098FB68
:1053700082214DF2152001F093FB01214DF2162000
:1053800001F08EFBCA214DF2172001F089FB0221AA
:105390004DF2182001F084FB00214DF2192001F09C
:1053A0007FFB02214DF21A2001F07AFB01214DF220
:1053B0001B2001F075FB02214DF21C2001F070FB57
:1053C00034214DF21D2001F06BFB02214DF21E2015
:1053D00001F066FB67214DF21F2001F061FB022105
:1053E0004DF2202001F05CFB84214DF2212001F0E0
:1053F00057FB02214DF2222001F052FBA4214DF275
:10540000232001F04DFB02214DF2242001F048FB46
:10541000B7214DF2252001F043FB02214DF2262059
:1054200001F03EFBCF214DF2272001F039FB022194
:105430004DF2282001F034FBDE214DF2292001F04D
:105440002FFB02214DF22A2001F02AFBF2214DF21E
:105450002B2001F025FB02214DF22C2001F020FB36
:10546000FE214DF22D2001F01BFB03214DF22E20D9
:1054700001F016FB10214DF22F2001F011FB03214A
:105480004DF2302001F00CFB33214DF2312001F0C0
:1054900007FB03214DF2322001F002FB6D214DF29A
:1054A000332001F0FDFA00214FF4534001F0F8FAE7
:1054B00033214DF2013001F0F3FA00214DF20230B8
:1054C00001F0EEFA34214DF2033001F0E9FA002147
:1054D0004DF2043001F0E4FA3A214DF2053001F0CA
:1054E000DFFA00214DF2063001F0DAFA4A214DF2DE
:1054F000073001F0D5FA00214DF2083001F0D0FA62
:105500005C214DF2093001F0CBFA00214DF20A3056
:1055100001F0C6FA81214DF20B3001F0C1FA0021F1
:105520004DF20C3001F0BCFAA6214DF20D3001F025
:10553000B7FA00214DF20E3001F0B2FAE5214DF23A
:105540000F3001F0ADFA01214DF2103001F0A8FA50
:1055500013214DF2113001F0A3FA01214DF2123066
:1055600001F09EFA54214DF2133001F099FA012115
:105570004DF2143001F094FA82214DF2153001F011
:105580008FFA01214DF2163001F08AFACA214DF24C
:10559000173001F085FA02214DF2183001F080FA3F
:1055A00000214DF2193001F07BFA02214DF21A3040
:1055B00001F076FA01214DF21B3001F071FA02215F
:1055C0004DF21C3001F06CFA34214DF21D3001F027
:1055D00067FA02214DF21E3001F062FA67214DF2A6
:1055E0001F3001F05DFA02214DF2203001F058FA2F
:1055F00084214DF2213001F053FA02214DF2223084
:1056000001F04EFAA4214DF2233001F049FA0221B3
:105610004DF2243001F044FAB7214DF2253001F06B
:105620003FFA02214DF2263001F03AFACF214DF235
:10563000273001F035FA02214DF2283001F030FA1E
:10564000DE214DF2293001F02BFA02214DF22A30F1
:1056500001F026FAF2214DF22B3001F021FA02215D
:105660004DF22C3001F01CFAFE214DF22D3001F0EC
:1056700017FA03214DF22E3001F012FA10214DF2EB
:105680002F3001F00DFA03214DF2303001F008FA0D
:1056900033214DF2313001F003FA03214DF2323063
:1056A00001F0FEF96D214DF2333001F0F9F90021DE
:1056B0004FF4544001F0F4F933214DF2014001F070
:1056C000EFF900214DF2024001F0EAF934214DF2E8
:1056D000034001F0E5F900214DF2044001F0E0F94A
:1056E0003A214DF2054001F0DBF900214DF2064070
:1056F00001F0D6F94A214DF2074001F0D1F900211D
:105700004DF2084001F0CCF95C214DF2094001F066
:10571000C7F900214DF20A4001F0C2F981214DF292
:105720000B4001F0BDF900214DF20C4001F0B8F939
:10573000A6214DF20D4001F0B3F900214DF20E40CB
:1057400001F0AEF9E5214DF20F4001F0A9F9012178
:105750004DF2104001F0A4F913214DF2114001F077
:105760009FF901214DF2124001F09AF954214DF2B6
:10577000134001F095F901214DF2144001F090F928
:1057800082214DF2154001F08BF901214DF21640B6
:1057900001F086F9CA214DF2174001F081F902218A
:1057A0004DF2184001F07CF900214DF2194001F052
:1057B00077F902214DF21A4001F072F901214DF200
:1057C0001B4001F06DF902214DF21C4001F068F917
:1057D00034214DF21D4001F063F902214DF21E40CB
:1057E00001F05EF967214DF21F4001F059F90221E5
:1057F0004DF2204001F054F984214DF2214001F096
:105800004FF902214DF2224001F04AF9A4214DF254
:10581000234001F045F902214DF2244001F040F906
:10582000B7214DF2254001F03BF902214DF226400F
:1058300001F036F9CF214DF2274001F031F9022174
:105840004DF2284001F02CF9DE214DF2294001F003
:1058500027F902214DF22A4001F022F9F2214DF2FE
:105860002B4001F01DF902214DF22C4001F018F9F6
:10587000FE214DF22D4001F013F903214DF22E408F
:1058800001F00EF910214DF22F4001F009F903212A
:105890004DF2304001F004F933214DF2314001F076
:1058A000FFF803214DF2324001F0FAF86D214DF27C
:1058B000334001F0F5F800214FF4554001F0F0F8C5
:1058C00033214DF2015001F0EBF800214DF202506E
:1058D00001F0E6F834214DF2035001F0E1F8002127
:1058E0004DF2045001F0DCF83A214DF2055001F080
:1058F000D7F800214DF2065001F0D2F84A214DF2BE
:10590000075001F0CDF800214DF2085001F0C8F821
:105910005C214DF2095001F0C3F800214DF20A500C
:1059200001F0BEF881214DF20B5001F0B9F80021D1
:105930004DF20C5001F0B4F8A6214DF20D5001F0DB
:10594000AFF800214DF20E5001F0AAF8E5214DF21A
:105950000F5001F0A5F801214DF2105001F0A0F810
:1059600013214DF2115001F09BF801214DF212501C
:1059700001F096F854214DF2135001F091F80121F5
:105980004DF2145001F08CF882214DF2155001F0C7
:1059900087F801214DF2165001F082F8CA214DF22C
:1059A000175001F07DF802214DF2185001F078F8FF
:1059B00000214DF2195001F073F802214DF21A50F6
:1059C00001F06EF801214DF21B5001F069F802213F
:1059D0004DF21C5001F064F834214DF21D5001F0DD
:1059E0005FF802214DF21E5001F05AF867214DF286
:1059F0001F5001F055F802214DF2205001F050F8EF
:105A000084214DF2215001F04BF802214DF2225039
:105A100001F046F8A4214DF2235001F041F8022193
:105A20004DF2245001F03CF8B7214DF2255001F021
:105A300037F802214DF2265001F032F8CF214DF215
:105A4000275001F02DF802214DF2285001F028F8DE
:105A5000DE214DF2295001F023F802214DF22A50A7
:105A600001F01EF8F2214DF22B5001F019F802213D
:105A70004DF22C5001F014F8FE214DF22D5001F0A2
:105A80000FF803214DF22E5001F00AF810214DF2CB
:105A90002F5001F005F803214DF2305001F000F8CD
:105AA00033214DF2315000F0FBFF03214DF2325013
:105AB00000F0F6FF6D214DF2335000F0F1FF0021B0
:105AC0004FF4564000F0ECFF33214DF2016000F03E
:105AD000E7FF00214DF2026000F0E2FF34214DF2B9
