:020000040800F2
:1000000070160020A10100083B290008D92700082C
:1000100039290008F5100008812D000800000000B3
:100020000000000000000000000000003F29000860
:10003000F7100008000000003D29000841290008D1
:10004000BB010008BB010008BB010008BB010008A0
:10005000BB010008BB010008BB010008BB01000890
:10006000BB010008BB010008BB010008BB01000880
:10007000BB010008BB010008BB010008BB01000870
:10008000BB010008BB010008BB010008BB01000860
:10009000BB010008BB010008BB010008BB01000850
:1000A000BB010008BB010008BB010008BB01000840
:1000B000BB010008BB010008BB010008BB01000830
:1000C000BB010008BB010008BB010008BB01000820
:1000D000BB010008CD2C0008BB010008ED2C000876
:1000E000BB010008BB010008BB010008BB01000800
:1000F000BB010008BB010008BB010008BB010008F0
:10010000BB010008BB010008BB010008BB010008DF
:10011000BB010008BB010008BB010008BB010008CF
:10012000BB010008BB010008BB010008BB010008BF
:10013000BB010008BB010008BB010008BB010008AF
:10014000BB010008BB010008BB010008BB0100089F
:10015000BB010008BB010008BB010008BB0100088F
:10016000BB010008BB010008BB010008BB0100087F
:10017000BB010008BB010008BB0100080000000033
:10018000BB010008BB010008DFF810D000F008FD3B
:1001900000480047FD7D0008AFF300807016002086
:1001A0000648804706480047FEE7FEE7FEE7FEE711
:1001B000FEE7FEE7FEE7FEE7FEE7FEE7DD290008D3
:1001C000890100082DE9F05F0546002092469B4614
:1001D00088460646814640241BE02846414647465D
:1001E000224600F07CFB53465A46C01A914110D378
:1001F00011461846224600F063FB2D1A67EB0108F2
:100200004F4622460120002100F05AFB17EB00095F
:100210004E41201EA4F10104DFDC484631462A4647
:100220004346BDE8F09FA0F14101192900D82030D4
:10023000704740EA01039B0703D009E008C9121F79
:1002400008C0042AFAD203E011F8013B00F8013B90
:10025000521EF9D27047D2B201E000F8012B491EBC
:10026000FBD270470022F6E710B513460A46044653
:100270001946FFF7F0FF204610BD30B505462A4667
:100280000B4612F8010B13F8014B08B1A042F8D04D
:100290001CB1002802D06D1CF1E7284630BDCAB25F
:1002A000401E10F8011F8A4202D00029F9D1002017
:1002B0007047421C10F8011B0029FBD1801A7047BF
:1002C000034611F8012B00F8012B002AF9D118463A
:1002D000704730B505460020034600E05B1C9342A2
:1002E00005D2EC5CC85C201A01D1002CF6D130BDDF
:1002F0000FB400B58DB010A909900B9000914FF08C
:10030000FF300A9000200C900548069005480790A1
:100310006A4609A80F9900F019FB0DB05DF814FBAF
:1003200069090008870900082DE9FF5F1D464FF0A5
:10033000FF3BD5E9014691465F464FF00008A969A9
:100340007F1C01988847296A824688470028F6D191
:10035000BAF1FF3F0CD024F4C064002E19DD600612
:1003600014D5BAF12B0F09D0BAF12D0F0ED103E03D
:10037000584604B0BDE8F09F44F48064A9697F1C2E
:1003800001988847761E8246002E02DDBAF1300FB2
:1003900003D0B9F1000F26D032E0A969761E44F4EB
:1003A00000747F1C019888478246002E05DDBAF153
:1003B000780F06D0BAF1580F03D0B9F1000F10D062
:1003C0001EE0B9F1000F02D0B9F1100F18D1A969E0
:1003D000761E24F400747F1C019888478246102002
:1003E00002E0082000E00A20814609E008FB090835
:1003F000A969761E44F400747F1C019888478246E0
:10040000002E05DD4946504600F08BFA0028EDDA53
:10041000E96901988847A00502D46FF00100A8E7B8
:10042000E00725D1600613D5600502D5C8F10000AC
:1004300000E0404629680A1D2A600968220501D5A6
:10044000087015E0220701D5088011E008600FE070
:100450002868011D29600068210502D580F8008008
:1004600006E0210702D5A0F8008001E0C0F8008076
:1004700038467EE72DE9FF5FD2E901A74FF000087B
:10048000916999461446DDF838B046460198884788
:10049000054659EA0B0005D009E0A169761C0198D0
:1004A00088470546216A284688470028F5D1681CF8
:1004B00003D05FEACA7005D015E04FF0FF3004B0FA
:1004C000BDE8F09F2068011D2160D0F800800AE09F
:1004D0005FEACA7001D108F8015BA169761C7F1E32
:1004E000019888470546002F1ADD681C18D0B9F11D
:1004F000000F0DD0E81705EBD060421120F01F006F
:1005000059F822102A1A012090400142E0D107E058
:10051000BBF1000FDCD1216A284688470028D7D0DC
:10052000E16901988847BBF1000F07D1002E05DD76
:100530005FEACA7002D1002188F80010A068B842B2
:1005400003DDBBF1000F03D017B16FF00100B6E778
:100550003046B4E72DE9FE4F804681EA0300C00F24
:100560000C46009021F0004123F00045B8EB02005A
:10057000A94105D24046214690461C460B460246FC
:1005800023F00040104347D0270DC7F30A00C3F300
:100590000A510290401A019040286BDAC3F313000D
:1005A00040F4801B0098924620B10023D2EB030A4E
:1005B00063EB0B0B01985946C0F14002504600F026
:1005C0007FF906460D4650465946019A00F097F9C4
:1005D00010EB08006141002487EA115284EAE773B6
:1005E0001A4340D0009A62B3019A012A4FEA075297
:1005F00015DC001B61EB02014FF0004202EA0752DA
:10060000CDE90042001C41F5801132462B4600F036
:10061000DAF903B0BDE8F08F40462146F9E7001B48
:1006200061EB0201001C41F5801300185B412018AA
:10063000A2F5001747EB030140EAD570B6196D41EA
:1006400011E06D084FEA360645EAC0754FEA0752D9
:10065000001B61EB0201001C41F5801149084FEAC3
:1006600030000019514132462B4603B0BDE8F04F2F
:1006700000F09AB90098012240000023D0EB02025A
:1006800063EBE073009821464FEAE074B8EB00009A
:1006900061EB0401E9E783F000435BE781F000418F
:1006A00058E72DE9FE4F81EA030404F0004421F0ED
:1006B000004100944FF0000B23F0004350EA010486
:1006C0005ED052EA03045BD0C3F30A54C1F30A5567
:1006D0002C44A4F2F3340194A0FB0254C1F313019F
:1006E00041F48011C3F3130343F4801301FB02446C
:1006F00000FB034E840A970A44EA815447EA835771
:10070000A4FB076802958D0A05FB07854FEA932C29
:1007100004FB0C542705029D4FEA065847EA16379A
:10072000B5EB08056EEB070C870E920E47EA8117B2
:1007300042EA8312A7FB0201B6EB0B0164EB000453
:100740002B0D43EA0C335E1844EB1C50DA4651463D
:10075000E7FB0201C5F313044FEA0B3343EA1453DA
:100760004FEA0432019C43EA0603A4F10C0402940C
:10077000009CCDE900B400F026F903B0BDE8F08F8D
:1007800000200146F9E70EB5C10F80EAE070084489
:10079000CA07002140F233438DE80E000A460B469B
:1007A00000F011F903B000BD0EB540F233410291E3
:1007B0000021CDE900110A460B4600F004F903B010
:1007C00000BD70B5C1F30A5201F000450024C1F329
:1007D000130140F2FF3341F480119A4201DA002004
:1007E00070BD40F233439A42A2F2334203DC5242DC
:1007F00000F075F800E090402C43F1D0404270BD0D
:10080000C1F30A5210B5C1F3130140F2FF3341F4B2
:1008100080119A4201DA002010BD40F233439A421F
:10082000A2F2334203DC524200F059F810BD90406E
:1008300010BD000030B5041E71F1000404DB4FF060
:100840000044404264EB0101141E73F1000405DB17
:100850001C464FF00043524263EB04038B4208BF37
:10086000824230BD30B5041E71F1000404DB4FF04C
:100870000044404264EB0101141E73F1000405DBE7
:100880001C464FF00043524263EB0403994208BFF9
:10089000904230BD30B50B46014600202022012495
:1008A00009E021FA02F59D4205D303FA02F5491B3E
:1008B00004FA02F52844151EA2F10102F1DC30BD54
:1008C000202A04DB203A00FA02F100207047914010
:1008D000C2F1200320FA03F3194390407047202A05
:1008E00004DB203A21FA02F00021704721FA02F3DA
:1008F000D040C2F120029140084319467047202A97
:1009000006DBCB17203A41FA02F043EAE07306E037
:1009100041FA02F3D040C2F1200291400843194647
:1009200070473A2800D2303820F02002412A01D303
:10093000A2F13700884201D34FF0FF30704700002A
:10094000026811441378016018467047D160044969
:1009500051610449116200211161114600F038B95A
:1009600041090008C50B0008426842B1016811F84E
:10097000013B23B1521EC0E9001218467047012105
:10098000C160881E704742685AB1C368016843B9A4
:1009900083688B4205D0491E521CC0E9001200201A
:1009A00070474FF0FF30704710B5141E73F100040C
:1009B00008DA401C41F1000192185B411A4301D151
:1009C00020F0010010BD2DE9F04D92469B4611B17B
:1009D000B1FA81F202E0B0FA80F220329046FFF7DD
:1009E0006FFF04460F4640EA0A0041EA0B015346F6
:1009F0005A46084313D0114653EA010019D0C8F1F2
:100A000040025046FFF76BFF05460E4650465946DA
:100A10004246FFF755FF084305D0012004E0204679
:100A20003946BDE8F08D0020054346EAE0762C43C8
:100A300037430A986305E40AA0EB08000022FD0A88
:100A400044EA47540A3002D500200146E9E701058F
:100A500010196941DDE9084500196941BDE8F04D0B
:100A6000A2E72DE9F04D81EA030404F0004B21F0E8
:100A7000004514464FF0000A23F0004150EA0502F9
:100A800020D054EA01021DD0C5F30A570246C5F32F
:100A90001303C1F31300C1F30A5640F4801543F465
:100AA0008013A7EB0608101BD64608F2FD3873EB3F
:100AB000050002D308F1010801E092185B41B8F18A
:100AC000000F03DA00200146BDE8F08D00204FF44E
:100AD0008011064684460EE0171B73EB050705D30D
:100AE000121B63EB050306434CEA010C49084FEA6D
:100AF000300092185B4150EA0107EDD152EA030041
:100B000012D082EA040083EA0501084305D0101BD5
:100B1000AB4106D20122002306E000224FF0004341
:100B200002E06FF0010253101AEB06004CEB085183
:100B300010EB0A0041EB0B01BDE8F04DFFF734BFAD
:100B400070B521F0004303430CD0C1F30A550024D3
:100B5000D5EB040564EB0403D617AD1AB34102DBF1
:100B60000020014670BD201841EB025170BDC1F359
:100B70000A52C1F3130140F2FF3341F480119A424B
:100B800002DA00200146704740F233439A42A2F253
:100B9000334202DC5242FFF7A2BEFFF791BE0000D3
:100BA000064C074D06E0E06840F0010394E80700BA
:100BB00098471034AC42F6D3FFF7EAFAACC4000809
:100BC000CCC40008C0B24FF4F05100F0EBB9000003
:100BD0002DE9F34F8BB04FF0000801F10C000C46EB
:100BE0004FF0010B46460DF1080A019062690121A0
:100BF00001989047051E2DD0252D2CD0216A8847BD
:100C0000C0B16269012101989047216A8847002894
:100C1000F7D1411E62690198904700E0761CA169F6
:100C20000B988847216A88470028F7D1E1690B981B
:100C30008847DBE7A1690B9888470746A84201D19E
:100C4000761CD3E7E1690B9888477F1C02D1B8F185
:100C5000000F6FD047E1002762693D463946019891
:100C600090472A2804D16269012101989047012503
:100C7000DFF888926269012101989047A0F1300164
:100C80000A290AD24F45E5DC07EB870100EB410753
:100C9000303FDFD445F01005ECE7E90601D46FF0F2
:100CA00000476C280AD04C2814D0682815D06A2830
:100CB0000DD074281CD07A281AD01DE06269012159
:100CC000019890476C2802D045F0040514E045F0E7
:100CD00002050DE045F020050AE062690121019856
:100CE0009047682802D045F0080505E045F4006506
:100CF0006269012101989047C4E9015765283DD0F8
:100D000019DC58287AD00CDC452837D004DC25289B
:100D100026D0412831D131E046282FD047282CD188
:100D20002CE05B2877D0612828D063287CD0642809
:100D300023D15AE0D1E06F2848D008DC66281DD0C6
:100D400067281BD0692821D06E2816D127E070288B
:100D500045D0732868D0752847D078280DD14DE04C
:100D6000A1690B988847054625283FF469AFE169DA
:100D70000B9888476D1C3FF46AAFB4E023466A467F
:100D80006FF001000B99AFF300809FE045F0400049
:100D90006060A80723464FF0000236D43EE0E80723
:100DA0007FF447AF2068011D21600068290501D547
:100DB00006701BE7290701D5068017E7A90703D5A9
:100DC000F117C0E9006111E706600FE745F0400048
:100DD0006060A80723464FF0080216D41EE040F6D4
:100DE0000E0125EA0100606016E045F040006060F9
:100DF000A80723464FF00A0207D40FE045F0400051
:100E00006060A80708D5234610226FF001000B99F7
:100E1000AFF300805AE007E0234610226FF0010094
:100E20000B99FFF781FA51E04FF000094F464B460E
:100E3000632802D05B2807D041E02079C00601D4A6
:100E40000120A06001273AE06269012101989047E2
:100E50005E2805D14FF00109626949460198904723
:100E6000216939B900210A46534643F82120491C1B
:100E70000829FADBB0B3216969B9C11700EBD16267
:100E800053110AEB830122F01F02821A01200B6822
:100E9000904003430B6062690121019890475D28EF
:100EA000E8D1B9F1000F09D00020514651F82020B7
:100EB000D24341F82020401C0828F7DB02AB224631
:100EC00000976FF001000B99FFF7D4FA00280CDAB5
:100ED000401C08D1BBF1000F05D04FF0FF300DB022
:100EE000BDE8F08FFFE74046F9E7E90701D108F1D7
:100EF000010806444FF0000B78E60000CCCCCC0C87
:100F00002DE9F04D00231A461B1A8A4103DB00200D
:100F10000146BDE8F08DC1F30A52C1F3130141F45B
:100F200080154FF0000BD10702D100186D41521E01
:100F30000027044640F2FF11384601EB620A3E46A4
:100F40008046024600204FF48011FFF7C8FCC2190A
:100F50007141BB1846EB0100B4EB030C75EB000CC0
:100F600004D3E41A65EB000517460E46241908F170
:100F700001006D4180463428E3DDF91946EB060097
:100F8000091BA84103D24FF0FF32134601E00022B3
:100F900013461BEB070046EB0A51BDE8F04DFFF787
:100FA00003BD00007F2801D9002208E0064A02EBB9
:100FB0005002C007127800D1120902F00F0201207E
:100FC000904008407047000020C40008464910B512
:100FD0004A6822F440324A604A6843681A434A60C9
:100FE00001684A6822F480724A6001684A680369AD
:100FF00042EA03224A6001684A6822F040724A606D
:1010000001684A6883681A434A6001688A6822F462
:1010100000628A6001688A68C3681A438A60816ACC
:101020006FF07062D14201688A6822F070628A6053
:1010300001688A680CD0836A1A438A6001688A68EA
:1010400022F040528A6001688A68C36A1A4301E04C
:1010500022F040528A6001688A6822F002028A60A7
:1010600001688A68037E42EA43028A6090F8201091
:10107000002901684A680FD042F400624A600168A2
:101080004A6822F460424A6001684A68174C436A21
:1010900004EB43331A4301E022F400624A60016822
:1010A000CA6A22F47002CA620168CA6A838B104C51
:1010B00004EB03531A43CA6201688A6822F400727F
:1010C0008A6001688A6890F8303042EA43228A6078
:1010D00001688A6822F480628A6001688A684069CF
:1010E00042EA8020886010BD0023014000E0FFFF3D
:1010F0000000F0FFFEE7704710B54FF4FA720128C8
:1011000005D0022806D003280CD0032010BD07A16B
:1011100007A001E005A109A000F0E8F80028F5D03B
:10112000012010BD01A108A0F6E700004F4B000010
:1011300041542B43574D4F44453D310041542B43BF
:10114000574D4F44453D320041542B43574D4F447A
:10115000453D330010B54FF4FA7218B1012804D0A0
:10116000032010BD05A106A001E004A106A000F027
:10117000BDF80028F5D0012010BD00004F4B000045
:10118000415445300000000041544531000000004A
:1011900000B5ADF5017D024607A1684601F01CFED1
:1011A0004FF47A720BA1684600F0A0F8002800D036
:1011B00001200DF5017D00BD41542B4D5154544388
:1011C0004C49454E5449443D302C222573220D0A8A
:1011D000000000004F4B000000B5ADF5017D0B464F
:1011E0000092024607A101A801F0F6FD4FF47A72C1
:1011F0000BA101A800F07AF8002800D001200DF51D
:10120000017D00BD41542B4D515454434F4E4E3D32
:10121000302C222573222C25642C25640D0A000015
:101220004F4B000000B5ADF5017D024607A16846B1
:1012300001F0D2FD4FF47A720AA1684600F056F828
:10124000002800D001200DF5017D00BD41542B4D3B
:101250005154545355423D302C222573222C310DCC
:101260000A0000004F4B000000B5ADF5017D0B46B4
:10127000024608A1684601F0AFFD4FF47A7211A151
:10128000684600F033F8002800D001200DF5017DFC
:1012900000BD000041542B4D515454555345524309
:1012A00046473D302C312C224E554C4C222C2225C9
:1012B00073222C222573222C302C302C22220D0A52
:1012C000000000004F4B000010B54FF4FA7204A16B
:1012D00004A000F00BF8002800D0012010BD000091
:1012E0004F4B000041542B525354000070B514462C
:1012F0000D46064603F0E0F931460CA003F0B4F9C0
:101300003DB134B103F0C8F938B12946FEF7B5FF55
:1013100008B1002070BD03F0CFF90120641E00F079
:10132000EEFA002CEED1022070BD000025730D0AEC
:101330000000000000B5A1B00B46024607A16846B8
:1013400001F04AFD40F6B83209A16846FFF7CEFF2A
:10135000002800D0012021B000BD000041542B43E3
:10136000574A41503D222573222C2225732200002A
:101370004F4B000072B6FEE730B5B3F5804F05D095
:101380006FF0704140F82210002030BD8C690B686E
:101390008D6823434C688989240144EA052423434A
:1013A00043EA014150F82230014C23401943E9E758
:1013B0000000F0CF10B50A6850F8223023F0010386
:1013C00040F822308C68082C23D000234A6822433E
:1013D000CC681C430B6922431A434B690E4C1A43D9
:1013E000CB691A430B6A1A434B6A1A438B6A1A4336
:1013F000CB6A1A430B6B1A438B691343CA6B096898
:101400001A4350F82130A343134340F82130002001
:1014100010BD4023DAE700007FFF0F0030B5D1E9AF
:10142000003443EA04138C688D89240244EA05449D
:1014300023430C8A094D00EB820005EB045423433F
:101440000C7D6D0105EB0464896923430B434168FE
:1014500001F040410B434360002030BD0000F0FF2D
:101460001FB56946009001200190072002900020DE
:101470000390084800F010F8064800F067F90A21C8
:10148000044800F00DF9034800F0ACF804B080B255
:1014900010BD00009C00002078B50024009490F856
:1014A0003C20012A19D0012280F83C200A68072339
:1014B0000568092A13D9EE680A3A02EB4202934002
:1014C0009E43EE600B788A680A3B03EB43039A4025
:1014D0000368DD682A43DA6010E0022078BD2E69D7
:1014E00002EB420293409E432E610B788A6803EB25
:1014F00043039A4003681D692A431A614A681F23FF
:10150000072A13D205686E6B521E02EB82029340CB
:101510009E436E630B790A885B1E92B203EB8303D2
:101520009A4003685D6B2A435A6327E005680D2AD9
:1015300012D22E6BD21F02EB820293409E432E6387
:101540000B790A88DB1F92B203EB83039A4003688E
:101550001D6B2A431A6311E0EE6A0D3A02EB820218
:1015600093409E43EE620B790A880D3B92B203EBE7
:1015700083039A400368DD6A2A43DA62164B0568E2
:10158000144A9D4206D10D68122D03D1556845F4C9
:101590008005556005689D4218D10B68102B01D05D
:1015A000112B13D1536843F40003536009681029C9
:1015B0000CD10A490A4A0968B1FBF2F101EB810139
:1015C000490000E0491E00910029FBD180F83C4011
:1015D000002078BD002301400020014020000020B1
:1015E00040420F000068C06C704770B504004FF0B7
:1015F000000503D0206C002610B107E0012070BD6B
:10160000204600F01DF8666484F83C60206CC0063B
:1016100010D4206C20F4885040F002002064204652
:10162000FFF7D4FC6664206C20F0020040F001005B
:10163000206400E0012584F83C60284670BD00006D
:1016400010B586B0044614216846FEF70BFE11491A
:10165000206888421CD110480021026842F4806250
:101660000260006800F4806005900B48143802683E
:1016700042F020020260006800F020000590802007
:1016800000900320CDE901016946044800F03AF9D1
:1016900006B010BD00220140443802400014024050
:1016A0002DE9F041044600680D4681684FF00007BF
:1016B00049050BD58068C00508D5206C40F0200096
:1016C000206484F83C700120BDE8F08100F01CFA31
:1016D000064613E0681C11D025B100F015FA801BF6
:1016E000A8420BD920680068800707D4206C40F01E
:1016F0000400206484F83C700320E5E7206800685B
:101700008007E7D521686FF012000860206C40F474
:10171000007020642068816811F0405F13D1217E41
:1017200089B9C16A11F4700F02D0806840050AD4EB
:10173000206C20F480702064206CC00403D4206CE2
:1017400040F0010020640020BEE7000018B5002131
:10175000009190F83C20012A07D0012280F83C201B
:1017600002689368DB0702D011E0022018BD93687D
:1017700043F0010393602E4A2E4B1268B2FBF3F242
:1017800002EB420200E0521E0092002AFBD10268E6
:101790009368DB0742D0036C40F20164A34343F437
:1017A0008073036453685B0505D5036C23F4005311
:1017B00043F480530364036CDB0404D5436C23F0CF
:1017C0000603436400E0416480F83C101A496FF05E
:1017D0002203136049680068CA06184906D0884287
:1017E00024D1816811F0405F13D01FE08842F8D007
:1017F000134A904203D1D1F80423D206F1D0114A02
:10180000904213D1D1F8041301F01F011029E8D33D
:101810000CE0816841F08041816007E0016C41F09B
:1018200010010164416C41F001014164002018BDC8
:101830002000002040420F00002301400020014012
:1018400000210140002201402DE9F0410446876D4E
:1018500000F05AF9064694F835000025022806D013
:101860008020606584F834500120BDE8F081206854
:10187000016821F0160101602068416921F08001B2
:101880004161206C08B9A06C20B12068016821F08A
:10189000080101602068016821F0010101600CE08D
:1018A00000F032F9801B052807D92020606503204D
:1018B00084F8350084F83450D7E720680068C00702
:1018C000EED194F85C103F208840B860012084F885
:1018D000350084F834500020C7E790F8351002290D
:1018E00003D08021416501207047052180F8351023
:1018F0000068016821F0010101600020704780B29A
:1019000002F0F4BF2DE9F84FDFF8BCA10022012559
:1019100003264FF00F090AF1040BAAF1040E00BFD1
:101920000B6805FA02F42340A34270D10F7907F047
:101930000307012F01D0022F16D187684FEA420812
:1019400006FA08FC27EA0C07D1F80CC00CFA08FCD0
:101950004CEA070CC0F808C04768A7430C79C4F3E9
:10196000001494403C4344600C79E443A4070AD03B
:10197000C4684FEA420C06FA0CF7BC438F6807FABA
:101980000CF72743C7600C7904F00304022C12D132
:10199000D40800EB840CDCF820405707FF0E09FA4E
:1019A00007F824EA0804D1F8108008FA07F848EA92
:1019B0000408CCF8208004684FEA420C06FA0CF7C1
:1019C000BC430F7907F0030707FA0CF727430760BA
:1019D0004C6814F4403F70D03C4C276847F4804773
:1019E0002760246822F0030704F480440094384CF4
:1019F00007EB040CDCF8084897074FEA177809FA58
:101A000008F7BC43334FB84202D1002724E054E02A
:101A1000314FB84201D101271EE0304FB84201D109
:101A2000022719E02E4FB84201D1032714E02D4FB1
:101A3000B84201D104270FE02B4FB84201D105274E
:101A40000AE02A4FB84201D1062705E0284FB842E4
:101A500001D1072700E0082707FA08F72743CCF849
:101A60000878DAF800405746D1F804C09C435FEA92
:101A7000CC2C00D51C433C60DBF800405F46D1F81D
:101A800004C09C435FEA8C2C00D51C433C60DEF80C
:101A900000407746D1F804C09C435FEA8C3C00D5F7
:101AA0001C433C60084F083F3C68D1F804C09C438D
:101AB0005FEACC3C00D51C433C60521C102AFFF46A
:101AC0002FAFBDE8F88F0000083C014044380240C9
:101AD00000300140000002400004024000080240C3
:101AE000000C0240001002400014024000180240A6
:101AF000001C02400069084000D0012070470AB174
:101B0000816170470904FBE7014880687047000065
:101B100014000020024881680278114481607047F7
:101B2000140000200B4810B5016841F400710160F9
:101B3000016841F480610160016841F480710160D5
:101B4000032000F06FF80F2000F006F800F024F8F2
:101B5000002010BD003C024070B50D4D04464FF40E
:101B60007A712878B1FBF0F00A490968B1FBF0F00E
:101B700000F072FB48B9102C07D200222146501EFB
:101B800000F030F800206C6070BD012070BD0000D6
:101B900014000020200000200A4808B5016841F424
:101BA00080410160006800F4804000900548001FFB
:101BB000016841F080510160006800F080500090A1
:101BC00008BD000044380240002809DB00F01F0275
:101BD000012191404009800000F1E020C0F800118F
:101BE00070470000F0B40E4B1B680C46C3F3022391
:101BF000C3F10705042D00D90425191D072901D2B9
:101C0000002300E0DB1E012606FA05F1491E2140F3
:101C100099409E40761E16403143F0BC01F01AB93F
:101C20000CED00E0064900F0070208684FF6FF03DC
:101C3000184040EA0220034A104308607047000041
:101C40000CED00E00000FA052DE9F0470E46050016
:101C500065D0DFF81481D8F80000F7B200F0070073
:101C6000B04207D288F80070D8F8000000F00700F2
:101C7000B04254D128683D4C810712D5400703D5A6
:101C8000206840F4E05020602878000703D52068E1
:101C900040F4604020602068A96820F0F00008430C
:101CA00020602878C0072DD030496868083901289D
:101CB00012D0022813D0032811D0096889070029FF
:101CC0002DDA216821F0030101432160FFF71CFF99
:101CD000814641F2883A0EE009688903EFE7096816
:101CE0008901ECE7FFF710FFA0EB0901514502D98C
:101CF0000320BDE8F0872068696800F00C00B0EBB5
:101D0000810FEFD1D8F80010404601F00701B14231
:101D100007D90770006800F00700B04201D0012029
:101D2000E7E72878400705D52068E96820F4E05007
:101D3000084320602878000706D52068296920F428
:101D4000604040EAC100206000F038F82168084A8D
:101D5000C1F30311515CC840064908600648006899
:101D6000FFF7FAFE0020C4E7003C024008380240BA
:101D700070C3000820000020180000200448054916
:101D800000680968044AC1F38221515CC840704769
:101D9000200000200838024080C30008044805499C
:101DA00000680968044AC1F34231515CC840704779
:101DB000200000200838024080C30008154810B5F4
:101DC000006810F00C02144813D04110042A0FD000
:101DD000082A0ED10F4C241F2268236802F03F020C
:101DE0005B0207D52068C0F38810A0FB010106E064
:101DF000084610BD2168C1F38811A1FB0001002332
:101E0000FEF7E0F92168C1F30141491C4900B0FB2C
:101E1000F1F010BD083802400024F4002DE9F84F1D
:101E200004006ED02078DFF84C93C007A9F10405B8
:101E30004AD009F104000168C1F38101012908D0E9
:101E40000068C0F3810002280AD1D9F800004002DE
:101E500006D52868800337D560680028E1D033E0D4
:101E60006068B0F5803F10D0B0F5A02F286810D082
:101E700020F480302860286820F480202860606882
:101E8000A8B1FFF741FE06460DE0286840F4803017
:101E9000F4E740F480202860F7E700BFFFF734FE46
:101EA000801B642873D828688003F7D50CE0FFF7FF
:101EB0002BFE064605E000BFFFF726FE801B6428C8
:101EC000F0D828688003F7D42078DFF8AC82800748
:101ED0004FF0000A3ED5A748001D016811F00C0F15
:101EE00008D00068C0F3810002280BD1D9F80000A7
:101EF000400207D42868800716D5E068012800D181
:101F000012E033E1E068B8B10120C8F80000FFF743
:101F1000FBFD064605E000BFFFF7F6FD801B02282B
:101F2000C0D828688007F7D52868216920F0F80014
:101F300040EAC10028600DE0C8F800A0FFF7E4FD0A
:101F4000064604E0FFF7E0FD801B02281FD8286842
:101F50008007F7D42078000722D5864F874861692B
:101F6000703771B101210160FFF7CEFD064604E034
:101F7000FFF7CAFD801B022809D838688007F7D50B
:101F80000EE0C0F800A0FFF7BFFD064605E082E0C6
:101F9000FFF7BAFD801B02287DD838688007F7D488
:101FA0002078400768D5DFF8CCB100270BF13C0B57
:101FB000DBF80000C0000BD4DBF8001041F08051CA
:101FC000CBF80010DBF80000012700F080500090F3
:101FD0006B4E3068C00510D4306840F480703060BB
:101FE000FFF792FD009005E0FFF78EFD0099401A83
:101FF000022850D83068C005F6D55E4EA0686C3611
:1020000001280FD00528306810D020F00100306082
:10201000306820F004003060A068B8B1FFF774FDAC
:1020200000900FE0306840F00100F4E740F0040059
:102030003060F7E7FFF768FD0099411A41F28830F8
:10204000814266D830688007F4D50EE0FFF75CFD6A
:10205000009007E0FFF758FD0099411A41F28830DF
:10206000814256D830688007F4D42FB1DBF80010D5
:1020700021F08051CBF80010A069C8B33D49091D7B
:102080000968C1F3810102294AD00228504607D0CD
:10209000C8F8600000E03CE0FFF736FD04463BE096
:1020A0004746C8F86000FFF72FFD064605E000BF71
:1020B000FFF72AFD801B02282BD828688001F7D45F
:1020C000D4E907010843A16A2E4A490802EB0141FD
:1020D000626A41EA8211084394F82C1040EA0161D7
:1020E000C9F8001001203866FFF70EFD044606E02F
:1020F0003EE000BFFFF708FD001B022809D8286852
:102100008001F7D534E000BFFFF7FEFC001B02287A
:1021100002D90320BDE8F88F28688001F4D427E0B5
:102120000128F7D0D9F80000E26900F4800191425B
:102130001CD1226A00F03F01914217D147F6C071CD
:10214000626A0140B1EB821F10D1A26A4FF0FF33E7
:1021500000F4403103EB5202B1EB024F06D194F888
:102160002C1000F07060B0EB016F01D00120D1E7BE
:102170000020CFE70438024000004742800E47426B
:10218000007000400000FFFF70B515460E460400C9
:1021900003D094F8490010B107E0012070BD002081
:1021A00084F84800204600F01DF804F1080120687A
:1021B000FFF700F93146A2682068FFF72FF9D4E94C
:1021C00001022946236BFFF7D7F82168A06851F870
:1021D000202042F0010241F82020012084F849002B
:1021E000002070BD194800B5016887B041F00101B9
:1021F0000160006800F0010005901448083801688B
:1022000041F008010160016801F0080105910168D1
:1022100041F0100101600068012100F010000590FC
:102220004CF2037000900220CDE9010103900C20D4
:10223000049069460648FFF765FB4FF680700090F2
:1022400069460448FFF75EFB07B000BD383802401E
:10225000000C02400010024010B5401EB0F1807F1B
:1022600001D3012010BD4FF0E02460610F21601701
:1022700000F0F0FD0020A06107202061002010BDCB
:1022800070477047F8B5016804460868CA684B692A
:1022900010F00F0F4FF0000559D003F0010602F4C3
:1022A0009077374365D0C10705D0D10503D5216CA0
:1022B00041F001012164410705D5D90703D0216C04
:1022C00041F002012164810705D5D90703D0216CB3
:1022D00041F004012164010707D502F020013143D8
:1022E00003D0216C41F008012164216C00293AD00F
:1022F000800604D5900602D5204600F0A6FB206893
:102300004069216CC0F38010090700D460B32046F7
:1023100000F074FB20684069400621D52068143025
:1023200050E8001F21F0400140E80012002AF5D1DA
:10233000A06BA8B16C490165A06BFFF7CEFA00282D
:1023400011D0A06B016D01B0BDE8F04008478306D5
:102350000FD593060DD52046BDE8F84000F075BBBB
:102360002046FFF78EFFF8BD2046FFF78AFF256461
:10237000F8BD266B2023012E79D1C60677D5D60667
:1023800075D50868486800904869400640D5A16B3B
:10239000086840680004000CEAD0A28D8242E7D9A8
:1023A000E085C869B0F5807F2DD020680C3050E8FA
:1023B000001F21F4807140E80012002AF5D1206846
:1023C000143050E8001F21F0010140E80012002AFB
:1023D000F5D12068143050E8001F21F0400140E89A
:1023E0000012002AF5D184F83E30256320680C30B5
:1023F00050E8001F21F0100140E80012002AF5D13A
:10240000A06BFFF721FAA08DE18D401A81B229E07F
:10241000A08DE18D401A81B2E08D0028A8D000295E
:10242000A6D020680C3050E8002F22F4907240E8CB
:102430000026002EF5D12068143050E8002F22F03D
:10244000010240E80026002EF5D184F83E302563D5
:1024500020680C3050E8002F22F0100240E80023E2
:10246000002BF5D12046FFF70BFFF8BDFFE705066F
:102470002BD5150629D594F83D002128F5D1A06863
:10248000B0F5805F01D12069B0B1206A411C2162A2
:10249000216800784860E08C401E0004000CE08455
:1024A000E3D12068C16821F08001C1602068C16863
:1024B00041F04001C160D8E7206A0088C0F30800FD
:1024C0004860206A801C2062E5E74006CDD55006B2
:1024D000CBD5CA68204622F04002CA6084F83D305D
:1024E00000F079F9C1E70000ED29000870B504009B
:1024F00004D094F83D00002510B106E0012070BD25
:1025000084F83C50204600F023F8242084F83D0055
:102510002068C16821F40051C160204600F0F6FA3D
:102520002068016921F4904101612068416921F02E
:102530002A0141612068C16841F40051C1602564ED
:10254000202084F83D0084F83E00002070BD00008B
:10255000F0B587B0044614216846FDF783FE314F7D
:10256000226800203049022303250726BA4225D1DC
:102570002D4A1432146844F010041460126802F0FA
:10258000100205920A6842F001020A60096802AA74
:1025900001F0010105916902CDE9001382E86100B3
:1025A00069462248FFF7AEF9032211462520FFF7BE
:1025B00019FB2520FFF708FB07B0F0BD1C4FBA42FE
:1025C000FAD1194A1032176847F480271760126849
:1025D00002F4802205920A6842F002020A60096849
:1025E00002AA01F0020105914FF44061CDE9001308
:1025F00082E8610069460F48FFF784F9002211461E
:102600002720FFF7EFFA2720FFF7DEFA2068C168DE
:1026100041F02001C1602068C16841F01001C16033
:10262000CAE70000001001403038024000000240BC
:1026300000480040000402402DE9F84F044690F89D
:102640003E009A4616460D46202853D1FDB1F6B1FC
:1026500094F83C0001284DD0012084F83C0000276C
:102660002764222084F83E002763FFF74DFAA685F1
:102670008146E685A0684FF48058404501D1206925
:1026800040B12E465FF0000584F83C7027E0012041
:10269000BDE8F88F0026F7E74B46002220212046B0
:1026A000CDF800A000F0D5FA08B10320F0E726B17C
:1026B000A06840451BD038B108E020684068C0F3EE
:1026C000080025F8020B07E0206980B12068406807
:1026D00000F07F0006F8010BE08D401EE085E08DE4
:1026E0000028D9D1202084F83E000020D0E72068BF
:1026F0004068EFE70220CBE790F83E30202B0ED168
:1027000059B152B190F83C30012B08D0012380F828
:102710003C300023036300F07FBA012070470220A1
:10272000704770472DE9F843044690F83D001F4676
:1027300016460D4620284CD1C5B1BEB194F83C00D8
:10274000012846D0012084F83C004FF00008C4F86E
:102750004080212084F83D00FFF7D6F9A684814609
:10276000E684A068B0F5805F03D004E00120BDE8F6
:10277000F883206928B12E465FF0000584F83C807C
:102780000EE00026FAE78021204600F062FAA0B9A8
:10279000AEB116F8010B21684860E08C401EE08461
:1027A000E08C4B464FF0000200970028EBD14FF031
:1027B0004001204600F04DFA30B10320D7E735F84C
:1027C000020BC0F30800E6E7202084F83D0000205B
:1027D000CDE70220CBE77047FEE770B50024254621
:1027E0000520FEF73DFE0444052002F07FF86D1C35
:1027F000EDB20A2DF4D30A20B4FBF0F04FF47A6165
:10280000884200D908462821B0FBF1F0C0F16400ED
:10281000C0B270BD7FB500241648009401940294A4
:102820001349039401604FF48031C0E90114C4607E
:102830000461446104760125C5610F4980F8204098
:10284000C0E90941C46280F83040FEF7CEFE08B10D
:10285000FEF790FD0520CDE9000569460294054884
:10286000FEF71AFE002801D0FEF784FD7FBD0000B0
:10287000002201409C0000200100000F114808B513
:10288000016841F020010160016801F02001009120
:10289000016841F080010160016801F08001009150
:1028A000016841F002010160016801F0020100913C
:1028B000016841F001010160006800F00100009032
:1028C00008BD0000303802400C4810B50A490160CC
:1028D0004FF4E1314160002181600C22C160C0E908
:1028E00004128161C161FFF701FE002803D0BDE839
:1028F0001040FEF73FBD10BD00100140E80500206C
:102900000C4810B50A4901604FF4E13141600021E3
:1029100081600C22C160C0E904128161C161FFF7CE
:10292000E5FD002803D0BDE81040FEF723BD10BD33
:10293000004800402C060020FEE7FEE77047704785
:10294000FFF7E8B830B593B030216846FDF78AFC50
:1029500014210CA8FDF786FC1E480025016841F0F3
:1029600080510160006800F0805011901A480168A1
:1029700041F4804101600068022400F4804011901D
:1029800001200090000401908001CDE9064008205C
:1029900008904FF4A870CDE9090404200B90684614
:1029A000FFF73CFA08B172B6FEE70CA90F2081E8E8
:1029B00031004FF4A0500F904FF48050109005213B
:1029C0000CA8FFF741F9002801D072B6FEE713B05A
:1029D00030BD0000403802400070004002480168ED
:1029E00041F470010160704788ED00E010B5806B24
:1029F0000021C185C184FFF744FC10BD01680C3182
:102A000051E8002F22F4907241E80023002BF5D109
:102A10000168143151E8002F22F0010241E800233F
:102A2000002BF5D1016B012909D101680C3151E866
:102A3000002F22F0100241E80023002BF5D12021C5
:102A400080F83E1000210163704708B590F83E10F1
:102A5000222901D0022008BD82684FF480539A4297
:102A600001D1016921B1816A9A421BD04AB10AE0C1
:102A70000268816A5268C2F308020A80816A891C6E
:102A800008E0026972B10268526802F07F020A70BF
:102A9000816A491C8162C18D491E0904090CC185E6
:102AA00003D019E002685268F1E70168CA6822F0B1
:102AB0002002CA600168CA6822F48072CA60016894
:102AC0004A6922F001024A61202180F83E10016B20
:102AD000012903D0FFF725FE002008BD0021016376
:102AE00001680C3151E8002F22F0100241E8002368
:102AF000002BF5D101680A68D20602D50A68496838
:102B00000091818DFFF7BCFBE6E7000070B504463D
:102B100000680169E26821F44051114301612169B3
:102B2000A068E26908436169114308432168CA68E3
:102B300049F20C639A430243CA6020684169A26962
:102B400021F440711143416131492068884202D02B
:102B50003049884202D1FFF721F901E0FFF70EF971
:102B6000E2690023192164253226B2F5004F62681C
:102B700028D0A0FB0101930F9200FDF723FB014633
:102B8000B0FBF5F06FF01802504301EB800006EB4C
:102B90000010B0FBF5F000F0F002B1FBF5F002EB35
:102BA0000012B1FBF5F06FF01803584301EB800001
:102BB00006EB0010B0FBF5F000F00F0021681044A8
:102BC000886070BDA0FB010192185B41FDF7FAFA25
:102BD0000146B0FBF5F00201B1FBF5F06FF0180310
:102BE000584301EB800006EBC000B0FBF5F000F0AD
:102BF000F80002EB4002B1FBF5F0584301EB800016
:102C000006EBC000B0FBF5F000F00700D6E70000CF
:102C1000001001400014014081628285C2850021BC
:102C20000164222280F83E2080F83C10016921B125
:102C30000168CA6842F48072CA6001684A6942F059
:102C400001024A610068C16841F02001C1600020B2
:102C500070472DE9F041984617460E460446069DFA
:102C600027E0681C25D02DB1FEF74EFFA0EB080031
:102C7000A8421ED920680C3050E8001F21F4D07102
:102C800040E80012002AF5D12068143050E8001FF7
:102C900021F0010140E80012002AF5D1202084F83B
:102CA0003D0084F83E00002084F83C000320BDE88D
:102CB000F0812068006836EA000004D00020B842A5
:102CC000CFD00020F3E70120F9E7000010B5054858
:102CD000FFF7D8FA012204490248FFF70DFD00284A
:102CE000F8D110BDE8050020100000207CB5224876
:102CF000FFF7C8FA204D28680168C943090704D4C2
:102D00000168416801910168416800681B4CC0433B
:102D1000800622D44FF0FF33012269461648FFF7A0
:102D20008BFCB4F800214FF40030C2F30E01FF29F0
:102D300002D29DF8002007E0D10BC903A4F80011CE
:102D40009DF80020C1F30E016254B4F8001100EBAD
:102D5000F1304FEA7040A4F8000128680168C943C7
:102D6000C90608D4B4F8001141F40041A4F80011D8
:102D70000168406801907CBD2C060020E400002022
:102D8000FEE700000FB4054B10B503A9044A0298F2
:102D900001F0D6F810BC5DF814FB0000494B0008A8
:102DA0000C0000200FB47CB50C0009AD01D0611EF1
:102DB00000E00021CDE90001064B6A46294608984B
:102DC00001F0BEF8002C02D0009A002111707CBCEA
:102DD0005DF814FB474600080FB4084B10B504A972
:102DE00002AA039801F0ACF8044602A9002001F001
:102DF00035FC204610BC5DF814FB00005D46000861
:102E000037B514460846064B6A46214601F098F845
:102E100004466946002001F021FC20463EBD00002A
:102E20005D46000803B401984100009850EAC120B3
:102E300018BF04204A0D18BF40F0010040F2FF7295
:102E4000B2EB515F08BF40F00200012808BF052027
:102E500002B070470907090E002804DB00F1E020EA
:102E600080F80014704700F00F0000F1E02080F8B7
:102E7000141D70472DED020B019820F000400190C9
:102E80009DED000B02B070472DE9F0412DED020BD6
:102E90009FED3D0B2DED028B9FED3D8BDDE9025447
:102EA000C4F30A50A0F2FF36142E37DA002E18DAD7
:102EB00053EC102B9DED020B51EC100BFDF74AFB70
:102EC00053EC182BFDF7CEFC57D2002CA4BF0024E6
:102ED000254652DA24F00040284318BF2E4C4CD02F
:102EE0001AE02E4820FA06F704EA070028431FD00C
:102EF00053EC102B9DED020B51EC100BFDF72AFB50
:102F000053EC182BFDF7AEFC37D2002C03DA4FF44C
:102F10008010F0400444BC4300252EE0332E07DC33
:102F2000A6F114004FF0FF3121FA00F73D4206D11F
:102F30009DED020BBDEC028B02B0BDE8F08153ECBD
:102F4000102B9DED020B51EC100BFDF7A7FB53EC82
:102F5000182BFDF787FC10D2002C0DDA142E08BFB9
:102F6000641C09D0C6F13400012101FA00F02844A4
:102F7000A84238BF641C0546BD43CDE902549DED0F
:102F8000020BD7E7000000009C7500883CE4377E08
:102F900000000000000000000000F0BFFFFF0F0075
:102FA0002DE9F04D2DED040B2DED0E8B96B0DDE9E6
:102FB0002550279CDDF890A025F0004624F000481D
:102FC000BAF1000F14BF0121002101EB4502FC49B9
:102FD00053184A1093422AD3002814BF0123002318
:102FE00003EB44030B44F7498B4220D358EA00011A
:102FF0009FEDF59B76D0DFF8D8B35D4503D1BAF1EC
:10300000000F05D188E0BAF1000F08BF002100D001
:10301000012101EB450111F5001F08D8002814BF5C
:103020000121002101EB440111F5001F0BD99DED99
:10303000261B9DED240B16B0BDEC0E8B04B0BDE835
:10304000F04D00F069BE0027002DBCBFE149884566
:1030500021DAE1498845A8BF02271CDAC3451ADCFA
:10306000DE4901EB2851142908DDC1F1340220FAB0
:1030700002F101FA02F282420DD108E058B9C1F121
:10308000140228FA02F101FA02F2424503D101F0DA
:103090000101C1F1020756EA0A0124D1002C22DA0B
:1030A000002D18BF022F01D0012F0AD0022000F0FE
:1030B0007FFE16B0BDEC0E8B04B0BDE8F04D00F005
:1030C00013BE022000F074FE00F00EFE51EC100B57
:1030D00081F0004141EC100B16B0BDEC0E8B04B03A
:1030E000BDE8F08D18E09FEDBEAB9FEDBF8B0028D3
:1030F00071D1B848804522D105F1804010F580108B
:1031000008BFBAF1000F07D0B3450ADC002CA8BFF6
:103110009DED260BE0DA0DE0B0EE490AF0EE690A0B
:10312000DAE7002C06DA9DED260B51EC100B81F04E
:1031300000416FE0AE48784490ED000BCCE7D845F5
:103140004DD1002C48DA2EB186423AD1BAF1000FA7
:1031500042D126E0BAF1000F13D0022000F028FE81
:1031600000F0F6FD8DED020B9DED240B8DED000BB7
:1031700010EE900A039961F31E0003909DED020B7F
:10318000AAE78DED02AB9DED240B1AEE901A10EE1E
:10319000900A8DED000B61F31E0003909DED020B74
:1031A0009AE78DED028B9DED240B18EE901A10EE30
:1031B000900A8DED000B61F31E0003909DED020B54
:1031C0008AE709DA9DED240B51EC190B53EC102B17
:1031D000FDF747FC1EE020E09DED240B7CE78642D6
:1031E0001BDAB4F1804F0DD0A4F10050B0F1FF50C4
:1031F00013D1002D11DB9DED240B51EC100B06F0CB
:103200003FF807E09DED240B53EC102B51EC100B15
:1032100000F0C2BC41EC100B5EE79DED240B51ECBD
:10322000100B01F085FCBAF1000FCDE90E0142D17F
:103230009FED710B46B3A6F1E040B0F17F600CD07A
:103240005E4538D1002D00DAA7B3022F0CBF012054
:103250004FF0FF30FDF797FADCE7002D01DD002C81
:103260000DDA002D01DD002C1FDB002D16DA002CFD
:1032700014DB012F08BF9FED620B3FF42DAFB0EEC2
:103280004A0AF0EE6A0A27E7022F18BF002D0CD079
:10329000012F0AD1002DFFF61FAF06E0002DB8BFA9
:1032A000002C08DA012F3FF417AFB0EE480AF0EE19
:1032B000680A11E71BE0012000EBE57050EA070106
:1032C00015D0791EB0EE498AF0EE698A084308BF2E
:1032D0009FED4D8B4E480025804570DD4D494E4891
:1032E000884514DDB0420DDB002C19DB2FE00120F6
:1032F00000F05EFD16B0BDEC0E8B04B0BDE8F04DE5
:1033000000F016BDB34502DC002C09DC1FE086424C
:1033100002DA002C1BDA03E05E452BDD002C16DD03
:10332000022000F045FD00F013FD8DED020B53EC83
:103330001A2B51EC180BFDF7B4F9CDE900010399F4
:10334000019861F31E0003909DED020BC4E602207C
:1033500000F02EFD00F00CFD10EE901A18EE900A11
:103360008DED020B8DED008B61F31E0003909DED42
:10337000020BB1E69DED0E0B53EC192B51EC100B2B
:10338000FDF789F99FED260BCDE9080153EC102BD1
:103390009DED080B51EC100BFDF783F99FED221BFF
:1033A00053EC112BFDF77AF99DED081B53EC112B13
:1033B000FDF777F99FED1E1B53EC112B3CE08CE0E1
:1033C000FFFF1F00FFFF0F00000000000000F03FA4
:1033D0000000F03F0000F07F0000404301FCFFFFD1
:1033E000000000000000F07F00000000000000006E
:1033F000DE920000000000000000000000000080DD
:10340000000000000000F0FF000000000000F0BF1E
:103410000000E0410000F043FFFFEF3F000000002C
:10342000000000000000D03F555555555555D53F7B
:10343000000000000000E03FFDF730F99DED080BB3
:1034400041EC1A0B53EC102B51EC100BFDF729F942
:1034500053EC1A2BFDF725F941EC1A0B9FEDFE0BEF
:1034600053EC102B9DED080B51EC100BFDF719F9E7
:1034700041EC1B0B9FEDFA0B51EC1A0B53EC102B8C
:10348000FDF70FF941EC1A0B9FEDF70B53EC102BE6
:103490009DED080B51EC100BFDF703F953EC1A2BC3
:1034A000FDF7F9F841EC1A0B51EC1B0B53EC1A2BFE
:1034B000FDF750F80690CDE906519DED060B53EC53
:1034C0001B2B51EC100BFDF7E6F853EC1A2BFDF714
:1034D000E5F841EC100B00F0A1B90020B6F5801F13
:1034E0000EDA9FEDE30B53EC102B9DED0E0B51EC20
:1034F000100BFDF7D6F8CDE90E016FF034000E4643
:1035000000EB2650A0F2FF37C6F31300DA4940F073
:103510007F6646F040568842D8BF002408DDD74970
:103520008142C8BF012403DC0024A6F580167F1C5D
:10353000D348784400EBC4000F9690ED00CB9DED8E
:103540000E0B53EC1C2B51EC100BFDF7A4F89DED6A
:103550000E0B41EC1B0B53EC1C2B51EC100BFCF72E
:10356000F9FF41EC100B51EC190B53EC102BFDF74C
:1035700078FA41EC1D0B51EC1B0B53EC1D2BFDF7A6
:1035800090F841EC1A0BBF488DED10AB78441095C4
:1035900090ED000B4FF0005040EA660000EB8440D5
:1035A0008DED080B00F5002009909DED080B53EC04
:1035B0001C2B51EC100BFDF76EF89DED0E1B53EC20
:1035C000112BFDF76BF841EC100B53EC102B9DED1C
:1035D000100B51EC100BFDF764F89DED080B41EC5E
:1035E0001C0B53EC102B9DED100B51EC100BFDF749
:1035F00058F853EC1B2BFDF751F853EC1C2BFDF73F
:103600004AF853EC1D2BFDF74CF841EC1C0B53EC26
:103610001A2B51EC1A0BFDF744F841EC1B0B9A489E
:103620000621B0EE4B0AF0EE6B0A784400F0E0FAA7
:10363000B0EE401AF0EE601AB0EE41DAF0EE61DA68
:1036400053EC1B2B51EC1B0BFDF72BF853EC1D2BF4
:10365000FDF727F89DED100B41EC1B0B53EC1A2BDB
:1036600051EC100BFCF776FF53EC1C2BFDF719F80F
:1036700053EC1B2BFCF76EFF9DED100B41EC1B0B6D
:1036800053EC102B51EC100BFDF70BF841EC1D0B1C
:103690009FED7FEB53EC1E2BFCF75CFF53EC1B2BD9
:1036A000FCF758FF0890CDE908519DED080B53EC4D
:1036B0001E2B51EC100BFCF7EEFF53EC1D2BFCF70F
:1036C000EAFF53EC1B2BFCF7E9FF9DED080B41ECE7
:1036D0001D0B53EC102B9DED100B51EC100BFCF758
:1036E000E0FF41EC1B0B53EC1A2B51EC1D0BFCF7CC
:1036F000D8FF9DED080B41EC1A0B53EC102B51EC4D
:103700001C0BFCF7CEFF53EC1A2BFCF723FF41EC0C
:103710001A0B51EC1B0B53EC1A2BFCF71BFF0C90F4
:10372000CDE90C519DED0C0B53EC1B2B51EC100B08
:10373000FCF7B1FF53EC1A2BFCF7B0FF41EC1B0B6D
:103740009FED550B53EC102B9DED0C0B51EC100B1A
:10375000FCF7A7FF41EC1A0B9FED510B51EC1B0B33
:1037600053EC102BFCF79DFF41EC1B0B9FED4E0B18
:1037700053EC102B9DED0C0B51EC100BFCF791FF53
:1037800053EC1B2BFCF7E6FE41EC100B4848784449
:1037900000EBC40090ED001B51EC100B53EC112B0F
:1037A000FCF7D8FE41EC1B0B3846FCF7ECFFCDE9EB
:1037B000080153EC1B2B51EC1A0BFCF7CBFE41EC30
:1037C000100B3C48784400EBC40090ED00CB51EC6A
:1037D000100B53EC1C2BFCF7BDFE9DED081B53ECAE
:1037E000112BFCF7B7FE0690CDE906519DED080BB5
:1037F00053EC102B9DED060B51EC100BFCF74BFF1F
:1038000053EC1C2BFCF747FF53EC1A2BFCF743FF40
:1038100053EC1B2BFCF742FF41EC100B9DED261BDC
:1038200053EC102B8DED001B00959DED260B51ECFC
:10383000100BFCF736FF9DED000B41EC1A0B53EC1F
:10384000102B9DED260B51EC100BFCF724FF9DED8A
:10385000061B53EC112B2FE0000000604715F73FCB
:10386000FE822B654715F73F44DF5DF80BAE543EF3
:1038700000000000000040438E9803007AB60B0061
:103880005A8E0000888E0000928D0000000000001B
:103890000000000000000840000000E009C7EE3F03
:1038A000FD033ADC09C7EE3FF5015B14E02F3EBE95
:1038B0001E8C0000D88B0000FCF7F3FE53EC1A2B93
:1038C000FCF748FE9DED060B41EC1A0B53EC102B58
:1038D0009DED000B51EC100BFCF7E3FECDE90C0164
:1038E0009DED0C0B51EC1A0B53EC102BFCF732FE38
:1038F000CDE902010C46AA498C422FDB611A08432C
:1039000018D19DED0C0B53EC102B9DED020B51ECDF
:10391000100BFCF7C0FE41EC1B0B9FEDA30B51EC11
:103920001A0B53EC102BFCF715FE53EC1B2BFCF77A
:1039300099FF2DD2022000F03BFA00F009FA10EEB8
:10394000901A18EE900A8DED020B8DED008B61F34D
:103950001E0003909DED020BFFF7BEBB944A24F0BE
:103960000041914214D39349214408437FF4EFACC2
:103970009DED0C0B53EC102B9DED020B51EC100B3D
:10398000FCF789FE53EC1A2BFCF76CFF7FF6DFACDB
:1039900024F000408849894A002601EB20518242E8
:1039A0002BDA481C4FF4801121FA00F02044844A9D
:1039B000C0F30A517A44A1F2FF3192ED000B814A23
:1039C0008DED080BCA4020EA0202C0F3130040F458
:1039D0008010C1F1140120FA01F60992002CB8BF41
:1039E00076429DED080B53EC102B9DED0C0B51EC2A
:1039F000100BFCF750FECDE90C019DED0C0B51ECCA
:103A00001A0B53EC102BFCF7A5FD9FED6F0B0890E4
:103A1000CDE9085153EC102B9DED080B51EC100B28
:103A2000FCF73FFE41EC1B0B9FED690B53EC102B99
:103A30009DED080B51EC100BFCF733FE9DED0C0BCC
:103A400041EC1C0B53EC102B9DED080B51EC100BB3
:103A5000FCF721FE53EC1A2BFCF720FE9FED5E1BBA
:103A600053EC112BFCF71DFE53EC1C2BFCF772FDE5
:103A700041EC1A0B51EC1B0B53EC1A2BFCF76AFDB3
:103A8000CDE902019DED020B53EC1B2B51EC100B09
:103A9000FCF701FE53EC1A2BFCF700FE9DED020B28
:103AA00041EC1A0B53EC102B51EC100BFCF7F9FD09
:103AB000CDE908014A489DED080B0521784400F046
:103AC00097F89DED081B51EC100B53EC112BFCF7F4
:103AD000E8FD9DED021B53EC112BFCF7DFFDCDE95A
:103AE00006019DED020B53EC1A2B51EC100BFCF769
:103AF000D8FD53EC1A2BFCF72DFD9FED3B0B41EC51
:103B00001A0B53EC102B9DED060B51EC100BFCF730
:103B1000C2FD9DED060B41EC1B0B53EC102B9DEDF4
:103B2000020B51EC100BFCF7BCFD53EC1B2BFCF70C
:103B300098FF53EC1A2BFCF7AEFD9DED021B53ECE6
:103B4000112BFCF7A8FD53EC192BFCF7A7FDCDE9D1
:103B5000020101EB065001150029C8BF039015DCD6
:103B60009DED020B324651EC100BFCF7E9FFFFF71D
:103B700059F9042808BF00F0FBF832469DED020B0E
:103B800051EC100BFCF7DCFFCDE902019DED020BBF
:103B900051EC180B53EC102BFCF783FDFFF73ABBED
:103BA0000000904000000000FE822B654715973C06
:103BB00000CC904000346F3F01FCFFFF0000E03F6D
:103BC000608A0000FFFF0F0000000000432EE63F68
:103BD000396CA80C615C20BEEF39FAFE422EE63F3C
:103BE00030890000000000000000000000000040DC
:103BF00070B504462DED028B4D1E00EBC500B0EEF6
:103C0000408AF0EE608A90ED000B35F0060017D088
:103C100053EC182B51EC100BFCF743FD41EC100B4F
:103C20006D1E04EBC50090ED001B51EC100B53EC26
:103C3000112BFCF78FFC41EC100B35F00600E7D19F
:103C4000022D36D0042D1CD0062D1CBFBDEC028BDE
:103C500070BD53EC182B51EC100BFCF722FD94EDCA
:103C60000A1B53EC112BFCF775FC53EC182BFCF7DB
:103C700018FD94ED081B53EC112BFCF76BFC41EC89
:103C8000100B53EC182B51EC100BFCF70AFD94EDC4
:103C9000061B53EC112BFCF75DFC53EC182BFCF7C7
:103CA00000FD94ED040B53EC102BFCF753FC41EC9E
:103CB000100B53EC182B51EC100BFCF7F2FC94EDAD
:103CC000021B53EC112BFCF745FC53EC182BFCF7B3
:103CD000E8FC94ED001B53EC112BFCF73BFCBDEC16
:103CE000028B41EC100B70BD9FED070B10B553EC30
:103CF000102B9FED070B51EC100BFCF7B2FE41ECC3
:103D0000100B10BD000000000000000000000000CB
:103D1000000000000000F03F10B553EC112B51ECF7
:103D2000100BFCF717FC41EC100B10BD000000005D
:103D30009FED050B10B553EC102B51EC100BFCF75D
:103D400090FE41EC100B10BD0000000000000000D0
:103D50009FED050B10B553EC102B51EC100BFCF73D
:103D6000A0FC41EC100B10BD000000000000007032
:103D70009FED050B10B553EC102B51EC100BFCF71D
:103D800090FC41EC100B10BD000000000000001082
:103D900002E008C8121F08C1002AFAD17047704714
:103DA000002001E001C1121F002AFBD17047000072
:103DB0000149086070470000380000202DE9FF5FCE
:103DC00082B00021DDE90430020DDDF840B003438C
:103DD00018D044F61050A2F2FF3242431514119845
:103DE00001281FD0A5EB0B00401C5FEA000A4FF032
:103DF00000064E4FDFF83891B046504615D5CAF14F
:103E0000000413E0119801244AA3012801D16FEAAC
:103E10000B010298119AC0E90031C0E9024206B0D4
:103E2000BDE8F09FCBF10000DFE704460021404AE7
:103E3000491842EB0450CDE9001012E0E00707D02A
:103E400032463B4640464946FCF72BFC80468946B5
:103E500032463B4610461946FCF723FC06460F4601
:103E60006410002CEAD1DDE90401DDE90023BAF198
:103E7000000F06DAFCF715FC42464B46FCF711FC36
:103E800005E0FCF7EEFD42464B46FCF7EAFD044632
:103E90000E460022284BFCF7E5FC03D84FF0FF301C
:103EA000014607E00022254B20463146FCF752FB35
:103EB000FCF75DFE102409E0002C0ADB0A22002337
:103EC000FCF780F9039B30321A55641E50EA010258
:103ED000F2D1641C039AC4F111031444119A012A0B
:103EE00003D0012208430DD10AE0084304D000208A
:103EF0004FF0110B119072E7A3EB0B056D1E0DE057
:103F00005B4504DD4FF0000205F1010504E003DA32
:103F10004FF00002A5F10105002AECD0029811999A
:103F2000C0E90231C0E9004579E700000000144013
:103F30000000F03F300000000000F0430000E03FD0
:103F40002DE9FF4F95B09A46884606460025EEE1DA
:103F5000252877D100242746F94A0121039400E05F
:103F6000044316F8013F203B01FA03F01042F7D159
:103F700030782A2811D06FF02F033078A0F130026A
:103F8000092A16D8039A44F0020402EB820203EBDA
:103F900042021044761C0390EFE758F8042B03927A
:103FA000002A03DA504244F40054039044F002041F
:103FB000761C30782E2816D116F8010F44F0040430
:103FC0002A280DD06FF02F023078A0F13003092B92
:103FD00009D807EB870302EB4303C718761CF3E706
:103FE00058F8047B761C30786C280FD006DC4C28FF
:103FF00017D068280DD06A2814D104E0742810D096
:104000007A280FD10DE044F400140AE044F480143F
:1040100001E044F440147278824202D104F5801425
:10402000761C761C307866280BD013DC582877D0A5
:1040300009DC002875D04528F6D04628F4D047285A
:104040001AD193E118E0632835D0642879D0652827
:1040500012D18BE1702873D008DC6728F1D0692871
:104060006FD06E280DD06F2806D1ACE073282CD00D
:10407000752874D0782853D05246179990476D1CF4
:1040800054E1C4F30250022809D003280DD0D8F817
:10409000001004280DD00D6008F1040846E1D8F89E
:1040A0000010EA17C1E90052F6E7D8F800100D80B9
:1040B000F2E70D70F0E718F8041B8DF800100020EF
:1040C0008DF80100EB46012003E058F804BB4FF0E7
:1040D000FF3061074FF0000102D40DE009F101014A
:1040E0008946B9420FDA8145F8DB1BF8091000292F
:1040F000F4D108E009F1010189468142FADB1BF89D
:1041000009100029F6D103985346A0EB0907214670
:104110003846179A00F080FA284400EB090507E0BA
:1041200044E008E10DE01BF8010B52461799904757
:10413000B9F10109F7D2534621463846179AF2E001
:1041400039E00A21C4F302524FF0000B0091022A19
:1041500006D058F8040BC117032A09D00AE023E05F
:1041600008F1070020F00702F2E80201904605E09E
:1041700000B2C117042A01D140B2C117002906DAE2
:104180000A460021404261EB02012D2202E0220595
:1041900004D52B228DF80420012203E0E20701D090
:1041A0002022F7E7914657E00A2100E010214FF066
:1041B000000B00910BE010214FF0000B44F00404C1
:1041C0000827009103E008204FF0000B0090C4F393
:1041D0000252022A05D058F8040B0021032A08D005
:1041E00008E008F1070020F00702F2E8020190461B
:1041F00003E080B2042A00D1C0B24FF000092207C8
:104200002AD53278702A07D0DDF800C08CF0100C67
:104210005CEA0B0C05D00EE040228DF80420012250
:1042200008E050EA010306D030238DF804308DF801
:10423000052002229146009B83F0080353EA0B03FA
:104240000AD150EA010201D1620705D530228DF86A
:1042500004204FF001097F1E3278582A04D039A279
:104260000C920CAA02920BE03BA2F9E75B46009A83
:10427000FBF7A8FF0C9B9B5C029A521E02921370E4
:1042800050EA0102F2D1029804A9081A00F1200BA9
:10429000600702D524F4803400E001275F4502DD89
:1042A000A7EB0B0000E0002000EB0B01009003984F
:1042B0004944401A0390E00306D453462146179A16
:1042C000039800F0A9F90544002706E001A852462A
:1042D000C05D179990476D1C7F1C4F45F6DBE003CE
:1042E0000CD553462146179A039800F095F90544DA
:1042F00004E030205246179990476D1C0099481EE3
:1043000000900029F5DC08E00298029952460078F6
:10431000491C0291179990476D1CBBF10001ABF14C
:10432000010BF1DC5BE100F065F90544761C3078A7
:1043300000287FF40DAE19B02846BDE8F08F0000CC
:10434000092801003031323334353637383961626B
:10435000636465660000000030313233343536372F
:10436000383941424344454600000000600700D40C
:10437000062708F1070020F00700F0E80223804636
:1043800003F0004C5FEA0C0001D097A009E0200583
:1043900001D596A005E0E00701D095A001E0AFF2BD
:1043A0004C001390307823F0004365280CD006DCD5
:1043B000452809D046281DD047287FD13BE06628F4
:1043C00018D067287AD136E00021112F01DB1120A7
:1043D00000E0781CCDE9000104A90CA8FFF7EEFC71
:1043E000DDE90D010C9A4FF0000B07F10109109265
:1043F00000914EE04FF000400097CDE9011004A974
:104400000CA8FFF7DBFCDDE90D020C9B0F994FF0C8
:10441000000B91461093009211B9791C00EB010931
:10442000B7EB090003D4C0F1FF3B07F10109A9EB89
:104430000700019042E0012F00DA01270021112F2F
:1044400001DD112000E03846CDE9000104A90CA8E7
:10445000FFF7B4FCDDE90D010C9A00914FF0000B61
:10446000B946109221070FD4009A4A4503DA9146C3
:1044700001E0A9F10109B9F1010F05DD109AA9F1D7
:104480000101515C3029F4D0B84202DA10F1040F76
:1044900003DA0121CDE9011010E0002803DC834498
:1044A000A9EB000102E0411C494500DD8946A0EB73
:1044B0000B00401C01904FF000400290200705D4F3
:1044C0000198484502DB4FF0FF30019000208DF845
:1044D0004B0002980DF14B07B0F1004F25D00220A0
:1044E0000C902B200D90029800280CDA404202908C
:1044F0002D200D9007E00A210298FCF7CBF930310E
:10450000029007F8011D0C99481E0C900029F2DC5E
:1045100002980028EFD1791E0D980870307800F0CD
:10452000200040F0450007F8020D11A8C01BC01D77
:1045300002901398007800B1012000EB0901019866
:1045400001EBE071029801440398401A401E039069
:10455000E00306D453462146179A039800F05CF80E
:1045600005441398007818B15246179990476D1C6E
:10457000E00323D553462146179A039800F04CF8E0
:1045800005441BE0BBF1000F07DB0098584504DD34
:104590001098179910F80B0001E017993020524637
:1045A000904701980BF1010B401E05F101050190A8
:1045B00004D12E205246179990476D1CB9F1000185
:1045C000A9F10109DEDC05E017F8010B5246179945
:1045D00090476D1C0299481E02900029F4DC534656
:1045E0002146179A03989EE62D0000002B0000003C
:1045F000200000002DE9F041044600251E46174624
:10460000880404D405E039462020B0476D1C641EA0
:10461000F9D52846BDE8F0812DE9F0410446002592
:104620001E469046C80301D5302700E020278804A5
:1046300004D505E041463846B0476D1C641EF9D5E7
:104640002846BDE8F0814A68002A06D00A68531C53
:104650000B6010704868401E486070470A68531C21
:104660000B601070704700000FB40A4810B503AA21
:104670000299FEF7C5FB0748FBF71BFE054982B20E
:104680004FF0FF3301F24640FEF74CF810BC5DF8E6
:1046900014FB0000E60100200649B1F80001020405
:1046A00005D5C0F30E0000220A54084670470020CA
:1046B00070470000E40000200348B0F800116FF3D9
:1046C0000F01A0F800117047E40000208268002963
:1046D00001D01AB981607047020002D0106800282A
:1046E000FAD111604A60704770B514000D46064655
:1046F0000ED0206A10B1074949688847284600F063
:10470000DBF8206221463046BDE87040FFF7DEBF8F
:1047100070BD00002400002010B500F065F80028EE
:1047200001D00521C16010BD10B52DED028BB0EE9A
:10473000408AF0EE608A00F057F8040008D00320A9
:10474000E06084ED068B51EC180BFCF73AF86061E1
:104750002046BDEC028B10BD10B500F045F80028D6
:1047600001D00621C16010BD70B5054600F03CF8CF
:10477000040005D00420E060284600F09DF8206188
:10478000204670BD70B504460F4E19E0A08925681B
:10479000C0050AD4A06820B1FFF7F4FFA089C005C6
:1047A00003D4206908B171688847A089800503D4C3
:1047B000206A08B1716888477168204688472C468E
:1047C000002CE3D170BD00002400002070B50D4620
:1047D000846800E024682CB12946206A00F04BF878
:1047E0000028F7D1204670BD054910B5096828207A
:1047F0008847040002D02821FBF734FD204610BD75
:104800002400002000221146AFF300802DE9F04182
:1048100090460E460446FFF7E7FF134F05004FF0A2
:104820000000B86015D0204604F020FD014628465F
:1048300003F05AFE04000FD0B8F1000F10D020464C
:1048400004F014FD0446007850B12846FFF79AFFA3
:10485000BC600020BDE8F0812846FFF793FFF8E731
:1048600006B134602846F5E72400002000231A46EC
:10487000194604F0D7BA70B505000C4601D00CB14A
:1048800008E009B1012070BD002070BD0028FCD0F7
:10489000641C6D1C2878FBF7C6FC06462078FBF7E5
:1048A000C2FC86422878F1D0FBF7BDFC0546207893
:1048B000FBF7B9FC281A70BD70B50646FBF7F9FC8A
:1048C0000649401C044609688847051E04D0224654
:1048D0003146FBF7AEFC284670BD000024000020E6
:1048E0000149086070470000000000204FF47A7111
:1048F000484300F001B8000070B54FF0E0240022FA
:1049000065690949A36909684843A1699942FCD0CE
:1049100002D2A3EB010302E0A5EB010633441A44E3
:104920000B468242F1D370BD000000202DE9F0411A
:10493000002425464FF40076124F04E0641CE4B2D4
:104940000120FFF7D9FF31463846FDF7D3F810B103
:10495000642CF3D30FE0642C0DD2002404E0641C1B
:10496000E4B20120FFF7C8FF31463846FDF7C2F830
:1049700028B1642C00D301252846BDE8F081642CC1
:10498000EDD3F8E7001802400E4800B5016887B083
:1049900041F0400101600068694600F04000059068
:1049A0004FF400700090112001900120029002202D
:1049B00003900548FCF7A6FF00F06AF8FFF7B6FF82
:1049C00007B000BD303802400018024070B5002426
:1049D0004FF40075134E04E0641CE4B20120FFF7AD
:1049E0008BFF29463046FDF785F808B1642CF3D3D8
:1049F000002404E0641CE4B20120FFF77DFF294697
:104A00003046FDF777F808B9642CF3D32820FFF778
:104A100073FF29463046FDF76DF8002800D00120CD
:104A200070BD0000001802402DE9FC478846814611
:104A300000F02EF8FFF77AFF10B10120BDE8FC87E7
:104A400000246F46002005464006060EFFF7BEFF15
:104A50006D1C3043EDB2082DF6D33855641CE4B21A
:104A6000052CEFD39DF800109DF801009DF8033050
:104A70000A189DF8020003441A449DF804309A4233
:104A800003D188F8001089F800000020D6E7000064
:104A900070B50A4D4FF40074002221462846FDF7F8
:104AA0002EF81420FFF722FF012221462846FDF7A9
:104AB00026F8BDE870401E20FFF71EBF0018024018
:104AC0002DE9F041040009D023683BB1A2685018D9
:104AD0006168814204DB9818BDE8F0810020FBE7A3
:104AE000401E40EA600040EAA00040EA20100F4F5C
:104AF00040EA202040EA2046761C39683046884744
:104B000005000BD0D4E90012FBF793FB796820680D
:104B10008847C4E90056A0682844DDE77968206822
:104B20008847002060602060D8E700002400002053
:104B300082B0CDE9000121F0004001909DED000B15
:104B400002B051EC100B704703490A685206FCD5BD
:104B5000C2B24A60704700000010014010B5002842
:104B600021D0114B0022001F196803E0814203D8B5
:104B70000A4649680029F9D152B11368841A9C4247
:104B800004D1006818441060104602E0506000E054
:104B9000186039B102680B1A934203D10B681A44AA
:104BA00002604968416010BD3000002070B50A49BC
:104BB0000646002408884D8821464543204602F0D9
:104BC0004BFF03F0D5F84FF0D84002E0A0F880602A
:104BD000641CAC42FAD370BD8C0000202DE9F04F6C
:104BE00038492C260A46887192884FF4305A4FF47F
:104BF000285B41F6631E2B274FF02A0C4FF0F0087C
:104C000045F210594FF448754FF4A0744FF4F07307
:104C100058B10C80A1F802804A4530D1A1F808A013
:104C2000A1F80AB03802888141E0A1F800804C80E8
:104C30004A4507D1A1F808A0A1F80AB04FF42C50BA
:104C4000888105E072450E8105D14F81A1F80CC025
:104C50000B804D8002E0A1F80AC08F81A2F5A6402A
:104C6000103803D0A2F5EE40963801D10C804B806D
:104C7000A2F5184006381FD10B804D801CE072450C
:104C800011D0A2F5184006380DD00E81A1F80AC047
:104C9000A1F80C70A2F5A64010380BD0A2F5EE409A
:104CA000963807D008E00E81A1F80AC08F810D80E8
:104CB0004B80EFE70B804C80BDE8F04F002002F006
:104CC00009BE00008C00002010B5144602F0C4FE9E
:104CD00003F04EF84FF0D840A0F8804010BD10B55A
:104CE000CF2003F039F8002003F02AF8C12003F0A8
:104CF00027F8302003F024F8ED2003F02DF864208D
:104D000003F01EF8032003F01BF8122003F018F83C
:104D1000812003F015F8E82003F01EF8852003F049
:104D20000FF8102003F00CF87A2003F009F8CB20DC
:104D300003F012F8392003F003F82C2003F000F8F8
:104D4000002002F0FDFF342002F0FAFF022002F002
:104D5000F7FFF72003F000F8202002F0F1FFEA202F
:104D600002F0FAFF002002F0EBFF002002F0E8FF63
:104D7000C02002F0F1FF1B2002F0E2FFC12002F090
:104D8000EBFF012002F0DCFFC52002F0E5FF302040
:104D900002F0D6FF302002F0D3FFC72002F0DCFF84
:104DA000B72002F0CDFF362002F0D6FF482002F0F7
:104DB000C7FF3A2002F0D0FF552002F0C1FFB1201A
:104DC00002F0CAFF002002F0BBFF1A2002F0B8FF79
:104DD000B62002F0C1FF0A2002F0B2FFA22002F0CA
:104DE000AFFFF22002F0B8FF002002F0A9FF26205A
:104DF00002F0B2FF012002F0A3FFE02002F0ACFFBE
:104E00000F2002F09DFF2A2002F09AFF282002F0D6
:104E100097FF082002F094FF0E2002F091FF082077
:104E200002F08EFF542002F08BFFA92002F088FFD1
:104E3000432002F085FF0A2002F082FF0F2002F0DB
:104E40007FFF002002F07CFF002002F079FF0020AD
:104E500002F076FF002002F073FFE12002F07CFFF9
:104E6000002002F06DFF152002F06AFF172002F00B
:104E700067FF072002F064FF112002F061FF0620A7
:104E800002F05EFF2B2002F05BFF562002F058FF7D
:104E90003C2002F055FF052002F052FF102002F0E6
:104EA0004FFF0F2002F04CFF3F2002F049FF3F2050
:104EB00002F046FF0F2002F043FF2B2002F04CFFD0
:104EC000002002F03DFF002002F03AFF012002F036
:104ED00037FF3F2002F034FF2A2002F03DFF002080
:104EE00002F02EFF002002F02BFF002002F028FF2E
:104EF000EF2002F025FF112002F02EFF7820FFF7AF
:104F0000F5FCBDE81040292002F026BF10B5FF20B7
:104F100002F022FFFF2002F013FF982002F010FFA2
:104F2000062002F00DFFBC2002F016FF012002F067
:104F300007FF0F2002F004FF612002F001FFFF20B5
:104F400002F0FEFE012002F0FBFE012002F0F8FE5E
:104F50000B2002F0F5FE102002F0F2FE372002F0E6
:104F6000EFFE632002F0ECFEFF2002F0E9FEFF20DE
:104F700002F0E6FE012002F0E3FE012002F0E0FE76
:104F8000002002F0DDFE002002F0DAFEFF2002F039
:104F9000D7FE522002F0D4FE012002F0D1FE002004
:104FA00002F0CEFE402002F0CBFEBD2002F0D4FE87
:104FB000012002F0C5FE232002F0C2FE452002F0CF
:104FC000BFFE672002F0BCFE012002F0B9FE2320E4
:104FD00002F0B6FE452002F0B3FE672002F0B0FEFC
:104FE000BE2002F0B9FE002002F0AAFE012002F06D
:104FF000A7FEAB2002F0A4FE602002F0A1FE22205A
:1050000002F09EFE222002F09BFE222002F098FE7B
:10501000222002F095FE222002F092FEC72002F02C
:105020009BFE362002F08CFEED2002F095FE7F20E4
:1050300002F086FE0F2002F083FEC02002F08CFEFC
:105040000F2002F07DFE0B2002F07AFE0A2002F013
:1050500077FEFC2002F080FE082002F071FEDF20C7
:1050600002F07AFE002002F06BFE002002F068FEE3
:10507000002002F065FE002002F062FE002002F037
:105080005FFE202002F05CFEF32002F065FE74203B
:1050900002F056FEB42002F05FFE002002F050FE47
:1050A000002002F04DFE002002F04AFEF72002F040
:1050B00053FE822002F044FEB12002F04DFE00209B
:1050C00002F03EFE132002F03BFE132002F038FEF9
:1050D000F22002F041FE802002F032FE042002F0B5
:1050E0002FFE402002F02CFE282002F029FEC120D5
:1050F00002F032FE172002F023FE882002F020FE8C
:10510000882002F01DFE202002F01AFEE02002F0AE
:1051100023FE002002F014FE0A2002F011FE1220ED
:1051200002F00EFE102002F00BFE0E2002F008FE30
:10513000202002F005FECC2002F002FE072002F043
:10514000FFFD062002F0FCFD0B2002F0F9FD0E2011
:1051500002F0F6FD0F2002F0F3FD0D2002F0F0FD4D
:10516000152002F0EDFD102002F0EAFD002002F013
:10517000E7FDE12002F0F0FD002002F0E1FD0B2050
:1051800002F0DEFD132002F0DBFD0D2002F0D8FD61
:105190000E2002F0D5FD1B2002F0D2FD712002F09E
:1051A000CFFD062002F0CCFD062002F0C9FD0A204A
:1051B00002F0C6FD0F2002F0C3FD0E2002F0C0FD7C
:1051C0000F2002F0BDFD152002F0BAFD0C2002F008
:1051D000B7FD002002F0B4FD2A2002F0BDFD002042
:1051E00002F0AEFD002002F0ABFD012002F0A8FDB0
:1051F000DF2002F0A5FD2B2002F0AEFD002002F022
:105200009FFD002002F09CFD032002F099FD1F206D
:1052100002F096FD3A2002F09FFD552002F090FD2D
:10522000362002F099FD002002F08AFD112002F0E4
:1052300093FD7820FFF75AFB292002F08DFD142002
:10524000FFF754FBBDE810402C2002F085BD10B5DF
:10525000ED2002F081FD012002F072FDFE2002F03F
:105260006FFDEE2002F078FDDE2002F069FD2120C6
:1052700002F066FDF12002F06FFD012002F060FDFA
:10528000DF2002F069FD102002F05AFDC42002F078
:1052900063FD8F2002F054FDC62002F05DFD00206A
:1052A00002F04EFDE22002F04BFDE22002F048FD4C
:1052B000E22002F045FDBF2002F04EFDAA2002F0E0
:1052C0003FFDB02002F048FD0D2002F039FD002026
:1052D00002F036FD0D2002F033FD002002F030FD1B
:1052E000112002F02DFD002002F02AFD192002F00D
:1052F00027FD002002F024FD212002F021FD0020E6
:1053000002F01EFD2D2002F01BFD002002F018FD12
:105310003D2002F015FD002002F012FD5D2002F09C
:105320000FFD002002F00CFD5D2002F009FD0020C1
:1053300002F006FDB12002F00FFD802002F000FD1A
:10534000002002F0FDFC8B2002F0FAFC002002F0AD
:10535000F7FC962002F0F4FC002002F0F1FCB220F1
:1053600002F0FAFC002002F0EBFC002002F0E8FC66
:10537000022002F0E5FC002002F0E2FC032002F033
:10538000DFFC002002F0DCFCB32002F0E5FC002092
:1053900002F0D6FC002002F0D3FC002002F0D0FC8A
:1053A000002002F0CDFC002002F0CAFC002002F038
:1053B000C7FC002002F0C4FC002002F0C1FC002069
:1053C00002F0BEFC002002F0BBFC002002F0B8FCA2
:1053D000002002F0B5FC002002F0B2FC002002F038
:1053E000AFFC002002F0ACFC002002F0A9FC002081
:1053F00002F0A6FC002002F0A3FC002002F0A0FCBA
:10540000002002F09DFC002002F09AFC002002F037
:1054100097FC002002F094FC002002F091FCB420E4
:1054200002F09AFC8B2002F08BFC002002F088FC3A
:10543000962002F085FC002002F082FCA12002F000
:105440007FFC002002F07CFCB52002F085FC0220ED
:1054500002F076FC002002F073FC032002F070FCE6
:10546000002002F06DFC042002F06AFC002002F033
:1054700067FCB62002F070FC002002F061FC002006
:1054800002F05EFCB72002F067FC002002F058FC3E
:10549000002002F055FC3F2002F052FC002002F0F8
:1054A0004FFC5E2002F04CFC002002F049FC64201E
:1054B00002F046FC002002F043FC8C2002F040FC8D
:1054C000002002F03DFCAC2002F03AFC002002F08B
:1054D00037FCDC2002F034FC002002F031FC7020AC
:1054E00002F02EFC002002F02BFC902002F028FCA1
:1054F000002002F025FCEB2002F022FC002002F04C
:105500001FFCDC2002F01CFC002002F019FCB8207B
:1055100002F022FC002002F013FC002002F010FC3C
:10552000002002F00DFC002002F00AFC002002F036
:1055300007FC002002F004FC002002F001FC002027
:1055400002F0FEFBBA2002F007FC242002F0F8FB78
:10555000002002F0F5FB002002F0F2FB002002F038
:10556000EFFBC12002F0F8FB202002F0E9FB002055
:1055700002F0E6FB542002F0E3FB002002F0E0FB27
:10558000FF2002F0DDFB002002F0DAFBC22002F077
:10559000E3FB0A2002F0D4FB002002F0D1FB042040
:1055A00002F0CEFB002002F0CBFBC32002F0D4FBC4
:1055B0003C2002F0C5FB002002F0C2FB3A2002F0C2
:1055C000BFFB002002F0BCFB392002F0B9FB002039
:1055D00002F0B6FB372002F0B3FB002002F0B0FB74
:1055E0003C2002F0ADFB002002F0AAFB362002F0C6
:1055F000A7FB002002F0A4FB322002F0A1FB002058
:1056000002F09EFB2F2002F09BFB002002F098FB93
:105610002C2002F095FB002002F092FB292002F0E2
:105620008FFB002002F08CFB262002F089FB00207B
:1056300002F086FB242002F083FB002002F080FBB6
:10564000242002F07DFB002002F07AFB232002F0F0
:1056500077FB002002F074FB3C2002F071FB00207D
:1056600002F06EFB362002F06BFB002002F068FBBC
:10567000322002F065FB002002F062FB2F2002F0D6
:105680005FFB002002F05CFB2C2002F059FB0020A5
:1056900002F056FB292002F053FB002002F050FBE1
:1056A000262002F04DFB002002F04AFB242002F0ED
:1056B00047FB002002F044FB242002F041FB0020C5
:1056C00002F03EFB232002F03BFB002002F038FBFF
:1056D000C42002F041FB622002F032FB002002F005
:1056E0002FFB052002F02CFB002002F029FB842078
:1056F00002F026FB002002F023FBF02002F020FB4A
:10570000002002F01DFB182002F01AFB002002F01E
:1057100017FBA42002F014FB002002F011FB18205C
:1057200002F00EFB002002F00BFB502002F008FB01
:10573000002002F005FB0C2002F002FB002002F02A
:10574000FFFA172002F0FCFA002002F0F9FA952087
:1057500002F0F6FA002002F0F3FAF32002F0F0FA79
:10576000002002F0EDFAE62002F0EAFA002002F052
:10577000E7FAC52002F0F0FA322002F0E1FA002048
:1057800002F0DEFA442002F0DBFA002002F0D8FA40
:10579000652002F0D5FA002002F0D2FA762002F05D
:1057A000CFFA002002F0CCFA882002F0C9FA0020DB
:1057B00002F0C6FAC62002F0CFFA202002F0C0FAAA
:1057C000002002F0BDFA172002F0BAFA002002F021
:1057D000B7FA012002F0B4FA002002F0B1FAC720B3
:1057E00002F0BAFA002002F0ABFA002002F0A8FAA8
:1057F000002002F0A5FA002002F0A2FAC82002F070
:10580000ABFA002002F09CFA002002F099FA002086
:1058100002F096FA002002F093FAC92002F09CFAF6
:10582000002002F08DFA002002F08AFA002002F037
:1058300087FA002002F084FA002002F081FA0020AA
:1058400002F07EFA002002F07BFA002002F078FAE3
:10585000002002F075FA002002F072FA002002F037
:105860006FFA002002F06CFA002002F069FA0020C2
:1058700002F066FA002002F063FA002002F060FAFB
:10588000E02002F069FA162002F05AFA002002F035
:1058900057FA1C2002F054FA002002F051FA21209D
:1058A00002F04EFA002002F04BFA362002F048FADD
:1058B000002002F045FA462002F042FA002002F0F1
:1058C0003FFA522002F03CFA002002F039FA64203C
:1058D00002F036FA002002F033FA7A2002F030FAB1
:1058E000002002F02DFA8B2002F02AFA002002F0AC
:1058F00027FA992002F024FA002002F021FAA820C9
:1059000002F01EFA002002F01BFAB92002F018FA89
:10591000002002F015FAC42002F012FA002002F072
:105920000FFACA2002F00CFA002002F009FAD22085
:1059300002F006FA002002F003FAD92002F000FA81
:10594000002002F0FDF9E02002F0FAF9002002F058
:10595000F7F9F32002F0F4F9002002F0F1F9E12068
:1059600002F0FAF9162002F0EBF9002002F0E8F953
:105970001C2002F0E5F9002002F0E2F9222002F0FA
:10598000DFF9002002F0DCF9362002F0D9F900201E
:1059900002F0D6F9452002F0D3F9002002F0D0F948
:1059A000522002F0CDF9002002F0CAF9642002F082
:1059B000C7F9002002F0C4F97A2002F0C1F90020F2
:1059C00002F0BEF98B2002F0BBF9002002F0B8F91A
:1059D000992002F0B5F9002002F0B2F9A82002F0F7
:1059E000AFF9002002F0ACF9B92002F0A9F90020CB
:1059F00002F0A6F9C42002F0A3F9002002F0A0F9F9
:105A0000CA2002F09DF9002002F09AF9D22002F09B
:105A100097F9002002F094F9D82002F091F90020C3
:105A200002F08EF9E02002F08BF9002002F088F9F4
:105A3000F32002F085F9002002F082F9E22002F062
:105A40008BF9052002F07CF9002002F079F90B2097
:105A500002F076F9002002F073F91B2002F070F9D1
:105A6000002002F06DF9342002F06AF9002002F003
:105A700067F9442002F064F9002002F061F94F2038
:105A800002F05EF9002002F05BF9612002F058F9A3
:105A9000002002F055F9792002F052F9002002F0BE
:105AA0004FF9882002F04CF9002002F049F99720C4
:105AB00002F046F9002002F043F9A62002F040F976
:105AC000002002F03DF9B72002F03AF9002002F080
:105AD00037F9C22002F034F9002002F031F9C72072
